{
  "contractName": "AttributeList",
  "abi": [
    {
      "inputs": [],
      "stateMutability": "nonpayable",
      "type": "constructor"
    },
    {
      "inputs": [
        {
          "internalType": "string",
          "name": "_attr",
          "type": "string"
        }
      ],
      "name": "addAttribute",
      "outputs": [],
      "stateMutability": "nonpayable",
      "type": "function"
    },
    {
      "inputs": [
        {
          "internalType": "bytes32",
          "name": "_key",
          "type": "bytes32"
        }
      ],
      "name": "exists",
      "outputs": [
        {
          "internalType": "bool",
          "name": "",
          "type": "bool"
        }
      ],
      "stateMutability": "view",
      "type": "function"
    },
    {
      "inputs": [],
      "name": "length",
      "outputs": [
        {
          "internalType": "uint256",
          "name": "_i",
          "type": "uint256"
        }
      ],
      "stateMutability": "view",
      "type": "function"
    },
    {
      "inputs": [
        {
          "internalType": "uint256",
          "name": "_i",
          "type": "uint256"
        }
      ],
      "name": "getAttributeNamebyIndex",
      "outputs": [
        {
          "internalType": "string",
          "name": "_name",
          "type": "string"
        }
      ],
      "stateMutability": "view",
      "type": "function"
    },
    {
      "inputs": [],
      "name": "attributeListInterface",
      "outputs": [],
      "stateMutability": "nonpayable",
      "type": "function"
    },
    {
      "inputs": [
        {
          "internalType": "bytes4",
          "name": "interfaceId",
          "type": "bytes4"
        }
      ],
      "name": "supportsInterface",
      "outputs": [
        {
          "internalType": "bool",
          "name": "",
          "type": "bool"
        }
      ],
      "stateMutability": "view",
      "type": "function"
    }
  ],
  "bytecode": "0x60806040523480156200001157600080fd5b506200004d7f59c90f4c78113146e4d8a6e557cd78d4bd8e2755541d48cf7cc6dd4e3de4d7a16001620005e860201b620003551790919060201c565b50620000897fa158e17ebc4965ed8c9b85d25f375572912c60a3c12039e7f9679819f11f91506001620005e860201b620003551790919060201c565b50620000c57fc2445e6f5d958f5dc04bb34fe7a861673f1031d71d7746402bf2b8191c39a6936001620005e860201b620003551790919060201c565b50620001017f54ccd43e3ca27da1335500f385233a6d05f06cf83c6df0355050a6c49d1375186001620005e860201b620003551790919060201c565b506200013d7f903d9f99424513828d680f57437884fc15c847b8ea40f3944ab7ea52737ed2cc6001620005e860201b620003551790919060201c565b50620001797f5ab7320c6b55264f30ceef9a86c3e4f3d40a4bb56a8e9fe086912169761c85aa6001620005e860201b620003551790919060201c565b50620001b57f5861dc4ebf1bf26bd1ba7f78cc4bbc181df20ee10629bb527885386391b6a55d6001620005e860201b620003551790919060201c565b50620001f17f5cb0db3ae4364bb6efc9e28574b8841c9a9e7b7a3f201ecedaae2dd2092cf7d36001620005e860201b620003551790919060201c565b506040518060400160405280600781526020017f454e474e414d45000000000000000000000000000000000000000000000000008152506000807f59c90f4c78113146e4d8a6e557cd78d4bd8e2755541d48cf7cc6dd4e3de4d7a1815260200190815260200160002090805190602001906200026f929190620006a4565b506040518060400160405280600781526020017f4348494e414d45000000000000000000000000000000000000000000000000008152506000807fa158e17ebc4965ed8c9b85d25f375572912c60a3c12039e7f9679819f11f915081526020019081526020016000209080519060200190620002ed929190620006a4565b506040518060400160405280600381526020017f444f4200000000000000000000000000000000000000000000000000000000008152506000807fc2445e6f5d958f5dc04bb34fe7a861673f1031d71d7746402bf2b8191c39a693815260200190815260200160002090805190602001906200036b929190620006a4565b506040518060400160405280600881526020017f49444e554d4245520000000000000000000000000000000000000000000000008152506000807f54ccd43e3ca27da1335500f385233a6d05f06cf83c6df0355050a6c49d13751881526020019081526020016000209080519060200190620003e9929190620006a4565b506040518060400160405280600681526020017f4d4f42494c4500000000000000000000000000000000000000000000000000008152506000807f903d9f99424513828d680f57437884fc15c847b8ea40f3944ab7ea52737ed2cc8152602001908152602001600020908051906020019062000467929190620006a4565b506040518060400160405280601081526020017f5245534944454e414c41444452455353000000000000000000000000000000008152506000807f5ab7320c6b55264f30ceef9a86c3e4f3d40a4bb56a8e9fe086912169761c85aa81526020019081526020016000209080519060200190620004e5929190620006a4565b506040518060400160405280600781526020017f4d4f42494c4532000000000000000000000000000000000000000000000000008152506000807f5861dc4ebf1bf26bd1ba7f78cc4bbc181df20ee10629bb527885386391b6a55d8152602001908152602001600020908051906020019062000563929190620006a4565b506040518060400160405280600781526020017f4d4f42494c4533000000000000000000000000000000000000000000000000008152506000807f5cb0db3ae4364bb6efc9e28574b8841c9a9e7b7a3f201ecedaae2dd2092cf7d381526020019081526020016000209080519060200190620005e1929190620006a4565b506200075a565b6000620005ff83600001836200060760201b60201c565b905092915050565b60006200061b83836200068160201b60201c565b620006765782600001829080600181540180825580915050600190039060005260206000200160009091909190915055826000018054905083600101600084815260200190815260200160002081905550600190506200067b565b600090505b92915050565b600080836001016000848152602001908152602001600020541415905092915050565b828054600181600116156101000203166002900490600052602060002090601f016020900481019282620006dc576000855562000728565b82601f10620006f757805160ff191683800117855562000728565b8280016001018555821562000728579182015b82811115620007275782518255916020019190600101906200070a565b5b5090506200073791906200073b565b5090565b5b80821115620007565760008160009055506001016200073c565b5090565b610a0e806200076a6000396000f3fe608060405234801561001057600080fd5b50600436106100625760003560e01c806301ffc9a7146100675780631f7b6d321461009757806338a699a4146100b55780633fe29da2146100e5578063f661e0af146100ef578063fafe34041461010b575b600080fd5b610081600480360381019061007c9190610651565b61013b565b60405161008e91906107bb565b60405180910390f35b61009f61016d565b6040516100ac9190610838565b60405180910390f35b6100cf60048036038101906100ca9190610628565b61017e565b6040516100dc91906107bb565b60405180910390f35b6100ed61019b565b005b6101096004803603810190610104919061067a565b61019d565b005b610125600480360381019061012091906106bb565b610243565b60405161013291906107d6565b60405180910390f35b6000633fe29da260e01b827bffffffffffffffffffffffffffffffffffffffffffffffffffffffff1916149050919050565b6000610179600161036c565b905090565b600061019482600161038190919063ffffffff16565b9050919050565b565b600081805190602001209050600015156101c182600161038190919063ffffffff16565b151514610203576040517f08c379a00000000000000000000000000000000000000000000000000000000081526004016101fa90610818565b60405180910390fd5b61021781600161035590919063ffffffff16565b5081600080838152602001908152602001600020908051906020019061023e9291906104d6565b505050565b606061024f600161036c565b8210610290576040517f08c379a0000000000000000000000000000000000000000000000000000000008152600401610287906107f8565b60405180910390fd5b6000806102a784600161039890919063ffffffff16565b81526020019081526020016000208054600181600116156101000203166002900480601f0160208091040260200160405190810160405280929190818152602001828054600181600116156101000203166002900480156103495780601f1061031e57610100808354040283529160200191610349565b820191906000526020600020905b81548152906001019060200180831161032c57829003601f168201915b50505050509050919050565b600061036483600001836103af565b905092915050565b600061037a8260000161041f565b9050919050565b60006103908360000183610430565b905092915050565b60006103a78360000183610453565b905092915050565b60006103bb8383610430565b610414578260000182908060018154018082558091505060019003906000526020600020016000909190919091505582600001805490508360010160008481526020019081526020016000208190555060019050610419565b600090505b92915050565b600081600001805490509050919050565b600080836001016000848152602001908152602001600020541415905092915050565b6000818360000180549050116104b4576040517f08c379a00000000000000000000000000000000000000000000000000000000081526004018080602001828103825260228152602001806109b76022913960400191505060405180910390fd5b8260000182815481106104c357fe5b9060005260206000200154905092915050565b828054600181600116156101000203166002900490600052602060002090601f01602090048101928261050c5760008555610553565b82601f1061052557805160ff1916838001178555610553565b82800160010185558215610553579182015b82811115610552578251825591602001919060010190610537565b5b5090506105609190610564565b5090565b5b8082111561057d576000816000905550600101610565565b5090565b600061059461058f84610884565b610853565b9050828152602081018484840111156105ac57600080fd5b6105b784828561091c565b509392505050565b6000813590506105ce81610971565b92915050565b6000813590506105e381610988565b92915050565b600082601f8301126105fa57600080fd5b813561060a848260208601610581565b91505092915050565b6000813590506106228161099f565b92915050565b60006020828403121561063a57600080fd5b6000610648848285016105bf565b91505092915050565b60006020828403121561066357600080fd5b6000610671848285016105d4565b91505092915050565b60006020828403121561068c57600080fd5b600082013567ffffffffffffffff8111156106a657600080fd5b6106b2848285016105e9565b91505092915050565b6000602082840312156106cd57600080fd5b60006106db84828501610613565b91505092915050565b6106ed816108d0565b82525050565b60006106fe826108b4565b61070881856108bf565b935061071881856020860161092b565b61072181610960565b840191505092915050565b60006107396004836108bf565b91507f414c3032000000000000000000000000000000000000000000000000000000006000830152602082019050919050565b60006107796003836108bf565b91507f41303100000000000000000000000000000000000000000000000000000000006000830152602082019050919050565b6107b581610912565b82525050565b60006020820190506107d060008301846106e4565b92915050565b600060208201905081810360008301526107f081846106f3565b905092915050565b600060208201905081810360008301526108118161072c565b9050919050565b600060208201905081810360008301526108318161076c565b9050919050565b600060208201905061084d60008301846107ac565b92915050565b6000604051905081810181811067ffffffffffffffff8211171561087a5761087961095e565b5b8060405250919050565b600067ffffffffffffffff82111561089f5761089e61095e565b5b601f19601f8301169050602081019050919050565b600081519050919050565b600082825260208201905092915050565b60008115159050919050565b6000819050919050565b60007fffffffff0000000000000000000000000000000000000000000000000000000082169050919050565b6000819050919050565b82818337600083830152505050565b60005b8381101561094957808201518184015260208101905061092e565b83811115610958576000848401525b50505050565bfe5b6000601f19601f8301169050919050565b61097a816108dc565b811461098557600080fd5b50565b610991816108e6565b811461099c57600080fd5b50565b6109a881610912565b81146109b357600080fd5b5056fe456e756d657261626c655365743a20696e646578206f7574206f6620626f756e6473a2646970667358221220a24a4e01b9e3816fdf563a022635fe8a3a73291f6385a5be92dda7883fa30dbc64736f6c63430007060033",
  "immutableReferences": {},
  "source": "pragma solidity >=0.7.0;\n// SPDX-License-Identifier: GPL-3.0-or-later\npragma abicoder v2;\nimport \"@openzeppelin/contracts/utils/EnumerableSet.sol\";\n\n\ncontract AttributeList {\n    \n    using EnumerableSet for EnumerableSet.Bytes32Set;\n    mapping(bytes32=>string) attributename;\n    EnumerableSet.Bytes32Set  attributeList;\n    \n\n    \n    constructor()\n    {\n        attributeList.add(keccak256(\"ENGNAME\"));\n        attributeList.add(keccak256(\"CHINAME\"));\n        attributeList.add(keccak256(\"DOB\"));\n        attributeList.add(keccak256(\"IDNUMBER\"));\n        attributeList.add(keccak256(\"MOBILE\"));\n        attributeList.add(keccak256(\"RESIDENALADDRESS\"));\n        attributeList.add(keccak256(\"MOBILE2\"));\n        attributeList.add(keccak256(\"MOBILE3\"));\n        \n        attributename[keccak256(\"ENGNAME\")]=\"ENGNAME\";\n        attributename[keccak256(\"CHINAME\")]=\"CHINAME\";\n        attributename[keccak256(\"DOB\")]=\"DOB\";\n        attributename[keccak256(\"IDNUMBER\")]=\"IDNUMBER\";\n        attributename[keccak256(\"MOBILE\")]=\"MOBILE\";\n        attributename[keccak256(\"RESIDENALADDRESS\")]=\"RESIDENALADDRESS\";\n        attributename[keccak256(\"MOBILE2\")]=\"MOBILE2\";\n        attributename[keccak256(\"MOBILE3\")]=\"MOBILE3\";\n        \n    }\n    \n    function addAttribute(string memory _attr) public{\n        bytes32 _key = keccak256(bytes(_attr));\n        require(attributeList.contains(_key)==false,\"A01\");\n        attributeList.add(_key);\n        attributename[_key]=_attr;\n    }\n    \n    \n    function exists(bytes32 _key) public view \n    returns(bool)\n    {\n        return attributeList.contains(_key);\n    }\n    \n    function length() public view\n    returns(uint256 _i ){\n        return attributeList.length();\n    }\n    \n    function getAttributeNamebyIndex(uint256 _i) public view\n    returns(string memory _name)\n    {\n        require(_i<attributeList.length(),\"AL02\");\n        return (attributename[attributeList.at(_i)]);\n    }\n    \n    function attributeListInterface() public{}\n    \n    \n    function supportsInterface(bytes4 interfaceId) public view returns (bool) {\n        return interfaceId == 0x3fe29da2;\n    }\n}",
  "sourcePath": "/home/dickchan/CIC/contracts/AssetContract/IndividualProfile/AttributeList.sol",
  "compiler": {
    "name": "solc",
    "version": "0.7.6+commit.7338295f.Emscripten.clang"
  },
  "schemaVersion": "3.2.3",
  "updatedAt": "2021-03-18T05:34:56.640Z",
  "devdoc": {
    "kind": "dev",
    "methods": {},
    "version": 1
  },
  "userdoc": {
    "kind": "user",
    "methods": {},
    "version": 1
  }
}