{
  "contractName": "OrgResolver",
  "abi": [
    {
      "inputs": [
        {
          "internalType": "contract ENS",
          "name": "_ens",
          "type": "address"
        }
      ],
      "stateMutability": "nonpayable",
      "type": "constructor"
    },
    {
      "anonymous": false,
      "inputs": [
        {
          "indexed": true,
          "internalType": "bytes32",
          "name": "node",
          "type": "bytes32"
        },
        {
          "indexed": true,
          "internalType": "uint256",
          "name": "contentType",
          "type": "uint256"
        }
      ],
      "name": "ABIChanged",
      "type": "event"
    },
    {
      "anonymous": false,
      "inputs": [
        {
          "indexed": true,
          "internalType": "bytes32",
          "name": "node",
          "type": "bytes32"
        },
        {
          "indexed": false,
          "internalType": "address",
          "name": "a",
          "type": "address"
        }
      ],
      "name": "AddrChanged",
      "type": "event"
    },
    {
      "anonymous": false,
      "inputs": [
        {
          "indexed": true,
          "internalType": "bytes32",
          "name": "node",
          "type": "bytes32"
        },
        {
          "indexed": false,
          "internalType": "uint256",
          "name": "coinType",
          "type": "uint256"
        },
        {
          "indexed": false,
          "internalType": "bytes",
          "name": "newAddress",
          "type": "bytes"
        }
      ],
      "name": "AddressChanged",
      "type": "event"
    },
    {
      "anonymous": false,
      "inputs": [
        {
          "indexed": true,
          "internalType": "bytes32",
          "name": "node",
          "type": "bytes32"
        },
        {
          "indexed": true,
          "internalType": "address",
          "name": "owner",
          "type": "address"
        },
        {
          "indexed": true,
          "internalType": "address",
          "name": "target",
          "type": "address"
        },
        {
          "indexed": false,
          "internalType": "bool",
          "name": "isAuthorised",
          "type": "bool"
        }
      ],
      "name": "AuthorisationChanged",
      "type": "event"
    },
    {
      "anonymous": false,
      "inputs": [
        {
          "indexed": true,
          "internalType": "bytes32",
          "name": "node",
          "type": "bytes32"
        },
        {
          "indexed": false,
          "internalType": "bytes",
          "name": "hash",
          "type": "bytes"
        }
      ],
      "name": "ContenthashChanged",
      "type": "event"
    },
    {
      "anonymous": false,
      "inputs": [
        {
          "indexed": true,
          "internalType": "bytes32",
          "name": "node",
          "type": "bytes32"
        },
        {
          "indexed": true,
          "internalType": "bytes4",
          "name": "interfaceID",
          "type": "bytes4"
        },
        {
          "indexed": false,
          "internalType": "address",
          "name": "implementer",
          "type": "address"
        }
      ],
      "name": "InterfaceChanged",
      "type": "event"
    },
    {
      "anonymous": false,
      "inputs": [
        {
          "indexed": true,
          "internalType": "bytes32",
          "name": "node",
          "type": "bytes32"
        },
        {
          "indexed": false,
          "internalType": "string",
          "name": "name",
          "type": "string"
        }
      ],
      "name": "NameChanged",
      "type": "event"
    },
    {
      "anonymous": false,
      "inputs": [
        {
          "indexed": true,
          "internalType": "bytes32",
          "name": "node",
          "type": "bytes32"
        },
        {
          "indexed": false,
          "internalType": "bytes32",
          "name": "x",
          "type": "bytes32"
        },
        {
          "indexed": false,
          "internalType": "bytes32",
          "name": "y",
          "type": "bytes32"
        }
      ],
      "name": "PubkeyChanged",
      "type": "event"
    },
    {
      "anonymous": false,
      "inputs": [
        {
          "indexed": true,
          "internalType": "bytes32",
          "name": "node",
          "type": "bytes32"
        },
        {
          "indexed": true,
          "internalType": "string",
          "name": "indexedKey",
          "type": "string"
        },
        {
          "indexed": false,
          "internalType": "string",
          "name": "key",
          "type": "string"
        }
      ],
      "name": "TextChanged",
      "type": "event"
    },
    {
      "inputs": [
        {
          "internalType": "bytes32",
          "name": "node",
          "type": "bytes32"
        },
        {
          "internalType": "uint256",
          "name": "contentTypes",
          "type": "uint256"
        }
      ],
      "name": "ABI",
      "outputs": [
        {
          "internalType": "uint256",
          "name": "",
          "type": "uint256"
        },
        {
          "internalType": "bytes",
          "name": "",
          "type": "bytes"
        }
      ],
      "stateMutability": "view",
      "type": "function"
    },
    {
      "inputs": [
        {
          "internalType": "bytes32",
          "name": "node",
          "type": "bytes32"
        }
      ],
      "name": "addr",
      "outputs": [
        {
          "internalType": "address payable",
          "name": "",
          "type": "address"
        }
      ],
      "stateMutability": "view",
      "type": "function"
    },
    {
      "inputs": [
        {
          "internalType": "bytes32",
          "name": "node",
          "type": "bytes32"
        },
        {
          "internalType": "uint256",
          "name": "coinType",
          "type": "uint256"
        }
      ],
      "name": "addr",
      "outputs": [
        {
          "internalType": "bytes",
          "name": "",
          "type": "bytes"
        }
      ],
      "stateMutability": "view",
      "type": "function"
    },
    {
      "inputs": [
        {
          "internalType": "bytes32",
          "name": "",
          "type": "bytes32"
        },
        {
          "internalType": "address",
          "name": "",
          "type": "address"
        },
        {
          "internalType": "address",
          "name": "",
          "type": "address"
        }
      ],
      "name": "authorisations",
      "outputs": [
        {
          "internalType": "bool",
          "name": "",
          "type": "bool"
        }
      ],
      "stateMutability": "view",
      "type": "function"
    },
    {
      "inputs": [
        {
          "internalType": "bytes32",
          "name": "node",
          "type": "bytes32"
        }
      ],
      "name": "contenthash",
      "outputs": [
        {
          "internalType": "bytes",
          "name": "",
          "type": "bytes"
        }
      ],
      "stateMutability": "view",
      "type": "function"
    },
    {
      "inputs": [
        {
          "internalType": "bytes32",
          "name": "node",
          "type": "bytes32"
        },
        {
          "internalType": "bytes4",
          "name": "interfaceID",
          "type": "bytes4"
        }
      ],
      "name": "interfaceImplementer",
      "outputs": [
        {
          "internalType": "address",
          "name": "",
          "type": "address"
        }
      ],
      "stateMutability": "view",
      "type": "function"
    },
    {
      "inputs": [
        {
          "internalType": "bytes[]",
          "name": "data",
          "type": "bytes[]"
        }
      ],
      "name": "multicall",
      "outputs": [
        {
          "internalType": "bytes[]",
          "name": "results",
          "type": "bytes[]"
        }
      ],
      "stateMutability": "nonpayable",
      "type": "function"
    },
    {
      "inputs": [
        {
          "internalType": "bytes32",
          "name": "node",
          "type": "bytes32"
        }
      ],
      "name": "name",
      "outputs": [
        {
          "internalType": "string",
          "name": "",
          "type": "string"
        }
      ],
      "stateMutability": "view",
      "type": "function"
    },
    {
      "inputs": [
        {
          "internalType": "bytes32",
          "name": "node",
          "type": "bytes32"
        }
      ],
      "name": "pubkey",
      "outputs": [
        {
          "internalType": "bytes32",
          "name": "x",
          "type": "bytes32"
        },
        {
          "internalType": "bytes32",
          "name": "y",
          "type": "bytes32"
        }
      ],
      "stateMutability": "view",
      "type": "function"
    },
    {
      "inputs": [
        {
          "internalType": "bytes32",
          "name": "node",
          "type": "bytes32"
        },
        {
          "internalType": "uint256",
          "name": "contentType",
          "type": "uint256"
        },
        {
          "internalType": "bytes",
          "name": "data",
          "type": "bytes"
        }
      ],
      "name": "setABI",
      "outputs": [],
      "stateMutability": "nonpayable",
      "type": "function"
    },
    {
      "inputs": [
        {
          "internalType": "bytes32",
          "name": "node",
          "type": "bytes32"
        },
        {
          "internalType": "uint256",
          "name": "coinType",
          "type": "uint256"
        },
        {
          "internalType": "bytes",
          "name": "a",
          "type": "bytes"
        }
      ],
      "name": "setAddr",
      "outputs": [],
      "stateMutability": "nonpayable",
      "type": "function"
    },
    {
      "inputs": [
        {
          "internalType": "bytes32",
          "name": "node",
          "type": "bytes32"
        },
        {
          "internalType": "address",
          "name": "a",
          "type": "address"
        }
      ],
      "name": "setAddr",
      "outputs": [],
      "stateMutability": "nonpayable",
      "type": "function"
    },
    {
      "inputs": [
        {
          "internalType": "bytes32",
          "name": "node",
          "type": "bytes32"
        },
        {
          "internalType": "address",
          "name": "target",
          "type": "address"
        },
        {
          "internalType": "bool",
          "name": "isAuthorised",
          "type": "bool"
        }
      ],
      "name": "setAuthorisation",
      "outputs": [],
      "stateMutability": "nonpayable",
      "type": "function"
    },
    {
      "inputs": [
        {
          "internalType": "bytes32",
          "name": "node",
          "type": "bytes32"
        },
        {
          "internalType": "bytes",
          "name": "hash",
          "type": "bytes"
        }
      ],
      "name": "setContenthash",
      "outputs": [],
      "stateMutability": "nonpayable",
      "type": "function"
    },
    {
      "inputs": [
        {
          "internalType": "bytes32",
          "name": "node",
          "type": "bytes32"
        },
        {
          "internalType": "bytes4",
          "name": "interfaceID",
          "type": "bytes4"
        },
        {
          "internalType": "address",
          "name": "implementer",
          "type": "address"
        }
      ],
      "name": "setInterface",
      "outputs": [],
      "stateMutability": "nonpayable",
      "type": "function"
    },
    {
      "inputs": [
        {
          "internalType": "bytes32",
          "name": "node",
          "type": "bytes32"
        },
        {
          "internalType": "string",
          "name": "name",
          "type": "string"
        }
      ],
      "name": "setName",
      "outputs": [],
      "stateMutability": "nonpayable",
      "type": "function"
    },
    {
      "inputs": [
        {
          "internalType": "bytes32",
          "name": "node",
          "type": "bytes32"
        },
        {
          "internalType": "bytes32",
          "name": "x",
          "type": "bytes32"
        },
        {
          "internalType": "bytes32",
          "name": "y",
          "type": "bytes32"
        }
      ],
      "name": "setPubkey",
      "outputs": [],
      "stateMutability": "nonpayable",
      "type": "function"
    },
    {
      "inputs": [
        {
          "internalType": "bytes32",
          "name": "node",
          "type": "bytes32"
        },
        {
          "internalType": "string",
          "name": "key",
          "type": "string"
        },
        {
          "internalType": "string",
          "name": "value",
          "type": "string"
        }
      ],
      "name": "setText",
      "outputs": [],
      "stateMutability": "nonpayable",
      "type": "function"
    },
    {
      "inputs": [
        {
          "internalType": "bytes32",
          "name": "node",
          "type": "bytes32"
        },
        {
          "internalType": "string",
          "name": "key",
          "type": "string"
        }
      ],
      "name": "text",
      "outputs": [
        {
          "internalType": "string",
          "name": "",
          "type": "string"
        }
      ],
      "stateMutability": "view",
      "type": "function"
    },
    {
      "inputs": [
        {
          "internalType": "bytes32",
          "name": "node",
          "type": "bytes32"
        },
        {
          "internalType": "bytes32",
          "name": "role",
          "type": "bytes32"
        }
      ],
      "name": "setRoles",
      "outputs": [],
      "stateMutability": "nonpayable",
      "type": "function"
    },
    {
      "inputs": [
        {
          "internalType": "bytes32",
          "name": "node",
          "type": "bytes32"
        },
        {
          "internalType": "bytes32",
          "name": "role",
          "type": "bytes32"
        }
      ],
      "name": "hasRole",
      "outputs": [
        {
          "internalType": "bool",
          "name": "",
          "type": "bool"
        }
      ],
      "stateMutability": "view",
      "type": "function"
    },
    {
      "inputs": [
        {
          "internalType": "bytes4",
          "name": "interfaceID",
          "type": "bytes4"
        }
      ],
      "name": "supportsInterface",
      "outputs": [
        {
          "internalType": "bool",
          "name": "",
          "type": "bool"
        }
      ],
      "stateMutability": "pure",
      "type": "function"
    }
  ],
  "bytecode": "0x60806040523480156200001157600080fd5b5060405162002c7438038062002c74833981810160405281019062000037919062000098565b8080600760006101000a81548173ffffffffffffffffffffffffffffffffffffffff021916908373ffffffffffffffffffffffffffffffffffffffff160217905550505062000126565b60008151905062000092816200010c565b92915050565b600060208284031215620000ab57600080fd5b6000620000bb8482850162000081565b91505092915050565b6000620000d182620000ec565b9050919050565b6000620000e582620000c4565b9050919050565b600073ffffffffffffffffffffffffffffffffffffffff82169050919050565b6200011781620000d8565b81146200012357600080fd5b50565b612b3e80620001366000396000f3fe608060405234801561001057600080fd5b50600436106101425760003560e01c8063691f3431116100b8578063c86902331161007c578063c8690233146103bc578063d5fa2b00146103ed578063e59d895d14610409578063f1cb7e0614610425578063f86bc87914610455578063fe3d72d91461048557610142565b8063691f3431146102f457806377372213146103245780638b95dd7114610340578063ac9650d81461035c578063bc1c58d11461038c57610142565b806329cd62ea1161010a57806329cd62ea14610224578063304e6ade146102405780633b3b57de1461025c5780633e9ce7941461028c57806359d1d43c146102a8578063623195b0146102d857610142565b806301ffc9a7146101475780630ca075d91461017757806310f13a8c146101a7578063124a319c146101c35780632203ab56146101f3575b600080fd5b610161600480360381019061015c919061255a565b6104a1565b60405161016e9190612798565b60405180910390f35b610191600480360381019061018c91906121fc565b610502565b60405161019e9190612798565b60405180910390f35b6101c160048036038101906101bc91906123c2565b61053e565b005b6101dd60048036038101906101d89190612287565b610624565b6040516101ea9190612740565b60405180910390f35b61020d6004803603810190610208919061244b565b610ae2565b60405161021b92919061283b565b60405180910390f35b61023e60048036038101906102399190612238565b610c2e565b005b61025a60048036038101906102559190612312565b610cc6565b005b610276600480360381019061027191906120f9565b610d66565b604051610283919061275b565b60405180910390f35b6102a660048036038101906102a191906121ad565b610d9c565b005b6102c260048036038101906102bd919061236a565b610eac565b6040516102cf9190612819565b60405180910390f35b6102f260048036038101906102ed9190612487565b610f88565b005b61030e600480360381019061030991906120f9565b611015565b60405161031b9190612819565b60405180910390f35b61033e6004803603810190610339919061236a565b6110ca565b005b61035a600480360381019061035591906124f3565b61116a565b005b610376600480360381019061037191906120b4565b6112c1565b6040516103839190612776565b60405180910390f35b6103a660048036038101906103a191906120f9565b6113e5565b6040516103b391906127f7565b60405180910390f35b6103d660048036038101906103d191906120f9565b61149a565b6040516103e49291906127ce565b60405180910390f35b61040760048036038101906104029190612122565b6114d4565b005b610423600480360381019061041e91906122c3565b611500565b005b61043f600480360381019061043a919061244b565b611628565b60405161044c91906127f7565b60405180910390f35b61046f600480360381019061046a919061215e565b6116ef565b60405161047c9190612798565b60405180910390f35b61049f600480360381019061049a91906121fc565b61172b565b005b600063136ff12d60e01b7bffffffffffffffffffffffffffffffffffffffffffffffffffffffff1916827bffffffffffffffffffffffffffffffffffffffffffffffffffffffff191614806104fb57506104fa82611780565b5b9050919050565b600060096000848152602001908152602001600020600083815260200190815260200160002060009054906101000a900460ff16905092915050565b8461054881611792565b61055157600080fd5b828260066000898152602001908152602001600020878760405180838380828437808301925050509250505090815260200160405180910390209190610598929190611d00565b5084846040518083838082843780830192505050925050506040518091039020867fd8c9334b1a9c2f9da342a0a2b32629c1a229b6445dad78947f674b44444a7550878760405180806020018281038252848482818152602001925080828437600081840152601f19601f820116905080830192505050935050505060405180910390a3505050505050565b600080600360008581526020019081526020016000206000847bffffffffffffffffffffffffffffffffffffffffffffffffffffffff19167bffffffffffffffffffffffffffffffffffffffffffffffffffffffff1916815260200190815260200160002060009054906101000a900473ffffffffffffffffffffffffffffffffffffffff169050600073ffffffffffffffffffffffffffffffffffffffff168173ffffffffffffffffffffffffffffffffffffffff16146106e95780915050610adc565b60006106f485610d66565b9050600073ffffffffffffffffffffffffffffffffffffffff168173ffffffffffffffffffffffffffffffffffffffff16141561073657600092505050610adc565b6000808273ffffffffffffffffffffffffffffffffffffffff166301ffc9a760e01b60405160240180827bffffffffffffffffffffffffffffffffffffffffffffffffffffffff191681526020019150506040516020818303038152906040527f01ffc9a7000000000000000000000000000000000000000000000000000000007bffffffffffffffffffffffffffffffffffffffffffffffffffffffff19166020820180517bffffffffffffffffffffffffffffffffffffffffffffffffffffffff83818316178352505050506040518082805190602001908083835b602083106108375780518252602082019150602081019050602083039250610814565b6001836020036101000a038019825116818451168082178552505050505050905001915050600060405180830381855afa9150503d8060008114610897576040519150601f19603f3d011682016040523d82523d6000602084013e61089c565b606091505b50915091508115806108af575060208151105b806108f65750600060f81b81601f815181106108c757fe5b602001015160f81c60f81b7effffffffffffffffffffffffffffffffffffffffffffffffffffffffffffff1916145b15610908576000945050505050610adc565b8273ffffffffffffffffffffffffffffffffffffffff168660405160240180827bffffffffffffffffffffffffffffffffffffffffffffffffffffffff191681526020019150506040516020818303038152906040527f01ffc9a7000000000000000000000000000000000000000000000000000000007bffffffffffffffffffffffffffffffffffffffffffffffffffffffff19166020820180517bffffffffffffffffffffffffffffffffffffffffffffffffffffffff83818316178352505050506040518082805190602001908083835b602083106109ff57805182526020820191506020810190506020830392506109dc565b6001836020036101000a038019825116818451168082178552505050505050905001915050600060405180830381855afa9150503d8060008114610a5f576040519150601f19603f3d011682016040523d82523d6000602084013e610a64565b606091505b508092508193505050811580610a7b575060208151105b80610ac25750600060f81b81601f81518110610a9357fe5b602001015160f81c60f81b7effffffffffffffffffffffffffffffffffffffffffffffffffffffffffffff1916145b15610ad4576000945050505050610adc565b829450505050505b92915050565b60006060600080600086815260200190815260200160002090506000600190505b848111610c0e57600085821614158015610b4357506000826000838152602001908152602001600020805460018160011615610100020316600290049050115b15610c025780826000838152602001908152602001600020808054600181600116156101000203166002900480601f016020809104026020016040519081016040528092919081815260200182805460018160011615610100020316600290048015610bf05780601f10610bc557610100808354040283529160200191610bf0565b820191906000526020600020905b815481529060010190602001808311610bd357829003601f168201915b50505050509050935093505050610c27565b600181901b9050610b03565b5060006040518060200160405280600081525092509250505b9250929050565b82610c3881611792565b610c4157600080fd5b604051806040016040528084815260200183815250600560008681526020019081526020016000206000820151816000015560208201518160010155905050837f1d6f5e03d3f63eb58751986629a5439baee5079ff04f345becb66e23eb154e468484604051808381526020018281526020019250505060405180910390a250505050565b82610cd081611792565b610cd957600080fd5b8282600260008781526020019081526020016000209190610cfb929190611d8e565b50837fe379c1624ed7e714cc0937528a32359d69d5281337765313dba4e081b72d7578848460405180806020018281038252848482818152602001925080828437600081840152601f19601f820116905080830192505050935050505060405180910390a250505050565b600080610d7483603c611628565b9050600081511415610d8a576000915050610d97565b610d938161191b565b9150505b919050565b806008600085815260200190815260200160002060003373ffffffffffffffffffffffffffffffffffffffff1673ffffffffffffffffffffffffffffffffffffffff16815260200190815260200160002060008473ffffffffffffffffffffffffffffffffffffffff1673ffffffffffffffffffffffffffffffffffffffff16815260200190815260200160002060006101000a81548160ff0219169083151502179055508173ffffffffffffffffffffffffffffffffffffffff163373ffffffffffffffffffffffffffffffffffffffff16847fe1c5610a6e0cbe10764ecd182adcef1ec338dc4e199c99c32ce98f38e12791df84604051610e9f9190612798565b60405180910390a4505050565b606060066000858152602001908152602001600020838360405180838380828437808301925050509250505090815260200160405180910390208054600181600116156101000203166002900480601f016020809104026020016040519081016040528092919081815260200182805460018160011615610100020316600290048015610f7a5780601f10610f4f57610100808354040283529160200191610f7a565b820191906000526020600020905b815481529060010190602001808311610f5d57829003601f168201915b505050505090509392505050565b83610f9281611792565b610f9b57600080fd5b600084600186031614610fad57600080fd5b828260008088815260200190815260200160002060008781526020019081526020016000209190610fdf929190611d8e565b5083857faa121bbeef5f32f5961a2a28966e769023910fc9479059ee3495d4c1a696efe360405160405180910390a35050505050565b6060600460008381526020019081526020016000208054600181600116156101000203166002900480601f0160208091040260200160405190810160405280929190818152602001828054600181600116156101000203166002900480156110be5780601f10611093576101008083540402835291602001916110be565b820191906000526020600020905b8154815290600101906020018083116110a157829003601f168201915b50505050509050919050565b826110d481611792565b6110dd57600080fd5b82826004600087815260200190815260200160002091906110ff929190611d00565b50837fb7d29e911041e8d9b843369e890bcb72c9388692ba48b65ac54e7214c4c348f7848460405180806020018281038252848482818152602001925080828437600081840152601f19601f820116905080830192505050935050505060405180910390a250505050565b8261117481611792565b61117d57600080fd5b837f65412581168e88a1e60c6459d7f44ae83ad0832e670826c05a4e2476b57af75284846040518083815260200180602001828103825283818151815260200191508051906020019080838360005b838110156111e75780820151818401526020810190506111cc565b50505050905090810190601f1680156112145780820380516001836020036101000a031916815260200191505b50935050505060405180910390a2603c83141561128257837f52d7d861f09ab3d26239d492e8968629f95e9e318cf0b73bfddc441522a15fd26112568461191b565b604051808273ffffffffffffffffffffffffffffffffffffffff16815260200191505060405180910390a25b8160016000868152602001908152602001600020600085815260200190815260200160002090805190602001906112ba929190611e1c565b5050505050565b60608282905067ffffffffffffffff811180156112dd57600080fd5b5060405190808252806020026020018201604052801561131157816020015b60608152602001906001900390816112fc5790505b50905060005b838390508110156113de576000803073ffffffffffffffffffffffffffffffffffffffff1686868581811061134857fe5b905060200281019061135a919061286b565b604051611368929190612727565b600060405180830381855af49150503d80600081146113a3576040519150601f19603f3d011682016040523d82523d6000602084013e6113a8565b606091505b5091509150816113b757600080fd5b808484815181106113c457fe5b602002602001018190525050508080600101915050611317565b5092915050565b6060600260008381526020019081526020016000208054600181600116156101000203166002900480601f01602080910402602001604051908101604052809291908181526020018280546001816001161561010002031660029004801561148e5780601f106114635761010080835404028352916020019161148e565b820191906000526020600020905b81548152906001019060200180831161147157829003601f168201915b50505050509050919050565b6000806005600084815260200190815260200160002060000154600560008581526020019081526020016000206001015491509150915091565b816114de81611792565b6114e757600080fd5b6114fb83603c6114f68561193e565b61116a565b505050565b8261150a81611792565b61151357600080fd5b81600360008681526020019081526020016000206000857bffffffffffffffffffffffffffffffffffffffffffffffffffffffff19167bffffffffffffffffffffffffffffffffffffffffffffffffffffffff1916815260200190815260200160002060006101000a81548173ffffffffffffffffffffffffffffffffffffffff021916908373ffffffffffffffffffffffffffffffffffffffff160217905550827bffffffffffffffffffffffffffffffffffffffffffffffffffffffff1916847f7c69f06bea0bdef565b709e93a147836b0063ba2dd89f02d0b7e8d931e6a6daa84604051808273ffffffffffffffffffffffffffffffffffffffff16815260200191505060405180910390a350505050565b60606001600084815260200190815260200160002060008381526020019081526020016000208054600181600116156101000203166002900480601f0160208091040260200160405190810160405280929190818152602001828054600181600116156101000203166002900480156116e25780601f106116b7576101008083540402835291602001916116e2565b820191906000526020600020905b8154815290600101906020018083116116c557829003601f168201915b5050505050905092915050565b6008602052826000526040600020602052816000526040600020602052806000526040600020600092509250509054906101000a900460ff1681565b8161173581611792565b61173e57600080fd5b600160096000858152602001908152602001600020600084815260200190815260200160002060006101000a81548160ff021916908315150217905550505050565b600061178b826119a0565b9050919050565b600080600760009054906101000a900473ffffffffffffffffffffffffffffffffffffffff1673ffffffffffffffffffffffffffffffffffffffff166302571be3846040518263ffffffff1660e01b81526004016117f091906127b3565b60206040518083038186803b15801561180857600080fd5b505afa15801561181c573d6000803e3d6000fd5b505050506040513d601f19601f82011682018060405250810190611840919061208b565b90503373ffffffffffffffffffffffffffffffffffffffff168173ffffffffffffffffffffffffffffffffffffffff16148061191357506008600084815260200190815260200160002060008273ffffffffffffffffffffffffffffffffffffffff1673ffffffffffffffffffffffffffffffffffffffff16815260200190815260200160002060003373ffffffffffffffffffffffffffffffffffffffff1673ffffffffffffffffffffffffffffffffffffffff16815260200190815260200160002060009054906101000a900460ff165b915050919050565b6000601482511461192b57600080fd5b600c6101000a6020830151049050919050565b6060601467ffffffffffffffff8111801561195857600080fd5b506040519080825280601f01601f19166020018201604052801561198b5781602001600182028036833780820191505090505b509050600c6101000a82026020820152919050565b60006359d1d43c60e01b7bffffffffffffffffffffffffffffffffffffffffffffffffffffffff1916827bffffffffffffffffffffffffffffffffffffffffffffffffffffffff191614806119fa57506119f982611a01565b5b9050919050565b600063c869023360e01b7bffffffffffffffffffffffffffffffffffffffffffffffffffffffff1916827bffffffffffffffffffffffffffffffffffffffffffffffffffffffff19161480611a5b5750611a5a82611a62565b5b9050919050565b600063691f343160e01b7bffffffffffffffffffffffffffffffffffffffffffffffffffffffff1916827bffffffffffffffffffffffffffffffffffffffffffffffffffffffff19161480611abc5750611abb82611ac3565b5b9050919050565b60007f124a319c1247f4318c3c16c7e9cc865d0fb5d80d7bf02f56cafc0d14da0208507bffffffffffffffffffffffffffffffffffffffffffffffffffffffff1916827bffffffffffffffffffffffffffffffffffffffffffffffffffffffff19161480611b365750611b3582611b3d565b5b9050919050565b600063bc1c58d160e01b7bffffffffffffffffffffffffffffffffffffffffffffffffffffffff1916827bffffffffffffffffffffffffffffffffffffffffffffffffffffffff19161480611b975750611b9682611b9e565b5b9050919050565b6000633b3b57de60e01b7bffffffffffffffffffffffffffffffffffffffffffffffffffffffff1916827bffffffffffffffffffffffffffffffffffffffffffffffffffffffff19161480611c37575063f1cb7e0660e01b7bffffffffffffffffffffffffffffffffffffffffffffffffffffffff1916827bffffffffffffffffffffffffffffffffffffffffffffffffffffffff1916145b80611c475750611c4682611c4e565b5b9050919050565b6000632203ab5660e01b7bffffffffffffffffffffffffffffffffffffffffffffffffffffffff1916827bffffffffffffffffffffffffffffffffffffffffffffffffffffffff19161480611ca85750611ca782611caf565b5b9050919050565b60006301ffc9a760e01b7bffffffffffffffffffffffffffffffffffffffffffffffffffffffff1916827bffffffffffffffffffffffffffffffffffffffffffffffffffffffff1916149050919050565b828054600181600116156101000203166002900490600052602060002090601f016020900481019282611d365760008555611d7d565b82601f10611d4f57803560ff1916838001178555611d7d565b82800160010185558215611d7d579182015b82811115611d7c578235825591602001919060010190611d61565b5b509050611d8a9190611eaa565b5090565b828054600181600116156101000203166002900490600052602060002090601f016020900481019282611dc45760008555611e0b565b82601f10611ddd57803560ff1916838001178555611e0b565b82800160010185558215611e0b579182015b82811115611e0a578235825591602001919060010190611def565b5b509050611e189190611eaa565b5090565b828054600181600116156101000203166002900490600052602060002090601f016020900481019282611e525760008555611e99565b82601f10611e6b57805160ff1916838001178555611e99565b82800160010185558215611e99579182015b82811115611e98578251825591602001919060010190611e7d565b5b509050611ea69190611eaa565b5090565b5b80821115611ec3576000816000905550600101611eab565b5090565b6000611eda611ed5846128f3565b6128c2565b905082815260208101848484011115611ef257600080fd5b611efd848285612a40565b509392505050565b600081359050611f1481612a95565b92915050565b600081519050611f2981612a95565b92915050565b60008083601f840112611f4157600080fd5b8235905067ffffffffffffffff811115611f5a57600080fd5b602083019150836020820283011115611f7257600080fd5b9250929050565b600081359050611f8881612aac565b92915050565b600081359050611f9d81612ac3565b92915050565b600081359050611fb281612ada565b92915050565b60008083601f840112611fca57600080fd5b8235905067ffffffffffffffff811115611fe357600080fd5b602083019150836001820283011115611ffb57600080fd5b9250929050565b600082601f83011261201357600080fd5b8135612023848260208601611ec7565b91505092915050565b60008083601f84011261203e57600080fd5b8235905067ffffffffffffffff81111561205757600080fd5b60208301915083600182028301111561206f57600080fd5b9250929050565b60008135905061208581612af1565b92915050565b60006020828403121561209d57600080fd5b60006120ab84828501611f1a565b91505092915050565b600080602083850312156120c757600080fd5b600083013567ffffffffffffffff8111156120e157600080fd5b6120ed85828601611f2f565b92509250509250929050565b60006020828403121561210b57600080fd5b600061211984828501611f8e565b91505092915050565b6000806040838503121561213557600080fd5b600061214385828601611f8e565b925050602061215485828601611f05565b9150509250929050565b60008060006060848603121561217357600080fd5b600061218186828701611f8e565b935050602061219286828701611f05565b92505060406121a386828701611f05565b9150509250925092565b6000806000606084860312156121c257600080fd5b60006121d086828701611f8e565b93505060206121e186828701611f05565b92505060406121f286828701611f79565b9150509250925092565b6000806040838503121561220f57600080fd5b600061221d85828601611f8e565b925050602061222e85828601611f8e565b9150509250929050565b60008060006060848603121561224d57600080fd5b600061225b86828701611f8e565b935050602061226c86828701611f8e565b925050604061227d86828701611f8e565b9150509250925092565b6000806040838503121561229a57600080fd5b60006122a885828601611f8e565b92505060206122b985828601611fa3565b9150509250929050565b6000806000606084860312156122d857600080fd5b60006122e686828701611f8e565b93505060206122f786828701611fa3565b925050604061230886828701611f05565b9150509250925092565b60008060006040848603121561232757600080fd5b600061233586828701611f8e565b935050602084013567ffffffffffffffff81111561235257600080fd5b61235e86828701611fb8565b92509250509250925092565b60008060006040848603121561237f57600080fd5b600061238d86828701611f8e565b935050602084013567ffffffffffffffff8111156123aa57600080fd5b6123b68682870161202c565b92509250509250925092565b6000806000806000606086880312156123da57600080fd5b60006123e888828901611f8e565b955050602086013567ffffffffffffffff81111561240557600080fd5b6124118882890161202c565b9450945050604086013567ffffffffffffffff81111561243057600080fd5b61243c8882890161202c565b92509250509295509295909350565b6000806040838503121561245e57600080fd5b600061246c85828601611f8e565b925050602061247d85828601612076565b9150509250929050565b6000806000806060858703121561249d57600080fd5b60006124ab87828801611f8e565b94505060206124bc87828801612076565b935050604085013567ffffffffffffffff8111156124d957600080fd5b6124e587828801611fb8565b925092505092959194509250565b60008060006060848603121561250857600080fd5b600061251686828701611f8e565b935050602061252786828701612076565b925050604084013567ffffffffffffffff81111561254457600080fd5b61255086828701612002565b9150509250925092565b60006020828403121561256c57600080fd5b600061257a84828501611fa3565b91505092915050565b600061258f838361266d565b905092915050565b6125a0816129c2565b82525050565b6125af816129b0565b82525050565b60006125c082612933565b6125ca8185612961565b9350836020820285016125dc85612923565b8060005b8581101561261857848403895281516125f98582612583565b945061260483612954565b925060208a019950506001810190506125e0565b50829750879550505050505092915050565b612633816129d4565b82525050565b612642816129e0565b82525050565b60006126548385612994565b9350612661838584612a40565b82840190509392505050565b60006126788261293e565b6126828185612972565b9350612692818560208601612a4f565b61269b81612a84565b840191505092915050565b60006126b18261293e565b6126bb8185612983565b93506126cb818560208601612a4f565b6126d481612a84565b840191505092915050565b60006126ea82612949565b6126f4818561299f565b9350612704818560208601612a4f565b61270d81612a84565b840191505092915050565b61272181612a36565b82525050565b6000612734828486612648565b91508190509392505050565b600060208201905061275560008301846125a6565b92915050565b60006020820190506127706000830184612597565b92915050565b6000602082019050818103600083015261279081846125b5565b905092915050565b60006020820190506127ad600083018461262a565b92915050565b60006020820190506127c86000830184612639565b92915050565b60006040820190506127e36000830185612639565b6127f06020830184612639565b9392505050565b6000602082019050818103600083015261281181846126a6565b905092915050565b6000602082019050818103600083015261283381846126df565b905092915050565b60006040820190506128506000830185612718565b818103602083015261286281846126a6565b90509392505050565b6000808335600160200384360303811261288457600080fd5b80840192508235915067ffffffffffffffff8211156128a257600080fd5b6020830192506001820236038313156128ba57600080fd5b509250929050565b6000604051905081810181811067ffffffffffffffff821117156128e9576128e8612a82565b5b8060405250919050565b600067ffffffffffffffff82111561290e5761290d612a82565b5b601f19601f8301169050602081019050919050565b6000819050602082019050919050565b600081519050919050565b600081519050919050565b600081519050919050565b6000602082019050919050565b600082825260208201905092915050565b600082825260208201905092915050565b600082825260208201905092915050565b600081905092915050565b600082825260208201905092915050565b60006129bb82612a16565b9050919050565b60006129cd82612a16565b9050919050565b60008115159050919050565b6000819050919050565b60007fffffffff0000000000000000000000000000000000000000000000000000000082169050919050565b600073ffffffffffffffffffffffffffffffffffffffff82169050919050565b6000819050919050565b82818337600083830152505050565b60005b83811015612a6d578082015181840152602081019050612a52565b83811115612a7c576000848401525b50505050565bfe5b6000601f19601f8301169050919050565b612a9e816129b0565b8114612aa957600080fd5b50565b612ab5816129d4565b8114612ac057600080fd5b50565b612acc816129e0565b8114612ad757600080fd5b50565b612ae3816129ea565b8114612aee57600080fd5b50565b612afa81612a36565b8114612b0557600080fd5b5056fea26469706673582212200b0685780a91bfe50ceaedeec7f0fc11230680e63990e68ca23f7739d4d311a664736f6c63430007060033",
  "immutableReferences": {},
  "source": "pragma solidity >=0.5.0;\npragma experimental ABIEncoderV2;\n// SPDX-License-Identifier: GPL-3.0-or-later\nimport \"@ensdomains/resolver/contracts/PublicResolver.sol\";\n\ncontract OrgResolver is PublicResolver {\n    bytes4 constant private ORG_INTERFACE_ID = 0x136ff12d;\n    \n\n    mapping(bytes32=>mapping(bytes32=>bool)) _roles;\n\n    constructor(ENS _ens) PublicResolver(_ens) {\n    }\n\n    function setRoles(bytes32 node, bytes32 role) public authorised(node){\n        _roles[node][role]=true;\n    }\n    \n    function hasRole(bytes32 node,bytes32  role) public view\n    returns(bool)\n    {\n        return _roles[node][role];\n    }\n \n   \n    function supportsInterface(bytes4 interfaceID) public pure override(PublicResolver) returns(bool) {\n        return interfaceID == ORG_INTERFACE_ID || super.supportsInterface(interfaceID);\n    }\n}\n",
  "sourcePath": "/home/dickchan/CIC/contracts/Utils/OrgResolver.sol",
  "compiler": {
    "name": "solc",
    "version": "0.7.6+commit.7338295f.Emscripten.clang"
  },
  "schemaVersion": "3.2.3",
  "updatedAt": "2021-03-18T05:34:56.747Z",
  "devdoc": {
    "kind": "dev",
    "methods": {
      "ABI(bytes32,uint256)": {
        "params": {
          "contentTypes": "A bitwise OR of the ABI formats accepted by the caller.",
          "node": "The ENS node to query"
        },
        "returns": {
          "_0": "contentType The content type of the return value",
          "_1": "data The ABI data"
        }
      },
      "addr(bytes32)": {
        "params": {
          "node": "The ENS node to query."
        },
        "returns": {
          "_0": "The associated address."
        }
      },
      "contenthash(bytes32)": {
        "params": {
          "node": "The ENS node to query."
        },
        "returns": {
          "_0": "The associated contenthash."
        }
      },
      "interfaceImplementer(bytes32,bytes4)": {
        "params": {
          "interfaceID": "The EIP 165 interface ID to check for.",
          "node": "The ENS node to query."
        },
        "returns": {
          "_0": "The address that implements this interface, or 0 if the interface is unsupported."
        }
      },
      "name(bytes32)": {
        "params": {
          "node": "The ENS node to query."
        },
        "returns": {
          "_0": "The associated name."
        }
      },
      "pubkey(bytes32)": {
        "params": {
          "node": "The ENS node to query"
        },
        "returns": {
          "x": "The X coordinate of the curve point for the public key.",
          "y": "The Y coordinate of the curve point for the public key."
        }
      },
      "setABI(bytes32,uint256,bytes)": {
        "params": {
          "contentType": "The content type of the ABI",
          "data": "The ABI data.",
          "node": "The node to update."
        }
      },
      "setAddr(bytes32,address)": {
        "params": {
          "a": "The address to set.",
          "node": "The node to update."
        }
      },
      "setAuthorisation(bytes32,address,bool)": {
        "details": "Sets or clears an authorisation. Authorisations are specific to the caller. Any account can set an authorisation for any name, but the authorisation that is checked will be that of the current owner of a name. Thus, transferring a name effectively clears any existing authorisations, and new authorisations can be set in advance of an ownership transfer if desired.",
        "params": {
          "isAuthorised": "True if the address should be authorised, or false if it should be deauthorised.",
          "node": "The name to change the authorisation on.",
          "target": "The address that is to be authorised or deauthorised."
        }
      },
      "setContenthash(bytes32,bytes)": {
        "params": {
          "hash": "The contenthash to set",
          "node": "The node to update."
        }
      },
      "setInterface(bytes32,bytes4,address)": {
        "params": {
          "implementer": "The address of a contract that implements this interface for this node.",
          "interfaceID": "The EIP 165 interface ID.",
          "node": "The node to update."
        }
      },
      "setName(bytes32,string)": {
        "params": {
          "name": "The name to set.",
          "node": "The node to update."
        }
      },
      "setPubkey(bytes32,bytes32,bytes32)": {
        "params": {
          "node": "The ENS node to query",
          "x": "the X coordinate of the curve point for the public key.",
          "y": "the Y coordinate of the curve point for the public key."
        }
      },
      "setText(bytes32,string,string)": {
        "params": {
          "key": "The key to set.",
          "node": "The node to update.",
          "value": "The text data value to set."
        }
      },
      "text(bytes32,string)": {
        "params": {
          "key": "The text data key to query.",
          "node": "The ENS node to query."
        },
        "returns": {
          "_0": "The associated text data."
        }
      }
    },
    "version": 1
  },
  "userdoc": {
    "kind": "user",
    "methods": {
      "ABI(bytes32,uint256)": {
        "notice": "Returns the ABI associated with an ENS node. Defined in EIP205."
      },
      "addr(bytes32)": {
        "notice": "Returns the address associated with an ENS node."
      },
      "authorisations(bytes32,address,address)": {
        "notice": "A mapping of authorisations. An address that is authorised for a name may make any changes to the name that the owner could, but may not update the set of authorisations. (node, owner, caller) => isAuthorised"
      },
      "contenthash(bytes32)": {
        "notice": "Returns the contenthash associated with an ENS node."
      },
      "interfaceImplementer(bytes32,bytes4)": {
        "notice": "Returns the address of a contract that implements the specified interface for this name. If an implementer has not been set for this interfaceID and name, the resolver will query the contract at `addr()`. If `addr()` is set, a contract exists at that address, and that contract implements EIP165 and returns `true` for the specified interfaceID, its address will be returned."
      },
      "name(bytes32)": {
        "notice": "Returns the name associated with an ENS node, for reverse records. Defined in EIP181."
      },
      "pubkey(bytes32)": {
        "notice": "Returns the SECP256k1 public key associated with an ENS node. Defined in EIP 619."
      },
      "setABI(bytes32,uint256,bytes)": {
        "notice": "Sets the ABI associated with an ENS node. Nodes may have one ABI of each content type. To remove an ABI, set it to the empty string."
      },
      "setAddr(bytes32,address)": {
        "notice": "Sets the address associated with an ENS node. May only be called by the owner of that node in the ENS registry."
      },
      "setContenthash(bytes32,bytes)": {
        "notice": "Sets the contenthash associated with an ENS node. May only be called by the owner of that node in the ENS registry."
      },
      "setInterface(bytes32,bytes4,address)": {
        "notice": "Sets an interface associated with a name. Setting the address to 0 restores the default behaviour of querying the contract at `addr()` for interface support."
      },
      "setName(bytes32,string)": {
        "notice": "Sets the name associated with an ENS node, for reverse records. May only be called by the owner of that node in the ENS registry."
      },
      "setPubkey(bytes32,bytes32,bytes32)": {
        "notice": "Sets the SECP256k1 public key associated with an ENS node."
      },
      "setText(bytes32,string,string)": {
        "notice": "Sets the text data associated with an ENS node and key. May only be called by the owner of that node in the ENS registry."
      },
      "text(bytes32,string)": {
        "notice": "Returns the text data associated with an ENS node and key."
      }
    },
    "version": 1
  }
}