{
  "contractName": "QualificationAttributeList",
  "abi": [
    {
      "inputs": [],
      "stateMutability": "nonpayable",
      "type": "constructor"
    },
    {
      "inputs": [
        {
          "internalType": "string",
          "name": "_attr",
          "type": "string"
        }
      ],
      "name": "addAttribute",
      "outputs": [],
      "stateMutability": "nonpayable",
      "type": "function"
    },
    {
      "inputs": [
        {
          "internalType": "bytes32",
          "name": "_key",
          "type": "bytes32"
        }
      ],
      "name": "exists",
      "outputs": [
        {
          "internalType": "bool",
          "name": "",
          "type": "bool"
        }
      ],
      "stateMutability": "view",
      "type": "function"
    },
    {
      "inputs": [],
      "name": "length",
      "outputs": [
        {
          "internalType": "uint256",
          "name": "_i",
          "type": "uint256"
        }
      ],
      "stateMutability": "view",
      "type": "function"
    },
    {
      "inputs": [
        {
          "internalType": "uint256",
          "name": "_i",
          "type": "uint256"
        }
      ],
      "name": "getAttributeNamebyIndex",
      "outputs": [
        {
          "internalType": "string",
          "name": "_name",
          "type": "string"
        }
      ],
      "stateMutability": "view",
      "type": "function"
    },
    {
      "inputs": [],
      "name": "qualificationattributeListInterface",
      "outputs": [],
      "stateMutability": "nonpayable",
      "type": "function"
    }
  ],
  "bytecode": "0x60806040523480156200001157600080fd5b506200004d7f59c90f4c78113146e4d8a6e557cd78d4bd8e2755541d48cf7cc6dd4e3de4d7a16001620005e860201b620002e81790919060201c565b50620000897fa158e17ebc4965ed8c9b85d25f375572912c60a3c12039e7f9679819f11f91506001620005e860201b620002e81790919060201c565b50620000c57fc2445e6f5d958f5dc04bb34fe7a861673f1031d71d7746402bf2b8191c39a6936001620005e860201b620002e81790919060201c565b50620001017f54ccd43e3ca27da1335500f385233a6d05f06cf83c6df0355050a6c49d1375186001620005e860201b620002e81790919060201c565b506200013d7f903d9f99424513828d680f57437884fc15c847b8ea40f3944ab7ea52737ed2cc6001620005e860201b620002e81790919060201c565b50620001797f5ab7320c6b55264f30ceef9a86c3e4f3d40a4bb56a8e9fe086912169761c85aa6001620005e860201b620002e81790919060201c565b50620001b57f5861dc4ebf1bf26bd1ba7f78cc4bbc181df20ee10629bb527885386391b6a55d6001620005e860201b620002e81790919060201c565b50620001f17f5cb0db3ae4364bb6efc9e28574b8841c9a9e7b7a3f201ecedaae2dd2092cf7d36001620005e860201b620002e81790919060201c565b506040518060400160405280600781526020017f454e474e414d45000000000000000000000000000000000000000000000000008152506000807f59c90f4c78113146e4d8a6e557cd78d4bd8e2755541d48cf7cc6dd4e3de4d7a1815260200190815260200160002090805190602001906200026f929190620006a4565b506040518060400160405280600781526020017f4348494e414d45000000000000000000000000000000000000000000000000008152506000807fa158e17ebc4965ed8c9b85d25f375572912c60a3c12039e7f9679819f11f915081526020019081526020016000209080519060200190620002ed929190620006a4565b506040518060400160405280600381526020017f444f4200000000000000000000000000000000000000000000000000000000008152506000807fc2445e6f5d958f5dc04bb34fe7a861673f1031d71d7746402bf2b8191c39a693815260200190815260200160002090805190602001906200036b929190620006a4565b506040518060400160405280600881526020017f49444e554d4245520000000000000000000000000000000000000000000000008152506000807f54ccd43e3ca27da1335500f385233a6d05f06cf83c6df0355050a6c49d13751881526020019081526020016000209080519060200190620003e9929190620006a4565b506040518060400160405280600681526020017f4d4f42494c4500000000000000000000000000000000000000000000000000008152506000807f903d9f99424513828d680f57437884fc15c847b8ea40f3944ab7ea52737ed2cc8152602001908152602001600020908051906020019062000467929190620006a4565b506040518060400160405280601081526020017f5245534944454e414c41444452455353000000000000000000000000000000008152506000807f5ab7320c6b55264f30ceef9a86c3e4f3d40a4bb56a8e9fe086912169761c85aa81526020019081526020016000209080519060200190620004e5929190620006a4565b506040518060400160405280600781526020017f4d4f42494c4532000000000000000000000000000000000000000000000000008152506000807f5861dc4ebf1bf26bd1ba7f78cc4bbc181df20ee10629bb527885386391b6a55d8152602001908152602001600020908051906020019062000563929190620006a4565b506040518060400160405280600781526020017f4d4f42494c4533000000000000000000000000000000000000000000000000008152506000807f5cb0db3ae4364bb6efc9e28574b8841c9a9e7b7a3f201ecedaae2dd2092cf7d381526020019081526020016000209080519060200190620005e1929190620006a4565b506200075a565b6000620005ff83600001836200060760201b60201c565b905092915050565b60006200061b83836200068160201b60201c565b620006765782600001829080600181540180825580915050600190039060005260206000200160009091909190915055826000018054905083600101600084815260200190815260200160002081905550600190506200067b565b600090505b92915050565b600080836001016000848152602001908152602001600020541415905092915050565b828054600181600116156101000203166002900490600052602060002090601f016020900481019282620006dc576000855562000728565b82601f10620006f757805160ff191683800117855562000728565b8280016001018555821562000728579182015b82811115620007275782518255916020019190600101906200070a565b5b5090506200073791906200073b565b5090565b5b80821115620007565760008160009055506001016200073c565b5090565b610920806200076a6000396000f3fe608060405234801561001057600080fd5b50600436106100575760003560e01c80631f7b6d321461005c57806338a699a41461007a578063a4d1215e146100aa578063f661e0af146100b4578063fafe3404146100d0575b600080fd5b610064610100565b604051610071919061078d565b60405180910390f35b610094600480360381019061008f91906105a6565b610111565b6040516100a19190610710565b60405180910390f35b6100b261012e565b005b6100ce60048036038101906100c991906105cf565b610130565b005b6100ea60048036038101906100e59190610610565b6101d6565b6040516100f7919061072b565b60405180910390f35b600061010c60016102ff565b905090565b600061012782600161031490919063ffffffff16565b9050919050565b565b6000818051906020012090506000151561015482600161031490919063ffffffff16565b151514610196576040517f08c379a000000000000000000000000000000000000000000000000000000000815260040161018d9061076d565b60405180910390fd5b6101aa8160016102e890919063ffffffff16565b508160008083815260200190815260200160002090805190602001906101d1929190610469565b505050565b60606101e260016102ff565b8210610223576040517f08c379a000000000000000000000000000000000000000000000000000000000815260040161021a9061074d565b60405180910390fd5b60008061023a84600161032b90919063ffffffff16565b81526020019081526020016000208054600181600116156101000203166002900480601f0160208091040260200160405190810160405280929190818152602001828054600181600116156101000203166002900480156102dc5780601f106102b1576101008083540402835291602001916102dc565b820191906000526020600020905b8154815290600101906020018083116102bf57829003601f168201915b50505050509050919050565b60006102f78360000183610342565b905092915050565b600061030d826000016103b2565b9050919050565b600061032383600001836103c3565b905092915050565b600061033a83600001836103e6565b905092915050565b600061034e83836103c3565b6103a75782600001829080600181540180825580915050600190039060005260206000200160009091909190915055826000018054905083600101600084815260200190815260200160002081905550600190506103ac565b600090505b92915050565b600081600001805490509050919050565b600080836001016000848152602001908152602001600020541415905092915050565b600081836000018054905011610447576040517f08c379a00000000000000000000000000000000000000000000000000000000081526004018080602001828103825260228152602001806108c96022913960400191505060405180910390fd5b82600001828154811061045657fe5b9060005260206000200154905092915050565b828054600181600116156101000203166002900490600052602060002090601f01602090048101928261049f57600085556104e6565b82601f106104b857805160ff19168380011785556104e6565b828001600101855582156104e6579182015b828111156104e55782518255916020019190600101906104ca565b5b5090506104f391906104f7565b5090565b5b808211156105105760008160009055506001016104f8565b5090565b6000610527610522846107d9565b6107a8565b90508281526020810184848401111561053f57600080fd5b61054a848285610845565b509392505050565b6000813590506105618161089a565b92915050565b600082601f83011261057857600080fd5b8135610588848260208601610514565b91505092915050565b6000813590506105a0816108b1565b92915050565b6000602082840312156105b857600080fd5b60006105c684828501610552565b91505092915050565b6000602082840312156105e157600080fd5b600082013567ffffffffffffffff8111156105fb57600080fd5b61060784828501610567565b91505092915050565b60006020828403121561062257600080fd5b600061063084828501610591565b91505092915050565b61064281610825565b82525050565b600061065382610809565b61065d8185610814565b935061066d818560208601610854565b61067681610889565b840191505092915050565b600061068e600483610814565b91507f414c3032000000000000000000000000000000000000000000000000000000006000830152602082019050919050565b60006106ce600383610814565b91507f41303100000000000000000000000000000000000000000000000000000000006000830152602082019050919050565b61070a8161083b565b82525050565b60006020820190506107256000830184610639565b92915050565b600060208201905081810360008301526107458184610648565b905092915050565b6000602082019050818103600083015261076681610681565b9050919050565b60006020820190508181036000830152610786816106c1565b9050919050565b60006020820190506107a26000830184610701565b92915050565b6000604051905081810181811067ffffffffffffffff821117156107cf576107ce610887565b5b8060405250919050565b600067ffffffffffffffff8211156107f4576107f3610887565b5b601f19601f8301169050602081019050919050565b600081519050919050565b600082825260208201905092915050565b60008115159050919050565b6000819050919050565b6000819050919050565b82818337600083830152505050565b60005b83811015610872578082015181840152602081019050610857565b83811115610881576000848401525b50505050565bfe5b6000601f19601f8301169050919050565b6108a381610831565b81146108ae57600080fd5b50565b6108ba8161083b565b81146108c557600080fd5b5056fe456e756d657261626c655365743a20696e646578206f7574206f6620626f756e6473a264697066735822122017dced8adb0acb0fa59540abc18b1a1c05b41917621027834c3c5e6bb534f00c64736f6c63430007060033",
  "immutableReferences": {},
  "source": "pragma solidity >=0.7.0;\n// SPDX-License-Identifier: GPL-3.0-or-later\npragma abicoder v2;\nimport \"@openzeppelin/contracts/utils/EnumerableSet.sol\";\n\n\ncontract QualificationAttributeList {\n    \n    using EnumerableSet for EnumerableSet.Bytes32Set;\n    mapping(bytes32=>string) attributename;\n    EnumerableSet.Bytes32Set  attributeList;\n    \n\n    \n    constructor()\n    {\n        attributeList.add(keccak256(\"ENGNAME\"));\n        attributeList.add(keccak256(\"CHINAME\"));\n        attributeList.add(keccak256(\"DOB\"));\n        attributeList.add(keccak256(\"IDNUMBER\"));\n        attributeList.add(keccak256(\"MOBILE\"));\n        attributeList.add(keccak256(\"RESIDENALADDRESS\"));\n        attributeList.add(keccak256(\"MOBILE2\"));\n        attributeList.add(keccak256(\"MOBILE3\"));\n        \n        attributename[keccak256(\"ENGNAME\")]=\"ENGNAME\";\n        attributename[keccak256(\"CHINAME\")]=\"CHINAME\";\n        attributename[keccak256(\"DOB\")]=\"DOB\";\n        attributename[keccak256(\"IDNUMBER\")]=\"IDNUMBER\";\n        attributename[keccak256(\"MOBILE\")]=\"MOBILE\";\n        attributename[keccak256(\"RESIDENALADDRESS\")]=\"RESIDENALADDRESS\";\n        attributename[keccak256(\"MOBILE2\")]=\"MOBILE2\";\n        attributename[keccak256(\"MOBILE3\")]=\"MOBILE3\";\n        \n    }\n    \n    function addAttribute(string memory _attr) public{\n        bytes32 _key = keccak256(bytes(_attr));\n        require(attributeList.contains(_key)==false,\"A01\");\n        attributeList.add(_key);\n        attributename[_key]=_attr;\n    }\n    \n    function exists(bytes32 _key) public view \n    returns(bool)\n    {\n        return attributeList.contains(_key);\n    }\n    \n    function length() public view\n    returns(uint256 _i ){\n        return attributeList.length();\n    }\n    \n    function getAttributeNamebyIndex(uint256 _i) public view\n    returns(string memory _name)\n    {\n        require(_i<attributeList.length(),\"AL02\");\n        return (attributename[attributeList.at(_i)]);\n    }\n    \n    function qualificationattributeListInterface() public{}\n}",
  "sourcePath": "/home/dickchan/CIC/contracts/AssetContract/Qualification/QualificationAttributeList.sol",
  "compiler": {
    "name": "solc",
    "version": "0.7.6+commit.7338295f.Emscripten.clang"
  },
  "schemaVersion": "3.2.3",
  "updatedAt": "2021-03-18T05:34:56.686Z",
  "devdoc": {
    "kind": "dev",
    "methods": {},
    "version": 1
  },
  "userdoc": {
    "kind": "user",
    "methods": {},
    "version": 1
  }
}