{
  "contractName": "QualificationToken",
  "abi": [
    {
      "inputs": [
        {
          "internalType": "string",
          "name": "_name",
          "type": "string"
        },
        {
          "internalType": "string",
          "name": "_syb",
          "type": "string"
        },
        {
          "internalType": "string",
          "name": "_qFactory",
          "type": "string"
        },
        {
          "internalType": "address",
          "name": "_orgENSRoot",
          "type": "address"
        }
      ],
      "stateMutability": "nonpayable",
      "type": "constructor"
    },
    {
      "anonymous": false,
      "inputs": [
        {
          "indexed": true,
          "internalType": "address",
          "name": "owner",
          "type": "address"
        },
        {
          "indexed": true,
          "internalType": "address",
          "name": "approved",
          "type": "address"
        },
        {
          "indexed": true,
          "internalType": "uint256",
          "name": "tokenId",
          "type": "uint256"
        }
      ],
      "name": "Approval",
      "type": "event"
    },
    {
      "anonymous": false,
      "inputs": [
        {
          "indexed": true,
          "internalType": "address",
          "name": "owner",
          "type": "address"
        },
        {
          "indexed": true,
          "internalType": "address",
          "name": "operator",
          "type": "address"
        },
        {
          "indexed": false,
          "internalType": "bool",
          "name": "approved",
          "type": "bool"
        }
      ],
      "name": "ApprovalForAll",
      "type": "event"
    },
    {
      "anonymous": false,
      "inputs": [
        {
          "indexed": false,
          "internalType": "address",
          "name": "account",
          "type": "address"
        }
      ],
      "name": "Paused",
      "type": "event"
    },
    {
      "anonymous": false,
      "inputs": [
        {
          "indexed": true,
          "internalType": "address",
          "name": "from",
          "type": "address"
        },
        {
          "indexed": true,
          "internalType": "address",
          "name": "to",
          "type": "address"
        },
        {
          "indexed": true,
          "internalType": "uint256",
          "name": "tokenId",
          "type": "uint256"
        }
      ],
      "name": "Transfer",
      "type": "event"
    },
    {
      "anonymous": false,
      "inputs": [
        {
          "indexed": false,
          "internalType": "address",
          "name": "account",
          "type": "address"
        }
      ],
      "name": "Unpaused",
      "type": "event"
    },
    {
      "inputs": [
        {
          "internalType": "address",
          "name": "to",
          "type": "address"
        },
        {
          "internalType": "uint256",
          "name": "tokenId",
          "type": "uint256"
        }
      ],
      "name": "approve",
      "outputs": [],
      "stateMutability": "nonpayable",
      "type": "function"
    },
    {
      "inputs": [
        {
          "internalType": "address",
          "name": "owner",
          "type": "address"
        }
      ],
      "name": "balanceOf",
      "outputs": [
        {
          "internalType": "uint256",
          "name": "",
          "type": "uint256"
        }
      ],
      "stateMutability": "view",
      "type": "function"
    },
    {
      "inputs": [],
      "name": "baseURI",
      "outputs": [
        {
          "internalType": "string",
          "name": "",
          "type": "string"
        }
      ],
      "stateMutability": "view",
      "type": "function"
    },
    {
      "inputs": [
        {
          "internalType": "uint256",
          "name": "tokenId",
          "type": "uint256"
        }
      ],
      "name": "burn",
      "outputs": [],
      "stateMutability": "nonpayable",
      "type": "function"
    },
    {
      "inputs": [
        {
          "internalType": "uint256",
          "name": "tokenId",
          "type": "uint256"
        }
      ],
      "name": "getApproved",
      "outputs": [
        {
          "internalType": "address",
          "name": "",
          "type": "address"
        }
      ],
      "stateMutability": "view",
      "type": "function"
    },
    {
      "inputs": [
        {
          "internalType": "address",
          "name": "owner",
          "type": "address"
        },
        {
          "internalType": "address",
          "name": "operator",
          "type": "address"
        }
      ],
      "name": "isApprovedForAll",
      "outputs": [
        {
          "internalType": "bool",
          "name": "",
          "type": "bool"
        }
      ],
      "stateMutability": "view",
      "type": "function"
    },
    {
      "inputs": [],
      "name": "name",
      "outputs": [
        {
          "internalType": "string",
          "name": "",
          "type": "string"
        }
      ],
      "stateMutability": "view",
      "type": "function"
    },
    {
      "inputs": [
        {
          "internalType": "uint256",
          "name": "tokenId",
          "type": "uint256"
        }
      ],
      "name": "ownerOf",
      "outputs": [
        {
          "internalType": "address",
          "name": "",
          "type": "address"
        }
      ],
      "stateMutability": "view",
      "type": "function"
    },
    {
      "inputs": [],
      "name": "paused",
      "outputs": [
        {
          "internalType": "bool",
          "name": "",
          "type": "bool"
        }
      ],
      "stateMutability": "view",
      "type": "function"
    },
    {
      "inputs": [
        {
          "internalType": "address",
          "name": "from",
          "type": "address"
        },
        {
          "internalType": "address",
          "name": "to",
          "type": "address"
        },
        {
          "internalType": "uint256",
          "name": "tokenId",
          "type": "uint256"
        }
      ],
      "name": "safeTransferFrom",
      "outputs": [],
      "stateMutability": "nonpayable",
      "type": "function"
    },
    {
      "inputs": [
        {
          "internalType": "address",
          "name": "from",
          "type": "address"
        },
        {
          "internalType": "address",
          "name": "to",
          "type": "address"
        },
        {
          "internalType": "uint256",
          "name": "tokenId",
          "type": "uint256"
        },
        {
          "internalType": "bytes",
          "name": "_data",
          "type": "bytes"
        }
      ],
      "name": "safeTransferFrom",
      "outputs": [],
      "stateMutability": "nonpayable",
      "type": "function"
    },
    {
      "inputs": [
        {
          "internalType": "address",
          "name": "operator",
          "type": "address"
        },
        {
          "internalType": "bool",
          "name": "approved",
          "type": "bool"
        }
      ],
      "name": "setApprovalForAll",
      "outputs": [],
      "stateMutability": "nonpayable",
      "type": "function"
    },
    {
      "inputs": [],
      "name": "symbol",
      "outputs": [
        {
          "internalType": "string",
          "name": "",
          "type": "string"
        }
      ],
      "stateMutability": "view",
      "type": "function"
    },
    {
      "inputs": [
        {
          "internalType": "uint256",
          "name": "index",
          "type": "uint256"
        }
      ],
      "name": "tokenByIndex",
      "outputs": [
        {
          "internalType": "uint256",
          "name": "",
          "type": "uint256"
        }
      ],
      "stateMutability": "view",
      "type": "function"
    },
    {
      "inputs": [
        {
          "internalType": "address",
          "name": "owner",
          "type": "address"
        },
        {
          "internalType": "uint256",
          "name": "index",
          "type": "uint256"
        }
      ],
      "name": "tokenOfOwnerByIndex",
      "outputs": [
        {
          "internalType": "uint256",
          "name": "",
          "type": "uint256"
        }
      ],
      "stateMutability": "view",
      "type": "function"
    },
    {
      "inputs": [
        {
          "internalType": "uint256",
          "name": "tokenId",
          "type": "uint256"
        }
      ],
      "name": "tokenURI",
      "outputs": [
        {
          "internalType": "string",
          "name": "",
          "type": "string"
        }
      ],
      "stateMutability": "view",
      "type": "function"
    },
    {
      "inputs": [],
      "name": "totalSupply",
      "outputs": [
        {
          "internalType": "uint256",
          "name": "",
          "type": "uint256"
        }
      ],
      "stateMutability": "view",
      "type": "function"
    },
    {
      "inputs": [
        {
          "internalType": "address",
          "name": "from",
          "type": "address"
        },
        {
          "internalType": "address",
          "name": "to",
          "type": "address"
        },
        {
          "internalType": "uint256",
          "name": "tokenId",
          "type": "uint256"
        }
      ],
      "name": "transferFrom",
      "outputs": [],
      "stateMutability": "nonpayable",
      "type": "function"
    },
    {
      "inputs": [
        {
          "internalType": "address",
          "name": "_individual",
          "type": "address"
        },
        {
          "internalType": "address payable",
          "name": "_to",
          "type": "address"
        }
      ],
      "name": "grantQualification",
      "outputs": [],
      "stateMutability": "nonpayable",
      "type": "function"
    },
    {
      "inputs": [],
      "name": "qualificationToken",
      "outputs": [],
      "stateMutability": "nonpayable",
      "type": "function"
    },
    {
      "inputs": [
        {
          "internalType": "bytes4",
          "name": "interfaceId",
          "type": "bytes4"
        }
      ],
      "name": "supportsInterface",
      "outputs": [
        {
          "internalType": "bool",
          "name": "",
          "type": "bool"
        }
      ],
      "stateMutability": "view",
      "type": "function"
    }
  ],
  "bytecode": "0x60806040526000600f60006101000a81548173ffffffffffffffffffffffffffffffffffffffff021916908373ffffffffffffffffffffffffffffffffffffffff1602179055503480156200005357600080fd5b5060405162006baa38038062006baa833981810160405281019062000079919062001e37565b8383620000936301ffc9a760e01b6200098560201b60201c565b8160069080519060200190620000ab92919062001b4f565b508060079080519060200190620000c492919062001b4f565b50620000dd6380ac58cd60e01b6200098560201b60201c565b620000f5635b5e139f60e01b6200098560201b60201c565b6200010d63780e9d6360e01b6200098560201b60201c565b50506000600a60006101000a81548160ff0219169083151502179055506200014881637d73b23160e01b62000a8e60201b620015781760201c565b6200018a576040517f08c379a0000000000000000000000000000000000000000000000000000000008152600401620001819062002114565b60405180910390fd5b80600e60006101000a81548173ffffffffffffffffffffffffffffffffffffffff021916908373ffffffffffffffffffffffffffffffffffffffff16021790555062000200337f5e08e74d3db9bd033737bf4f2fd87386eec32e8b6624f7ea49a55acda9aa159b60001b62000ca460201b60201c565b806200023d57506200023c337fdf8b4c520ffe197c5343c6f5aec59570151ef9a492f2c624fd45ddde6135ec4260001b62000ca460201b60201c565b5b6200027f576040517f08c379a00000000000000000000000000000000000000000000000000000000081526004016200027690620021be565b60405180910390fd5b600062000297856200115960201b620017881760201c565b9050600e60009054906101000a900473ffffffffffffffffffffffffffffffffffffffff1673ffffffffffffffffffffffffffffffffffffffff1663f79fe538826040518263ffffffff1660e01b8152600401620002f69190620020ad565b60206040518083038186803b1580156200030f57600080fd5b505afa15801562000324573d6000803e3d6000fd5b505050506040513d601f19601f820116820180604052508101906200034a919062001dc6565b6200038c576040517f08c379a0000000000000000000000000000000000000000000000000000000008152600401620003839062002158565b60405180910390fd5b620003a2836200115960201b620017881760201c565b90506000600e60009054906101000a900473ffffffffffffffffffffffffffffffffffffffff1673ffffffffffffffffffffffffffffffffffffffff16630178b8bf836040518263ffffffff1660e01b8152600401620004039190620020ad565b60206040518083038186803b1580156200041c57600080fd5b505afa15801562000431573d6000803e3d6000fd5b505050506040513d601f19601f8201168201806040525081019062000457919062001d9a565b905060008173ffffffffffffffffffffffffffffffffffffffff16633b3b57de846040518263ffffffff1660e01b8152600401620004969190620020ad565b60206040518083038186803b158015620004af57600080fd5b505afa158015620004c4573d6000803e3d6000fd5b505050506040513d601f19601f82011682018060405250810190620004ea919062001d9a565b90506200050a8163468a0d5760e01b62000a8e60201b620015781760201c565b6200054c576040517f08c379a0000000000000000000000000000000000000000000000000000000008152600401620005439062002136565b60405180910390fd5b62000562876200138560201b620019741760201c565b9250600e60009054906101000a900473ffffffffffffffffffffffffffffffffffffffff1673ffffffffffffffffffffffffffffffffffffffff16630178b8bf846040518263ffffffff1660e01b8152600401620005c19190620020ad565b60206040518083038186803b158015620005da57600080fd5b505afa158015620005ef573d6000803e3d6000fd5b505050506040513d601f19601f8201168201806040525081019062000615919062001d9a565b91508173ffffffffffffffffffffffffffffffffffffffff16633b3b57de846040518263ffffffff1660e01b8152600401620006529190620020ad565b60206040518083038186803b1580156200066b57600080fd5b505afa15801562000680573d6000803e3d6000fd5b505050506040513d601f19601f82011682018060405250810190620006a6919062001d9a565b9050600073ffffffffffffffffffffffffffffffffffffffff16600f60009054906101000a900473ffffffffffffffffffffffffffffffffffffffff1673ffffffffffffffffffffffffffffffffffffffff16141580156200083857508173ffffffffffffffffffffffffffffffffffffffff166301ffc9a7633b3b57de60e01b6040518263ffffffff1660e01b8152600401620007459190620020f7565b60206040518083038186803b1580156200075e57600080fd5b505afa15801562000773573d6000803e3d6000fd5b505050506040513d601f19601f8201168201806040525081019062000799919062001dc6565b806200083757508173ffffffffffffffffffffffffffffffffffffffff166301ffc9a763136ff12d60e01b6040518263ffffffff1660e01b8152600401620007e29190620020f7565b60206040518083038186803b158015620007fb57600080fd5b505afa15801562000810573d6000803e3d6000fd5b505050506040513d601f19601f8201168201806040525081019062000836919062001dc6565b5b5b6200087a576040517f08c379a0000000000000000000000000000000000000000000000000000000008152600401620008719062002136565b60405180910390fd5b62000898816380ac58cd60e01b62000a8e60201b620015781760201c565b15620008e05780600f60006101000a81548173ffffffffffffffffffffffffffffffffffffffff021916908373ffffffffffffffffffffffffffffffffffffffff1602179055505b620008f0620015b160201b60201c565b6200090687620016ae60201b62001b601760201c565b600c90805190602001906200091d92919062001be6565b5084600d90805190602001906200093692919062001b4f565b5083600a60016101000a81548173ffffffffffffffffffffffffffffffffffffffff021916908373ffffffffffffffffffffffffffffffffffffffff160217905550505050505050506200233a565b63ffffffff60e01b817bffffffffffffffffffffffffffffffffffffffffffffffffffffffff1916141562000a22576040517f08c379a000000000000000000000000000000000000000000000000000000000815260040180806020018281038252601c8152602001807f4552433136353a20696e76616c696420696e746572666163652069640000000081525060200191505060405180910390fd5b6001600080837bffffffffffffffffffffffffffffffffffffffffffffffffffffffff19167bffffffffffffffffffffffffffffffffffffffffffffffffffffffff1916815260200190815260200160002060006101000a81548160ff02191690831515021790555050565b6000808260405160240180827bffffffffffffffffffffffffffffffffffffffffffffffffffffffff191681526020019150506040516020818303038152906040527f01ffc9a7000000000000000000000000000000000000000000000000000000007bffffffffffffffffffffffffffffffffffffffffffffffffffffffff19166020820180517bffffffffffffffffffffffffffffffffffffffffffffffffffffffff838183161783525050505090506000808573ffffffffffffffffffffffffffffffffffffffff16836040518082805190602001908083835b6020831062000b90578051825260208201915060208101905060208303925062000b6b565b6001836020036101000a0380198251168184511680821785525050505050509050019150506000604051808303816000865af19150503d806000811462000bf4576040519150601f19603f3d011682016040523d82523d6000602084013e62000bf9565b606091505b50915091508162000c72576040517f08c379a00000000000000000000000000000000000000000000000000000000081526004018080602001828103825260028152602001807f515400000000000000000000000000000000000000000000000000000000000081525060200191505060405180910390fd5b80806020019051602081101562000c8857600080fd5b8101908080519060200190929190505050935050505092915050565b60008062000d70600e60009054906101000a900473ffffffffffffffffffffffffffffffffffffffff1673ffffffffffffffffffffffffffffffffffffffff1663154c0d786040518163ffffffff1660e01b815260040162000d06906200217a565b60006040518083038186803b15801562000d1f57600080fd5b505afa15801562000d34573d6000803e3d6000fd5b505050506040513d6000823e3d601f19601f8201168201806040525081019062000d5f919062001df2565b6200115960201b620017881760201c565b90506000600e60009054906101000a900473ffffffffffffffffffffffffffffffffffffffff1673ffffffffffffffffffffffffffffffffffffffff16630178b8bf836040518263ffffffff1660e01b815260040162000dd19190620020ad565b60206040518083038186803b15801562000dea57600080fd5b505afa15801562000dff573d6000803e3d6000fd5b505050506040513d601f19601f8201168201806040525081019062000e25919062001d9a565b9050600073ffffffffffffffffffffffffffffffffffffffff168173ffffffffffffffffffffffffffffffffffffffff16633b3b57de846040518263ffffffff1660e01b815260040162000e7a9190620020ad565b60206040518083038186803b15801562000e9357600080fd5b505afa15801562000ea8573d6000803e3d6000fd5b505050506040513d601f19601f8201168201806040525081019062000ece919062001d9a565b73ffffffffffffffffffffffffffffffffffffffff161415801562000f8557508073ffffffffffffffffffffffffffffffffffffffff166301ffc9a7633b3b57de60e01b6040518263ffffffff1660e01b815260040162000f309190620020f7565b60206040518083038186803b15801562000f4957600080fd5b505afa15801562000f5e573d6000803e3d6000fd5b505050506040513d601f19601f8201168201806040525081019062000f84919062001dc6565b5b62000fc7576040517f08c379a000000000000000000000000000000000000000000000000000000000815260040162000fbe906200219c565b60405180910390fd5b60008173ffffffffffffffffffffffffffffffffffffffff16633b3b57de846040518263ffffffff1660e01b8152600401620010049190620020ad565b60206040518083038186803b1580156200101d57600080fd5b505afa15801562001032573d6000803e3d6000fd5b505050506040513d601f19601f8201168201806040525081019062001058919062001d9a565b905080600b60006101000a81548173ffffffffffffffffffffffffffffffffffffffff021916908373ffffffffffffffffffffffffffffffffffffffff160217905550600b60009054906101000a900473ffffffffffffffffffffffffffffffffffffffff1673ffffffffffffffffffffffffffffffffffffffff166391d1485486886040518363ffffffff1660e01b8152600401620010fa929190620020ca565b60206040518083038186803b1580156200111357600080fd5b505afa15801562001128573d6000803e3d6000fd5b505050506040513d601f19601f820116820180604052508101906200114e919062001dc6565b935050505092915050565b6000806000801b905060006200117a84620017f660201b62001c6d1760201c565b90506000620011c96040518060400160405280600181526020017f2e00000000000000000000000000000000000000000000000000000000000000815250620017f660201b62001c6d1760201c565b905060006001620011e983856200182660201b62001c9b1790919060201c565b0167ffffffffffffffff811180156200120157600080fd5b506040519080825280602002602001820160405280156200123757816020015b6060815260200190600190039081620012215790505b50905060005b81518110156200129c5762001276620012658486620018ad60201b62001d101790919060201c565b620018d160201b62001d2a1760201c565b8282815181106200128357fe5b602002602001018190525080806001019150506200123d565b506000815190505b6000811115620013785784826001830381518110620012bf57fe5b60200260200101516040516020018082805190602001908083835b60208310620012ff5780518252602082019150602081019050602083039250620012da565b6001836020036101000a038019825116818451168082178552505050505050905001915050604051602081830303815290604052805190602001206040516020018083815260200182815260200192505050604051602081830303815290604052805190602001209450808060019003915050620012a4565b5083945050505050919050565b6000806000801b90506000620013a684620017f660201b62001c6d1760201c565b90506000620013f56040518060400160405280600181526020017f2e00000000000000000000000000000000000000000000000000000000000000815250620017f660201b62001c6d1760201c565b9050600060016200141583856200182660201b62001c9b1790919060201c565b0167ffffffffffffffff811180156200142d57600080fd5b506040519080825280602002602001820160405280156200146357816020015b60608152602001906001900390816200144d5790505b50905060005b8151811015620014c857620014a2620014918486620018ad60201b62001d101790919060201c565b620018d160201b62001d2a1760201c565b828281518110620014af57fe5b6020026020010181905250808060010191505062001469565b506000815190505b6001811115620015a45784826001830381518110620014eb57fe5b60200260200101516040516020018082805190602001908083835b602083106200152b578051825260208201915060208101905060208303925062001506565b6001836020036101000a038019825116818451168082178552505050505050905001915050604051602081830303815290604052805190602001206040516020018083815260200182815260200192505050604051602081830303815290604052805190602001209450808060019003915050620014d0565b5083945050505050919050565b620015c16200195560201b60201c565b1562001635576040517f08c379a00000000000000000000000000000000000000000000000000000000081526004018080602001828103825260108152602001807f5061757361626c653a207061757365640000000000000000000000000000000081525060200191505060405180910390fd5b6001600a60006101000a81548160ff0219169083151502179055507f62e78cea01bee320cd4e420270b5ea74000d11b0c9f74754ebdbfc544b05a258620016816200196c60201b60201c565b604051808273ffffffffffffffffffffffffffffffffffffffff16815260200191505060405180910390a1565b60606000620016c883620017f660201b62001c6d1760201c565b90506000620017176040518060400160405280600181526020017f2e00000000000000000000000000000000000000000000000000000000000000815250620017f660201b62001c6d1760201c565b9050600060016200173783856200182660201b62001c9b1790919060201c565b0167ffffffffffffffff811180156200174f57600080fd5b506040519080825280602002602001820160405280156200178557816020015b60608152602001906001900390816200176f5790505b50905060005b8151811015620017ea57620017c4620017b38486620018ad60201b62001d101790919060201c565b620018d160201b62001d2a1760201c565b828281518110620017d157fe5b602002602001018190525080806001019150506200178b565b50809350505050919050565b6200180062001c4d565b600060208301905060405180604001604052808451815260200182815250915050919050565b60008082600001516200185285600001518660200151866000015187602001516200197460201b60201c565b0190505b83600001518460200151018111620018a657818060010192505082600001516200189d8560200151830386600001510383866000015187602001516200197460201b60201c565b01905062001856565b5092915050565b620018b762001c4d565b620018ca83838362001a5a60201b60201c565b5092915050565b60606000826000015167ffffffffffffffff81118015620018f157600080fd5b506040519080825280601f01601f191660200182016040528015620019255781602001600182028036833780820191505090505b50905060006020820190506200194b818560200151866000015162001b0460201b60201c565b8192505050919050565b6000600a60009054906101000a900460ff16905090565b600033905090565b600080849050600086851162001a4a576020851162001a0057600060018660200360080260020a031960001b905060008186511690506000878a8a0103905060008386511690505b828114620019f157818610620019dd578a8a01965050505050505062001a52565b8580600101965050838651169050620019bc565b85965050505050505062001a52565b60008585209050600091505b858803821162001a4857600086842090508082141562001a33578394505050505062001a52565b60018401935050818060010192505062001a0c565b505b868601925050505b949350505050565b62001a6462001c4d565b600062001a8a85600001518660200151866000015187602001516200197460201b60201c565b9050846020015183602001818152505084602001518103836000018181525050846000015185602001510181141562001ace57600085600001818152505062001af9565b8360000151836000015101856000018181510391508181525050836000015181018560200181815250505b829150509392505050565b5b6020811062001b2a578151835260208301925060208201915060208103905062001b05565b60006001826020036101000a0390508019835116818551168181178652505050505050565b828054600181600116156101000203166002900490600052602060002090601f01602090048101928262001b87576000855562001bd3565b82601f1062001ba257805160ff191683800117855562001bd3565b8280016001018555821562001bd3579182015b8281111562001bd257825182559160200191906001019062001bb5565b5b50905062001be2919062001c67565b5090565b82805482825590600052602060002090810192821562001c3a579160200282015b8281111562001c3957825182908051906020019062001c2892919062001b4f565b509160200191906001019062001c07565b5b50905062001c49919062001c86565b5090565b604051806040016040528060008152602001600081525090565b5b8082111562001c8257600081600090555060010162001c68565b5090565b5b8082111562001caa576000818162001ca0919062001cae565b5060010162001c87565b5090565b50805460018160011615610100020316600290046000825580601f1062001cd6575062001cf7565b601f01602090049060005260206000209081019062001cf6919062001c67565b5b50565b600062001d1162001d0b8462002214565b620021e0565b90508281526020810184848401111562001d2a57600080fd5b62001d37848285620022ce565b509392505050565b60008151905062001d508162002306565b92915050565b60008151905062001d678162002320565b92915050565b600082601f83011262001d7f57600080fd5b815162001d9184826020860162001cfa565b91505092915050565b60006020828403121562001dad57600080fd5b600062001dbd8482850162001d3f565b91505092915050565b60006020828403121562001dd957600080fd5b600062001de98482850162001d56565b91505092915050565b60006020828403121562001e0557600080fd5b600082015167ffffffffffffffff81111562001e2057600080fd5b62001e2e8482850162001d6d565b91505092915050565b6000806000806080858703121562001e4e57600080fd5b600085015167ffffffffffffffff81111562001e6957600080fd5b62001e778782880162001d6d565b945050602085015167ffffffffffffffff81111562001e9557600080fd5b62001ea38782880162001d6d565b935050604085015167ffffffffffffffff81111562001ec157600080fd5b62001ecf8782880162001d6d565b925050606062001ee28782880162001d3f565b91505092959194509250565b62001ef98162002258565b82525050565b62001f0a8162002278565b82525050565b62001f1b8162002282565b82525050565b600062001f3060048362002247565b91507f51543031000000000000000000000000000000000000000000000000000000006000830152602082019050919050565b600062001f7260048362002247565b91507f51543034000000000000000000000000000000000000000000000000000000006000830152602082019050919050565b600062001fb460048362002247565b91507f51543033000000000000000000000000000000000000000000000000000000006000830152602082019050919050565b600062001ff660068362002247565b91507f61636365737300000000000000000000000000000000000000000000000000006000830152602082019050919050565b60006200203860048362002247565b91507f514c3037000000000000000000000000000000000000000000000000000000006000830152602082019050919050565b60006200207a60048362002247565b91507f51543032000000000000000000000000000000000000000000000000000000006000830152602082019050919050565b6000602082019050620020c4600083018462001eff565b92915050565b6000604082019050620020e1600083018562001eff565b620020f0602083018462001eee565b9392505050565b60006020820190506200210e600083018462001f10565b92915050565b600060208201905081810360008301526200212f8162001f21565b9050919050565b60006020820190508181036000830152620021518162001f63565b9050919050565b60006020820190508181036000830152620021738162001fa5565b9050919050565b60006020820190508181036000830152620021958162001fe7565b9050919050565b60006020820190508181036000830152620021b78162002029565b9050919050565b60006020820190508181036000830152620021d9816200206b565b9050919050565b6000604051905081810181811067ffffffffffffffff821117156200220a576200220962002304565b5b8060405250919050565b600067ffffffffffffffff82111562002232576200223162002304565b5b601f19601f8301169050602081019050919050565b600082825260208201905092915050565b60006200226582620022ae565b9050919050565b60008115159050919050565b6000819050919050565b60007fffffffff0000000000000000000000000000000000000000000000000000000082169050919050565b600073ffffffffffffffffffffffffffffffffffffffff82169050919050565b60005b83811015620022ee578082015181840152602081019050620022d1565b83811115620022fe576000848401525b50505050565bfe5b620023118162002258565b81146200231d57600080fd5b50565b6200232b816200226c565b81146200233757600080fd5b50565b614860806200234a6000396000f3fe608060405234801561001057600080fd5b50600436106101375760003560e01c80634f6ccce7116100b857806371966f251161007c57806371966f251461036057806395d89b411461036a578063a22cb46514610388578063b88d4fde146103a4578063c87b56dd146103c0578063e985e9c5146103f057610137565b80634f6ccce7146102945780635c975abb146102c45780636352211e146102e25780636c0360eb1461031257806370a082311461033057610137565b806318160ddd116100ff57806318160ddd146101f257806323b872dd146102105780632f745c591461022c57806342842e0e1461025c57806342966c681461027857610137565b806301ffc9a71461013c57806306fdde031461016c578063081812fc1461018a578063095ea7b3146101ba5780630d620378146101d6575b600080fd5b61015660048036038101906101519190613e6d565b610420565b60405161016391906141d0565b60405180910390f35b610174610471565b604051610181919061424a565b60405180910390f35b6101a4600480360381019061019f9190613ed7565b610513565b6040516101b1919061418c565b60405180910390f35b6101d460048036038101906101cf9190613e08565b6105ae565b005b6101f060048036038101906101eb9190613cc6565b6106f2565b005b6101fa610be5565b604051610207919061434c565b60405180910390f35b61022a60048036038101906102259190613d02565b610bf6565b005b61024660048036038101906102419190613e08565b610c6c565b604051610253919061434c565b60405180910390f35b61027660048036038101906102719190613d02565b610cc7565b005b610292600480360381019061028d9190613ed7565b610ce7565b005b6102ae60048036038101906102a99190613ed7565b610d59565b6040516102bb919061434c565b60405180910390f35b6102cc610d7c565b6040516102d991906141d0565b60405180910390f35b6102fc60048036038101906102f79190613ed7565b610d93565b604051610309919061418c565b60405180910390f35b61031a610dca565b604051610327919061424a565b60405180910390f35b61034a60048036038101906103459190613c0f565b610e6c565b604051610357919061434c565b60405180910390f35b610368610f41565b005b610372610f43565b60405161037f919061424a565b60405180910390f35b6103a2600480360381019061039d9190613dcc565b610fe5565b005b6103be60048036038101906103b99190613d51565b61119b565b005b6103da60048036038101906103d59190613ed7565b611213565b6040516103e7919061424a565b60405180910390f35b61040a60048036038101906104059190613c8a565b6114e4565b60405161041791906141d0565b60405180910390f35b60006371966f2560e01b7bffffffffffffffffffffffffffffffffffffffffffffffffffffffff1916827bffffffffffffffffffffffffffffffffffffffffffffffffffffffff1916149050919050565b606060068054600181600116156101000203166002900480601f0160208091040260200160405190810160405280929190818152602001828054600181600116156101000203166002900480156105095780601f106104de57610100808354040283529160200191610509565b820191906000526020600020905b8154815290600101906020018083116104ec57829003601f168201915b5050505050905090565b600061051e82611da4565b610573576040517f08c379a000000000000000000000000000000000000000000000000000000000815260040180806020018281038252602c815260200180614725602c913960400191505060405180910390fd5b6004600083815260200190815260200160002060009054906101000a900473ffffffffffffffffffffffffffffffffffffffff169050919050565b60006105b982610d93565b90508073ffffffffffffffffffffffffffffffffffffffff168373ffffffffffffffffffffffffffffffffffffffff161415610640576040517f08c379a00000000000000000000000000000000000000000000000000000000081526004018080602001828103825260218152602001806147a96021913960400191505060405180910390fd5b8073ffffffffffffffffffffffffffffffffffffffff1661065f611dc1565b73ffffffffffffffffffffffffffffffffffffffff16148061068e575061068d81610688611dc1565b6114e4565b5b6106e3576040517f08c379a00000000000000000000000000000000000000000000000000000000081526004018080602001828103825260388152602001806146786038913960400191505060405180910390fd5b6106ed8383611dc9565b505050565b61071f337f5e08e74d3db9bd033737bf4f2fd87386eec32e8b6624f7ea49a55acda9aa159b60001b611e82565b61075e576040517f08c379a00000000000000000000000000000000000000000000000000000000081526004016107559061428c565b60405180910390fd5b600073ffffffffffffffffffffffffffffffffffffffff16600f60009054906101000a900473ffffffffffffffffffffffffffffffffffffffff1673ffffffffffffffffffffffffffffffffffffffff1614610809576107c581634347842860e01b611578565b610804576040517f08c379a00000000000000000000000000000000000000000000000000000000081526004016107fb9061432c565b60405180910390fd5b61085a565b61081a8163dfd270ac60e01b611578565b610859576040517f08c379a0000000000000000000000000000000000000000000000000000000008152600401610850906142cc565b60405180910390fd5b5b60006108ff600d8054600181600116156101000203166002900480601f0160208091040260200160405190810160405280929190818152602001828054600181600116156101000203166002900480156108f55780601f106108ca576101008083540402835291602001916108f5565b820191906000526020600020905b8154815290600101906020018083116108d857829003601f168201915b5050505050611788565b90506000600e60009054906101000a900473ffffffffffffffffffffffffffffffffffffffff1673ffffffffffffffffffffffffffffffffffffffff16630178b8bf836040518263ffffffff1660e01b815260040161095e91906141eb565b60206040518083038186803b15801561097657600080fd5b505afa15801561098a573d6000803e3d6000fd5b505050506040513d601f19601f820116820180604052508101906109ae9190613c38565b905060008173ffffffffffffffffffffffffffffffffffffffff16633b3b57de846040518263ffffffff1660e01b81526004016109eb91906141eb565b60206040518083038186803b158015610a0357600080fd5b505afa158015610a17573d6000803e3d6000fd5b505050506040513d601f19601f82011682018060405250810190610a3b9190613c38565b9050600085600a60019054906101000a900473ffffffffffffffffffffffffffffffffffffffff16604051602401610a749291906141a7565b6040516020818303038152906040527f15ef1f7f000000000000000000000000000000000000000000000000000000007bffffffffffffffffffffffffffffffffffffffffffffffffffffffff19166020820180517bffffffffffffffffffffffffffffffffffffffffffffffffffffffff838183161783525050505090506000808373ffffffffffffffffffffffffffffffffffffffff1683604051610b1b9190614175565b6000604051808303816000865af19150503d8060008114610b58576040519150601f19603f3d011682016040523d82523d6000602084013e610b5d565b606091505b509150915081610ba2576040517f08c379a0000000000000000000000000000000000000000000000000000000008152600401610b99906142ec565b60405180910390fd5b600081806020019051810190610bb89190613c61565b9050610bda888273ffffffffffffffffffffffffffffffffffffffff16612302565b505050505050505050565b6000610bf160026123d8565b905090565b610c07610c01611dc1565b826123ed565b610c5c576040517f08c379a00000000000000000000000000000000000000000000000000000000081526004018080602001828103825260318152602001806147ca6031913960400191505060405180910390fd5b610c678383836124e1565b505050565b6000610cbf82600160008673ffffffffffffffffffffffffffffffffffffffff1673ffffffffffffffffffffffffffffffffffffffff16815260200190815260200160002061272490919063ffffffff16565b905092915050565b610ce28383836040518060200160405280600081525061119b565b505050565b610cf8610cf2611dc1565b826123ed565b610d4d576040517f08c379a00000000000000000000000000000000000000000000000000000000081526004018080602001828103825260308152602001806147fb6030913960400191505060405180910390fd5b610d568161273e565b50565b600080610d7083600261287890919063ffffffff16565b50905080915050919050565b6000600a60009054906101000a900460ff16905090565b6000610dc3826040518060600160405280602981526020016146da6029913960026128a49092919063ffffffff16565b9050919050565b606060098054600181600116156101000203166002900480601f016020809104026020016040519081016040528092919081815260200182805460018160011615610100020316600290048015610e625780601f10610e3757610100808354040283529160200191610e62565b820191906000526020600020905b815481529060010190602001808311610e4557829003601f168201915b5050505050905090565b60008073ffffffffffffffffffffffffffffffffffffffff168273ffffffffffffffffffffffffffffffffffffffff161415610ef3576040517f08c379a000000000000000000000000000000000000000000000000000000000815260040180806020018281038252602a8152602001806146b0602a913960400191505060405180910390fd5b610f3a600160008473ffffffffffffffffffffffffffffffffffffffff1673ffffffffffffffffffffffffffffffffffffffff1681526020019081526020016000206128c3565b9050919050565b565b606060078054600181600116156101000203166002900480601f016020809104026020016040519081016040528092919081815260200182805460018160011615610100020316600290048015610fdb5780601f10610fb057610100808354040283529160200191610fdb565b820191906000526020600020905b815481529060010190602001808311610fbe57829003601f168201915b5050505050905090565b610fed611dc1565b73ffffffffffffffffffffffffffffffffffffffff168273ffffffffffffffffffffffffffffffffffffffff16141561108e576040517f08c379a00000000000000000000000000000000000000000000000000000000081526004018080602001828103825260198152602001807f4552433732313a20617070726f766520746f2063616c6c65720000000000000081525060200191505060405180910390fd5b806005600061109b611dc1565b73ffffffffffffffffffffffffffffffffffffffff1673ffffffffffffffffffffffffffffffffffffffff16815260200190815260200160002060008473ffffffffffffffffffffffffffffffffffffffff1673ffffffffffffffffffffffffffffffffffffffff16815260200190815260200160002060006101000a81548160ff0219169083151502179055508173ffffffffffffffffffffffffffffffffffffffff16611148611dc1565b73ffffffffffffffffffffffffffffffffffffffff167f17307eab39ab6107e8899845ad3d59bd9653f200f220920489ca2b5937696c318360405180821515815260200191505060405180910390a35050565b6111ac6111a6611dc1565b836123ed565b611201576040517f08c379a00000000000000000000000000000000000000000000000000000000081526004018080602001828103825260318152602001806147ca6031913960400191505060405180910390fd5b61120d848484846128d8565b50505050565b606061121e82611da4565b611273576040517f08c379a000000000000000000000000000000000000000000000000000000000815260040180806020018281038252602f81526020018061477a602f913960400191505060405180910390fd5b6000600860008481526020019081526020016000208054600181600116156101000203166002900480601f01602080910402602001604051908101604052809291908181526020018280546001816001161561010002031660029004801561131c5780601f106112f15761010080835404028352916020019161131c565b820191906000526020600020905b8154815290600101906020018083116112ff57829003601f168201915b50505050509050600061132d610dca565b90506000815114156113435781925050506114df565b6000825111156114145780826040516020018083805190602001908083835b602083106113855780518252602082019150602081019050602083039250611362565b6001836020036101000a03801982511681845116808217855250505050505090500182805190602001908083835b602083106113d657805182526020820191506020810190506020830392506113b3565b6001836020036101000a03801982511681845116808217855250505050505090500192505050604051602081830303815290604052925050506114df565b8061141e8561294a565b6040516020018083805190602001908083835b602083106114545780518252602082019150602081019050602083039250611431565b6001836020036101000a03801982511681845116808217855250505050505090500182805190602001908083835b602083106114a55780518252602082019150602081019050602083039250611482565b6001836020036101000a03801982511681845116808217855250505050505090500192505050604051602081830303815290604052925050505b919050565b6000600560008473ffffffffffffffffffffffffffffffffffffffff1673ffffffffffffffffffffffffffffffffffffffff16815260200190815260200160002060008373ffffffffffffffffffffffffffffffffffffffff1673ffffffffffffffffffffffffffffffffffffffff16815260200190815260200160002060009054906101000a900460ff16905092915050565b6000808260405160240180827bffffffffffffffffffffffffffffffffffffffffffffffffffffffff191681526020019150506040516020818303038152906040527f01ffc9a7000000000000000000000000000000000000000000000000000000007bffffffffffffffffffffffffffffffffffffffffffffffffffffffff19166020820180517bffffffffffffffffffffffffffffffffffffffffffffffffffffffff838183161783525050505090506000808573ffffffffffffffffffffffffffffffffffffffff16836040518082805190602001908083835b602083106116785780518252602082019150602081019050602083039250611655565b6001836020036101000a0380198251168184511680821785525050505050509050019150506000604051808303816000865af19150503d80600081146116da576040519150601f19603f3d011682016040523d82523d6000602084013e6116df565b606091505b509150915081611757576040517f08c379a00000000000000000000000000000000000000000000000000000000081526004018080602001828103825260028152602001807f515400000000000000000000000000000000000000000000000000000000000081525060200191505060405180910390fd5b80806020019051602081101561176c57600080fd5b8101908080519060200190929190505050935050505092915050565b6000806000801b9050600061179c84611c6d565b905060006117de6040518060400160405280600181526020017f2e00000000000000000000000000000000000000000000000000000000000000815250611c6d565b9050600060016117f78385611c9b90919063ffffffff16565b0167ffffffffffffffff8111801561180e57600080fd5b5060405190808252806020026020018201604052801561184257816020015b606081526020019060019003908161182d5790505b50905060005b81518110156118905761186c6118678486611d1090919063ffffffff16565b611d2a565b82828151811061187857fe5b60200260200101819052508080600101915050611848565b506000815190505b600081111561196757848260018303815181106118b157fe5b60200260200101516040516020018082805190602001908083835b602083106118ef57805182526020820191506020810190506020830392506118cc565b6001836020036101000a038019825116818451168082178552505050505050905001915050604051602081830303815290604052805190602001206040516020018083815260200182815260200192505050604051602081830303815290604052805190602001209450808060019003915050611898565b5083945050505050919050565b6000806000801b9050600061198884611c6d565b905060006119ca6040518060400160405280600181526020017f2e00000000000000000000000000000000000000000000000000000000000000815250611c6d565b9050600060016119e38385611c9b90919063ffffffff16565b0167ffffffffffffffff811180156119fa57600080fd5b50604051908082528060200260200182016040528015611a2e57816020015b6060815260200190600190039081611a195790505b50905060005b8151811015611a7c57611a58611a538486611d1090919063ffffffff16565b611d2a565b828281518110611a6457fe5b60200260200101819052508080600101915050611a34565b506000815190505b6001811115611b535784826001830381518110611a9d57fe5b60200260200101516040516020018082805190602001908083835b60208310611adb5780518252602082019150602081019050602083039250611ab8565b6001836020036101000a038019825116818451168082178552505050505050905001915050604051602081830303815290604052805190602001206040516020018083815260200182815260200192505050604051602081830303815290604052805190602001209450808060019003915050611a84565b5083945050505050919050565b60606000611b6d83611c6d565b90506000611baf6040518060400160405280600181526020017f2e00000000000000000000000000000000000000000000000000000000000000815250611c6d565b905060006001611bc88385611c9b90919063ffffffff16565b0167ffffffffffffffff81118015611bdf57600080fd5b50604051908082528060200260200182016040528015611c1357816020015b6060815260200190600190039081611bfe5790505b50905060005b8151811015611c6157611c3d611c388486611d1090919063ffffffff16565b611d2a565b828281518110611c4957fe5b60200260200101819052508080600101915050611c19565b50809350505050919050565b611c75613a18565b600060208301905060405180604001604052808451815260200182815250915050919050565b6000808260000151611cbf8560000151866020015186600001518760200151612a91565b0190505b83600001518460200151018111611d095781806001019250508260000151611d01856020015183038660000151038386600001518760200151612a91565b019050611cc3565b5092915050565b611d18613a18565b611d23838383612b6c565b5092915050565b60606000826000015167ffffffffffffffff81118015611d4957600080fd5b506040519080825280601f01601f191660200182016040528015611d7c5781602001600182028036833780820191505090505b5090506000602082019050611d9a8185602001518660000151612c0a565b8192505050919050565b6000611dba826002612c5390919063ffffffff16565b9050919050565b600033905090565b816004600083815260200190815260200160002060006101000a81548173ffffffffffffffffffffffffffffffffffffffff021916908373ffffffffffffffffffffffffffffffffffffffff160217905550808273ffffffffffffffffffffffffffffffffffffffff16611e3c83610d93565b73ffffffffffffffffffffffffffffffffffffffff167f8c5be1e5ebec7d5bd14f71427d1e84f3dd0314c0f7b2291e5b200ac8c7c3b92560405160405180910390a45050565b600080611f3b600e60009054906101000a900473ffffffffffffffffffffffffffffffffffffffff1673ffffffffffffffffffffffffffffffffffffffff1663154c0d786040518163ffffffff1660e01b8152600401611ee1906142ac565b60006040518083038186803b158015611ef957600080fd5b505afa158015611f0d573d6000803e3d6000fd5b505050506040513d6000823e3d601f19601f82011682018060405250810190611f369190613e96565b611788565b90506000600e60009054906101000a900473ffffffffffffffffffffffffffffffffffffffff1673ffffffffffffffffffffffffffffffffffffffff16630178b8bf836040518263ffffffff1660e01b8152600401611f9a91906141eb565b60206040518083038186803b158015611fb257600080fd5b505afa158015611fc6573d6000803e3d6000fd5b505050506040513d601f19601f82011682018060405250810190611fea9190613c38565b9050600073ffffffffffffffffffffffffffffffffffffffff168173ffffffffffffffffffffffffffffffffffffffff16633b3b57de846040518263ffffffff1660e01b815260040161203d91906141eb565b60206040518083038186803b15801561205557600080fd5b505afa158015612069573d6000803e3d6000fd5b505050506040513d601f19601f8201168201806040525081019061208d9190613c38565b73ffffffffffffffffffffffffffffffffffffffff161415801561213d57508073ffffffffffffffffffffffffffffffffffffffff166301ffc9a7633b3b57de60e01b6040518263ffffffff1660e01b81526004016120ec919061422f565b60206040518083038186803b15801561210457600080fd5b505afa158015612118573d6000803e3d6000fd5b505050506040513d601f19601f8201168201806040525081019061213c9190613e44565b5b61217c576040517f08c379a00000000000000000000000000000000000000000000000000000000081526004016121739061430c565b60405180910390fd5b60008173ffffffffffffffffffffffffffffffffffffffff16633b3b57de846040518263ffffffff1660e01b81526004016121b791906141eb565b60206040518083038186803b1580156121cf57600080fd5b505afa1580156121e3573d6000803e3d6000fd5b505050506040513d601f19601f820116820180604052508101906122079190613c38565b905080600b60006101000a81548173ffffffffffffffffffffffffffffffffffffffff021916908373ffffffffffffffffffffffffffffffffffffffff160217905550600b60009054906101000a900473ffffffffffffffffffffffffffffffffffffffff1673ffffffffffffffffffffffffffffffffffffffff166391d1485486886040518363ffffffff1660e01b81526004016122a7929190614206565b60206040518083038186803b1580156122bf57600080fd5b505afa1580156122d3573d6000803e3d6000fd5b505050506040513d601f19601f820116820180604052508101906122f79190613e44565b935050505092915050565b61232f337f5e08e74d3db9bd033737bf4f2fd87386eec32e8b6624f7ea49a55acda9aa159b60001b611e82565b61236e576040517f08c379a00000000000000000000000000000000000000000000000000000000081526004016123659061426c565b60405180910390fd5b6123788282612c6d565b808273ffffffffffffffffffffffffffffffffffffffff16600073ffffffffffffffffffffffffffffffffffffffff167fddf252ad1be2c89b69c2b068fc378daa952ba7f163c4a11628f55a4df523b3ef60405160405180910390a45050565b60006123e682600001612e61565b9050919050565b60006123f882611da4565b61244d576040517f08c379a000000000000000000000000000000000000000000000000000000000815260040180806020018281038252602c81526020018061464c602c913960400191505060405180910390fd5b600061245883610d93565b90508073ffffffffffffffffffffffffffffffffffffffff168473ffffffffffffffffffffffffffffffffffffffff1614806124c757508373ffffffffffffffffffffffffffffffffffffffff166124af84610513565b73ffffffffffffffffffffffffffffffffffffffff16145b806124d857506124d781856114e4565b5b91505092915050565b8273ffffffffffffffffffffffffffffffffffffffff1661250182610d93565b73ffffffffffffffffffffffffffffffffffffffff161461256d576040517f08c379a00000000000000000000000000000000000000000000000000000000081526004018080602001828103825260298152602001806147516029913960400191505060405180910390fd5b600073ffffffffffffffffffffffffffffffffffffffff168273ffffffffffffffffffffffffffffffffffffffff1614156125f3576040517f08c379a00000000000000000000000000000000000000000000000000000000081526004018080602001828103825260248152602001806146026024913960400191505060405180910390fd5b6125fe838383612e72565b612609600082611dc9565b61265a81600160008673ffffffffffffffffffffffffffffffffffffffff1673ffffffffffffffffffffffffffffffffffffffff168152602001908152602001600020612eb490919063ffffffff16565b506126ac81600160008573ffffffffffffffffffffffffffffffffffffffff1673ffffffffffffffffffffffffffffffffffffffff168152602001908152602001600020612ece90919063ffffffff16565b506126c381836002612ee89092919063ffffffff16565b50808273ffffffffffffffffffffffffffffffffffffffff168473ffffffffffffffffffffffffffffffffffffffff167fddf252ad1be2c89b69c2b068fc378daa952ba7f163c4a11628f55a4df523b3ef60405160405180910390a4505050565b60006127338360000183612f1d565b60001c905092915050565b600061274982610d93565b905061275781600084612e72565b612762600083611dc9565b600060086000848152602001908152602001600020805460018160011615610100020316600290049050146127b1576008600083815260200190815260200160002060006127b09190613a32565b5b61280282600160008473ffffffffffffffffffffffffffffffffffffffff1673ffffffffffffffffffffffffffffffffffffffff168152602001908152602001600020612eb490919063ffffffff16565b50612817826002612fa090919063ffffffff16565b5081600073ffffffffffffffffffffffffffffffffffffffff168273ffffffffffffffffffffffffffffffffffffffff167fddf252ad1be2c89b69c2b068fc378daa952ba7f163c4a11628f55a4df523b3ef60405160405180910390a45050565b60008060008061288b8660000186612fba565b915091508160001c8160001c9350935050509250929050565b60006128b7846000018460001b84613053565b60001c90509392505050565b60006128d182600001613149565b9050919050565b6128e38484846124e1565b6128ef8484848461315a565b612944576040517f08c379a00000000000000000000000000000000000000000000000000000000081526004018080602001828103825260328152602001806145d06032913960400191505060405180910390fd5b50505050565b60606000821415612992576040518060400160405280600181526020017f30000000000000000000000000000000000000000000000000000000000000008152509050612a8c565b600082905060005b600082146129bc578080600101915050600a82816129b457fe5b04915061299a565b60008167ffffffffffffffff811180156129d557600080fd5b506040519080825280601f01601f191660200182016040528015612a085781602001600182028036833780820191505090505b50905060006001830390508593505b60008414612a8457600a8481612a2957fe5b0660300160f81b82828060019003935081518110612a4357fe5b60200101907effffffffffffffffffffffffffffffffffffffffffffffffffffffffffffff1916908160001a905350600a8481612a7c57fe5b049350612a17565b819450505050505b919050565b6000808490506000868511612b5c5760208511612b1657600060018660200360080260020a031960001b905060008186511690506000878a8a0103905060008386511690505b828114612b0857818610612af5578a8a019650505050505050612b64565b8580600101965050838651169050612ad7565b859650505050505050612b64565b60008585209050600091505b8588038211612b5a576000868420905080821415612b465783945050505050612b64565b600184019350508180600101925050612b22565b505b868601925050505b949350505050565b612b74613a18565b6000612b928560000151866020015186600001518760200151612a91565b90508460200151836020018181525050846020015181038360000181815250508460000151856020015101811415612bd4576000856000018181525050612bff565b8360000151836000015101856000018181510391508181525050836000015181018560200181815250505b829150509392505050565b5b60208110612c2e5781518352602083019250602082019150602081039050612c0b565b60006001826020036101000a0390508019835116818551168181178652505050505050565b6000612c65836000018360001b613373565b905092915050565b600073ffffffffffffffffffffffffffffffffffffffff168273ffffffffffffffffffffffffffffffffffffffff161415612d10576040517f08c379a00000000000000000000000000000000000000000000000000000000081526004018080602001828103825260208152602001807f4552433732313a206d696e7420746f20746865207a65726f206164647265737381525060200191505060405180910390fd5b612d1981611da4565b15612d8c576040517f08c379a000000000000000000000000000000000000000000000000000000000815260040180806020018281038252601c8152602001807f4552433732313a20746f6b656e20616c7265616479206d696e7465640000000081525060200191505060405180910390fd5b612d9860008383612e72565b612de981600160008573ffffffffffffffffffffffffffffffffffffffff1673ffffffffffffffffffffffffffffffffffffffff168152602001908152602001600020612ece90919063ffffffff16565b50612e0081836002612ee89092919063ffffffff16565b50808273ffffffffffffffffffffffffffffffffffffffff16600073ffffffffffffffffffffffffffffffffffffffff167fddf252ad1be2c89b69c2b068fc378daa952ba7f163c4a11628f55a4df523b3ef60405160405180910390a45050565b600081600001805490509050919050565b612e9f337f5e08e74d3db9bd033737bf4f2fd87386eec32e8b6624f7ea49a55acda9aa159b60001b611e82565b612eaf57612eae838383613396565b5b505050565b6000612ec6836000018360001b613404565b905092915050565b6000612ee0836000018360001b6134ec565b905092915050565b6000612f14846000018460001b8473ffffffffffffffffffffffffffffffffffffffff1660001b61355c565b90509392505050565b600081836000018054905011612f7e576040517f08c379a00000000000000000000000000000000000000000000000000000000081526004018080602001828103825260228152602001806145836022913960400191505060405180910390fd5b826000018281548110612f8d57fe5b9060005260206000200154905092915050565b6000612fb2836000018360001b613638565b905092915050565b6000808284600001805490501161301c576040517f08c379a00000000000000000000000000000000000000000000000000000000081526004018080602001828103825260228152602001806147036022913960400191505060405180910390fd5b600084600001848154811061302d57fe5b906000526020600020906002020190508060000154816001015492509250509250929050565b6000808460010160008581526020019081526020016000205490506000811415839061311a576040517f08c379a00000000000000000000000000000000000000000000000000000000081526004018080602001828103825283818151815260200191508051906020019080838360005b838110156130df5780820151818401526020810190506130c4565b50505050905090810190601f16801561310c5780820380516001836020036101000a031916815260200191505b509250505060405180910390fd5b5084600001600182038154811061312d57fe5b9060005260206000209060020201600101549150509392505050565b600081600001805490509050919050565b600061317b8473ffffffffffffffffffffffffffffffffffffffff16613751565b613188576001905061336b565b60006132f263150b7a0260e01b61319d611dc1565b888787604051602401808573ffffffffffffffffffffffffffffffffffffffff1681526020018473ffffffffffffffffffffffffffffffffffffffff16815260200183815260200180602001828103825283818151815260200191508051906020019080838360005b83811015613221578082015181840152602081019050613206565b50505050905090810190601f16801561324e5780820380516001836020036101000a031916815260200191505b5095505050505050604051602081830303815290604052907bffffffffffffffffffffffffffffffffffffffffffffffffffffffff19166020820180517bffffffffffffffffffffffffffffffffffffffffffffffffffffffff83818316178352505050506040518060600160405280603281526020016145d0603291398773ffffffffffffffffffffffffffffffffffffffff166137649092919063ffffffff16565b9050600081806020019051602081101561330b57600080fd5b8101908080519060200190929190505050905063150b7a0260e01b7bffffffffffffffffffffffffffffffffffffffffffffffffffffffff1916817bffffffffffffffffffffffffffffffffffffffffffffffffffffffff191614925050505b949350505050565b600080836001016000848152602001908152602001600020541415905092915050565b6133a183838361377c565b6133a9610d7c565b156133ff576040517f08c379a000000000000000000000000000000000000000000000000000000000815260040180806020018281038252602b8152602001806145a5602b913960400191505060405180910390fd5b505050565b600080836001016000848152602001908152602001600020549050600081146134e0576000600182039050600060018660000180549050039050600086600001828154811061344f57fe5b906000526020600020015490508087600001848154811061346c57fe5b90600052602060002001819055506001830187600101600083815260200190815260200160002081905550866000018054806134a457fe5b600190038181906000526020600020016000905590558660010160008781526020019081526020016000206000905560019450505050506134e6565b60009150505b92915050565b60006134f88383613781565b613551578260000182908060018154018082558091505060019003906000526020600020016000909190919091505582600001805490508360010160008481526020019081526020016000208190555060019050613556565b600090505b92915050565b600080846001016000858152602001908152602001600020549050600081141561360357846000016040518060400160405280868152602001858152509080600181540180825580915050600190039060005260206000209060020201600090919091909150600082015181600001556020820151816001015550508460000180549050856001016000868152602001908152602001600020819055506001915050613631565b8285600001600183038154811061361657fe5b90600052602060002090600202016001018190555060009150505b9392505050565b60008083600101600084815260200190815260200160002054905060008114613745576000600182039050600060018660000180549050039050600086600001828154811061368357fe5b90600052602060002090600202019050808760000184815481106136a357fe5b90600052602060002090600202016000820154816000015560018201548160010155905050600183018760010160008360000154815260200190815260200160002081905550866000018054806136f657fe5b600190038181906000526020600020906002020160008082016000905560018201600090555050905586600101600087815260200190815260200160002060009055600194505050505061374b565b60009150505b92915050565b600080823b905060008111915050919050565b606061377384846000856137a4565b90509392505050565b505050565b600080836001016000848152602001908152602001600020541415905092915050565b6060824710156137ff576040517f08c379a00000000000000000000000000000000000000000000000000000000081526004018080602001828103825260268152602001806146266026913960400191505060405180910390fd5b61380885613751565b61387a576040517f08c379a000000000000000000000000000000000000000000000000000000000815260040180806020018281038252601d8152602001807f416464726573733a2063616c6c20746f206e6f6e2d636f6e747261637400000081525060200191505060405180910390fd5b6000808673ffffffffffffffffffffffffffffffffffffffff1685876040518082805190602001908083835b602083106138c957805182526020820191506020810190506020830392506138a6565b6001836020036101000a03801982511681845116808217855250505050505090500191505060006040518083038185875af1925050503d806000811461392b576040519150601f19603f3d011682016040523d82523d6000602084013e613930565b606091505b509150915061394082828661394c565b92505050949350505050565b6060831561395c57829050613a11565b60008351111561396f5782518084602001fd5b816040517f08c379a00000000000000000000000000000000000000000000000000000000081526004018080602001828103825283818151815260200191508051906020019080838360005b838110156139d65780820151818401526020810190506139bb565b50505050905090810190601f168015613a035780820380516001836020036101000a031916815260200191505b509250505060405180910390fd5b9392505050565b604051806040016040528060008152602001600081525090565b50805460018160011615610100020316600290046000825580601f10613a585750613a77565b601f016020900490600052602060002090810190613a769190613a7a565b5b50565b5b80821115613a93576000816000905550600101613a7b565b5090565b6000613aaa613aa584614398565b614367565b905082815260208101848484011115613ac257600080fd5b613acd8482856144ba565b509392505050565b6000613ae8613ae3846143c8565b614367565b905082815260208101848484011115613b0057600080fd5b613b0b8482856144c9565b509392505050565b600081359050613b228161450f565b92915050565b600081519050613b378161450f565b92915050565b600081359050613b4c81614526565b92915050565b600081519050613b6181614526565b92915050565b600081359050613b768161453d565b92915050565b600081519050613b8b8161453d565b92915050565b600081359050613ba081614554565b92915050565b600082601f830112613bb757600080fd5b8135613bc7848260208601613a97565b91505092915050565b600082601f830112613be157600080fd5b8151613bf1848260208601613ad5565b91505092915050565b600081359050613c098161456b565b92915050565b600060208284031215613c2157600080fd5b6000613c2f84828501613b13565b91505092915050565b600060208284031215613c4a57600080fd5b6000613c5884828501613b28565b91505092915050565b600060208284031215613c7357600080fd5b6000613c8184828501613b52565b91505092915050565b60008060408385031215613c9d57600080fd5b6000613cab85828601613b13565b9250506020613cbc85828601613b13565b9150509250929050565b60008060408385031215613cd957600080fd5b6000613ce785828601613b13565b9250506020613cf885828601613b3d565b9150509250929050565b600080600060608486031215613d1757600080fd5b6000613d2586828701613b13565b9350506020613d3686828701613b13565b9250506040613d4786828701613bfa565b9150509250925092565b60008060008060808587031215613d6757600080fd5b6000613d7587828801613b13565b9450506020613d8687828801613b13565b9350506040613d9787828801613bfa565b925050606085013567ffffffffffffffff811115613db457600080fd5b613dc087828801613ba6565b91505092959194509250565b60008060408385031215613ddf57600080fd5b6000613ded85828601613b13565b9250506020613dfe85828601613b67565b9150509250929050565b60008060408385031215613e1b57600080fd5b6000613e2985828601613b13565b9250506020613e3a85828601613bfa565b9150509250929050565b600060208284031215613e5657600080fd5b6000613e6484828501613b7c565b91505092915050565b600060208284031215613e7f57600080fd5b6000613e8d84828501613b91565b91505092915050565b600060208284031215613ea857600080fd5b600082015167ffffffffffffffff811115613ec257600080fd5b613ece84828501613bd0565b91505092915050565b600060208284031215613ee957600080fd5b6000613ef784828501613bfa565b91505092915050565b613f098161442a565b82525050565b613f188161444e565b82525050565b613f278161445a565b82525050565b613f3681614464565b82525050565b6000613f47826143f8565b613f51818561440e565b9350613f618185602086016144c9565b80840191505092915050565b6000613f7882614403565b613f828185614419565b9350613f928185602086016144c9565b613f9b816144fe565b840191505092915050565b6000613fb3600483614419565b91507f51543039000000000000000000000000000000000000000000000000000000006000830152602082019050919050565b6000613ff3600483614419565b91507f51543035000000000000000000000000000000000000000000000000000000006000830152602082019050919050565b6000614033600683614419565b91507f61636365737300000000000000000000000000000000000000000000000000006000830152602082019050919050565b6000614073600483614419565b91507f51543037000000000000000000000000000000000000000000000000000000006000830152602082019050919050565b60006140b3600483614419565b91507f51543038000000000000000000000000000000000000000000000000000000006000830152602082019050919050565b60006140f3600483614419565b91507f514c3037000000000000000000000000000000000000000000000000000000006000830152602082019050919050565b6000614133600483614419565b91507f51543036000000000000000000000000000000000000000000000000000000006000830152602082019050919050565b61416f816144b0565b82525050565b60006141818284613f3c565b915081905092915050565b60006020820190506141a16000830184613f00565b92915050565b60006040820190506141bc6000830185613f00565b6141c96020830184613f00565b9392505050565b60006020820190506141e56000830184613f0f565b92915050565b60006020820190506142006000830184613f1e565b92915050565b600060408201905061421b6000830185613f1e565b6142286020830184613f00565b9392505050565b60006020820190506142446000830184613f2d565b92915050565b600060208201905081810360008301526142648184613f6d565b905092915050565b6000602082019050818103600083015261428581613fa6565b9050919050565b600060208201905081810360008301526142a581613fe6565b9050919050565b600060208201905081810360008301526142c581614026565b9050919050565b600060208201905081810360008301526142e581614066565b9050919050565b60006020820190508181036000830152614305816140a6565b9050919050565b60006020820190508181036000830152614325816140e6565b9050919050565b6000602082019050818103600083015261434581614126565b9050919050565b60006020820190506143616000830184614166565b92915050565b6000604051905081810181811067ffffffffffffffff8211171561438e5761438d6144fc565b5b8060405250919050565b600067ffffffffffffffff8211156143b3576143b26144fc565b5b601f19601f8301169050602081019050919050565b600067ffffffffffffffff8211156143e3576143e26144fc565b5b601f19601f8301169050602081019050919050565b600081519050919050565b600081519050919050565b600081905092915050565b600082825260208201905092915050565b600061443582614490565b9050919050565b600061444782614490565b9050919050565b60008115159050919050565b6000819050919050565b60007fffffffff0000000000000000000000000000000000000000000000000000000082169050919050565b600073ffffffffffffffffffffffffffffffffffffffff82169050919050565b6000819050919050565b82818337600083830152505050565b60005b838110156144e75780820151818401526020810190506144cc565b838111156144f6576000848401525b50505050565bfe5b6000601f19601f8301169050919050565b6145188161442a565b811461452357600080fd5b50565b61452f8161443c565b811461453a57600080fd5b50565b6145468161444e565b811461455157600080fd5b50565b61455d81614464565b811461456857600080fd5b50565b614574816144b0565b811461457f57600080fd5b5056fe456e756d657261626c655365743a20696e646578206f7574206f6620626f756e64734552433732315061757361626c653a20746f6b656e207472616e73666572207768696c65207061757365644552433732313a207472616e7366657220746f206e6f6e20455243373231526563656976657220696d706c656d656e7465724552433732313a207472616e7366657220746f20746865207a65726f2061646472657373416464726573733a20696e73756666696369656e742062616c616e636520666f722063616c6c4552433732313a206f70657261746f7220717565727920666f72206e6f6e6578697374656e7420746f6b656e4552433732313a20617070726f76652063616c6c6572206973206e6f74206f776e6572206e6f7220617070726f76656420666f7220616c6c4552433732313a2062616c616e636520717565727920666f7220746865207a65726f20616464726573734552433732313a206f776e657220717565727920666f72206e6f6e6578697374656e7420746f6b656e456e756d657261626c654d61703a20696e646578206f7574206f6620626f756e64734552433732313a20617070726f76656420717565727920666f72206e6f6e6578697374656e7420746f6b656e4552433732313a207472616e73666572206f6620746f6b656e2074686174206973206e6f74206f776e4552433732314d657461646174613a2055524920717565727920666f72206e6f6e6578697374656e7420746f6b656e4552433732313a20617070726f76616c20746f2063757272656e74206f776e65724552433732313a207472616e736665722063616c6c6572206973206e6f74206f776e6572206e6f7220617070726f7665644552433732314275726e61626c653a2063616c6c6572206973206e6f74206f776e6572206e6f7220617070726f766564a26469706673582212206bbd02c277b2b5b4cd81c4c7d7329db3760ef94ee28cf2fd80670c49cec5170264736f6c63430007060033",
  "immutableReferences": {},
  "source": "pragma solidity >=0.7.0;\n// SPDX-License-Identifier: GPL-3.0-or-later\npragma abicoder v2;\nimport \"../Utils/ENS.sol\";\nimport \"../Utils/Resolver.sol\";\nimport \"../Utils/Roles.sol\";\nimport \"../Utils/RBAC.sol\";\nimport \"../Utils/Library.sol\";\nimport \"@openzeppelin/contracts/token/ERC721/ERC721Pausable.sol\";\nimport \"@openzeppelin/contracts/token/ERC721/ERC721Burnable.sol\";\n\n\ncontract QualificationToken is ERC721Pausable,ERC721Burnable,Roles {\n    \n    address orgRoot;\n    PermissionControl access;\n    string[] ensnode;\n    string qFactory;\n    ENS ens;\n    address parent=address(0);\n    \n    constructor(string memory _name,string memory _syb,string memory _qFactory ,address _orgENSRoot) ERC721(_name,_syb)\n    {\n        require(Utility._checkInterfaceID(_orgENSRoot,Utility.INTERFACE_ID_ENSREGISTRY),\"QT01\");\n        ens = ENS(_orgENSRoot);\n        require(_orgAccessCheck(msg.sender,ISSUE) || _orgAccessCheck(msg.sender,ADMIN),\"QT02\");\n        bytes32 hashname = Utility._computeNamehash(_name);\n        require(ens.recordExists(hashname),\"QT03\");\n        \n        hashname = Utility._computeNamehash(_qFactory);\n        Resolver res = Resolver(ens.resolver(hashname));\n        address a = res.addr(hashname);\n        require(Utility._checkInterfaceID(a,Utility.INTERFACE_ID_QUALIFICATIONFACTORY),\"QT04\");\n        \n    \n        hashname = Utility._computeParentNamehash(_name);\n        res = Resolver(ens.resolver(hashname));\n        a = res.addr(hashname);\n        require(parent!=address(0) && (res.supportsInterface(Utility.ADDR_INTERFACE_ID) || res.supportsInterface(Utility.ORG_INTERFACE_ID)),\"QT04\" );\n        \n        if(Utility._checkInterfaceID(a,Utility.INTERFACE_ID_ERC721))\n            parent=a;\n        _pause();\n        ensnode=Utility.split(_name);\n        qFactory = _qFactory;\n        orgRoot=_orgENSRoot;\n    }\n    \n    function grantQualification(address _individual,address payable _to) public {\n        require(_orgAccessCheck(msg.sender,ISSUE),\"QT05\");\n        if(parent!=address(0)){\n            require(Utility._checkInterfaceID(_to,Utility.INTERFACE_ID_QUALIFICATIONPROXY),\"QT06\");\n        }else{\n            require(Utility._checkInterfaceID(_to,Utility.INTERFACE_ID_WORKERPROFILE),\"QT07\");\n        }\n        bytes32 hashname = Utility._computeNamehash(qFactory);\n        Resolver res = Resolver(ens.resolver(hashname));\n        address _a = res.addr(hashname);\n        bytes memory payload = abi.encodeWithSignature(\"createNewQualificaitonContract(address,address)\",_individual,orgRoot);\n        (bool success, bytes memory result) = _a.call(payload);\n        require(success,\"QT08\");\n        address qaddress = abi.decode(result, (address)); \n        _mint(_to,uint256(qaddress));\n             \n    }\n    \n     function _mint(address to, uint256 tokenId) internal virtual override(ERC721) {\n        require(_orgAccessCheck(msg.sender,ISSUE),\"QT09\");\n        super._mint(to,tokenId);\n        emit Transfer(address(0), to, tokenId);\n    }\n\n    \n    function _orgAccessCheck(address _caller,bytes32 _role) internal \n    returns(bool)\n    {\n        bytes32 orgAccessENS = Utility._computeNamehash(ens.getPredefineENSPrefix(\"access\"));\n        Resolver res = Resolver(ens.resolver(orgAccessENS));\n        require(res.addr(orgAccessENS)!=address(0) && res.supportsInterface(Utility.ADDR_INTERFACE_ID),\"QL07\");\n        address orgAccessAdr = res.addr(orgAccessENS);\n        access = PermissionControl(orgAccessAdr);\n        return access.hasRole(_role,_caller);\n        \n    }\n    \n    function qualificationToken() public{}\n    \n    function supportsInterface(bytes4 interfaceId) public virtual override(ERC165) view returns (bool) {\n        return interfaceId == Utility.INTERFACE_ID_QUALIFICATIONTOKEN;\n    }\n    \n    \n    function _beforeTokenTransfer(address from, address to, uint256 tokenId) internal virtual override (ERC721,ERC721Pausable) {\n        if(!_orgAccessCheck(msg.sender,ISSUE)){\n            super._beforeTokenTransfer(from,to,tokenId);\n        }\n        \n    }\n    \n    \n}",
  "sourcePath": "/home/dickchan/CIC/contracts/TokenContract/QualificationToken.sol",
  "compiler": {
    "name": "solc",
    "version": "0.7.6+commit.7338295f.Emscripten.clang"
  },
  "schemaVersion": "3.2.3",
  "updatedAt": "2021-03-18T07:14:07.400Z",
  "devdoc": {
    "kind": "dev",
    "methods": {
      "approve(address,uint256)": {
        "details": "See {IERC721-approve}."
      },
      "balanceOf(address)": {
        "details": "See {IERC721-balanceOf}."
      },
      "baseURI()": {
        "details": "Returns the base URI set via {_setBaseURI}. This will be automatically added as a prefix in {tokenURI} to each token's URI, or to the token ID if no specific URI is set for that token ID."
      },
      "burn(uint256)": {
        "details": "Burns `tokenId`. See {ERC721-_burn}. Requirements: - The caller must own `tokenId` or be an approved operator."
      },
      "getApproved(uint256)": {
        "details": "See {IERC721-getApproved}."
      },
      "isApprovedForAll(address,address)": {
        "details": "See {IERC721-isApprovedForAll}."
      },
      "name()": {
        "details": "See {IERC721Metadata-name}."
      },
      "ownerOf(uint256)": {
        "details": "See {IERC721-ownerOf}."
      },
      "paused()": {
        "details": "Returns true if the contract is paused, and false otherwise."
      },
      "safeTransferFrom(address,address,uint256)": {
        "details": "See {IERC721-safeTransferFrom}."
      },
      "safeTransferFrom(address,address,uint256,bytes)": {
        "details": "See {IERC721-safeTransferFrom}."
      },
      "setApprovalForAll(address,bool)": {
        "details": "See {IERC721-setApprovalForAll}."
      },
      "supportsInterface(bytes4)": {
        "details": "See {IERC165-supportsInterface}. Time complexity O(1), guaranteed to always use less than 30 000 gas."
      },
      "symbol()": {
        "details": "See {IERC721Metadata-symbol}."
      },
      "tokenByIndex(uint256)": {
        "details": "See {IERC721Enumerable-tokenByIndex}."
      },
      "tokenOfOwnerByIndex(address,uint256)": {
        "details": "See {IERC721Enumerable-tokenOfOwnerByIndex}."
      },
      "tokenURI(uint256)": {
        "details": "See {IERC721Metadata-tokenURI}."
      },
      "totalSupply()": {
        "details": "See {IERC721Enumerable-totalSupply}."
      },
      "transferFrom(address,address,uint256)": {
        "details": "See {IERC721-transferFrom}."
      }
    },
    "version": 1
  },
  "userdoc": {
    "kind": "user",
    "methods": {},
    "version": 1
  }
}