{
  "contractName": "QualificationFactory",
  "abi": [
    {
      "inputs": [
        {
          "internalType": "address",
          "name": "_orgENSRegistar",
          "type": "address"
        },
        {
          "internalType": "string",
          "name": "_imp",
          "type": "string"
        },
        {
          "internalType": "string",
          "name": "_attlist",
          "type": "string"
        }
      ],
      "stateMutability": "nonpayable",
      "type": "constructor"
    },
    {
      "inputs": [
        {
          "internalType": "address",
          "name": "_a",
          "type": "address"
        }
      ],
      "name": "updateOrgENSRegistar",
      "outputs": [],
      "stateMutability": "nonpayable",
      "type": "function"
    },
    {
      "inputs": [
        {
          "internalType": "string",
          "name": "_imp",
          "type": "string"
        }
      ],
      "name": "updateImplementationENS",
      "outputs": [],
      "stateMutability": "nonpayable",
      "type": "function"
    },
    {
      "inputs": [
        {
          "internalType": "string",
          "name": "_imp",
          "type": "string"
        }
      ],
      "name": "updateAttributeListENS",
      "outputs": [],
      "stateMutability": "nonpayable",
      "type": "function"
    },
    {
      "inputs": [
        {
          "internalType": "address",
          "name": "_owner",
          "type": "address"
        },
        {
          "internalType": "address",
          "name": "_orgENSRegistar",
          "type": "address"
        }
      ],
      "name": "createNewQualificaitonContract",
      "outputs": [
        {
          "internalType": "address",
          "name": "_i",
          "type": "address"
        }
      ],
      "stateMutability": "nonpayable",
      "type": "function"
    },
    {
      "inputs": [],
      "name": "qualificationFactory",
      "outputs": [],
      "stateMutability": "nonpayable",
      "type": "function"
    },
    {
      "inputs": [
        {
          "internalType": "bytes4",
          "name": "interfaceId",
          "type": "bytes4"
        }
      ],
      "name": "supportsInterface",
      "outputs": [
        {
          "internalType": "bool",
          "name": "",
          "type": "bool"
        }
      ],
      "stateMutability": "view",
      "type": "function"
    }
  ],
  "bytecode": "0x60806040523480156200001157600080fd5b506040516200629838038062006298833981810160405260608110156200003757600080fd5b8101908080519060200190929190805160405193929190846401000000008211156200006257600080fd5b838201915060208201858111156200007957600080fd5b82518660018202830111640100000000821117156200009757600080fd5b8083526020830192505050908051906020019080838360005b83811015620000cd578082015181840152602081019050620000b0565b50505050905090810190601f168015620000fb5780820380516001836020036101000a031916815260200191505b50604052602001805160405193929190846401000000008211156200011f57600080fd5b838201915060208201858111156200013657600080fd5b82518660018202830111640100000000821117156200015457600080fd5b8083526020830192505050908051906020019080838360005b838110156200018a5780820151818401526020810190506200016d565b50505050905090810190601f168015620001b85780820380516001836020036101000a031916815260200191505b50604052505050620001dd83637d73b23160e01b6200078e60201b62000cb11760201c565b62000250576040517f08c379a00000000000000000000000000000000000000000000000000000000081526004018080602001828103825260048152602001807f514630310000000000000000000000000000000000000000000000000000000081525060200191505060405180910390fd5b82600360006101000a81548173ffffffffffffffffffffffffffffffffffffffff021916908373ffffffffffffffffffffffffffffffffffffffff160217905550620002c6337fdf8b4c520ffe197c5343c6f5aec59570151ef9a492f2c624fd45ddde6135ec4260001b620009a460201b60201c565b62000339576040517f08c379a00000000000000000000000000000000000000000000000000000000081526004018080602001828103825260048152602001807f514630320000000000000000000000000000000000000000000000000000000081525060200191505060405180910390fd5b6000620003518362000fb760201b62000ec71760201c565b90506000600360009054906101000a900473ffffffffffffffffffffffffffffffffffffffff1673ffffffffffffffffffffffffffffffffffffffff16630178b8bf836040518263ffffffff1660e01b81526004018082815260200191505060206040518083038186803b158015620003c957600080fd5b505afa158015620003de573d6000803e3d6000fd5b505050506040513d6020811015620003f557600080fd5b81019080805190602001909291905050509050620004b48173ffffffffffffffffffffffffffffffffffffffff16633b3b57de846040518263ffffffff1660e01b81526004018082815260200191505060206040518083038186803b1580156200045e57600080fd5b505afa15801562000473573d6000803e3d6000fd5b505050506040513d60208110156200048a57600080fd5b810190808051906020019092919050505063d59742f260e01b6200078e60201b62000cb11760201c565b62000527576040517f08c379a00000000000000000000000000000000000000000000000000000000081526004018080602001828103825260048152602001807f514630330000000000000000000000000000000000000000000000000000000081525060200191505060405180910390fd5b6200053d8362000fb760201b62000ec71760201c565b9150600360009054906101000a900473ffffffffffffffffffffffffffffffffffffffff1673ffffffffffffffffffffffffffffffffffffffff16630178b8bf836040518263ffffffff1660e01b81526004018082815260200191505060206040518083038186803b158015620005b357600080fd5b505afa158015620005c8573d6000803e3d6000fd5b505050506040513d6020811015620005df57600080fd5b810190808051906020019092919050505090506200069e8173ffffffffffffffffffffffffffffffffffffffff16633b3b57de846040518263ffffffff1660e01b81526004018082815260200191505060206040518083038186803b1580156200064857600080fd5b505afa1580156200065d573d6000803e3d6000fd5b505050506040513d60208110156200067457600080fd5b810190808051906020019092919050505063a4d1215e60e01b6200078e60201b62000cb11760201c565b62000711576040517f08c379a00000000000000000000000000000000000000000000000000000000081526004018080602001828103825260048152602001807f514630340000000000000000000000000000000000000000000000000000000081525060200191505060405180910390fd5b846000806101000a81548173ffffffffffffffffffffffffffffffffffffffff021916908373ffffffffffffffffffffffffffffffffffffffff1602179055508360019080519060200190620007699291906200151d565b508260029080519060200190620007829291906200151d565b505050505050620015ed565b6000808260405160240180827bffffffffffffffffffffffffffffffffffffffffffffffffffffffff191681526020019150506040516020818303038152906040527f01ffc9a7000000000000000000000000000000000000000000000000000000007bffffffffffffffffffffffffffffffffffffffffffffffffffffffff19166020820180517bffffffffffffffffffffffffffffffffffffffffffffffffffffffff838183161783525050505090506000808573ffffffffffffffffffffffffffffffffffffffff16836040518082805190602001908083835b602083106200089057805182526020820191506020810190506020830392506200086b565b6001836020036101000a0380198251168184511680821785525050505050509050019150506000604051808303816000865af19150503d8060008114620008f4576040519150601f19603f3d011682016040523d82523d6000602084013e620008f9565b606091505b50915091508162000972576040517f08c379a00000000000000000000000000000000000000000000000000000000081526004018080602001828103825260028152602001807f515400000000000000000000000000000000000000000000000000000000000081525060200191505060405180910390fd5b8080602001905160208110156200098857600080fd5b8101908080519060200190929190505050935050505092915050565b60008062000b62600360009054906101000a900473ffffffffffffffffffffffffffffffffffffffff1673ffffffffffffffffffffffffffffffffffffffff1663154c0d786040518163ffffffff1660e01b81526004018080602001828103825260068152602001807f616363657373000000000000000000000000000000000000000000000000000081525060200191505060006040518083038186803b15801562000a5057600080fd5b505afa15801562000a65573d6000803e3d6000fd5b505050506040513d6000823e3d601f19601f82011682018060405250602081101562000a9057600080fd5b810190808051604051939291908464010000000082111562000ab157600080fd5b8382019150602082018581111562000ac857600080fd5b825186600182028301116401000000008211171562000ae657600080fd5b8083526020830192505050908051906020019080838360005b8381101562000b1c57808201518184015260208101905062000aff565b50505050905090810190601f16801562000b4a5780820380516001836020036101000a031916815260200191505b5060405250505062000fb760201b62000ec71760201c565b90506000600360009054906101000a900473ffffffffffffffffffffffffffffffffffffffff1673ffffffffffffffffffffffffffffffffffffffff16630178b8bf836040518263ffffffff1660e01b81526004018082815260200191505060206040518083038186803b15801562000bda57600080fd5b505afa15801562000bef573d6000803e3d6000fd5b505050506040513d602081101562000c0657600080fd5b81019080805190602001909291905050509050600073ffffffffffffffffffffffffffffffffffffffff168173ffffffffffffffffffffffffffffffffffffffff16633b3b57de846040518263ffffffff1660e01b81526004018082815260200191505060206040518083038186803b15801562000c8357600080fd5b505afa15801562000c98573d6000803e3d6000fd5b505050506040513d602081101562000caf57600080fd5b810190808051906020019092919050505073ffffffffffffffffffffffffffffffffffffffff161415801562000d9657508073ffffffffffffffffffffffffffffffffffffffff166301ffc9a7633b3b57de60e01b6040518263ffffffff1660e01b815260040180827bffffffffffffffffffffffffffffffffffffffffffffffffffffffff1916815260200191505060206040518083038186803b15801562000d5857600080fd5b505afa15801562000d6d573d6000803e3d6000fd5b505050506040513d602081101562000d8457600080fd5b81019080805190602001909291905050505b62000e09576040517f08c379a00000000000000000000000000000000000000000000000000000000081526004018080602001828103825260048152602001807f514c30380000000000000000000000000000000000000000000000000000000081525060200191505060405180910390fd5b60008173ffffffffffffffffffffffffffffffffffffffff16633b3b57de846040518263ffffffff1660e01b81526004018082815260200191505060206040518083038186803b15801562000e5d57600080fd5b505afa15801562000e72573d6000803e3d6000fd5b505050506040513d602081101562000e8957600080fd5b8101908080519060200190929190505050905080600460006101000a81548173ffffffffffffffffffffffffffffffffffffffff021916908373ffffffffffffffffffffffffffffffffffffffff160217905550600460009054906101000a900473ffffffffffffffffffffffffffffffffffffffff1673ffffffffffffffffffffffffffffffffffffffff166391d1485486886040518363ffffffff1660e01b8152600401808381526020018273ffffffffffffffffffffffffffffffffffffffff1681526020019250505060206040518083038186803b15801562000f6f57600080fd5b505afa15801562000f84573d6000803e3d6000fd5b505050506040513d602081101562000f9b57600080fd5b8101908080519060200190929190505050935050505092915050565b6000806000801b9050600062000fd884620011e360201b620010c81760201c565b90506000620010276040518060400160405280600181526020017f2e00000000000000000000000000000000000000000000000000000000000000815250620011e360201b620010c81760201c565b9050600060016200104783856200121360201b620010f81790919060201c565b0167ffffffffffffffff811180156200105f57600080fd5b506040519080825280602002602001820160405280156200109557816020015b60608152602001906001900390816200107f5790505b50905060005b8151811015620010fa57620010d4620010c384866200129a60201b620011731790919060201c565b620012be60201b620011911760201c565b828281518110620010e157fe5b602002602001018190525080806001019150506200109b565b506000815190505b6000811115620011d657848260018303815181106200111d57fe5b60200260200101516040516020018082805190602001908083835b602083106200115d578051825260208201915060208101905060208303925062001138565b6001836020036101000a03801982511681845116808217855250505050505090500191505060405160208183030381529060405280519060200120604051602001808381526020018281526020019250505060405160208183030381529060405280519060200120945080806001900391505062001102565b5083945050505050919050565b620011ed620015b4565b600060208301905060405180604001604052808451815260200182815250915050919050565b60008082600001516200123f85600001518660200151866000015187602001516200134260201b60201c565b0190505b836000015184602001510181116200129357818060010192505082600001516200128a8560200151830386600001510383866000015187602001516200134260201b60201c565b01905062001243565b5092915050565b620012a4620015b4565b620012b78383836200142860201b60201c565b5092915050565b60606000826000015167ffffffffffffffff81118015620012de57600080fd5b506040519080825280601f01601f191660200182016040528015620013125781602001600182028036833780820191505090505b5090506000602082019050620013388185602001518660000151620014d260201b60201c565b8192505050919050565b6000808490506000868511620014185760208511620013ce57600060018660200360080260020a031960001b905060008186511690506000878a8a0103905060008386511690505b828114620013bf57818610620013ab578a8a01965050505050505062001420565b85806001019650508386511690506200138a565b85965050505050505062001420565b60008585209050600091505b85880382116200141657600086842090508082141562001401578394505050505062001420565b600184019350508180600101925050620013da565b505b868601925050505b949350505050565b62001432620015b4565b60006200145885600001518660200151866000015187602001516200134260201b60201c565b905084602001518360200181815250508460200151810383600001818152505084600001518560200151018114156200149c576000856000018181525050620014c7565b8360000151836000015101856000018181510391508181525050836000015181018560200181815250505b829150509392505050565b5b60208110620014f85781518352602083019250602082019150602081039050620014d3565b60006001826020036101000a0390508019835116818551168181178652505050505050565b828054600181600116156101000203166002900490600052602060002090601f016020900481019282620015555760008555620015a1565b82601f106200157057805160ff1916838001178555620015a1565b82800160010185558215620015a1579182015b82811115620015a057825182559160200191906001019062001583565b5b509050620015b09190620015ce565b5090565b604051806040016040528060008152602001600081525090565b5b80821115620015e9576000816000905550600101620015cf565b5090565b614c9b80620015fd6000396000f3fe60806040523480156200001157600080fd5b50600436106200006a5760003560e01c806301ffc9a7146200006f57806315ef1f7f14620000d5578063344615e11462000166578063468a0d57146200022757806395942cb51462000233578063cf50acc714620002f4575b600080fd5b620000bd600480360360208110156200008757600080fd5b8101908080357bffffffffffffffffffffffffffffffffffffffffffffffffffffffff191690602001909291905050506200033b565b60405180821515815260200191505060405180910390f35b6200013a60048036036040811015620000ed57600080fd5b81019080803573ffffffffffffffffffffffffffffffffffffffff169060200190929190803573ffffffffffffffffffffffffffffffffffffffff1690602001909291905050506200038c565b604051808273ffffffffffffffffffffffffffffffffffffffff16815260200191505060405180910390f35b62000225600480360360208110156200017e57600080fd5b81019080803590602001906401000000008111156200019c57600080fd5b820183602082011115620001af57600080fd5b80359060200191846001830284011164010000000083111715620001d257600080fd5b91908080601f016020809104026020016040519081016040528093929190818152602001838380828437600081840152601f19601f820116905080830192505050505050509192919290505050620005c7565b005b6200023162000865565b005b620002f2600480360360208110156200024b57600080fd5b81019080803590602001906401000000008111156200026957600080fd5b8201836020820111156200027c57600080fd5b803590602001918460018302840111640100000000831117156200029f57600080fd5b91908080601f016020809104026020016040519081016040528093929190818152602001838380828437600081840152601f19601f82011690508083019250505050505050919291929050505062000867565b005b62000339600480360360208110156200030c57600080fd5b81019080803573ffffffffffffffffffffffffffffffffffffffff16906020019092919050505062000b05565b005b600063468a0d5760e01b7bffffffffffffffffffffffffffffffffffffffffffffffffffffffff1916827bffffffffffffffffffffffffffffffffffffffffffffffffffffffff1916149050919050565b6000620003bd337f96706879d29c248edfb2a2563a8a9d571c49634c0f82013e6f5a7cde739d35d460001b6200120f565b62000430576040517f08c379a00000000000000000000000000000000000000000000000000000000081526004018080602001828103825260048152602001807f514631330000000000000000000000000000000000000000000000000000000081525060200191505060405180910390fd5b60006001600284866040516200044690620019ec565b8080602001806020018573ffffffffffffffffffffffffffffffffffffffff1681526020018473ffffffffffffffffffffffffffffffffffffffff1681526020018381038352878181546001816001161561010002031660029004815260200191508054600181600116156101000203166002900480156200050c5780601f10620004e0576101008083540402835291602001916200050c565b820191906000526020600020905b815481529060010190602001808311620004ee57829003601f168201915b5050838103825286818154600181600116156101000203166002900481526020019150805460018160011615610100020316600290048015620005935780601f10620005675761010080835404028352916020019162000593565b820191906000526020600020905b8154815290600101906020018083116200057557829003601f168201915b50509650505050505050604051809103906000f080158015620005ba573d6000803e3d6000fd5b5090508091505092915050565b620005f6337fdf8b4c520ffe197c5343c6f5aec59570151ef9a492f2c624fd45ddde6135ec4260001b6200120f565b62000669576040517f08c379a00000000000000000000000000000000000000000000000000000000081526004018080602001828103825260048152602001807f514630370000000000000000000000000000000000000000000000000000000081525060200191505060405180910390fd5b6000620006768262000ec7565b90506000600360009054906101000a900473ffffffffffffffffffffffffffffffffffffffff1673ffffffffffffffffffffffffffffffffffffffff16630178b8bf836040518263ffffffff1660e01b81526004018082815260200191505060206040518083038186803b158015620006ee57600080fd5b505afa15801562000703573d6000803e3d6000fd5b505050506040513d60208110156200071a57600080fd5b8101908080519060200190929190505050905060008173ffffffffffffffffffffffffffffffffffffffff16633b3b57de846040518263ffffffff1660e01b81526004018082815260200191505060206040518083038186803b1580156200078157600080fd5b505afa15801562000796573d6000803e3d6000fd5b505050506040513d6020811015620007ad57600080fd5b81019080805190602001909291905050509050620007d38163d59742f260e01b62000cb1565b62000846576040517f08c379a00000000000000000000000000000000000000000000000000000000081526004018080602001828103825260048152602001807f514630390000000000000000000000000000000000000000000000000000000081525060200191505060405180910390fd5b83600190805190602001906200085e929190620019fa565b5050505050565b565b62000896337fdf8b4c520ffe197c5343c6f5aec59570151ef9a492f2c624fd45ddde6135ec4260001b6200120f565b62000909576040517f08c379a00000000000000000000000000000000000000000000000000000000081526004018080602001828103825260048152602001807f514631300000000000000000000000000000000000000000000000000000000081525060200191505060405180910390fd5b6000620009168262000ec7565b90506000600360009054906101000a900473ffffffffffffffffffffffffffffffffffffffff1673ffffffffffffffffffffffffffffffffffffffff16630178b8bf836040518263ffffffff1660e01b81526004018082815260200191505060206040518083038186803b1580156200098e57600080fd5b505afa158015620009a3573d6000803e3d6000fd5b505050506040513d6020811015620009ba57600080fd5b8101908080519060200190929190505050905060008173ffffffffffffffffffffffffffffffffffffffff16633b3b57de846040518263ffffffff1660e01b81526004018082815260200191505060206040518083038186803b15801562000a2157600080fd5b505afa15801562000a36573d6000803e3d6000fd5b505050506040513d602081101562000a4d57600080fd5b8101908080519060200190929190505050905062000a738163a4d1215e60e01b62000cb1565b62000ae6576040517f08c379a00000000000000000000000000000000000000000000000000000000081526004018080602001828103825260048152602001807f514631320000000000000000000000000000000000000000000000000000000081525060200191505060405180910390fd5b836002908051906020019062000afe929190620019fa565b5050505050565b62000b34337fdf8b4c520ffe197c5343c6f5aec59570151ef9a492f2c624fd45ddde6135ec4260001b6200120f565b62000ba7576040517f08c379a00000000000000000000000000000000000000000000000000000000081526004018080602001828103825260048152602001807f514630350000000000000000000000000000000000000000000000000000000081525060200191505060405180910390fd5b62000bba81637d73b23160e01b62000cb1565b62000c2d576040517f08c379a00000000000000000000000000000000000000000000000000000000081526004018080602001828103825260048152602001807f514630360000000000000000000000000000000000000000000000000000000081525060200191505060405180910390fd5b80600360006101000a81548173ffffffffffffffffffffffffffffffffffffffff021916908373ffffffffffffffffffffffffffffffffffffffff160217905550806000806101000a81548173ffffffffffffffffffffffffffffffffffffffff021916908373ffffffffffffffffffffffffffffffffffffffff16021790555050565b6000808260405160240180827bffffffffffffffffffffffffffffffffffffffffffffffffffffffff191681526020019150506040516020818303038152906040527f01ffc9a7000000000000000000000000000000000000000000000000000000007bffffffffffffffffffffffffffffffffffffffffffffffffffffffff19166020820180517bffffffffffffffffffffffffffffffffffffffffffffffffffffffff838183161783525050505090506000808573ffffffffffffffffffffffffffffffffffffffff16836040518082805190602001908083835b6020831062000db3578051825260208201915060208101905060208303925062000d8e565b6001836020036101000a0380198251168184511680821785525050505050509050019150506000604051808303816000865af19150503d806000811462000e17576040519150601f19603f3d011682016040523d82523d6000602084013e62000e1c565b606091505b50915091508162000e95576040517f08c379a00000000000000000000000000000000000000000000000000000000081526004018080602001828103825260028152602001807f515400000000000000000000000000000000000000000000000000000000000081525060200191505060405180910390fd5b80806020019051602081101562000eab57600080fd5b8101908080519060200190929190505050935050505092915050565b6000806000801b9050600062000edd84620010c8565b9050600062000f216040518060400160405280600181526020017f2e00000000000000000000000000000000000000000000000000000000000000815250620010c8565b90506000600162000f3c8385620010f890919063ffffffff16565b0167ffffffffffffffff8111801562000f5457600080fd5b5060405190808252806020026020018201604052801562000f8a57816020015b606081526020019060019003908162000f745790505b50905060005b815181101562000fdf5762000fb962000fb384866200117390919063ffffffff16565b62001191565b82828151811062000fc657fe5b6020026020010181905250808060010191505062000f90565b506000815190505b6000811115620010bb57848260018303815181106200100257fe5b60200260200101516040516020018082805190602001908083835b602083106200104257805182526020820191506020810190506020830392506200101d565b6001836020036101000a03801982511681845116808217855250505050505090500191505060405160208183030381529060405280519060200120604051602001808381526020018281526020019250505060405160208183030381529060405280519060200120945080806001900391505062000fe7565b5083945050505050919050565b620010d262001a91565b600060208301905060405180604001604052808451815260200182815250915050919050565b60008082600001516200111e856000015186602001518660000151876020015162001817565b0190505b836000015184602001510181116200116c57818060010192505082600001516200116385602001518303866000015103838660000151876020015162001817565b01905062001122565b5092915050565b6200117d62001a91565b6200118a838383620018fd565b5092915050565b60606000826000015167ffffffffffffffff81118015620011b157600080fd5b506040519080825280601f01601f191660200182016040528015620011e55781602001600182028036833780820191505090505b5090506000602082019050620012058185602001518660000151620019a1565b8192505050919050565b600080620013c2600360009054906101000a900473ffffffffffffffffffffffffffffffffffffffff1673ffffffffffffffffffffffffffffffffffffffff1663154c0d786040518163ffffffff1660e01b81526004018080602001828103825260068152602001807f616363657373000000000000000000000000000000000000000000000000000081525060200191505060006040518083038186803b158015620012bb57600080fd5b505afa158015620012d0573d6000803e3d6000fd5b505050506040513d6000823e3d601f19601f820116820180604052506020811015620012fb57600080fd5b81019080805160405193929190846401000000008211156200131c57600080fd5b838201915060208201858111156200133357600080fd5b82518660018202830111640100000000821117156200135157600080fd5b8083526020830192505050908051906020019080838360005b83811015620013875780820151818401526020810190506200136a565b50505050905090810190601f168015620013b55780820380516001836020036101000a031916815260200191505b5060405250505062000ec7565b90506000600360009054906101000a900473ffffffffffffffffffffffffffffffffffffffff1673ffffffffffffffffffffffffffffffffffffffff16630178b8bf836040518263ffffffff1660e01b81526004018082815260200191505060206040518083038186803b1580156200143a57600080fd5b505afa1580156200144f573d6000803e3d6000fd5b505050506040513d60208110156200146657600080fd5b81019080805190602001909291905050509050600073ffffffffffffffffffffffffffffffffffffffff168173ffffffffffffffffffffffffffffffffffffffff16633b3b57de846040518263ffffffff1660e01b81526004018082815260200191505060206040518083038186803b158015620014e357600080fd5b505afa158015620014f8573d6000803e3d6000fd5b505050506040513d60208110156200150f57600080fd5b810190808051906020019092919050505073ffffffffffffffffffffffffffffffffffffffff1614158015620015f657508073ffffffffffffffffffffffffffffffffffffffff166301ffc9a7633b3b57de60e01b6040518263ffffffff1660e01b815260040180827bffffffffffffffffffffffffffffffffffffffffffffffffffffffff1916815260200191505060206040518083038186803b158015620015b857600080fd5b505afa158015620015cd573d6000803e3d6000fd5b505050506040513d6020811015620015e457600080fd5b81019080805190602001909291905050505b62001669576040517f08c379a00000000000000000000000000000000000000000000000000000000081526004018080602001828103825260048152602001807f514c30380000000000000000000000000000000000000000000000000000000081525060200191505060405180910390fd5b60008173ffffffffffffffffffffffffffffffffffffffff16633b3b57de846040518263ffffffff1660e01b81526004018082815260200191505060206040518083038186803b158015620016bd57600080fd5b505afa158015620016d2573d6000803e3d6000fd5b505050506040513d6020811015620016e957600080fd5b8101908080519060200190929190505050905080600460006101000a81548173ffffffffffffffffffffffffffffffffffffffff021916908373ffffffffffffffffffffffffffffffffffffffff160217905550600460009054906101000a900473ffffffffffffffffffffffffffffffffffffffff1673ffffffffffffffffffffffffffffffffffffffff166391d1485486886040518363ffffffff1660e01b8152600401808381526020018273ffffffffffffffffffffffffffffffffffffffff1681526020019250505060206040518083038186803b158015620017cf57600080fd5b505afa158015620017e4573d6000803e3d6000fd5b505050506040513d6020811015620017fb57600080fd5b8101908080519060200190929190505050935050505092915050565b6000808490506000868511620018ed5760208511620018a357600060018660200360080260020a031960001b905060008186511690506000878a8a0103905060008386511690505b828114620018945781861062001880578a8a019650505050505050620018f5565b85806001019650508386511690506200185f565b859650505050505050620018f5565b60008585209050600091505b8588038211620018eb576000868420905080821415620018d65783945050505050620018f5565b600184019350508180600101925050620018af565b505b868601925050505b949350505050565b6200190762001a91565b600062001927856000015186602001518660000151876020015162001817565b905084602001518360200181815250508460200151810383600001818152505084600001518560200151018114156200196b57600085600001818152505062001996565b8360000151836000015101856000018181510391508181525050836000015181018560200181815250505b829150509392505050565b5b60208110620019c75781518352602083019250602082019150602081039050620019a2565b60006001826020036101000a0390508019835116818551168181178652505050505050565b61319b8062001acb83390190565b828054600181600116156101000203166002900490600052602060002090601f01602090048101928262001a32576000855562001a7e565b82601f1062001a4d57805160ff191683800117855562001a7e565b8280016001018555821562001a7e579182015b8281111562001a7d57825182559160200191906001019062001a60565b5b50905062001a8d919062001aab565b5090565b604051806040016040528060008152602001600081525090565b5b8082111562001ac657600081600090555060010162001aac565b509056fe60806040523480156200001157600080fd5b506040516200319b3803806200319b833981810160405260808110156200003757600080fd5b81019080805160405193929190846401000000008211156200005857600080fd5b838201915060208201858111156200006f57600080fd5b82518660018202830111640100000000821117156200008d57600080fd5b8083526020830192505050908051906020019080838360005b83811015620000c3578082015181840152602081019050620000a6565b50505050905090810190601f168015620000f15780820380516001836020036101000a031916815260200191505b50604052602001805160405193929190846401000000008211156200011557600080fd5b838201915060208201858111156200012c57600080fd5b82518660018202830111640100000000821117156200014a57600080fd5b8083526020830192505050908051906020019080838360005b838110156200018057808201518184015260208101905062000163565b50505050905090810190601f168015620001ae5780820380516001836020036101000a031916815260200191505b5060405260200180519060200190929190805190602001909291905050507fc5d2460186f7233c927e7db2dcc703c0e500b653ca82273b7bfad8045d85a4708480519060200120141580156200022b57507fc5d2460186f7233c927e7db2dcc703c0e500b653ca82273b7bfad8045d85a470838051906020012014155b6200029e576040517f08c379a00000000000000000000000000000000000000000000000000000000081526004018080602001828103825260048152602001807f515030310000000000000000000000000000000000000000000000000000000081525060200191505060405180910390fd5b620002bc82637d73b23160e01b620009f460201b6200135b1760201c565b6200032f576040517f08c379a00000000000000000000000000000000000000000000000000000000081526004018080602001828103825260058152602001807f515030314100000000000000000000000000000000000000000000000000000081525060200191505060405180910390fd5b81600260006101000a81548173ffffffffffffffffffffffffffffffffffffffff021916908373ffffffffffffffffffffffffffffffffffffffff160217905550600260009054906101000a900473ffffffffffffffffffffffffffffffffffffffff16600b60006101000a81548173ffffffffffffffffffffffffffffffffffffffff021916908373ffffffffffffffffffffffffffffffffffffffff1602179055506000620003eb8562000c0a60201b6200068d1760201c565b90506000600b60009054906101000a900473ffffffffffffffffffffffffffffffffffffffff1673ffffffffffffffffffffffffffffffffffffffff16630178b8bf836040518263ffffffff1660e01b81526004018082815260200191505060206040518083038186803b1580156200046357600080fd5b505afa15801562000478573d6000803e3d6000fd5b505050506040513d60208110156200048f57600080fd5b810190808051906020019092919050505090506200054e8173ffffffffffffffffffffffffffffffffffffffff16633b3b57de846040518263ffffffff1660e01b81526004018082815260200191505060206040518083038186803b158015620004f857600080fd5b505afa1580156200050d573d6000803e3d6000fd5b505050506040513d60208110156200052457600080fd5b810190808051906020019092919050505063d59742f260e01b620009f460201b6200135b1760201c565b80156200060c57508073ffffffffffffffffffffffffffffffffffffffff166301ffc9a7633b3b57de60e01b6040518263ffffffff1660e01b815260040180827bffffffffffffffffffffffffffffffffffffffffffffffffffffffff1916815260200191505060206040518083038186803b158015620005ce57600080fd5b505afa158015620005e3573d6000803e3d6000fd5b505050506040513d6020811015620005fa57600080fd5b81019080805190602001909291905050505b6200067f576040517f08c379a00000000000000000000000000000000000000000000000000000000081526004018080602001828103825260048152602001807f515030320000000000000000000000000000000000000000000000000000000081525060200191505060405180910390fd5b85600190805190602001906200069792919062001170565b50620006ae8562000c0a60201b6200068d1760201c565b9150600b60009054906101000a900473ffffffffffffffffffffffffffffffffffffffff1673ffffffffffffffffffffffffffffffffffffffff16630178b8bf836040518263ffffffff1660e01b81526004018082815260200191505060206040518083038186803b1580156200072457600080fd5b505afa15801562000739573d6000803e3d6000fd5b505050506040513d60208110156200075057600080fd5b810190808051906020019092919050505090506200080f8173ffffffffffffffffffffffffffffffffffffffff16633b3b57de846040518263ffffffff1660e01b81526004018082815260200191505060206040518083038186803b158015620007b957600080fd5b505afa158015620007ce573d6000803e3d6000fd5b505050506040513d6020811015620007e557600080fd5b810190808051906020019092919050505063a4d1215e60e01b620009f460201b6200135b1760201c565b8015620008cd57508073ffffffffffffffffffffffffffffffffffffffff166301ffc9a7633b3b57de60e01b6040518263ffffffff1660e01b815260040180827bffffffffffffffffffffffffffffffffffffffffffffffffffffffff1916815260200191505060206040518083038186803b1580156200088f57600080fd5b505afa158015620008a4573d6000803e3d6000fd5b505050506040513d6020811015620008bb57600080fd5b81019080805190602001909291905050505b62000940576040517f08c379a00000000000000000000000000000000000000000000000000000000081526004018080602001828103825260048152602001807f515030330000000000000000000000000000000000000000000000000000000081525060200191505060405180910390fd5b84600090805190602001906200095892919062001170565b5082600360006101000a81548173ffffffffffffffffffffffffffffffffffffffff021916908373ffffffffffffffffffffffffffffffffffffffff1602179055506040518060400160405280600381526020017f4e45570000000000000000000000000000000000000000000000000000000000815250600a9080519060200190620009e792919062001170565b5050505050505062001240565b6000808260405160240180827bffffffffffffffffffffffffffffffffffffffffffffffffffffffff191681526020019150506040516020818303038152906040527f01ffc9a7000000000000000000000000000000000000000000000000000000007bffffffffffffffffffffffffffffffffffffffffffffffffffffffff19166020820180517bffffffffffffffffffffffffffffffffffffffffffffffffffffffff838183161783525050505090506000808573ffffffffffffffffffffffffffffffffffffffff16836040518082805190602001908083835b6020831062000af6578051825260208201915060208101905060208303925062000ad1565b6001836020036101000a0380198251168184511680821785525050505050509050019150506000604051808303816000865af19150503d806000811462000b5a576040519150601f19603f3d011682016040523d82523d6000602084013e62000b5f565b606091505b50915091508162000bd8576040517f08c379a00000000000000000000000000000000000000000000000000000000081526004018080602001828103825260028152602001807f515400000000000000000000000000000000000000000000000000000000000081525060200191505060405180910390fd5b80806020019051602081101562000bee57600080fd5b8101908080519060200190929190505050935050505092915050565b6000806000801b9050600062000c2b8462000e3660201b6200156b1760201c565b9050600062000c7a6040518060400160405280600181526020017f2e0000000000000000000000000000000000000000000000000000000000000081525062000e3660201b6200156b1760201c565b90506000600162000c9a838562000e6660201b620015991790919060201c565b0167ffffffffffffffff8111801562000cb257600080fd5b5060405190808252806020026020018201604052801562000ce857816020015b606081526020019060019003908162000cd25790505b50905060005b815181101562000d4d5762000d2762000d16848662000eed60201b6200160e1790919060201c565b62000f1160201b620016281760201c565b82828151811062000d3457fe5b6020026020010181905250808060010191505062000cee565b506000815190505b600081111562000e29578482600183038151811062000d7057fe5b60200260200101516040516020018082805190602001908083835b6020831062000db0578051825260208201915060208101905060208303925062000d8b565b6001836020036101000a03801982511681845116808217855250505050505090500191505060405160208183030381529060405280519060200120604051602001808381526020018281526020019250505060405160208183030381529060405280519060200120945080806001900391505062000d55565b5083945050505050919050565b62000e4062001207565b600060208301905060405180604001604052808451815260200182815250915050919050565b600080826000015162000e92856000015186602001518660000151876020015162000f9560201b60201c565b0190505b8360000151846020015101811162000ee6578180600101925050826000015162000edd85602001518303866000015103838660000151876020015162000f9560201b60201c565b01905062000e96565b5092915050565b62000ef762001207565b62000f0a8383836200107b60201b60201c565b5092915050565b60606000826000015167ffffffffffffffff8111801562000f3157600080fd5b506040519080825280601f01601f19166020018201604052801562000f655781602001600182028036833780820191505090505b509050600060208201905062000f8b81856020015186600001516200112560201b60201c565b8192505050919050565b60008084905060008685116200106b57602085116200102157600060018660200360080260020a031960001b905060008186511690506000878a8a0103905060008386511690505b828114620010125781861062000ffe578a8a01965050505050505062001073565b858060010196505083865116905062000fdd565b85965050505050505062001073565b60008585209050600091505b85880382116200106957600086842090508082141562001054578394505050505062001073565b6001840193505081806001019250506200102d565b505b868601925050505b949350505050565b6200108562001207565b6000620010ab856000015186602001518660000151876020015162000f9560201b60201c565b90508460200151836020018181525050846020015181038360000181815250508460000151856020015101811415620010ef5760008560000181815250506200111a565b8360000151836000015101856000018181510391508181525050836000015181018560200181815250505b829150509392505050565b5b602081106200114b578151835260208301925060208201915060208103905062001126565b60006001826020036101000a0390508019835116818551168181178652505050505050565b828054600181600116156101000203166002900490600052602060002090601f016020900481019282620011a85760008555620011f4565b82601f10620011c357805160ff1916838001178555620011f4565b82800160010185558215620011f4579182015b82811115620011f3578251825591602001919060010190620011d6565b5b50905062001203919062001221565b5090565b604051806040016040528060008152602001600081525090565b5b808211156200123c57600081600090555060010162001222565b5090565b611f4b80620012506000396000f3fe6080604052600436106100595760003560e01c806301ffc9a71461030c578063434784281461037c5780637d311ec714610393578063927cf6441461045b578063c37412cf146104ac578063f19b3c2b146105c55761005a565b5b60006100ff60018054600181600116156101000203166002900480601f0160208091040260200160405190810160405280929190818152602001828054600181600116156101000203166002900480156100f55780601f106100ca576101008083540402835291602001916100f5565b820191906000526020600020905b8154815290600101906020018083116100d857829003601f168201915b505050505061068d565b90506000600b60009054906101000a900473ffffffffffffffffffffffffffffffffffffffff1673ffffffffffffffffffffffffffffffffffffffff16630178b8bf836040518263ffffffff1660e01b81526004018082815260200191505060206040518083038186803b15801561017657600080fd5b505afa15801561018a573d6000803e3d6000fd5b505050506040513d60208110156101a057600080fd5b8101908080519060200190929190505050905060008173ffffffffffffffffffffffffffffffffffffffff16633b3b57de846040518263ffffffff1660e01b81526004018082815260200191505060206040518083038186803b15801561020657600080fd5b505afa15801561021a573d6000803e3d6000fd5b505050506040513d602081101561023057600080fd5b81019080805190602001909291905050509050600073ffffffffffffffffffffffffffffffffffffffff168173ffffffffffffffffffffffffffffffffffffffff1614156102e6576040517f08c379a00000000000000000000000000000000000000000000000000000000081526004018080602001828103825260048152602001807f515030380000000000000000000000000000000000000000000000000000000081525060200191505060405180910390fd5b3660008037600080366000845af43d6000803e8060008114610307573d6000f35b3d6000fd5b34801561031857600080fd5b506103646004803603602081101561032f57600080fd5b8101908080357bffffffffffffffffffffffffffffffffffffffffffffffffffffffff19169060200190929190505050610879565b60405180821515815260200191505060405180910390f35b34801561038857600080fd5b506103916108ca565b005b34801561039f57600080fd5b50610459600480360360208110156103b657600080fd5b81019080803590602001906401000000008111156103d357600080fd5b8201836020820111156103e557600080fd5b8035906020019184600183028401116401000000008311171561040757600080fd5b91908080601f016020809104026020016040519081016040528093929190818152602001838380828437600081840152601f19601f8201169050808301925050505050505091929192905050506108cc565b005b34801561046757600080fd5b506104aa6004803603602081101561047e57600080fd5b81019080803573ffffffffffffffffffffffffffffffffffffffff169060200190929190505050610c0e565b005b3480156104b857600080fd5b506104c1610dd7565b6040518080602001806020018473ffffffffffffffffffffffffffffffffffffffff168152602001838103835286818151815260200191508051906020019080838360005b83811015610521578082015181840152602081019050610506565b50505050905090810190601f16801561054e5780820380516001836020036101000a031916815260200191505b50838103825285818151815260200191508051906020019080838360005b8381101561058757808201518184015260208101905061056c565b50505050905090810190601f1680156105b45780820380516001836020036101000a031916815260200191505b509550505050505060405180910390f35b3480156105d157600080fd5b5061068b600480360360208110156105e857600080fd5b810190808035906020019064010000000081111561060557600080fd5b82018360208201111561061757600080fd5b8035906020019184600183028401116401000000008311171561063957600080fd5b91908080601f016020809104026020016040519081016040528093929190818152602001838380828437600081840152601f19601f820116905080830192505050505050509192919290505050611019565b005b6000806000801b905060006106a18461156b565b905060006106e36040518060400160405280600181526020017f2e0000000000000000000000000000000000000000000000000000000000000081525061156b565b9050600060016106fc838561159990919063ffffffff16565b0167ffffffffffffffff8111801561071357600080fd5b5060405190808252806020026020018201604052801561074757816020015b60608152602001906001900390816107325790505b50905060005b81518110156107955761077161076c848661160e90919063ffffffff16565b611628565b82828151811061077d57fe5b6020026020010181905250808060010191505061074d565b506000815190505b600081111561086c57848260018303815181106107b657fe5b60200260200101516040516020018082805190602001908083835b602083106107f457805182526020820191506020810190506020830392506107d1565b6001836020036101000a03801982511681845116808217855250505050505090500191505060405160208183030381529060405280519060200120604051602001808381526020018281526020019250505060405160208183030381529060405280519060200120945080806001900391505061079d565b5083945050505050919050565b6000634347842860e01b7bffffffffffffffffffffffffffffffffffffffffffffffffffffffff1916827bffffffffffffffffffffffffffffffffffffffffffffffffffffffff1916149050919050565b565b6108f9337fdf8b4c520ffe197c5343c6f5aec59570151ef9a492f2c624fd45ddde6135ec4260001b6116a2565b61096b576040517f08c379a00000000000000000000000000000000000000000000000000000000081526004018080602001828103825260048152602001807f515030390000000000000000000000000000000000000000000000000000000081525060200191505060405180910390fd5b60006109768261068d565b90506000600b60009054906101000a900473ffffffffffffffffffffffffffffffffffffffff1673ffffffffffffffffffffffffffffffffffffffff16630178b8bf836040518263ffffffff1660e01b81526004018082815260200191505060206040518083038186803b1580156109ed57600080fd5b505afa158015610a01573d6000803e3d6000fd5b505050506040513d6020811015610a1757600080fd5b81019080805190602001909291905050509050610ac68173ffffffffffffffffffffffffffffffffffffffff16633b3b57de846040518263ffffffff1660e01b81526004018082815260200191505060206040518083038186803b158015610a7e57600080fd5b505afa158015610a92573d6000803e3d6000fd5b505050506040513d6020811015610aa857600080fd5b810190808051906020019092919050505063a4d1215e60e01b61135b565b8015610b8057508073ffffffffffffffffffffffffffffffffffffffff166301ffc9a7633b3b57de60e01b6040518263ffffffff1660e01b815260040180827bffffffffffffffffffffffffffffffffffffffffffffffffffffffff1916815260200191505060206040518083038186803b158015610b4457600080fd5b505afa158015610b58573d6000803e3d6000fd5b505050506040513d6020811015610b6e57600080fd5b81019080805190602001909291905050505b610bf2576040517f08c379a00000000000000000000000000000000000000000000000000000000081526004018080602001828103825260058152602001807f515030394100000000000000000000000000000000000000000000000000000081525060200191505060405180910390fd5b8260019080519060200190610c08929190611e50565b50505050565b610c3b337fdf8b4c520ffe197c5343c6f5aec59570151ef9a492f2c624fd45ddde6135ec4260001b6116a2565b610cad576040517f08c379a00000000000000000000000000000000000000000000000000000000081526004018080602001828103825260048152602001807f515031320000000000000000000000000000000000000000000000000000000081525060200191505060405180910390fd5b610cbe81637d73b23160e01b61135b565b610d30576040517f08c379a00000000000000000000000000000000000000000000000000000000081526004018080602001828103825260048152602001807f515031330000000000000000000000000000000000000000000000000000000081525060200191505060405180910390fd5b80600260006101000a81548173ffffffffffffffffffffffffffffffffffffffff021916908373ffffffffffffffffffffffffffffffffffffffff160217905550600260009054906101000a900473ffffffffffffffffffffffffffffffffffffffff16600b60006101000a81548173ffffffffffffffffffffffffffffffffffffffff021916908373ffffffffffffffffffffffffffffffffffffffff16021790555050565b6060806000610e09337fdf8b4c520ffe197c5343c6f5aec59570151ef9a492f2c624fd45ddde6135ec4260001b6116a2565b80610e3d5750610e3c337f201105a52b842adfbcdcfcac0349cd25c8a3cb322954633dd585b0958aa204f360001b6116a2565b5b610eaf576040517f08c379a00000000000000000000000000000000000000000000000000000000081526004018080602001828103825260048152602001807f515031310000000000000000000000000000000000000000000000000000000081525060200191505060405180910390fd5b60016000600260009054906101000a900473ffffffffffffffffffffffffffffffffffffffff16828054600181600116156101000203166002900480601f016020809104026020016040519081016040528092919081815260200182805460018160011615610100020316600290048015610f6b5780601f10610f4057610100808354040283529160200191610f6b565b820191906000526020600020905b815481529060010190602001808311610f4e57829003601f168201915b50505050509250818054600181600116156101000203166002900480601f0160208091040260200160405190810160405280929190818152602001828054600181600116156101000203166002900480156110075780601f10610fdc57610100808354040283529160200191611007565b820191906000526020600020905b815481529060010190602001808311610fea57829003601f168201915b50505050509150925092509250909192565b611046337fdf8b4c520ffe197c5343c6f5aec59570151ef9a492f2c624fd45ddde6135ec4260001b6116a2565b6110b8576040517f08c379a00000000000000000000000000000000000000000000000000000000081526004018080602001828103825260048152602001807f515030360000000000000000000000000000000000000000000000000000000081525060200191505060405180910390fd5b60006110c38261068d565b90506000600b60009054906101000a900473ffffffffffffffffffffffffffffffffffffffff1673ffffffffffffffffffffffffffffffffffffffff16630178b8bf836040518263ffffffff1660e01b81526004018082815260200191505060206040518083038186803b15801561113a57600080fd5b505afa15801561114e573d6000803e3d6000fd5b505050506040513d602081101561116457600080fd5b810190808051906020019092919050505090506112138173ffffffffffffffffffffffffffffffffffffffff16633b3b57de846040518263ffffffff1660e01b81526004018082815260200191505060206040518083038186803b1580156111cb57600080fd5b505afa1580156111df573d6000803e3d6000fd5b505050506040513d60208110156111f557600080fd5b810190808051906020019092919050505063d59742f260e01b61135b565b80156112cd57508073ffffffffffffffffffffffffffffffffffffffff166301ffc9a7633b3b57de60e01b6040518263ffffffff1660e01b815260040180827bffffffffffffffffffffffffffffffffffffffffffffffffffffffff1916815260200191505060206040518083038186803b15801561129157600080fd5b505afa1580156112a5573d6000803e3d6000fd5b505050506040513d60208110156112bb57600080fd5b81019080805190602001909291905050505b61133f576040517f08c379a00000000000000000000000000000000000000000000000000000000081526004018080602001828103825260058152602001807f515030364100000000000000000000000000000000000000000000000000000081525060200191505060405180910390fd5b8260019080519060200190611355929190611e50565b50505050565b6000808260405160240180827bffffffffffffffffffffffffffffffffffffffffffffffffffffffff191681526020019150506040516020818303038152906040527f01ffc9a7000000000000000000000000000000000000000000000000000000007bffffffffffffffffffffffffffffffffffffffffffffffffffffffff19166020820180517bffffffffffffffffffffffffffffffffffffffffffffffffffffffff838183161783525050505090506000808573ffffffffffffffffffffffffffffffffffffffff16836040518082805190602001908083835b6020831061145b5780518252602082019150602081019050602083039250611438565b6001836020036101000a0380198251168184511680821785525050505050509050019150506000604051808303816000865af19150503d80600081146114bd576040519150601f19603f3d011682016040523d82523d6000602084013e6114c2565b606091505b50915091508161153a576040517f08c379a00000000000000000000000000000000000000000000000000000000081526004018080602001828103825260028152602001807f515400000000000000000000000000000000000000000000000000000000000081525060200191505060405180910390fd5b80806020019051602081101561154f57600080fd5b8101908080519060200190929190505050935050505092915050565b611573611ede565b600060208301905060405180604001604052808451815260200182815250915050919050565b60008082600001516115bd8560000151866020015186600001518760200151611c8e565b0190505b8360000151846020015101811161160757818060010192505082600001516115ff856020015183038660000151038386600001518760200151611c8e565b0190506115c1565b5092915050565b611616611ede565b611621838383611d69565b5092915050565b60606000826000015167ffffffffffffffff8111801561164757600080fd5b506040519080825280601f01601f19166020018201604052801561167a5781602001600182028036833780820191505090505b50905060006020820190506116988185602001518660000151611e07565b8192505050919050565b60008061184a600b60009054906101000a900473ffffffffffffffffffffffffffffffffffffffff1673ffffffffffffffffffffffffffffffffffffffff1663154c0d786040518163ffffffff1660e01b81526004018080602001828103825260068152602001807f616363657373000000000000000000000000000000000000000000000000000081525060200191505060006040518083038186803b15801561174c57600080fd5b505afa158015611760573d6000803e3d6000fd5b505050506040513d6000823e3d601f19601f82011682018060405250602081101561178a57600080fd5b81019080805160405193929190846401000000008211156117aa57600080fd5b838201915060208201858111156117c057600080fd5b82518660018202830111640100000000821117156117dd57600080fd5b8083526020830192505050908051906020019080838360005b838110156118115780820151818401526020810190506117f6565b50505050905090810190601f16801561183e5780820380516001836020036101000a031916815260200191505b5060405250505061068d565b90506000600b60009054906101000a900473ffffffffffffffffffffffffffffffffffffffff1673ffffffffffffffffffffffffffffffffffffffff16630178b8bf836040518263ffffffff1660e01b81526004018082815260200191505060206040518083038186803b1580156118c157600080fd5b505afa1580156118d5573d6000803e3d6000fd5b505050506040513d60208110156118eb57600080fd5b81019080805190602001909291905050509050600073ffffffffffffffffffffffffffffffffffffffff168173ffffffffffffffffffffffffffffffffffffffff16633b3b57de846040518263ffffffff1660e01b81526004018082815260200191505060206040518083038186803b15801561196757600080fd5b505afa15801561197b573d6000803e3d6000fd5b505050506040513d602081101561199157600080fd5b810190808051906020019092919050505073ffffffffffffffffffffffffffffffffffffffff1614158015611a7457508073ffffffffffffffffffffffffffffffffffffffff166301ffc9a7633b3b57de60e01b6040518263ffffffff1660e01b815260040180827bffffffffffffffffffffffffffffffffffffffffffffffffffffffff1916815260200191505060206040518083038186803b158015611a3857600080fd5b505afa158015611a4c573d6000803e3d6000fd5b505050506040513d6020811015611a6257600080fd5b81019080805190602001909291905050505b611ae6576040517f08c379a00000000000000000000000000000000000000000000000000000000081526004018080602001828103825260048152602001807f514c30370000000000000000000000000000000000000000000000000000000081525060200191505060405180910390fd5b60008173ffffffffffffffffffffffffffffffffffffffff16633b3b57de846040518263ffffffff1660e01b81526004018082815260200191505060206040518083038186803b158015611b3957600080fd5b505afa158015611b4d573d6000803e3d6000fd5b505050506040513d6020811015611b6357600080fd5b8101908080519060200190929190505050905080600760006101000a81548173ffffffffffffffffffffffffffffffffffffffff021916908373ffffffffffffffffffffffffffffffffffffffff160217905550600760009054906101000a900473ffffffffffffffffffffffffffffffffffffffff1673ffffffffffffffffffffffffffffffffffffffff166391d1485486886040518363ffffffff1660e01b8152600401808381526020018273ffffffffffffffffffffffffffffffffffffffff1681526020019250505060206040518083038186803b158015611c4857600080fd5b505afa158015611c5c573d6000803e3d6000fd5b505050506040513d6020811015611c7257600080fd5b8101908080519060200190929190505050935050505092915050565b6000808490506000868511611d595760208511611d1357600060018660200360080260020a031960001b905060008186511690506000878a8a0103905060008386511690505b828114611d0557818610611cf2578a8a019650505050505050611d61565b8580600101965050838651169050611cd4565b859650505050505050611d61565b60008585209050600091505b8588038211611d57576000868420905080821415611d435783945050505050611d61565b600184019350508180600101925050611d1f565b505b868601925050505b949350505050565b611d71611ede565b6000611d8f8560000151866020015186600001518760200151611c8e565b90508460200151836020018181525050846020015181038360000181815250508460000151856020015101811415611dd1576000856000018181525050611dfc565b8360000151836000015101856000018181510391508181525050836000015181018560200181815250505b829150509392505050565b5b60208110611e2b5781518352602083019250602082019150602081039050611e08565b60006001826020036101000a0390508019835116818551168181178652505050505050565b828054600181600116156101000203166002900490600052602060002090601f016020900481019282611e865760008555611ecd565b82601f10611e9f57805160ff1916838001178555611ecd565b82800160010185558215611ecd579182015b82811115611ecc578251825591602001919060010190611eb1565b5b509050611eda9190611ef8565b5090565b604051806040016040528060008152602001600081525090565b5b80821115611f11576000816000905550600101611ef9565b509056fea2646970667358221220305fb18da7f1500d7e48650e0c6ae6ecd7095ad958500c0847d6a305876796f764736f6c63430007060033a264697066735822122048fc1e12d92e4ce041bf20dc11cf8c1b01bac885852acbffe6af83e13b3df62464736f6c63430007060033",
  "immutableReferences": {},
  "source": "pragma solidity >=0.7.0;\n// SPDX-License-Identifier: GPL-3.0-or-later\nimport \"./QualificationProxy.sol\";\nimport \"../../Utils/Roles.sol\";\nimport \"../../Utils/Library.sol\";\nimport \"../../Utils/ENSRegistry.sol\";\nimport \"../../Utils/Resolver.sol\";\n\ncontract QualificationFactory is Roles{\n    \n    \n    address orgENSRegistar;\n    string implementENS;\n    string attributeENS;\n    ENS ens;\n    PermissionControl access;\n    \n    constructor(address _orgENSRegistar,string memory _imp,string memory _attlist) {\n        require(Utility._checkInterfaceID(_orgENSRegistar,Utility.INTERFACE_ID_ENSREGISTRY),\"QF01\");\n        ens = ENS(_orgENSRegistar);\n        require(_orgAccessCheck(msg.sender,ADMIN),\"QF02\");\n        \n        bytes32 namehash = Utility._computeNamehash(_imp);\n        Resolver res = Resolver(ens.resolver(namehash));\n        require(Utility._checkInterfaceID(res.addr(namehash),Utility.INTERFACE_ID_QUALIFICATIONLOGIC),\"QF03\");\n        namehash = Utility._computeNamehash(_attlist);\n        res = Resolver(ens.resolver(namehash));\n        require(Utility._checkInterfaceID(res.addr(namehash),Utility.INTERFACE_ID_QUALIFICATIONATTLIST),\"QF04\");\n        orgENSRegistar=_orgENSRegistar;\n        implementENS=_imp;\n        attributeENS=_attlist;\n    }\n    \n    function updateOrgENSRegistar(address _a) public {\n        require(_orgAccessCheck(msg.sender,ADMIN),\"QF05\");\n        require(Utility._checkInterfaceID(_a,Utility.INTERFACE_ID_ENSREGISTRY),\"QF06\");\n        ens = ENS(_a);\n        orgENSRegistar=_a;\n    }\n    \n    function updateImplementationENS(string memory _imp) public {\n        require(_orgAccessCheck(msg.sender,ADMIN),\"QF07\");\n        bytes32 namehash = Utility._computeNamehash(_imp);\n        Resolver res = Resolver(ens.resolver(namehash));\n        address a = res.addr(namehash);\n        require(Utility._checkInterfaceID(a,Utility.INTERFACE_ID_QUALIFICATIONLOGIC),\"QF09\");\n        implementENS=_imp;\n        \n    }\n    \n    function updateAttributeListENS(string memory _imp) public {\n        require(_orgAccessCheck(msg.sender,ADMIN),\"QF10\");\n        bytes32 namehash = Utility._computeNamehash(_imp);\n        Resolver res = Resolver(ens.resolver(namehash));\n        address a = res.addr(namehash);\n        require(Utility._checkInterfaceID(a,Utility.INTERFACE_ID_QUALIFICATIONATTLIST),\"QF12\");\n        attributeENS=_imp;\n        \n    }\n    \n    function createNewQualificaitonContract(address _owner,address _orgENSRegistar) public\n    returns(address _i)\n    {\n        \n        require(_orgAccessCheck(msg.sender,TOKEN),\"QF13\");\n        QualificationProxy q = new QualificationProxy(implementENS,attributeENS,_orgENSRegistar,_owner);\n        return(address(q));\n        \n    }\n    \n    function _orgAccessCheck(address _caller,bytes32 _role) internal \n    returns(bool)\n    {\n        bytes32 orgAccessENS = Utility._computeNamehash(ens.getPredefineENSPrefix(\"access\"));\n        Resolver res = Resolver(ens.resolver(orgAccessENS));\n        require(res.addr(orgAccessENS)!=address(0) && res.supportsInterface(Utility.ADDR_INTERFACE_ID),\"QL08\");\n        address orgAccessAdr = res.addr(orgAccessENS);\n        access = PermissionControl(orgAccessAdr);\n        return access.hasRole(_role,_caller);\n        \n    }\n    \n    function qualificationFactory() public{}\n    \n    \n    function supportsInterface(bytes4 interfaceId) public view returns (bool) {\n        return interfaceId == Utility.INTERFACE_ID_QUALIFICATIONFACTORY;\n    }\n    \n    \n}",
  "sourcePath": "/home/dickchan/CIC/contracts/AssetContract/Qualification/QualificationFactory.sol",
  "compiler": {
    "name": "solc",
    "version": "0.7.6+commit.7338295f.Emscripten.clang"
  },
  "schemaVersion": "3.2.3",
  "updatedAt": "2021-03-18T07:14:07.352Z",
  "devdoc": {
    "kind": "dev",
    "methods": {},
    "version": 1
  },
  "userdoc": {
    "kind": "user",
    "methods": {},
    "version": 1
  }
}