{
  "contractName": "QualificationProxy",
  "abi": [
    {
      "inputs": [
        {
          "internalType": "string",
          "name": "_imp",
          "type": "string"
        },
        {
          "internalType": "string",
          "name": "_attributelist",
          "type": "string"
        },
        {
          "internalType": "address",
          "name": "_ensaddress",
          "type": "address"
        },
        {
          "internalType": "address",
          "name": "_qualificationOwner",
          "type": "address"
        }
      ],
      "stateMutability": "nonpayable",
      "type": "constructor"
    },
    {
      "stateMutability": "payable",
      "type": "fallback"
    },
    {
      "inputs": [
        {
          "internalType": "string",
          "name": "_imp",
          "type": "string"
        }
      ],
      "name": "updateImplemetENSname",
      "outputs": [],
      "stateMutability": "nonpayable",
      "type": "function"
    },
    {
      "inputs": [
        {
          "internalType": "address",
          "name": "_ens",
          "type": "address"
        }
      ],
      "name": "updateENSAddress",
      "outputs": [],
      "stateMutability": "nonpayable",
      "type": "function"
    },
    {
      "inputs": [
        {
          "internalType": "string",
          "name": "_imp",
          "type": "string"
        }
      ],
      "name": "updateAttributeListENSname",
      "outputs": [],
      "stateMutability": "nonpayable",
      "type": "function"
    },
    {
      "inputs": [],
      "name": "getSystemPara",
      "outputs": [
        {
          "internalType": "string",
          "name": "",
          "type": "string"
        },
        {
          "internalType": "string",
          "name": "",
          "type": "string"
        },
        {
          "internalType": "address",
          "name": "",
          "type": "address"
        }
      ],
      "stateMutability": "nonpayable",
      "type": "function"
    },
    {
      "inputs": [
        {
          "internalType": "bytes4",
          "name": "interfaceId",
          "type": "bytes4"
        }
      ],
      "name": "supportsInterface",
      "outputs": [
        {
          "internalType": "bool",
          "name": "",
          "type": "bool"
        }
      ],
      "stateMutability": "view",
      "type": "function"
    },
    {
      "inputs": [],
      "name": "qualificationProxy",
      "outputs": [],
      "stateMutability": "nonpayable",
      "type": "function"
    }
  ],
  "bytecode": "0x60806040523480156200001157600080fd5b506040516200319b3803806200319b833981810160405260808110156200003757600080fd5b81019080805160405193929190846401000000008211156200005857600080fd5b838201915060208201858111156200006f57600080fd5b82518660018202830111640100000000821117156200008d57600080fd5b8083526020830192505050908051906020019080838360005b83811015620000c3578082015181840152602081019050620000a6565b50505050905090810190601f168015620000f15780820380516001836020036101000a031916815260200191505b50604052602001805160405193929190846401000000008211156200011557600080fd5b838201915060208201858111156200012c57600080fd5b82518660018202830111640100000000821117156200014a57600080fd5b8083526020830192505050908051906020019080838360005b838110156200018057808201518184015260208101905062000163565b50505050905090810190601f168015620001ae5780820380516001836020036101000a031916815260200191505b5060405260200180519060200190929190805190602001909291905050507fc5d2460186f7233c927e7db2dcc703c0e500b653ca82273b7bfad8045d85a4708480519060200120141580156200022b57507fc5d2460186f7233c927e7db2dcc703c0e500b653ca82273b7bfad8045d85a470838051906020012014155b6200029e576040517f08c379a00000000000000000000000000000000000000000000000000000000081526004018080602001828103825260048152602001807f515030310000000000000000000000000000000000000000000000000000000081525060200191505060405180910390fd5b620002bc82637d73b23160e01b620009f460201b6200135b1760201c565b6200032f576040517f08c379a00000000000000000000000000000000000000000000000000000000081526004018080602001828103825260058152602001807f515030314100000000000000000000000000000000000000000000000000000081525060200191505060405180910390fd5b81600260006101000a81548173ffffffffffffffffffffffffffffffffffffffff021916908373ffffffffffffffffffffffffffffffffffffffff160217905550600260009054906101000a900473ffffffffffffffffffffffffffffffffffffffff16600b60006101000a81548173ffffffffffffffffffffffffffffffffffffffff021916908373ffffffffffffffffffffffffffffffffffffffff1602179055506000620003eb8562000c0a60201b6200068d1760201c565b90506000600b60009054906101000a900473ffffffffffffffffffffffffffffffffffffffff1673ffffffffffffffffffffffffffffffffffffffff16630178b8bf836040518263ffffffff1660e01b81526004018082815260200191505060206040518083038186803b1580156200046357600080fd5b505afa15801562000478573d6000803e3d6000fd5b505050506040513d60208110156200048f57600080fd5b810190808051906020019092919050505090506200054e8173ffffffffffffffffffffffffffffffffffffffff16633b3b57de846040518263ffffffff1660e01b81526004018082815260200191505060206040518083038186803b158015620004f857600080fd5b505afa1580156200050d573d6000803e3d6000fd5b505050506040513d60208110156200052457600080fd5b810190808051906020019092919050505063d59742f260e01b620009f460201b6200135b1760201c565b80156200060c57508073ffffffffffffffffffffffffffffffffffffffff166301ffc9a7633b3b57de60e01b6040518263ffffffff1660e01b815260040180827bffffffffffffffffffffffffffffffffffffffffffffffffffffffff1916815260200191505060206040518083038186803b158015620005ce57600080fd5b505afa158015620005e3573d6000803e3d6000fd5b505050506040513d6020811015620005fa57600080fd5b81019080805190602001909291905050505b6200067f576040517f08c379a00000000000000000000000000000000000000000000000000000000081526004018080602001828103825260048152602001807f515030320000000000000000000000000000000000000000000000000000000081525060200191505060405180910390fd5b85600190805190602001906200069792919062001170565b50620006ae8562000c0a60201b6200068d1760201c565b9150600b60009054906101000a900473ffffffffffffffffffffffffffffffffffffffff1673ffffffffffffffffffffffffffffffffffffffff16630178b8bf836040518263ffffffff1660e01b81526004018082815260200191505060206040518083038186803b1580156200072457600080fd5b505afa15801562000739573d6000803e3d6000fd5b505050506040513d60208110156200075057600080fd5b810190808051906020019092919050505090506200080f8173ffffffffffffffffffffffffffffffffffffffff16633b3b57de846040518263ffffffff1660e01b81526004018082815260200191505060206040518083038186803b158015620007b957600080fd5b505afa158015620007ce573d6000803e3d6000fd5b505050506040513d6020811015620007e557600080fd5b810190808051906020019092919050505063a4d1215e60e01b620009f460201b6200135b1760201c565b8015620008cd57508073ffffffffffffffffffffffffffffffffffffffff166301ffc9a7633b3b57de60e01b6040518263ffffffff1660e01b815260040180827bffffffffffffffffffffffffffffffffffffffffffffffffffffffff1916815260200191505060206040518083038186803b1580156200088f57600080fd5b505afa158015620008a4573d6000803e3d6000fd5b505050506040513d6020811015620008bb57600080fd5b81019080805190602001909291905050505b62000940576040517f08c379a00000000000000000000000000000000000000000000000000000000081526004018080602001828103825260048152602001807f515030330000000000000000000000000000000000000000000000000000000081525060200191505060405180910390fd5b84600090805190602001906200095892919062001170565b5082600360006101000a81548173ffffffffffffffffffffffffffffffffffffffff021916908373ffffffffffffffffffffffffffffffffffffffff1602179055506040518060400160405280600381526020017f4e45570000000000000000000000000000000000000000000000000000000000815250600a9080519060200190620009e792919062001170565b5050505050505062001240565b6000808260405160240180827bffffffffffffffffffffffffffffffffffffffffffffffffffffffff191681526020019150506040516020818303038152906040527f01ffc9a7000000000000000000000000000000000000000000000000000000007bffffffffffffffffffffffffffffffffffffffffffffffffffffffff19166020820180517bffffffffffffffffffffffffffffffffffffffffffffffffffffffff838183161783525050505090506000808573ffffffffffffffffffffffffffffffffffffffff16836040518082805190602001908083835b6020831062000af6578051825260208201915060208101905060208303925062000ad1565b6001836020036101000a0380198251168184511680821785525050505050509050019150506000604051808303816000865af19150503d806000811462000b5a576040519150601f19603f3d011682016040523d82523d6000602084013e62000b5f565b606091505b50915091508162000bd8576040517f08c379a00000000000000000000000000000000000000000000000000000000081526004018080602001828103825260028152602001807f515400000000000000000000000000000000000000000000000000000000000081525060200191505060405180910390fd5b80806020019051602081101562000bee57600080fd5b8101908080519060200190929190505050935050505092915050565b6000806000801b9050600062000c2b8462000e3660201b6200156b1760201c565b9050600062000c7a6040518060400160405280600181526020017f2e0000000000000000000000000000000000000000000000000000000000000081525062000e3660201b6200156b1760201c565b90506000600162000c9a838562000e6660201b620015991790919060201c565b0167ffffffffffffffff8111801562000cb257600080fd5b5060405190808252806020026020018201604052801562000ce857816020015b606081526020019060019003908162000cd25790505b50905060005b815181101562000d4d5762000d2762000d16848662000eed60201b6200160e1790919060201c565b62000f1160201b620016281760201c565b82828151811062000d3457fe5b6020026020010181905250808060010191505062000cee565b506000815190505b600081111562000e29578482600183038151811062000d7057fe5b60200260200101516040516020018082805190602001908083835b6020831062000db0578051825260208201915060208101905060208303925062000d8b565b6001836020036101000a03801982511681845116808217855250505050505090500191505060405160208183030381529060405280519060200120604051602001808381526020018281526020019250505060405160208183030381529060405280519060200120945080806001900391505062000d55565b5083945050505050919050565b62000e4062001207565b600060208301905060405180604001604052808451815260200182815250915050919050565b600080826000015162000e92856000015186602001518660000151876020015162000f9560201b60201c565b0190505b8360000151846020015101811162000ee6578180600101925050826000015162000edd85602001518303866000015103838660000151876020015162000f9560201b60201c565b01905062000e96565b5092915050565b62000ef762001207565b62000f0a8383836200107b60201b60201c565b5092915050565b60606000826000015167ffffffffffffffff8111801562000f3157600080fd5b506040519080825280601f01601f19166020018201604052801562000f655781602001600182028036833780820191505090505b509050600060208201905062000f8b81856020015186600001516200112560201b60201c565b8192505050919050565b60008084905060008685116200106b57602085116200102157600060018660200360080260020a031960001b905060008186511690506000878a8a0103905060008386511690505b828114620010125781861062000ffe578a8a01965050505050505062001073565b858060010196505083865116905062000fdd565b85965050505050505062001073565b60008585209050600091505b85880382116200106957600086842090508082141562001054578394505050505062001073565b6001840193505081806001019250506200102d565b505b868601925050505b949350505050565b6200108562001207565b6000620010ab856000015186602001518660000151876020015162000f9560201b60201c565b90508460200151836020018181525050846020015181038360000181815250508460000151856020015101811415620010ef5760008560000181815250506200111a565b8360000151836000015101856000018181510391508181525050836000015181018560200181815250505b829150509392505050565b5b602081106200114b578151835260208301925060208201915060208103905062001126565b60006001826020036101000a0390508019835116818551168181178652505050505050565b828054600181600116156101000203166002900490600052602060002090601f016020900481019282620011a85760008555620011f4565b82601f10620011c357805160ff1916838001178555620011f4565b82800160010185558215620011f4579182015b82811115620011f3578251825591602001919060010190620011d6565b5b50905062001203919062001221565b5090565b604051806040016040528060008152602001600081525090565b5b808211156200123c57600081600090555060010162001222565b5090565b611f4b80620012506000396000f3fe6080604052600436106100595760003560e01c806301ffc9a71461030c578063434784281461037c5780637d311ec714610393578063927cf6441461045b578063c37412cf146104ac578063f19b3c2b146105c55761005a565b5b60006100ff60018054600181600116156101000203166002900480601f0160208091040260200160405190810160405280929190818152602001828054600181600116156101000203166002900480156100f55780601f106100ca576101008083540402835291602001916100f5565b820191906000526020600020905b8154815290600101906020018083116100d857829003601f168201915b505050505061068d565b90506000600b60009054906101000a900473ffffffffffffffffffffffffffffffffffffffff1673ffffffffffffffffffffffffffffffffffffffff16630178b8bf836040518263ffffffff1660e01b81526004018082815260200191505060206040518083038186803b15801561017657600080fd5b505afa15801561018a573d6000803e3d6000fd5b505050506040513d60208110156101a057600080fd5b8101908080519060200190929190505050905060008173ffffffffffffffffffffffffffffffffffffffff16633b3b57de846040518263ffffffff1660e01b81526004018082815260200191505060206040518083038186803b15801561020657600080fd5b505afa15801561021a573d6000803e3d6000fd5b505050506040513d602081101561023057600080fd5b81019080805190602001909291905050509050600073ffffffffffffffffffffffffffffffffffffffff168173ffffffffffffffffffffffffffffffffffffffff1614156102e6576040517f08c379a00000000000000000000000000000000000000000000000000000000081526004018080602001828103825260048152602001807f515030380000000000000000000000000000000000000000000000000000000081525060200191505060405180910390fd5b3660008037600080366000845af43d6000803e8060008114610307573d6000f35b3d6000fd5b34801561031857600080fd5b506103646004803603602081101561032f57600080fd5b8101908080357bffffffffffffffffffffffffffffffffffffffffffffffffffffffff19169060200190929190505050610879565b60405180821515815260200191505060405180910390f35b34801561038857600080fd5b506103916108ca565b005b34801561039f57600080fd5b50610459600480360360208110156103b657600080fd5b81019080803590602001906401000000008111156103d357600080fd5b8201836020820111156103e557600080fd5b8035906020019184600183028401116401000000008311171561040757600080fd5b91908080601f016020809104026020016040519081016040528093929190818152602001838380828437600081840152601f19601f8201169050808301925050505050505091929192905050506108cc565b005b34801561046757600080fd5b506104aa6004803603602081101561047e57600080fd5b81019080803573ffffffffffffffffffffffffffffffffffffffff169060200190929190505050610c0e565b005b3480156104b857600080fd5b506104c1610dd7565b6040518080602001806020018473ffffffffffffffffffffffffffffffffffffffff168152602001838103835286818151815260200191508051906020019080838360005b83811015610521578082015181840152602081019050610506565b50505050905090810190601f16801561054e5780820380516001836020036101000a031916815260200191505b50838103825285818151815260200191508051906020019080838360005b8381101561058757808201518184015260208101905061056c565b50505050905090810190601f1680156105b45780820380516001836020036101000a031916815260200191505b509550505050505060405180910390f35b3480156105d157600080fd5b5061068b600480360360208110156105e857600080fd5b810190808035906020019064010000000081111561060557600080fd5b82018360208201111561061757600080fd5b8035906020019184600183028401116401000000008311171561063957600080fd5b91908080601f016020809104026020016040519081016040528093929190818152602001838380828437600081840152601f19601f820116905080830192505050505050509192919290505050611019565b005b6000806000801b905060006106a18461156b565b905060006106e36040518060400160405280600181526020017f2e0000000000000000000000000000000000000000000000000000000000000081525061156b565b9050600060016106fc838561159990919063ffffffff16565b0167ffffffffffffffff8111801561071357600080fd5b5060405190808252806020026020018201604052801561074757816020015b60608152602001906001900390816107325790505b50905060005b81518110156107955761077161076c848661160e90919063ffffffff16565b611628565b82828151811061077d57fe5b6020026020010181905250808060010191505061074d565b506000815190505b600081111561086c57848260018303815181106107b657fe5b60200260200101516040516020018082805190602001908083835b602083106107f457805182526020820191506020810190506020830392506107d1565b6001836020036101000a03801982511681845116808217855250505050505090500191505060405160208183030381529060405280519060200120604051602001808381526020018281526020019250505060405160208183030381529060405280519060200120945080806001900391505061079d565b5083945050505050919050565b6000634347842860e01b7bffffffffffffffffffffffffffffffffffffffffffffffffffffffff1916827bffffffffffffffffffffffffffffffffffffffffffffffffffffffff1916149050919050565b565b6108f9337fdf8b4c520ffe197c5343c6f5aec59570151ef9a492f2c624fd45ddde6135ec4260001b6116a2565b61096b576040517f08c379a00000000000000000000000000000000000000000000000000000000081526004018080602001828103825260048152602001807f515030390000000000000000000000000000000000000000000000000000000081525060200191505060405180910390fd5b60006109768261068d565b90506000600b60009054906101000a900473ffffffffffffffffffffffffffffffffffffffff1673ffffffffffffffffffffffffffffffffffffffff16630178b8bf836040518263ffffffff1660e01b81526004018082815260200191505060206040518083038186803b1580156109ed57600080fd5b505afa158015610a01573d6000803e3d6000fd5b505050506040513d6020811015610a1757600080fd5b81019080805190602001909291905050509050610ac68173ffffffffffffffffffffffffffffffffffffffff16633b3b57de846040518263ffffffff1660e01b81526004018082815260200191505060206040518083038186803b158015610a7e57600080fd5b505afa158015610a92573d6000803e3d6000fd5b505050506040513d6020811015610aa857600080fd5b810190808051906020019092919050505063a4d1215e60e01b61135b565b8015610b8057508073ffffffffffffffffffffffffffffffffffffffff166301ffc9a7633b3b57de60e01b6040518263ffffffff1660e01b815260040180827bffffffffffffffffffffffffffffffffffffffffffffffffffffffff1916815260200191505060206040518083038186803b158015610b4457600080fd5b505afa158015610b58573d6000803e3d6000fd5b505050506040513d6020811015610b6e57600080fd5b81019080805190602001909291905050505b610bf2576040517f08c379a00000000000000000000000000000000000000000000000000000000081526004018080602001828103825260058152602001807f515030394100000000000000000000000000000000000000000000000000000081525060200191505060405180910390fd5b8260019080519060200190610c08929190611e50565b50505050565b610c3b337fdf8b4c520ffe197c5343c6f5aec59570151ef9a492f2c624fd45ddde6135ec4260001b6116a2565b610cad576040517f08c379a00000000000000000000000000000000000000000000000000000000081526004018080602001828103825260048152602001807f515031320000000000000000000000000000000000000000000000000000000081525060200191505060405180910390fd5b610cbe81637d73b23160e01b61135b565b610d30576040517f08c379a00000000000000000000000000000000000000000000000000000000081526004018080602001828103825260048152602001807f515031330000000000000000000000000000000000000000000000000000000081525060200191505060405180910390fd5b80600260006101000a81548173ffffffffffffffffffffffffffffffffffffffff021916908373ffffffffffffffffffffffffffffffffffffffff160217905550600260009054906101000a900473ffffffffffffffffffffffffffffffffffffffff16600b60006101000a81548173ffffffffffffffffffffffffffffffffffffffff021916908373ffffffffffffffffffffffffffffffffffffffff16021790555050565b6060806000610e09337fdf8b4c520ffe197c5343c6f5aec59570151ef9a492f2c624fd45ddde6135ec4260001b6116a2565b80610e3d5750610e3c337f201105a52b842adfbcdcfcac0349cd25c8a3cb322954633dd585b0958aa204f360001b6116a2565b5b610eaf576040517f08c379a00000000000000000000000000000000000000000000000000000000081526004018080602001828103825260048152602001807f515031310000000000000000000000000000000000000000000000000000000081525060200191505060405180910390fd5b60016000600260009054906101000a900473ffffffffffffffffffffffffffffffffffffffff16828054600181600116156101000203166002900480601f016020809104026020016040519081016040528092919081815260200182805460018160011615610100020316600290048015610f6b5780601f10610f4057610100808354040283529160200191610f6b565b820191906000526020600020905b815481529060010190602001808311610f4e57829003601f168201915b50505050509250818054600181600116156101000203166002900480601f0160208091040260200160405190810160405280929190818152602001828054600181600116156101000203166002900480156110075780601f10610fdc57610100808354040283529160200191611007565b820191906000526020600020905b815481529060010190602001808311610fea57829003601f168201915b50505050509150925092509250909192565b611046337fdf8b4c520ffe197c5343c6f5aec59570151ef9a492f2c624fd45ddde6135ec4260001b6116a2565b6110b8576040517f08c379a00000000000000000000000000000000000000000000000000000000081526004018080602001828103825260048152602001807f515030360000000000000000000000000000000000000000000000000000000081525060200191505060405180910390fd5b60006110c38261068d565b90506000600b60009054906101000a900473ffffffffffffffffffffffffffffffffffffffff1673ffffffffffffffffffffffffffffffffffffffff16630178b8bf836040518263ffffffff1660e01b81526004018082815260200191505060206040518083038186803b15801561113a57600080fd5b505afa15801561114e573d6000803e3d6000fd5b505050506040513d602081101561116457600080fd5b810190808051906020019092919050505090506112138173ffffffffffffffffffffffffffffffffffffffff16633b3b57de846040518263ffffffff1660e01b81526004018082815260200191505060206040518083038186803b1580156111cb57600080fd5b505afa1580156111df573d6000803e3d6000fd5b505050506040513d60208110156111f557600080fd5b810190808051906020019092919050505063d59742f260e01b61135b565b80156112cd57508073ffffffffffffffffffffffffffffffffffffffff166301ffc9a7633b3b57de60e01b6040518263ffffffff1660e01b815260040180827bffffffffffffffffffffffffffffffffffffffffffffffffffffffff1916815260200191505060206040518083038186803b15801561129157600080fd5b505afa1580156112a5573d6000803e3d6000fd5b505050506040513d60208110156112bb57600080fd5b81019080805190602001909291905050505b61133f576040517f08c379a00000000000000000000000000000000000000000000000000000000081526004018080602001828103825260058152602001807f515030364100000000000000000000000000000000000000000000000000000081525060200191505060405180910390fd5b8260019080519060200190611355929190611e50565b50505050565b6000808260405160240180827bffffffffffffffffffffffffffffffffffffffffffffffffffffffff191681526020019150506040516020818303038152906040527f01ffc9a7000000000000000000000000000000000000000000000000000000007bffffffffffffffffffffffffffffffffffffffffffffffffffffffff19166020820180517bffffffffffffffffffffffffffffffffffffffffffffffffffffffff838183161783525050505090506000808573ffffffffffffffffffffffffffffffffffffffff16836040518082805190602001908083835b6020831061145b5780518252602082019150602081019050602083039250611438565b6001836020036101000a0380198251168184511680821785525050505050509050019150506000604051808303816000865af19150503d80600081146114bd576040519150601f19603f3d011682016040523d82523d6000602084013e6114c2565b606091505b50915091508161153a576040517f08c379a00000000000000000000000000000000000000000000000000000000081526004018080602001828103825260028152602001807f515400000000000000000000000000000000000000000000000000000000000081525060200191505060405180910390fd5b80806020019051602081101561154f57600080fd5b8101908080519060200190929190505050935050505092915050565b611573611ede565b600060208301905060405180604001604052808451815260200182815250915050919050565b60008082600001516115bd8560000151866020015186600001518760200151611c8e565b0190505b8360000151846020015101811161160757818060010192505082600001516115ff856020015183038660000151038386600001518760200151611c8e565b0190506115c1565b5092915050565b611616611ede565b611621838383611d69565b5092915050565b60606000826000015167ffffffffffffffff8111801561164757600080fd5b506040519080825280601f01601f19166020018201604052801561167a5781602001600182028036833780820191505090505b50905060006020820190506116988185602001518660000151611e07565b8192505050919050565b60008061184a600b60009054906101000a900473ffffffffffffffffffffffffffffffffffffffff1673ffffffffffffffffffffffffffffffffffffffff1663154c0d786040518163ffffffff1660e01b81526004018080602001828103825260068152602001807f616363657373000000000000000000000000000000000000000000000000000081525060200191505060006040518083038186803b15801561174c57600080fd5b505afa158015611760573d6000803e3d6000fd5b505050506040513d6000823e3d601f19601f82011682018060405250602081101561178a57600080fd5b81019080805160405193929190846401000000008211156117aa57600080fd5b838201915060208201858111156117c057600080fd5b82518660018202830111640100000000821117156117dd57600080fd5b8083526020830192505050908051906020019080838360005b838110156118115780820151818401526020810190506117f6565b50505050905090810190601f16801561183e5780820380516001836020036101000a031916815260200191505b5060405250505061068d565b90506000600b60009054906101000a900473ffffffffffffffffffffffffffffffffffffffff1673ffffffffffffffffffffffffffffffffffffffff16630178b8bf836040518263ffffffff1660e01b81526004018082815260200191505060206040518083038186803b1580156118c157600080fd5b505afa1580156118d5573d6000803e3d6000fd5b505050506040513d60208110156118eb57600080fd5b81019080805190602001909291905050509050600073ffffffffffffffffffffffffffffffffffffffff168173ffffffffffffffffffffffffffffffffffffffff16633b3b57de846040518263ffffffff1660e01b81526004018082815260200191505060206040518083038186803b15801561196757600080fd5b505afa15801561197b573d6000803e3d6000fd5b505050506040513d602081101561199157600080fd5b810190808051906020019092919050505073ffffffffffffffffffffffffffffffffffffffff1614158015611a7457508073ffffffffffffffffffffffffffffffffffffffff166301ffc9a7633b3b57de60e01b6040518263ffffffff1660e01b815260040180827bffffffffffffffffffffffffffffffffffffffffffffffffffffffff1916815260200191505060206040518083038186803b158015611a3857600080fd5b505afa158015611a4c573d6000803e3d6000fd5b505050506040513d6020811015611a6257600080fd5b81019080805190602001909291905050505b611ae6576040517f08c379a00000000000000000000000000000000000000000000000000000000081526004018080602001828103825260048152602001807f514c30370000000000000000000000000000000000000000000000000000000081525060200191505060405180910390fd5b60008173ffffffffffffffffffffffffffffffffffffffff16633b3b57de846040518263ffffffff1660e01b81526004018082815260200191505060206040518083038186803b158015611b3957600080fd5b505afa158015611b4d573d6000803e3d6000fd5b505050506040513d6020811015611b6357600080fd5b8101908080519060200190929190505050905080600760006101000a81548173ffffffffffffffffffffffffffffffffffffffff021916908373ffffffffffffffffffffffffffffffffffffffff160217905550600760009054906101000a900473ffffffffffffffffffffffffffffffffffffffff1673ffffffffffffffffffffffffffffffffffffffff166391d1485486886040518363ffffffff1660e01b8152600401808381526020018273ffffffffffffffffffffffffffffffffffffffff1681526020019250505060206040518083038186803b158015611c4857600080fd5b505afa158015611c5c573d6000803e3d6000fd5b505050506040513d6020811015611c7257600080fd5b8101908080519060200190929190505050935050505092915050565b6000808490506000868511611d595760208511611d1357600060018660200360080260020a031960001b905060008186511690506000878a8a0103905060008386511690505b828114611d0557818610611cf2578a8a019650505050505050611d61565b8580600101965050838651169050611cd4565b859650505050505050611d61565b60008585209050600091505b8588038211611d57576000868420905080821415611d435783945050505050611d61565b600184019350508180600101925050611d1f565b505b868601925050505b949350505050565b611d71611ede565b6000611d8f8560000151866020015186600001518760200151611c8e565b90508460200151836020018181525050846020015181038360000181815250508460000151856020015101811415611dd1576000856000018181525050611dfc565b8360000151836000015101856000018181510391508181525050836000015181018560200181815250505b829150509392505050565b5b60208110611e2b5781518352602083019250602082019150602081039050611e08565b60006001826020036101000a0390508019835116818551168181178652505050505050565b828054600181600116156101000203166002900490600052602060002090601f016020900481019282611e865760008555611ecd565b82601f10611e9f57805160ff1916838001178555611ecd565b82800160010185558215611ecd579182015b82811115611ecc578251825591602001919060010190611eb1565b5b509050611eda9190611ef8565b5090565b604051806040016040528060008152602001600081525090565b5b80821115611f11576000816000905550600101611ef9565b509056fea2646970667358221220305fb18da7f1500d7e48650e0c6ae6ecd7095ad958500c0847d6a305876796f764736f6c63430007060033",
  "immutableReferences": {},
  "source": "pragma solidity >=0.7.0;\n// SPDX-License-Identifier: GPL-3.0-or-later\nimport \"./QualificationDS.sol\";\nimport \"../../Utils/ENS.sol\";\nimport \"../../Utils/Resolver.sol\";\nimport \"../../Utils/Library.sol\";\nimport \"../../Utils/Roles.sol\";\n\n\ncontract QualificationProxy is QualificationDS,Roles {\n    using Address for address;\n    using SafeMath for uint256;\n    \n    bytes4 constant private ADDR_INTERFACE_ID = 0x3b3b57de;\n    ENS ens;\n    \n    constructor(string memory _imp,string memory _attributelist, address _ensaddress ,address _qualificationOwner)  {\n        \n        require(keccak256(bytes(_imp))!=keccak256(\"\") &&  keccak256(bytes(_attributelist))!= keccak256(\"\"),\"QP01\");\n        require(Utility._checkInterfaceID(_ensaddress,Utility.INTERFACE_ID_ENSREGISTRY),\"QP01A\");\n        orgENSRegistar = _ensaddress;\n        ens = ENS(orgENSRegistar);\n        \n        bytes32 namehash=Utility._computeNamehash(_imp);\n        Resolver res = Resolver(ens.resolver(namehash));\n        require(Utility._checkInterfaceID(res.addr(namehash),Utility.INTERFACE_ID_QUALIFICATIONLOGIC) && res.supportsInterface(ADDR_INTERFACE_ID),\"QP02\");\n        qualificationLogicENSName = _imp;\n        \n        namehash=Utility._computeNamehash(_attributelist);\n        res = Resolver(ens.resolver(namehash));\n        require(Utility._checkInterfaceID(res.addr(namehash),Utility.INTERFACE_ID_QUALIFICATIONATTLIST) && res.supportsInterface(ADDR_INTERFACE_ID),\"QP03\");\n        attributeListENS = _attributelist;\n        \n        qualificationOwner = _qualificationOwner;     \n        status=\"NEW\";\n    }\n    \n    function updateImplemetENSname(string memory _imp) public {\n        require(_orgAccessCheck(msg.sender,ADMIN),\"QP06\");\n        bytes32 namehash=Utility._computeNamehash(_imp);\n        Resolver res = Resolver(ens.resolver(namehash));\n        require(Utility._checkInterfaceID(res.addr(namehash),Utility.INTERFACE_ID_QUALIFICATIONLOGIC) && res.supportsInterface(ADDR_INTERFACE_ID),\"QP06A\");\n        qualificationLogicENSName = _imp;\n    }\n     \n    function updateENSAddress(address _ens) public {\n        require(_orgAccessCheck(msg.sender,ADMIN),\"QP12\");\n        require(Utility._checkInterfaceID(_ens,Utility.INTERFACE_ID_ENSREGISTRY),\"QP13\");\n        orgENSRegistar = _ens;\n        ens = ENS(orgENSRegistar);\n    }\n    \n    function updateAttributeListENSname(string memory _imp) public {\n        require(_orgAccessCheck(msg.sender,ADMIN),\"QP09\");\n        bytes32 namehash=Utility._computeNamehash(_imp);\n        Resolver res = Resolver(ens.resolver(namehash));\n        require(Utility._checkInterfaceID(res.addr(namehash),Utility.INTERFACE_ID_QUALIFICATIONATTLIST) && res.supportsInterface(ADDR_INTERFACE_ID),\"QP09A\");\n        qualificationLogicENSName = _imp;\n    }\n    \n    function getSystemPara() public \n    returns(string memory,string memory,address)\n    {\n        require(_orgAccessCheck(msg.sender,ADMIN)||_orgAccessCheck(msg.sender,VIEW),\"QP11\");\n        return(qualificationLogicENSName,attributeListENS,orgENSRegistar);\n    }\n    \n    fallback() external payable  {\n       bytes32 namehash = Utility._computeNamehash(qualificationLogicENSName);\n       Resolver res = Resolver(ens.resolver(namehash));\n       address _impl =res.addr(namehash);\n       require(_impl != address(0),\"QP08\");\n       assembly {\n                calldatacopy(0, 0, calldatasize())\n                let result := delegatecall(gas(), _impl, 0, calldatasize(), 0, 0)\n                returndatacopy(0, 0, returndatasize())\n                switch result\n                case 0 { revert(0, returndatasize()) }\n                default { return(0, returndatasize()) }\n            }\n    }\n    \n    function _orgAccessCheck(address _caller,bytes32 _role) internal \n    returns(bool)\n    {\n        bytes32 orgAccessENS = Utility._computeNamehash(ens.getPredefineENSPrefix(\"access\"));\n        Resolver res = Resolver(ens.resolver(orgAccessENS));\n        require(res.addr(orgAccessENS)!=address(0) && res.supportsInterface(Utility.ADDR_INTERFACE_ID),\"QL07\");\n        address orgAccessAdr = res.addr(orgAccessENS);\n        access = PermissionControl(orgAccessAdr);\n        return access.hasRole(_role,_caller);\n        \n    }\n    \n    function supportsInterface(bytes4 interfaceId) public view returns (bool) {\n        return interfaceId == Utility.INTERFACE_ID_QUALIFICATIONPROXY;\n    }\n\n    function qualificationProxy() public{}\n    \n\n}",
  "sourcePath": "/home/dickchan/CIC/contracts/AssetContract/Qualification/QualificationProxy.sol",
  "compiler": {
    "name": "solc",
    "version": "0.7.6+commit.7338295f.Emscripten.clang"
  },
  "schemaVersion": "3.2.3",
  "updatedAt": "2021-03-18T07:14:07.389Z",
  "devdoc": {
    "kind": "dev",
    "methods": {},
    "version": 1
  },
  "userdoc": {
    "kind": "user",
    "methods": {},
    "version": 1
  }
}