{
  "contractName": "QualificationLogic",
  "abi": [
    {
      "inputs": [
        {
          "internalType": "address",
          "name": "_ensAddress",
          "type": "address"
        }
      ],
      "stateMutability": "nonpayable",
      "type": "constructor"
    },
    {
      "inputs": [
        {
          "internalType": "string",
          "name": "_name",
          "type": "string"
        },
        {
          "internalType": "bytes",
          "name": "_value",
          "type": "bytes"
        },
        {
          "internalType": "uint256",
          "name": "_datetime",
          "type": "uint256"
        },
        {
          "internalType": "string",
          "name": "_datatype",
          "type": "string"
        }
      ],
      "name": "addAttribute",
      "outputs": [
        {
          "internalType": "bytes32",
          "name": "",
          "type": "bytes32"
        }
      ],
      "stateMutability": "nonpayable",
      "type": "function"
    },
    {
      "inputs": [
        {
          "internalType": "bytes32",
          "name": "_key",
          "type": "bytes32"
        },
        {
          "internalType": "bytes",
          "name": "_value",
          "type": "bytes"
        },
        {
          "internalType": "uint256",
          "name": "_datetime",
          "type": "uint256"
        },
        {
          "internalType": "string",
          "name": "_datatype",
          "type": "string"
        }
      ],
      "name": "upateAttribute",
      "outputs": [
        {
          "internalType": "bytes32",
          "name": "",
          "type": "bytes32"
        }
      ],
      "stateMutability": "nonpayable",
      "type": "function"
    },
    {
      "inputs": [
        {
          "internalType": "bytes32",
          "name": "_key",
          "type": "bytes32"
        },
        {
          "internalType": "uint256",
          "name": "_datetime",
          "type": "uint256"
        }
      ],
      "name": "removeAttribute",
      "outputs": [],
      "stateMutability": "nonpayable",
      "type": "function"
    },
    {
      "inputs": [
        {
          "internalType": "bytes32",
          "name": "_key",
          "type": "bytes32"
        },
        {
          "internalType": "uint256",
          "name": "_datetime",
          "type": "uint256"
        },
        {
          "internalType": "uint256",
          "name": "_expiryDate",
          "type": "uint256"
        },
        {
          "internalType": "bytes",
          "name": "_signature",
          "type": "bytes"
        }
      ],
      "name": "endorseAttribute",
      "outputs": [],
      "stateMutability": "nonpayable",
      "type": "function"
    },
    {
      "inputs": [
        {
          "internalType": "bytes32",
          "name": "_key",
          "type": "bytes32"
        },
        {
          "internalType": "uint256",
          "name": "_endorseNumber",
          "type": "uint256"
        }
      ],
      "name": "removeEndorsement",
      "outputs": [],
      "stateMutability": "nonpayable",
      "type": "function"
    },
    {
      "inputs": [
        {
          "internalType": "bytes",
          "name": "_dercert",
          "type": "bytes"
        },
        {
          "internalType": "uint256",
          "name": "_datetime",
          "type": "uint256"
        }
      ],
      "name": "addKeyStore",
      "outputs": [],
      "stateMutability": "nonpayable",
      "type": "function"
    },
    {
      "inputs": [],
      "name": "delKeyStore",
      "outputs": [],
      "stateMutability": "nonpayable",
      "type": "function"
    },
    {
      "inputs": [
        {
          "internalType": "bytes32",
          "name": "_key",
          "type": "bytes32"
        }
      ],
      "name": "getAttribute",
      "outputs": [
        {
          "internalType": "bytes",
          "name": "",
          "type": "bytes"
        },
        {
          "internalType": "string",
          "name": "",
          "type": "string"
        }
      ],
      "stateMutability": "nonpayable",
      "type": "function"
    },
    {
      "inputs": [],
      "name": "listofAttribute",
      "outputs": [
        {
          "internalType": "string[]",
          "name": "",
          "type": "string[]"
        }
      ],
      "stateMutability": "nonpayable",
      "type": "function"
    },
    {
      "inputs": [],
      "name": "getKey",
      "outputs": [
        {
          "internalType": "bytes",
          "name": "",
          "type": "bytes"
        },
        {
          "internalType": "uint256",
          "name": "",
          "type": "uint256"
        }
      ],
      "stateMutability": "nonpayable",
      "type": "function"
    },
    {
      "inputs": [
        {
          "internalType": "bytes4",
          "name": "interfaceId",
          "type": "bytes4"
        }
      ],
      "name": "supportsInterface",
      "outputs": [
        {
          "internalType": "bool",
          "name": "",
          "type": "bool"
        }
      ],
      "stateMutability": "view",
      "type": "function"
    },
    {
      "inputs": [],
      "name": "qualificationLogic",
      "outputs": [],
      "stateMutability": "nonpayable",
      "type": "function"
    }
  ],
  "bytecode": "0x60806040523480156200001157600080fd5b50604051620058a8380380620058a8833981810160405281019062000037919062000da7565b6200005581637d73b23160e01b6200057160201b62001c491760201c565b62000097576040517f08c379a00000000000000000000000000000000000000000000000000000000081526004016200008e9062000fe6565b60405180910390fd5b60008190506000620001458273ffffffffffffffffffffffffffffffffffffffff1663154c0d786040518163ffffffff1660e01b8152600401620000db906200102a565b60006040518083038186803b158015620000f457600080fd5b505afa15801562000109573d6000803e3d6000fd5b505050506040513d6000823e3d601f19601f8201168201806040525081019062000134919062000dff565b6200078760201b62001e591760201c565b905060008273ffffffffffffffffffffffffffffffffffffffff16630178b8bf836040518263ffffffff1660e01b815260040162000184919062000f7f565b60206040518083038186803b1580156200019d57600080fd5b505afa158015620001b2573d6000803e3d6000fd5b505050506040513d601f19601f82011682018060405250810190620001d8919062000da7565b9050600073ffffffffffffffffffffffffffffffffffffffff168173ffffffffffffffffffffffffffffffffffffffff16633b3b57de846040518263ffffffff1660e01b81526004016200022d919062000f7f565b60206040518083038186803b1580156200024657600080fd5b505afa1580156200025b573d6000803e3d6000fd5b505050506040513d601f19601f8201168201806040525081019062000281919062000da7565b73ffffffffffffffffffffffffffffffffffffffff16141580156200033857508073ffffffffffffffffffffffffffffffffffffffff166301ffc9a7633b3b57de60e01b6040518263ffffffff1660e01b8152600401620002e3919062000fc9565b60206040518083038186803b158015620002fc57600080fd5b505afa15801562000311573d6000803e3d6000fd5b505050506040513d601f19601f8201168201806040525081019062000337919062000dd3565b5b6200037a576040517f08c379a000000000000000000000000000000000000000000000000000000000815260040162000371906200104c565b60405180910390fd5b60008173ffffffffffffffffffffffffffffffffffffffff16633b3b57de846040518263ffffffff1660e01b8152600401620003b7919062000f7f565b60206040518083038186803b158015620003d057600080fd5b505afa158015620003e5573d6000803e3d6000fd5b505050506040513d601f19601f820116820180604052508101906200040b919062000da7565b905080600760006101000a81548173ffffffffffffffffffffffffffffffffffffffff021916908373ffffffffffffffffffffffffffffffffffffffff160217905550600760009054906101000a900473ffffffffffffffffffffffffffffffffffffffff1673ffffffffffffffffffffffffffffffffffffffff166391d148547fdf8b4c520ffe197c5343c6f5aec59570151ef9a492f2c624fd45ddde6135ec4260001b336040518363ffffffff1660e01b8152600401620004d092919062000f9c565b60206040518083038186803b158015620004e957600080fd5b505afa158015620004fe573d6000803e3d6000fd5b505050506040513d601f19601f8201168201806040525081019062000524919062000dd3565b62000566576040517f08c379a00000000000000000000000000000000000000000000000000000000081526004016200055d9062001008565b60405180910390fd5b505050505062001204565b6000808260405160240180827bffffffffffffffffffffffffffffffffffffffffffffffffffffffff191681526020019150506040516020818303038152906040527f01ffc9a7000000000000000000000000000000000000000000000000000000007bffffffffffffffffffffffffffffffffffffffffffffffffffffffff19166020820180517bffffffffffffffffffffffffffffffffffffffffffffffffffffffff838183161783525050505090506000808573ffffffffffffffffffffffffffffffffffffffff16836040518082805190602001908083835b602083106200067357805182526020820191506020810190506020830392506200064e565b6001836020036101000a0380198251168184511680821785525050505050509050019150506000604051808303816000865af19150503d8060008114620006d7576040519150601f19603f3d011682016040523d82523d6000602084013e620006dc565b606091505b50915091508162000755576040517f08c379a00000000000000000000000000000000000000000000000000000000081526004018080602001828103825260028152602001807f515400000000000000000000000000000000000000000000000000000000000081525060200191505060405180910390fd5b8080602001905160208110156200076b57600080fd5b8101908080519060200190929190505050935050505092915050565b6000806000801b90506000620007a884620009b360201b620020451760201c565b90506000620007f76040518060400160405280600181526020017f2e00000000000000000000000000000000000000000000000000000000000000815250620009b360201b620020451760201c565b905060006001620008178385620009e360201b620020731790919060201c565b0167ffffffffffffffff811180156200082f57600080fd5b506040519080825280602002602001820160405280156200086557816020015b60608152602001906001900390816200084f5790505b50905060005b8151811015620008ca57620008a462000893848662000a6a60201b620020e81790919060201c565b62000a8e60201b620021021760201c565b828281518110620008b157fe5b602002602001018190525080806001019150506200086b565b506000815190505b6000811115620009a65784826001830381518110620008ed57fe5b60200260200101516040516020018082805190602001908083835b602083106200092d578051825260208201915060208101905060208303925062000908565b6001836020036101000a038019825116818451168082178552505050505050905001915050604051602081830303815290604052805190602001206040516020018083815260200182815260200192505050604051602081830303815290604052805190602001209450808060019003915050620008d2565b5083945050505050919050565b620009bd62000ced565b600060208301905060405180604001604052808451815260200182815250915050919050565b600080826000015162000a0f856000015186602001518660000151876020015162000b1260201b60201c565b0190505b8360000151846020015101811162000a63578180600101925050826000015162000a5a85602001518303866000015103838660000151876020015162000b1260201b60201c565b01905062000a13565b5092915050565b62000a7462000ced565b62000a8783838362000bf860201b60201c565b5092915050565b60606000826000015167ffffffffffffffff8111801562000aae57600080fd5b506040519080825280601f01601f19166020018201604052801562000ae25781602001600182028036833780820191505090505b509050600060208201905062000b08818560200151866000015162000ca260201b60201c565b8192505050919050565b600080849050600086851162000be8576020851162000b9e57600060018660200360080260020a031960001b905060008186511690506000878a8a0103905060008386511690505b82811462000b8f5781861062000b7b578a8a01965050505050505062000bf0565b858060010196505083865116905062000b5a565b85965050505050505062000bf0565b60008585209050600091505b858803821162000be657600086842090508082141562000bd1578394505050505062000bf0565b60018401935050818060010192505062000baa565b505b868601925050505b949350505050565b62000c0262000ced565b600062000c28856000015186602001518660000151876020015162000b1260201b60201c565b9050846020015183602001818152505084602001518103836000018181525050846000015185602001510181141562000c6c57600085600001818152505062000c97565b8360000151836000015101856000018181510391508181525050836000015181018560200181815250505b829150509392505050565b5b6020811062000cc8578151835260208301925060208201915060208103905062000ca3565b60006001826020036101000a0390508019835116818551168181178652505050505050565b604051806040016040528060008152602001600081525090565b600062000d1e62000d1884620010a2565b6200106e565b90508281526020810184848401111562000d3757600080fd5b62000d4484828562001198565b509392505050565b60008151905062000d5d81620011d0565b92915050565b60008151905062000d7481620011ea565b92915050565b600082601f83011262000d8c57600080fd5b815162000d9e84826020860162000d07565b91505092915050565b60006020828403121562000dba57600080fd5b600062000dca8482850162000d4c565b91505092915050565b60006020828403121562000de657600080fd5b600062000df68482850162000d63565b91505092915050565b60006020828403121562000e1257600080fd5b600082015167ffffffffffffffff81111562000e2d57600080fd5b62000e3b8482850162000d7a565b91505092915050565b62000e4f816200115c565b82525050565b62000e608162001106565b82525050565b62000e718162001110565b82525050565b600062000e86600483620010d5565b91507f514c3032000000000000000000000000000000000000000000000000000000006000830152602082019050919050565b600062000ec8600483620010d5565b91507f514c3031000000000000000000000000000000000000000000000000000000006000830152602082019050919050565b600062000f0a600683620010d5565b91507f61636365737300000000000000000000000000000000000000000000000000006000830152602082019050919050565b600062000f4c600483620010d5565b91507f514c3039000000000000000000000000000000000000000000000000000000006000830152602082019050919050565b600060208201905062000f96600083018462000e55565b92915050565b600060408201905062000fb3600083018562000e55565b62000fc2602083018462000e44565b9392505050565b600060208201905062000fe0600083018462000e66565b92915050565b60006020820190508181036000830152620010018162000e77565b9050919050565b60006020820190508181036000830152620010238162000eb9565b9050919050565b60006020820190508181036000830152620010458162000efb565b9050919050565b60006020820190508181036000830152620010678162000f3d565b9050919050565b6000604051905081810181811067ffffffffffffffff82111715620010985762001097620011ce565b5b8060405250919050565b600067ffffffffffffffff821115620010c057620010bf620011ce565b5b601f19601f8301169050602081019050919050565b600082825260208201905092915050565b6000620010f3826200113c565b9050919050565b60008115159050919050565b6000819050919050565b60007fffffffff0000000000000000000000000000000000000000000000000000000082169050919050565b600073ffffffffffffffffffffffffffffffffffffffff82169050919050565b6000620011698262001170565b9050919050565b60006200117d8262001184565b9050919050565b600062001191826200113c565b9050919050565b60005b83811015620011b85780820151818401526020810190506200119b565b83811115620011c8576000848401525b50505050565bfe5b620011db81620010e6565b8114620011e757600080fd5b50565b620011f581620010fa565b81146200120157600080fd5b50565b61469480620012146000396000f3fe608060405234801561001057600080fd5b50600436106100b45760003560e01c806382678dd61161007157806382678dd61461019d57806386bd9a5d146101bc578063d59742f2146101c6578063eb43e033146101d0578063ed5d289014610201578063fd4d44cc1461021d576100b4565b806301ffc9a7146100b95780631e63eeab146100e95780633fa002ca14610105578063705e6fa6146101355780637f0288191461016557806380c8f6eb14610181575b600080fd5b6100d360048036038101906100ce919061350f565b61023b565b6040516100e09190613fd9565b60405180910390f35b61010360048036038101906100fe9190613538565b61028c565b005b61011f600480360381019061011a91906133b8565b610388565b60405161012c9190613ff4565b60405180910390f35b61014f600480360381019061014a91906135cd565b610891565b60405161015c9190613ff4565b60405180910390f35b61017f600480360381019061017a919061348f565b610dd3565b005b61019b60048036038101906101969190613453565b611078565b005b6101a5611235565b6040516101b392919061408a565b60405180910390f35b6101c4611414565b005b6101ce61151e565b005b6101ea60048036038101906101e5919061338f565b611520565b6040516101f8929190614053565b60405180910390f35b61021b60048036038101906102169190613453565b61180f565b005b610225611a11565b6040516102329190613fb7565b60405180910390f35b600063d59742f260e01b7bffffffffffffffffffffffffffffffffffffffffffffffffffffffff1916827bffffffffffffffffffffffffffffffffffffffffffffffffffffffff1916149050919050565b6102b9337f96706879d29c248edfb2a2563a8a9d571c49634c0f82013e6f5a7cde739d35d460001b61217c565b806102ed57506102ec337f523a704056dcd17bcf83bed8b68c59416dac1119be77755efe3bde0a64e46e0c60001b61217c565b5b806103215750610320337fdf8b4c520ffe197c5343c6f5aec59570151ef9a492f2c624fd45ddde6135ec4260001b61217c565b5b610360576040517f08c379a0000000000000000000000000000000000000000000000000000000008152600401610357906142ba565b60405180910390fd5b8160086000019080519060200190610379929190612d7b565b50806008600101819055505050565b600080600260009054906101000a900473ffffffffffffffffffffffffffffffffffffffff1690506103dd337f96706879d29c248edfb2a2563a8a9d571c49634c0f82013e6f5a7cde739d35d460001b61217c565b806104115750610410337f523a704056dcd17bcf83bed8b68c59416dac1119be77755efe3bde0a64e46e0c60001b61217c565b5b806104455750610444337fdf8b4c520ffe197c5343c6f5aec59570151ef9a492f2c624fd45ddde6135ec4260001b61217c565b5b610484576040517f08c379a000000000000000000000000000000000000000000000000000000000815260040161047b906142fa565b60405180910390fd5b600061052960008054600181600116156101000203166002900480601f01602080910402602001604051908101604052809291908181526020018280546001816001161561010002031660029004801561051f5780601f106104f45761010080835404028352916020019161051f565b820191906000526020600020905b81548152906001019060200180831161050257829003601f168201915b5050505050611e59565b905060008273ffffffffffffffffffffffffffffffffffffffff16630178b8bf836040518263ffffffff1660e01b81526004016105669190613ff4565b60206040518083038186803b15801561057e57600080fd5b505afa158015610592573d6000803e3d6000fd5b505050506040513d601f19601f820116820180604052508101906105b6919061333d565b905060008173ffffffffffffffffffffffffffffffffffffffff16633b3b57de846040518263ffffffff1660e01b81526004016105f39190613ff4565b60206040518083038186803b15801561060b57600080fd5b505afa15801561061f573d6000803e3d6000fd5b505050506040513d601f19601f82011682018060405250810190610643919061333d565b90508073ffffffffffffffffffffffffffffffffffffffff166338a699a48c6040518263ffffffff1660e01b815260040161067e9190613ff4565b60206040518083038186803b15801561069657600080fd5b505afa1580156106aa573d6000803e3d6000fd5b505050506040513d601f19601f820116820180604052508101906106ce9190613366565b61070d576040517f08c379a00000000000000000000000000000000000000000000000000000000081526004016107049061417a565b60405180910390fd5b6107218b60046125e090919063ffffffff16565b610760576040517f08c379a0000000000000000000000000000000000000000000000000000000008152600401610757906140ba565b60405180910390fd5b6000600660008d815260200190815260200160002060060154905060005b818110156107d6576000600660008f8152602001908152602001600020600501600083815260200190815260200160002060030160146101000a81548160ff021916908315150217905550808060010191505061077e565b508a8a600660008f815260200190815260200160002060010191906107fc929190612e09565b5088600660008e8152602001908152602001600020600201819055508787600660008f8152602001908152602001600020600301919061083d929190612e97565b5061087d338d8d8d8c8c8f883060405160200161086299989796959493929190613ec1565b604051602081830303815290604052805190602001206125f7565b935083955050505050509695505050505050565b600080600260009054906101000a900473ffffffffffffffffffffffffffffffffffffffff1690506108e6337f96706879d29c248edfb2a2563a8a9d571c49634c0f82013e6f5a7cde739d35d460001b61217c565b8061091a5750610919337f523a704056dcd17bcf83bed8b68c59416dac1119be77755efe3bde0a64e46e0c60001b61217c565b5b8061094e575061094d337fdf8b4c520ffe197c5343c6f5aec59570151ef9a492f2c624fd45ddde6135ec4260001b61217c565b5b61098d576040517f08c379a00000000000000000000000000000000000000000000000000000000081526004016109849061411a565b60405180910390fd5b6000888051906020012090506000610a3e60008054600181600116156101000203166002900480601f016020809104026020016040519081016040528092919081815260200182805460018160011615610100020316600290048015610a345780601f10610a0957610100808354040283529160200191610a34565b820191906000526020600020905b815481529060010190602001808311610a1757829003601f168201915b5050505050611e59565b905060008373ffffffffffffffffffffffffffffffffffffffff16630178b8bf836040518263ffffffff1660e01b8152600401610a7b9190613ff4565b60206040518083038186803b158015610a9357600080fd5b505afa158015610aa7573d6000803e3d6000fd5b505050506040513d601f19601f82011682018060405250810190610acb919061333d565b905060008173ffffffffffffffffffffffffffffffffffffffff16633b3b57de846040518263ffffffff1660e01b8152600401610b089190613ff4565b60206040518083038186803b158015610b2057600080fd5b505afa158015610b34573d6000803e3d6000fd5b505050506040513d601f19601f82011682018060405250810190610b58919061333d565b905060001515610b728560046125e090919063ffffffff16565b151514610bb4576040517f08c379a0000000000000000000000000000000000000000000000000000000008152600401610bab906141da565b60405180910390fd5b600015158173ffffffffffffffffffffffffffffffffffffffff166338a699a4866040518263ffffffff1660e01b8152600401610bf19190613ff4565b60206040518083038186803b158015610c0957600080fd5b505afa158015610c1d573d6000803e3d6000fd5b505050506040513d601f19601f82011682018060405250810190610c419190613366565b151514610c83576040517f08c379a0000000000000000000000000000000000000000000000000000000008152600401610c7a906141ba565b60405180910390fd5b610c9784600461264f90919063ffffffff16565b508b600660008681526020019081526020016000206000019080519060200190610cc2929190612f25565b508a8a600660008781526020019081526020016000206001019190610ce8929190612e09565b508860066000868152602001908152602001600020600201819055508787600660008781526020019081526020016000206003019190610d29929190612e97565b50336006600086815260200190815260200160002060040160006101000a81548173ffffffffffffffffffffffffffffffffffffffff021916908373ffffffffffffffffffffffffffffffffffffffff160217905550610dbf33858d8d8c8c8f600030604051602001610da499989796959493929190613ec1565b604051602081830303815290604052805190602001206125f7565b925082955050505050509695505050505050565b610e00337f9a7e9d723982bdbedb9fcad890bb0aac5fb256ffc07256673da57bdd92e3888b60001b61217c565b610e3f576040517f08c379a0000000000000000000000000000000000000000000000000000000008152600401610e369061421a565b60405180910390fd5b610e8e338684848080601f016020809104026020016040519081016040528093929190818152602001838380828437600081840152601f19601f82011690508083019250505050505050612666565b610ecd576040517f08c379a0000000000000000000000000000000000000000000000000000000008152600401610ec49061427a565b60405180910390fd5b600060066000878152602001908152602001600020600601549050610f126001600660008981526020019081526020016000206006015461273d90919063ffffffff16565b600660008881526020019081526020016000206006018190555082826006600089815260200190815260200160002060050160008481526020019081526020016000206000019190610f65929190612e09565b50846006600088815260200190815260200160002060050160008381526020019081526020016000206001018190555083600660008881526020019081526020016000206005016000838152602001908152602001600020600201819055503360066000888152602001908152602001600020600501600083815260200190815260200160002060030160006101000a81548173ffffffffffffffffffffffffffffffffffffffff021916908373ffffffffffffffffffffffffffffffffffffffff160217905550600160066000888152602001908152602001600020600501600083815260200190815260200160002060030160146101000a81548160ff021916908315150217905550505050505050565b6110a5337f96706879d29c248edfb2a2563a8a9d571c49634c0f82013e6f5a7cde739d35d460001b61217c565b806110d957506110d8337f523a704056dcd17bcf83bed8b68c59416dac1119be77755efe3bde0a64e46e0c60001b61217c565b5b8061110d575061110c337fdf8b4c520ffe197c5343c6f5aec59570151ef9a492f2c624fd45ddde6135ec4260001b61217c565b5b61114c576040517f08c379a0000000000000000000000000000000000000000000000000000000008152600401611143906140da565b60405180910390fd5b6111608260046125e090919063ffffffff16565b61119f576040517f08c379a00000000000000000000000000000000000000000000000000000000081526004016111969061429a565b60405180910390fd5b60066000838152602001908152602001600020600080820160006111c39190612fb3565b6001820160006111d39190612ffb565b60028201600090556003820160006111eb9190612fb3565b6004820160006101000a81549073ffffffffffffffffffffffffffffffffffffffff0219169055600682016000905550506112308260046127c590919063ffffffff16565b505050565b60606000611266337f96706879d29c248edfb2a2563a8a9d571c49634c0f82013e6f5a7cde739d35d460001b61217c565b8061129a5750611299337f523a704056dcd17bcf83bed8b68c59416dac1119be77755efe3bde0a64e46e0c60001b61217c565b5b806112ce57506112cd337fdf8b4c520ffe197c5343c6f5aec59570151ef9a492f2c624fd45ddde6135ec4260001b61217c565b5b806113265750600360009054906101000a900473ffffffffffffffffffffffffffffffffffffffff1673ffffffffffffffffffffffffffffffffffffffff163373ffffffffffffffffffffffffffffffffffffffff16145b611365576040517f08c379a000000000000000000000000000000000000000000000000000000000815260040161135c906141fa565b60405180910390fd5b6008600001600860010154818054600181600116156101000203166002900480601f0160208091040260200160405190810160405280929190818152602001828054600181600116156101000203166002900480156114055780601f106113da57610100808354040283529160200191611405565b820191906000526020600020905b8154815290600101906020018083116113e857829003601f168201915b50505050509150915091509091565b611441337f96706879d29c248edfb2a2563a8a9d571c49634c0f82013e6f5a7cde739d35d460001b61217c565b806114755750611474337f523a704056dcd17bcf83bed8b68c59416dac1119be77755efe3bde0a64e46e0c60001b61217c565b5b806114a957506114a8337fdf8b4c520ffe197c5343c6f5aec59570151ef9a492f2c624fd45ddde6135ec4260001b61217c565b5b6114e8576040517f08c379a00000000000000000000000000000000000000000000000000000000081526004016114df9061431a565b60405180910390fd5b6040518060200160405280600081525060086000019080519060200190611510929190613043565b506000600860010181905550565b565b606080611550337f96706879d29c248edfb2a2563a8a9d571c49634c0f82013e6f5a7cde739d35d460001b61217c565b806115845750611583337f523a704056dcd17bcf83bed8b68c59416dac1119be77755efe3bde0a64e46e0c60001b61217c565b5b806115b857506115b7337fdf8b4c520ffe197c5343c6f5aec59570151ef9a492f2c624fd45ddde6135ec4260001b61217c565b5b806116105750600360009054906101000a900473ffffffffffffffffffffffffffffffffffffffff1673ffffffffffffffffffffffffffffffffffffffff163373ffffffffffffffffffffffffffffffffffffffff16145b61164f576040517f08c379a00000000000000000000000000000000000000000000000000000000081526004016116469061423a565b60405180910390fd5b6116638360046125e090919063ffffffff16565b6116a2576040517f08c379a00000000000000000000000000000000000000000000000000000000081526004016116999061425a565b60405180910390fd5b6006600084815260200190815260200160002060010160066000858152602001908152602001600020600301818054600181600116156101000203166002900480601f0160208091040260200160405190810160405280929190818152602001828054600181600116156101000203166002900480156117635780601f1061173857610100808354040283529160200191611763565b820191906000526020600020905b81548152906001019060200180831161174657829003601f168201915b50505050509150808054600181600116156101000203166002900480601f0160208091040260200160405190810160405280929190818152602001828054600181600116156101000203166002900480156117ff5780601f106117d4576101008083540402835291602001916117ff565b820191906000526020600020905b8154815290600101906020018083116117e257829003601f168201915b5050505050905091509150915091565b61183c337f9a7e9d723982bdbedb9fcad890bb0aac5fb256ffc07256673da57bdd92e3888b60001b61217c565b61187b576040517f08c379a0000000000000000000000000000000000000000000000000000000008152600401611872906142da565b60405180910390fd5b61188f8260046125e090919063ffffffff16565b6118ce576040517f08c379a00000000000000000000000000000000000000000000000000000000081526004016118c59061413a565b60405180910390fd5b3373ffffffffffffffffffffffffffffffffffffffff1660066000848152602001908152602001600020600501600083815260200190815260200160002060030160009054906101000a900473ffffffffffffffffffffffffffffffffffffffff1673ffffffffffffffffffffffffffffffffffffffff1614611986576040517f08c379a000000000000000000000000000000000000000000000000000000000815260040161197d906140fa565b60405180910390fd5b600060066000848152602001908152602001600020600501600083815260200190815260200160002060030160146101000a81548160ff0219169083151502179055506119f3600160066000858152602001908152602001600020600601546127dc90919063ffffffff16565b60066000848152602001908152602001600020600601819055505050565b6060611a40337f96706879d29c248edfb2a2563a8a9d571c49634c0f82013e6f5a7cde739d35d460001b61217c565b80611a745750611a73337f523a704056dcd17bcf83bed8b68c59416dac1119be77755efe3bde0a64e46e0c60001b61217c565b5b80611aa85750611aa7337fdf8b4c520ffe197c5343c6f5aec59570151ef9a492f2c624fd45ddde6135ec4260001b61217c565b5b80611b005750600360009054906101000a900473ffffffffffffffffffffffffffffffffffffffff1673ffffffffffffffffffffffffffffffffffffffff163373ffffffffffffffffffffffffffffffffffffffff16145b611b3f576040517f08c379a0000000000000000000000000000000000000000000000000000000008152600401611b369061415a565b60405180910390fd5b60606000611b4d600461285f565b905060005b81811015611c405760066000611b7283600461287490919063ffffffff16565b81526020019081526020016000206000018054600181600116156101000203166002900480601f016020809104026020016040519081016040528092919081815260200182805460018160011615610100020316600290048015611c175780601f10611bec57610100808354040283529160200191611c17565b820191906000526020600020905b815481529060010190602001808311611bfa57829003601f168201915b5050505050838281518110611c2857fe5b60200260200101819052508080600101915050611b52565b50819250505090565b6000808260405160240180827bffffffffffffffffffffffffffffffffffffffffffffffffffffffff191681526020019150506040516020818303038152906040527f01ffc9a7000000000000000000000000000000000000000000000000000000007bffffffffffffffffffffffffffffffffffffffffffffffffffffffff19166020820180517bffffffffffffffffffffffffffffffffffffffffffffffffffffffff838183161783525050505090506000808573ffffffffffffffffffffffffffffffffffffffff16836040518082805190602001908083835b60208310611d495780518252602082019150602081019050602083039250611d26565b6001836020036101000a0380198251168184511680821785525050505050509050019150506000604051808303816000865af19150503d8060008114611dab576040519150601f19603f3d011682016040523d82523d6000602084013e611db0565b606091505b509150915081611e28576040517f08c379a00000000000000000000000000000000000000000000000000000000081526004018080602001828103825260028152602001807f515400000000000000000000000000000000000000000000000000000000000081525060200191505060405180910390fd5b808060200190516020811015611e3d57600080fd5b8101908080519060200190929190505050935050505092915050565b6000806000801b90506000611e6d84612045565b90506000611eaf6040518060400160405280600181526020017f2e00000000000000000000000000000000000000000000000000000000000000815250612045565b905060006001611ec8838561207390919063ffffffff16565b0167ffffffffffffffff81118015611edf57600080fd5b50604051908082528060200260200182016040528015611f1357816020015b6060815260200190600190039081611efe5790505b50905060005b8151811015611f6157611f3d611f3884866120e890919063ffffffff16565b612102565b828281518110611f4957fe5b60200260200101819052508080600101915050611f19565b506000815190505b60008111156120385784826001830381518110611f8257fe5b60200260200101516040516020018082805190602001908083835b60208310611fc05780518252602082019150602081019050602083039250611f9d565b6001836020036101000a038019825116818451168082178552505050505050905001915050604051602081830303815290604052805190602001206040516020018083815260200182815260200192505050604051602081830303815290604052805190602001209450808060019003915050611f69565b5083945050505050919050565b61204d6130d1565b600060208301905060405180604001604052808451815260200182815250915050919050565b6000808260000151612097856000015186602001518660000151876020015161288b565b0190505b836000015184602001510181116120e157818060010192505082600001516120d985602001518303866000015103838660000151876020015161288b565b01905061209b565b5092915050565b6120f06130d1565b6120fb838383612966565b5092915050565b60606000826000015167ffffffffffffffff8111801561212157600080fd5b506040519080825280601f01601f1916602001820160405280156121545781602001600182028036833780820191505090505b50905060006020820190506121728185602001518660000151612a04565b8192505050919050565b600080600260009054906101000a900473ffffffffffffffffffffffffffffffffffffffff169050600061223a8273ffffffffffffffffffffffffffffffffffffffff1663154c0d786040518163ffffffff1660e01b81526004016121e09061419a565b60006040518083038186803b1580156121f857600080fd5b505afa15801561220c573d6000803e3d6000fd5b505050506040513d6000823e3d601f19601f82011682018060405250810190612235919061358c565b611e59565b905060008273ffffffffffffffffffffffffffffffffffffffff16630178b8bf836040518263ffffffff1660e01b81526004016122779190613ff4565b60206040518083038186803b15801561228f57600080fd5b505afa1580156122a3573d6000803e3d6000fd5b505050506040513d601f19601f820116820180604052508101906122c7919061333d565b9050600073ffffffffffffffffffffffffffffffffffffffff168173ffffffffffffffffffffffffffffffffffffffff16633b3b57de846040518263ffffffff1660e01b815260040161231a9190613ff4565b60206040518083038186803b15801561233257600080fd5b505afa158015612346573d6000803e3d6000fd5b505050506040513d601f19601f8201168201806040525081019061236a919061333d565b73ffffffffffffffffffffffffffffffffffffffff161415801561241a57508073ffffffffffffffffffffffffffffffffffffffff166301ffc9a7633b3b57de60e01b6040518263ffffffff1660e01b81526004016123c99190614038565b60206040518083038186803b1580156123e157600080fd5b505afa1580156123f5573d6000803e3d6000fd5b505050506040513d601f19601f820116820180604052508101906124199190613366565b5b612459576040517f08c379a00000000000000000000000000000000000000000000000000000000081526004016124509061429a565b60405180910390fd5b60008173ffffffffffffffffffffffffffffffffffffffff16633b3b57de846040518263ffffffff1660e01b81526004016124949190613ff4565b60206040518083038186803b1580156124ac57600080fd5b505afa1580156124c0573d6000803e3d6000fd5b505050506040513d601f19601f820116820180604052508101906124e4919061333d565b905080600760006101000a81548173ffffffffffffffffffffffffffffffffffffffff021916908373ffffffffffffffffffffffffffffffffffffffff160217905550600760009054906101000a900473ffffffffffffffffffffffffffffffffffffffff1673ffffffffffffffffffffffffffffffffffffffff166391d1485487896040518363ffffffff1660e01b815260040161258492919061400f565b60206040518083038186803b15801561259c57600080fd5b505afa1580156125b0573d6000803e3d6000fd5b505050506040513d601f19601f820116820180604052508101906125d49190613366565b94505050505092915050565b60006125ef8360000183612a4d565b905092915050565b60008160405160200180807f19457468657265756d205369676e6564204d6573736167653a0a333200000000815250601c01828152602001915050604051602081830303815290604052805190602001209050919050565b600061265e8360000183612a70565b905092915050565b60008060066000858152602001908152602001600020905060006126ed8260040160009054906101000a900473ffffffffffffffffffffffffffffffffffffffff1686846001018560030186600201548760060154306040516020016126d29796959493929190613f3e565b604051602081830303815290604052805190602001206125f7565b90506126f8816125f7565b90508573ffffffffffffffffffffffffffffffffffffffff1661271b8286612ae0565b73ffffffffffffffffffffffffffffffffffffffff1614925050509392505050565b6000808284019050838110156127bb576040517f08c379a000000000000000000000000000000000000000000000000000000000815260040180806020018281038252601b8152602001807f536166654d6174683a206164646974696f6e206f766572666c6f77000000000081525060200191505060405180910390fd5b8091505092915050565b60006127d48360000183612b64565b905092915050565b600082821115612854576040517f08c379a000000000000000000000000000000000000000000000000000000000815260040180806020018281038252601e8152602001807f536166654d6174683a207375627472616374696f6e206f766572666c6f77000081525060200191505060405180910390fd5b818303905092915050565b600061286d82600001612c4c565b9050919050565b60006128838360000183612c5d565b905092915050565b6000808490506000868511612956576020851161291057600060018660200360080260020a031960001b905060008186511690506000878a8a0103905060008386511690505b828114612902578186106128ef578a8a01965050505050505061295e565b85806001019650508386511690506128d1565b85965050505050505061295e565b60008585209050600091505b8588038211612954576000868420905080821415612940578394505050505061295e565b60018401935050818060010192505061291c565b505b868601925050505b949350505050565b61296e6130d1565b600061298c856000015186602001518660000151876020015161288b565b905084602001518360200181815250508460200151810383600001818152505084600001518560200151018114156129ce5760008560000181815250506129f9565b8360000151836000015101856000018181510391508181525050836000015181018560200181815250505b829150509392505050565b5b60208110612a285781518352602083019250602082019150602081039050612a05565b60006001826020036101000a0390508019835116818551168181178652505050505050565b600080836001016000848152602001908152602001600020541415905092915050565b6000612a7c8383612a4d565b612ad5578260000182908060018154018082558091505060019003906000526020600020016000909190919091505582600001805490508360010160008481526020019081526020016000208190555060019050612ada565b600090505b92915050565b600080600080612aef85612ce0565b92509250925060018682858560405160008152602001604052604051808581526020018460ff1681526020018381526020018281526020019450505050506020604051602081039080840390855afa158015612b4f573d6000803e3d6000fd5b50505060206040510351935050505092915050565b60008083600101600084815260200190815260200160002054905060008114612c405760006001820390506000600186600001805490500390506000866000018281548110612baf57fe5b9060005260206000200154905080876000018481548110612bcc57fe5b9060005260206000200181905550600183018760010160008381526020019081526020016000208190555086600001805480612c0457fe5b60019003818190600052602060002001600090559055866001016000878152602001908152602001600020600090556001945050505050612c46565b60009150505b92915050565b600081600001805490509050919050565b600081836000018054905011612cbe576040517f08c379a000000000000000000000000000000000000000000000000000000000815260040180806020018281038252602281526020018061463d6022913960400191505060405180910390fd5b826000018281548110612ccd57fe5b9060005260206000200154905092915050565b60008060006041845114612d5c576040517f08c379a00000000000000000000000000000000000000000000000000000000081526004018080602001828103825260188152602001807f696e76616c6964207369676e6174757265206c656e677468000000000000000081525060200191505060405180910390fd5b6020840151925060408401519150606084015160001a90509193909250565b828054600181600116156101000203166002900490600052602060002090601f016020900481019282612db15760008555612df8565b82601f10612dca57805160ff1916838001178555612df8565b82800160010185558215612df8579182015b82811115612df7578251825591602001919060010190612ddc565b5b509050612e0591906130eb565b5090565b828054600181600116156101000203166002900490600052602060002090601f016020900481019282612e3f5760008555612e86565b82601f10612e5857803560ff1916838001178555612e86565b82800160010185558215612e86579182015b82811115612e85578235825591602001919060010190612e6a565b5b509050612e9391906130eb565b5090565b828054600181600116156101000203166002900490600052602060002090601f016020900481019282612ecd5760008555612f14565b82601f10612ee657803560ff1916838001178555612f14565b82800160010185558215612f14579182015b82811115612f13578235825591602001919060010190612ef8565b5b509050612f2191906130eb565b5090565b828054600181600116156101000203166002900490600052602060002090601f016020900481019282612f5b5760008555612fa2565b82601f10612f7457805160ff1916838001178555612fa2565b82800160010185558215612fa2579182015b82811115612fa1578251825591602001919060010190612f86565b5b509050612faf91906130eb565b5090565b50805460018160011615610100020316600290046000825580601f10612fd95750612ff8565b601f016020900490600052602060002090810190612ff791906130eb565b5b50565b50805460018160011615610100020316600290046000825580601f106130215750613040565b601f01602090049060005260206000209081019061303f91906130eb565b5b50565b828054600181600116156101000203166002900490600052602060002090601f01602090048101928261307957600085556130c0565b82601f1061309257805160ff19168380011785556130c0565b828001600101855582156130c0579182015b828111156130bf5782518255916020019190600101906130a4565b5b5090506130cd91906130eb565b5090565b604051806040016040528060008152602001600081525090565b5b808211156131045760008160009055506001016130ec565b5090565b600061311b6131168461436b565b61433a565b90508281526020810184848401111561313357600080fd5b61313e84828561451d565b509392505050565b60006131596131548461439b565b61433a565b90508281526020810184848401111561317157600080fd5b61317c84828561451d565b509392505050565b60006131976131928461439b565b61433a565b9050828152602081018484840111156131af57600080fd5b6131ba84828561452c565b509392505050565b6000815190506131d1816145c9565b92915050565b6000815190506131e6816145e0565b92915050565b6000813590506131fb816145f7565b92915050565b6000813590506132108161460e565b92915050565b60008083601f84011261322857600080fd5b8235905067ffffffffffffffff81111561324157600080fd5b60208301915083600182028301111561325957600080fd5b9250929050565b600082601f83011261327157600080fd5b8135613281848260208601613108565b91505092915050565b60008083601f84011261329c57600080fd5b8235905067ffffffffffffffff8111156132b557600080fd5b6020830191508360018202830111156132cd57600080fd5b9250929050565b600082601f8301126132e557600080fd5b81356132f5848260208601613146565b91505092915050565b600082601f83011261330f57600080fd5b815161331f848260208601613184565b91505092915050565b60008135905061333781614625565b92915050565b60006020828403121561334f57600080fd5b600061335d848285016131c2565b91505092915050565b60006020828403121561337857600080fd5b6000613386848285016131d7565b91505092915050565b6000602082840312156133a157600080fd5b60006133af848285016131ec565b91505092915050565b600080600080600080608087890312156133d157600080fd5b60006133df89828a016131ec565b965050602087013567ffffffffffffffff8111156133fc57600080fd5b61340889828a01613216565b9550955050604061341b89828a01613328565b935050606087013567ffffffffffffffff81111561343857600080fd5b61344489828a0161328a565b92509250509295509295509295565b6000806040838503121561346657600080fd5b6000613474858286016131ec565b925050602061348585828601613328565b9150509250929050565b6000806000806000608086880312156134a757600080fd5b60006134b5888289016131ec565b95505060206134c688828901613328565b94505060406134d788828901613328565b935050606086013567ffffffffffffffff8111156134f457600080fd5b61350088828901613216565b92509250509295509295909350565b60006020828403121561352157600080fd5b600061352f84828501613201565b91505092915050565b6000806040838503121561354b57600080fd5b600083013567ffffffffffffffff81111561356557600080fd5b61357185828601613260565b925050602061358285828601613328565b9150509250929050565b60006020828403121561359e57600080fd5b600082015167ffffffffffffffff8111156135b857600080fd5b6135c4848285016132fe565b91505092915050565b600080600080600080608087890312156135e657600080fd5b600087013567ffffffffffffffff81111561360057600080fd5b61360c89828a016132d4565b965050602087013567ffffffffffffffff81111561362957600080fd5b61363589828a01613216565b9550955050604061364889828a01613328565b935050606087013567ffffffffffffffff81111561366557600080fd5b61367189828a0161328a565b92509250509295509295509295565b600061368c838361389b565b905092915050565b6136a56136a08261449f565b614571565b82525050565b6136b48161448d565b82525050565b6136cb6136c68261448d565b61455f565b82525050565b60006136dc82614405565b6136e68185614433565b9350836020820285016136f8856143cb565b8060005b8581101561373457848403895281516137158582613680565b945061372083614426565b925060208a019950506001810190506136fc565b50829750879550505050505092915050565b61374f816144b1565b82525050565b61375e816144bd565b82525050565b613775613770826144bd565b614583565b82525050565b613784816144c7565b82525050565b60006137968385614455565b93506137a383858461451d565b82840190509392505050565b60006137ba82614410565b6137c48185614444565b93506137d481856020860161452c565b6137dd816145ab565b840191505092915050565b600081546001811660008114613805576001811461382a5761386e565b607f60028304166138168187614455565b955060ff198316865280860193505061386e565b600282046138388187614455565b9550613843856143db565b60005b8281101561386557815481890152600182019150602081019050613846565b82880195505050505b505092915050565b60006138828385614482565b935061388f83858461451d565b82840190509392505050565b60006138a68261441b565b6138b08185614460565b93506138c081856020860161452c565b6138c9816145ab565b840191505092915050565b60006138df8261441b565b6138e98185614471565b93506138f981856020860161452c565b613902816145ab565b840191505092915050565b60008154600181166000811461392a576001811461394f57613993565b607f600283041661393b8187614482565b955060ff1983168652808601935050613993565b6002820461395d8187614482565b9550613968856143f0565b60005b8281101561398a5781548189015260018201915060208101905061396b565b82880195505050505b505092915050565b60006139a8600483614471565b91507f514c3234000000000000000000000000000000000000000000000000000000006000830152602082019050919050565b60006139e8600483614471565b91507f514c3036000000000000000000000000000000000000000000000000000000006000830152602082019050919050565b6000613a28600483614471565b91507f514c3132000000000000000000000000000000000000000000000000000000006000830152602082019050919050565b6000613a68600483614471565b91507f514c3033000000000000000000000000000000000000000000000000000000006000830152602082019050919050565b6000613aa8600483614471565b91507f514c3131000000000000000000000000000000000000000000000000000000006000830152602082019050919050565b6000613ae8600483614471565b91507f514c3138000000000000000000000000000000000000000000000000000000006000830152602082019050919050565b6000613b28600483614471565b91507f514c3233000000000000000000000000000000000000000000000000000000006000830152602082019050919050565b6000613b68600683614471565b91507f61636365737300000000000000000000000000000000000000000000000000006000830152602082019050919050565b6000613ba8600483614471565b91507f514c3035000000000000000000000000000000000000000000000000000000006000830152602082019050919050565b6000613be8600483614471565b91507f514c3034000000000000000000000000000000000000000000000000000000006000830152602082019050919050565b6000613c28600483614471565b91507f514c3139000000000000000000000000000000000000000000000000000000006000830152602082019050919050565b6000613c68600483614471565b91507f514c3038000000000000000000000000000000000000000000000000000000006000830152602082019050919050565b6000613ca8600483614471565b91507f514c3136000000000000000000000000000000000000000000000000000000006000830152602082019050919050565b6000613ce8600483614471565b91507f514c3137000000000000000000000000000000000000000000000000000000006000830152602082019050919050565b6000613d28600483614471565b91507f514c3039000000000000000000000000000000000000000000000000000000006000830152602082019050919050565b6000613d68600483614471565b91507f514c3037000000000000000000000000000000000000000000000000000000006000830152602082019050919050565b6000613da8600483614471565b91507f514c3133000000000000000000000000000000000000000000000000000000006000830152602082019050919050565b6000613de8600483614471565b91507f514c3130000000000000000000000000000000000000000000000000000000006000830152602082019050919050565b6000613e28600483614471565b91507f514c3232000000000000000000000000000000000000000000000000000000006000830152602082019050919050565b6000613e68600483614471565b91507f514c3134000000000000000000000000000000000000000000000000000000006000830152602082019050919050565b613ea481614513565b82525050565b613ebb613eb682614513565b61459f565b82525050565b6000613ecd828c613694565b601482019150613edd828b613764565b602082019150613eee82898b61378a565b9150613efb828789613876565b9150613f078286613eaa565b602082019150613f178285613eaa565b602082019150613f2782846136ba565b6014820191508190509a9950505050505050505050565b6000613f4a828a6136ba565b601482019150613f5a8289613764565b602082019150613f6a82886137e8565b9150613f76828761390d565b9150613f828286613eaa565b602082019150613f928285613eaa565b602082019150613fa282846136ba565b60148201915081905098975050505050505050565b60006020820190508181036000830152613fd181846136d1565b905092915050565b6000602082019050613fee6000830184613746565b92915050565b60006020820190506140096000830184613755565b92915050565b60006040820190506140246000830185613755565b61403160208301846136ab565b9392505050565b600060208201905061404d600083018461377b565b92915050565b6000604082019050818103600083015261406d81856137af565b9050818103602083015261408181846138d4565b90509392505050565b600060408201905081810360008301526140a481856137af565b90506140b36020830184613e9b565b9392505050565b600060208201905081810360008301526140d38161399b565b9050919050565b600060208201905081810360008301526140f3816139db565b9050919050565b6000602082019050818103600083015261411381613a1b565b9050919050565b6000602082019050818103600083015261413381613a5b565b9050919050565b6000602082019050818103600083015261415381613a9b565b9050919050565b6000602082019050818103600083015261417381613adb565b9050919050565b6000602082019050818103600083015261419381613b1b565b9050919050565b600060208201905081810360008301526141b381613b5b565b9050919050565b600060208201905081810360008301526141d381613b9b565b9050919050565b600060208201905081810360008301526141f381613bdb565b9050919050565b6000602082019050818103600083015261421381613c1b565b9050919050565b6000602082019050818103600083015261423381613c5b565b9050919050565b6000602082019050818103600083015261425381613c9b565b9050919050565b6000602082019050818103600083015261427381613cdb565b9050919050565b6000602082019050818103600083015261429381613d1b565b9050919050565b600060208201905081810360008301526142b381613d5b565b9050919050565b600060208201905081810360008301526142d381613d9b565b9050919050565b600060208201905081810360008301526142f381613ddb565b9050919050565b6000602082019050818103600083015261431381613e1b565b9050919050565b6000602082019050818103600083015261433381613e5b565b9050919050565b6000604051905081810181811067ffffffffffffffff82111715614361576143606145a9565b5b8060405250919050565b600067ffffffffffffffff821115614386576143856145a9565b5b601f19601f8301169050602081019050919050565b600067ffffffffffffffff8211156143b6576143b56145a9565b5b601f19601f8301169050602081019050919050565b6000819050602082019050919050565b60008190508160005260206000209050919050565b60008190508160005260206000209050919050565b600081519050919050565b600081519050919050565b600081519050919050565b6000602082019050919050565b600082825260208201905092915050565b600082825260208201905092915050565b600081905092915050565b600082825260208201905092915050565b600082825260208201905092915050565b600081905092915050565b6000614498826144f3565b9050919050565b60006144aa826144f3565b9050919050565b60008115159050919050565b6000819050919050565b60007fffffffff0000000000000000000000000000000000000000000000000000000082169050919050565b600073ffffffffffffffffffffffffffffffffffffffff82169050919050565b6000819050919050565b82818337600083830152505050565b60005b8381101561454a57808201518184015260208101905061452f565b83811115614559576000848401525b50505050565b600061456a8261458d565b9050919050565b600061457c8261458d565b9050919050565b6000819050919050565b6000614598826145bc565b9050919050565b6000819050919050565bfe5b6000601f19601f8301169050919050565b60008160601b9050919050565b6145d28161448d565b81146145dd57600080fd5b50565b6145e9816144b1565b81146145f457600080fd5b50565b614600816144bd565b811461460b57600080fd5b50565b614617816144c7565b811461462257600080fd5b50565b61462e81614513565b811461463957600080fd5b5056fe456e756d657261626c655365743a20696e646578206f7574206f6620626f756e6473a2646970667358221220d663f23541ced9211d76ec48032577527b38296d71923124797dda2cc781c63264736f6c63430007060033",
  "immutableReferences": {},
  "source": "pragma solidity ^0.7.0;\n// SPDX-License-Identifier: GPL-3.0-or-later\npragma abicoder v2;\nimport \"./QualificationDS.sol\";\nimport \"../../Utils/ENS.sol\";\nimport \"../../Utils/Resolver.sol\";\nimport \"../../Utils/Roles.sol\";\nimport \"../../Utils/Library.sol\";\nimport \"@openzeppelin/contracts/token/ERC721/ERC721.sol\";\n\ncontract QualificationLogic is QualificationDS,Roles {\n    \n\n    \n    using Address for address;\n    using SafeMath for uint256;\n    using EnumerableSet for EnumerableSet.Bytes32Set;\n    \n\n    \n\n    \n    constructor(address _ensAddress) {\n        require(Utility._checkInterfaceID(_ensAddress,Utility.INTERFACE_ID_ENSREGISTRY),\"QL02\");\n        ENS ens = ENS(_ensAddress);\n        bytes32 orgAccessENS = Utility._computeNamehash(ens.getPredefineENSPrefix(\"access\"));\n        Resolver res = Resolver(ens.resolver(orgAccessENS));\n        require(res.addr(orgAccessENS)!=address(0) && res.supportsInterface(Utility.ADDR_INTERFACE_ID),\"QL09\");\n        address orgAccessAdr = res.addr(orgAccessENS);\n        access = PermissionControl(orgAccessAdr);\n        require(access.hasRole(ADMIN,msg.sender),\"QL01\");\n    }\n    \n    \n    \n    function addAttribute(string memory _name, bytes calldata _value, uint256 _datetime, string calldata _datatype) public \n    returns (bytes32)\n    {\n        ENS ens = ENS(orgENSRegistar);\n        require(_orgAccessCheck(msg.sender,TOKEN)||_orgAccessCheck(msg.sender,OPERATOR)||_orgAccessCheck(msg.sender,ADMIN) ,\"QL03\");\n        bytes32 _key = keccak256(bytes(_name));\n        bytes32 namehash = Utility._computeNamehash(attributeListENS);\n        Resolver res = Resolver(ens.resolver(namehash));\n        QualificationAttributeList ab = QualificationAttributeList(res.addr(namehash));\n        require(attributeList.contains(_key)==false,\"QL04\");\n        require(ab.exists(_key)==false,\"QL05\");\n        attributeList.add(_key);\n        Attributes[_key].name=_name;\n        Attributes[_key].value=_value;\n        Attributes[_key].createDate = _datetime;\n        Attributes[_key].datatype = _datatype;\n        Attributes[_key].initiator = msg.sender;\n        namehash = Utility._prefixed(keccak256(abi.encodePacked(msg.sender,_key,_value,_datatype,_datetime,uint256(0),address(this))));\n        return namehash;\n    }\n    \n    function upateAttribute(bytes32 _key, bytes calldata _value, uint256 _datetime, string calldata _datatype) public \n    returns (bytes32)\n    {\n        ENS ens = ENS(orgENSRegistar);\n        require(_orgAccessCheck(msg.sender,TOKEN)||_orgAccessCheck(msg.sender,OPERATOR)||_orgAccessCheck(msg.sender,ADMIN) ,\"QL22\");\n        bytes32 namehash = Utility._computeNamehash(attributeListENS);\n        Resolver res = Resolver(ens.resolver(namehash));\n        QualificationAttributeList ab = QualificationAttributeList(res.addr(namehash));\n        require(ab.exists(_key),\"QL23\");\n        require(attributeList.contains(_key),\"QL24\");\n        uint256 ecount = Attributes[_key].endorsementcount;\n        for(uint256 i=0;i<ecount;i++){\n            Attributes[_key].endorsements[i].active = false;\n        }\n        Attributes[_key].value=_value;\n        Attributes[_key].createDate = _datetime;\n        Attributes[_key].datatype = _datatype;\n        namehash= Utility._prefixed(keccak256(abi.encodePacked(msg.sender,_key,_value,_datatype,_datetime,ecount,address(this))));\n        return namehash;\n    }\n    \n    \n    \n    \n    function removeAttribute(bytes32 _key,uint256 _datetime) public  {\n        \n        require(_orgAccessCheck(msg.sender,TOKEN)||_orgAccessCheck(msg.sender,OPERATOR)||_orgAccessCheck(msg.sender,ADMIN) ,\"QL06\");\n        require(attributeList.contains(_key),\"QL07\");\n        delete Attributes[_key];\n        attributeList.remove(_key);\n    }\n    \n    function endorseAttribute(bytes32 _key,uint256 _datetime,uint256 _expiryDate,bytes calldata _signature) public {\n        \n        require(_orgAccessCheck(msg.sender,ENDORSE),\"QL08\");\n        require(_verifyAttributeSignature(msg.sender,_key,_signature),\"QL09\");\n        uint256 ecount = Attributes[_key].endorsementcount;\n        Attributes[_key].endorsementcount=Attributes[_key].endorsementcount.add(1);\n        Attributes[_key].endorsements[ecount].signature = _signature;\n        Attributes[_key].endorsements[ecount].endorseDate = _datetime;\n        Attributes[_key].endorsements[ecount].endorseExpiryDate = _expiryDate;\n        Attributes[_key].endorsements[ecount].endorser = msg.sender;\n        Attributes[_key].endorsements[ecount].active = true;\n    }\n    \n    function removeEndorsement(bytes32 _key,uint256 _endorseNumber) public {\n       \n        require(_orgAccessCheck(msg.sender,ENDORSE),\"QL10\");\n        require(attributeList.contains(_key),\"QL11\");\n        require(Attributes[_key].endorsements[_endorseNumber].endorser==msg.sender,\"QL12\");\n        Attributes[_key].endorsements[_endorseNumber].active=false;\n        Attributes[_key].endorsementcount=Attributes[_key].endorsementcount.sub(1);\n        \n    }\n    \n    function addKeyStore(bytes memory _dercert,uint256 _datetime) public{\n        \n        require(_orgAccessCheck(msg.sender,TOKEN)||_orgAccessCheck(msg.sender,OPERATOR)\n                ||_orgAccessCheck(msg.sender,ADMIN) ,\"QL13\");\n        key.cert=_dercert;\n        key.createDate=_datetime;\n    }\n    \n    function delKeyStore() public{\n        \n        require(_orgAccessCheck(msg.sender,TOKEN)||_orgAccessCheck(msg.sender,OPERATOR)\n                ||_orgAccessCheck(msg.sender,ADMIN),\"QL14\");\n        key.cert = \"\";\n        key.createDate=0;\n    }\n    \n    function getAttribute(bytes32 _key) public\n    returns(bytes memory,string memory)\n    {\n        \n        require(_orgAccessCheck(msg.sender,TOKEN)||_orgAccessCheck(msg.sender,OPERATOR)\n                ||_orgAccessCheck(msg.sender,ADMIN)||msg.sender==qualificationOwner ,\"QL16\");\n        require(attributeList.contains(_key),\"QL17\");\n        return (Attributes[_key].value,Attributes[_key].datatype);\n    }\n    \n    function listofAttribute() public\n    returns(string[] memory)\n    {\n       \n        require(_orgAccessCheck(msg.sender,TOKEN)||_orgAccessCheck(msg.sender,OPERATOR)\n                ||_orgAccessCheck(msg.sender,ADMIN)||msg.sender==qualificationOwner ,\"QL18\");\n       string[] memory list;\n        uint256 count = attributeList.length();\n        for(uint256 i=0;i<count;i++){\n            list[i]=Attributes[attributeList.at(i)].name;\n        }\n        return list;\n    }\n    \n    function getKey() public \n    returns(bytes memory,uint256)\n    {\n        \n        require(_orgAccessCheck(msg.sender,TOKEN)||_orgAccessCheck(msg.sender,OPERATOR)\n                ||_orgAccessCheck(msg.sender,ADMIN)||msg.sender==qualificationOwner ,\"QL19\");\n        return (key.cert,key.createDate);\n    }\n\n    \n        \n    function supportsInterface(bytes4 interfaceId) public view returns (bool) {\n        return interfaceId == Utility.INTERFACE_ID_QUALIFICATIONLOGIC;\n    }\n\n    function qualificationLogic() public{}\n    \n    function _orgAccessCheck(address _caller,bytes32 _role) internal \n    returns(bool)\n    {\n        ENS ens = ENS(orgENSRegistar);\n        bytes32 orgAccessENS = Utility._computeNamehash(ens.getPredefineENSPrefix(\"access\"));\n        Resolver res = Resolver(ens.resolver(orgAccessENS));\n        require(res.addr(orgAccessENS)!=address(0) && res.supportsInterface(Utility.ADDR_INTERFACE_ID),\"QL07\");\n        address orgAccessAdr = res.addr(orgAccessENS);\n        access = PermissionControl(orgAccessAdr);\n        return access.hasRole(_role,_caller);\n        \n    }\n    \n    function _verifyAttributeSignature(address _signer,bytes32 _key, bytes memory signature) internal view \n    returns (bool)\n    {\n        Attribute storage attr = Attributes[_key];\n        bytes32 datatosign = Utility._prefixed(keccak256(abi.encodePacked(attr.initiator,_key,attr.value,attr.datatype,attr.createDate,attr.endorsementcount,address(this))));\n        datatosign = Utility._prefixed(datatosign);\n        return Utility._recoverSigner(datatosign, signature) == _signer;\n    }\n\n    function _hasqERC721Token(bytes32 _org,bytes32 _qERC721Name, uint256 _tokenid,address _owner) internal view\n    returns(bool)\n    {\n        ENS ens = ENS(orgENSRegistar);\n        Resolver res = Resolver(ens.resolver(_org));\n        require(res.addr(_org)!=address(0) && res.supportsInterface(Utility.ORG_INTERFACE_ID),\"WL07\");\n        address orgENSAddress =  res.addr(_org);\n        ENS orgENS = ENS(orgENSAddress);\n        res = Resolver(orgENS.resolver(_qERC721Name));\n        require(res.addr(_qERC721Name)!=address(0) && res.supportsInterface(Utility.ADDR_INTERFACE_ID),\"WL09\");\n        ERC721 token = ERC721(res.addr(_qERC721Name));\n        return (token.ownerOf(_tokenid) == _owner);\n        \n    }\n    \n    \n    function _withdrawERC721Token(bytes32 _org,bytes32 _qERC721Name, uint256 _tokenid,address _receiver) internal\n    {\n        ENS ens = ENS(orgENSRegistar);\n        Resolver res = Resolver(ens.resolver(_org));\n        require(res.addr(_org)!=address(0) && res.supportsInterface(Utility.ORG_INTERFACE_ID),\"WL07\");\n        address orgENSAddress =  res.addr(_org);\n        ENS orgENS = ENS(orgENSAddress);\n        res = Resolver(orgENS.resolver(_qERC721Name));\n        require(res.addr(_qERC721Name)!=address(0) && res.supportsInterface(Utility.ADDR_INTERFACE_ID),\"WL09\");\n        ERC721 token = ERC721(res.addr(_qERC721Name));\n        token.safeTransferFrom(address(this),_receiver,_tokenid);\n    }\n    \n\n}",
  "sourcePath": "/home/dickchan/CIC/contracts/AssetContract/Qualification/QualificationLogic.sol",
  "compiler": {
    "name": "solc",
    "version": "0.7.6+commit.7338295f.Emscripten.clang"
  },
  "schemaVersion": "3.2.3",
  "updatedAt": "2021-03-18T07:14:07.369Z",
  "devdoc": {
    "kind": "dev",
    "methods": {},
    "version": 1
  },
  "userdoc": {
    "kind": "user",
    "methods": {},
    "version": 1
  }
}