{
  "contractName": "Selector",
  "abi": [
    {
      "inputs": [],
      "name": "calcInterfaceId",
      "outputs": [
        {
          "internalType": "bytes4",
          "name": "",
          "type": "bytes4"
        }
      ],
      "stateMutability": "pure",
      "type": "function"
    }
  ],
  "bytecode": "0x6080604052348015600f57600080fd5b5060af8061001e6000396000f3fe6080604052348015600f57600080fd5b506004361060285760003560e01c8063573badfe14602d575b600080fd5b60336068565b60405180827bffffffffffffffffffffffffffffffffffffffffffffffffffffffff1916815260200191505060405180910390f35b6000806371966f2560e01b9150509056fea264697066735822122044726c04d731f336aa1ac3af70a533c0c9d0a0a0d70109a3068978e00473a1f964736f6c63430007060033",
  "immutableReferences": {},
  "source": "pragma solidity >=0.5.8;\nimport \"../TokenContract/QualificationToken.sol\";\ncontract Selector {\n  // 0x75b24222\n  function calcInterfaceId() external pure returns (bytes4) {\n    QualificationToken i;\n    return i.qualificationToken.selector;\n    \n  }\n}",
  "sourcePath": "/home/dickchan/CIC/contracts/Utils/helper.sol",
  "compiler": {
    "name": "solc",
    "version": "0.7.6+commit.7338295f.Emscripten.clang"
  },
  "schemaVersion": "3.2.3",
  "updatedAt": "2021-03-18T07:14:07.441Z",
  "devdoc": {
    "kind": "dev",
    "methods": {},
    "version": 1
  },
  "userdoc": {
    "kind": "user",
    "methods": {},
    "version": 1
  }
}