{
  "contractName": "Test",
  "abi": [
    {
      "inputs": [
        {
          "internalType": "string",
          "name": "_t",
          "type": "string"
        }
      ],
      "name": "setText",
      "outputs": [],
      "stateMutability": "nonpayable",
      "type": "function"
    },
    {
      "inputs": [],
      "name": "split",
      "outputs": [],
      "stateMutability": "nonpayable",
      "type": "function"
    },
    {
      "inputs": [],
      "name": "getPartLen",
      "outputs": [
        {
          "internalType": "uint256",
          "name": "",
          "type": "uint256"
        }
      ],
      "stateMutability": "view",
      "type": "function"
    },
    {
      "inputs": [
        {
          "internalType": "uint256",
          "name": "_index",
          "type": "uint256"
        }
      ],
      "name": "getPartByIndex",
      "outputs": [
        {
          "internalType": "string",
          "name": "",
          "type": "string"
        }
      ],
      "stateMutability": "view",
      "type": "function"
    },
    {
      "inputs": [
        {
          "internalType": "bytes32",
          "name": "_label",
          "type": "bytes32"
        }
      ],
      "name": "computeNamehash",
      "outputs": [
        {
          "internalType": "bytes32",
          "name": "",
          "type": "bytes32"
        }
      ],
      "stateMutability": "view",
      "type": "function"
    },
    {
      "inputs": [
        {
          "internalType": "string",
          "name": "_name",
          "type": "string"
        }
      ],
      "name": "_computeNamehash",
      "outputs": [
        {
          "internalType": "bytes32",
          "name": "",
          "type": "bytes32"
        }
      ],
      "stateMutability": "nonpayable",
      "type": "function"
    },
    {
      "inputs": [
        {
          "internalType": "string",
          "name": "_name",
          "type": "string"
        }
      ],
      "name": "_computeParentNamehash",
      "outputs": [
        {
          "internalType": "bytes32",
          "name": "",
          "type": "bytes32"
        }
      ],
      "stateMutability": "nonpayable",
      "type": "function"
    },
    {
      "inputs": [
        {
          "internalType": "uint256",
          "name": "_d",
          "type": "uint256"
        }
      ],
      "name": "convertUint256_Address",
      "outputs": [
        {
          "internalType": "address",
          "name": "",
          "type": "address"
        }
      ],
      "stateMutability": "nonpayable",
      "type": "function"
    }
  ],
  "bytecode": "0x608060405234801561001057600080fd5b5061105c806100206000396000f3fe608060405234801561001057600080fd5b50600436106100885760003560e01c8063792874b81161005b578063792874b8146103045780638f7e7b4914610346578063b2a4445a146103ed578063f76541761461044557610088565b8063073513e21461008d5780630b3e37ef146100ab5780635d3a1f9d1461017a5780636eb6113f14610235575b600080fd5b61009561044f565b6040518082815260200191505060405180910390f35b610164600480360360208110156100c157600080fd5b81019080803590602001906401000000008111156100de57600080fd5b8201836020820111156100f057600080fd5b8035906020019184600183028401116401000000008311171561011257600080fd5b91908080601f016020809104026020016040519081016040528093929190818152602001838380828437600081840152601f19601f82011690508083019250505050505050919291929050505061045c565b6040518082815260200191505060405180910390f35b6102336004803603602081101561019057600080fd5b81019080803590602001906401000000008111156101ad57600080fd5b8201836020820111156101bf57600080fd5b803590602001918460018302840111640100000000831117156101e157600080fd5b91908080601f016020809104026020016040519081016040528093929190818152602001838380828437600081840152601f19601f82011690508083019250505050505050919291929050505061064e565b005b6102ee6004803603602081101561024b57600080fd5b810190808035906020019064010000000081111561026857600080fd5b82018360208201111561027a57600080fd5b8035906020019184600183028401116401000000008311171561029c57600080fd5b91908080601f016020809104026020016040519081016040528093929190818152602001838380828437600081840152601f19601f820116905080830192505050505050509192919290505050610668565b6040518082815260200191505060405180910390f35b6103306004803603602081101561031a57600080fd5b8101908080359060200190929190505050610854565b6040518082815260200191505060405180910390f35b6103726004803603602081101561035c57600080fd5b8101908080359060200190929190505050610897565b6040518080602001828103825283818151815260200191508051906020019080838360005b838110156103b2578082015181840152602081019050610397565b50505050905090810190601f1680156103df5780820380516001836020036101000a031916815260200191505b509250505060405180910390f35b6104196004803603602081101561040357600080fd5b81019080803590602001909291905050506109ca565b604051808273ffffffffffffffffffffffffffffffffffffffff16815260200191505060405180910390f35b61044d6109d4565b005b6000600180549050905090565b6000806000801b9050600061047084610b9c565b905060006104b26040518060400160405280600181526020017f2e00000000000000000000000000000000000000000000000000000000000000815250610b9c565b9050600060016104cb8385610bca90919063ffffffff16565b0167ffffffffffffffff811180156104e257600080fd5b5060405190808252806020026020018201604052801561051657816020015b60608152602001906001900390816105015790505b50905060005b81518110156105645761054061053b8486610c3f90919063ffffffff16565b610c59565b82828151811061054c57fe5b6020026020010181905250808060010191505061051c565b506000815190505b600081111561064157600082600183038151811061058657fe5b60200260200101516040516020018082805190602001908083835b602083106105c457805182526020820191506020810190506020830392506105a1565b6001836020036101000a038019825116818451168082178552505050505050905001915050604051602081830303815290604052805190602001209050858160405160200180838152602001828152602001925050506040516020818303038152906040528051906020012095505080806001900391505061056c565b5083945050505050919050565b8060009080519060200190610664929190610e95565b5050565b6000806000801b9050600061067c84610b9c565b905060006106be6040518060400160405280600181526020017f2e00000000000000000000000000000000000000000000000000000000000000815250610b9c565b9050600060016106d78385610bca90919063ffffffff16565b0167ffffffffffffffff811180156106ee57600080fd5b5060405190808252806020026020018201604052801561072257816020015b606081526020019060019003908161070d5790505b50905060005b81518110156107705761074c6107478486610c3f90919063ffffffff16565b610c59565b82828151811061075857fe5b60200260200101819052508080600101915050610728565b506000815190505b6001811115610847578482600183038151811061079157fe5b60200260200101516040516020018082805190602001908083835b602083106107cf57805182526020820191506020810190506020830392506107ac565b6001836020036101000a038019825116818451168082178552505050505050905001915050604051602081830303815290604052805190602001206040516020018083815260200182815260200192505050604051602081830303815290604052805190602001209450808060019003915050610778565b5083945050505050919050565b6000806000801b90508083604051602001808381526020018281526020019250505060405160208183030381529060405280519060200120905080915050919050565b60606001805490508210610913576040517f08c379a00000000000000000000000000000000000000000000000000000000081526004018080602001828103825260068152602001807f4c656e677468000000000000000000000000000000000000000000000000000081525060200191505060405180910390fd5b6001828154811061092057fe5b906000526020600020018054600181600116156101000203166002900480601f0160208091040260200160405190810160405280929190818152602001828054600181600116156101000203166002900480156109be5780601f10610993576101008083540402835291602001916109be565b820191906000526020600020905b8154815290600101906020018083116109a157829003601f168201915b50505050509050919050565b6000819050919050565b6000610a7960008054600181600116156101000203166002900480601f016020809104026020016040519081016040528092919081815260200182805460018160011615610100020316600290048015610a6f5780601f10610a4457610100808354040283529160200191610a6f565b820191906000526020600020905b815481529060010190602001808311610a5257829003601f168201915b5050505050610b9c565b90506000610abb6040518060400160405280600181526020017f2e00000000000000000000000000000000000000000000000000000000000000815250610b9c565b90506001610ad28284610bca90919063ffffffff16565b0167ffffffffffffffff81118015610ae957600080fd5b50604051908082528060200260200182016040528015610b1d57816020015b6060815260200190600190039081610b085790505b5060019080519060200190610b33929190610f23565b5060005b600180549050811015610b9757610b5f610b5a8385610c3f90919063ffffffff16565b610c59565b60018281548110610b6c57fe5b906000526020600020019080519060200190610b89929190610e95565b508080600101915050610b37565b505050565b610ba4610f83565b600060208301905060405180604001604052808451815260200182815250915050919050565b6000808260000151610bee8560000151866020015186600001518760200151610cd3565b0190505b83600001518460200151018111610c385781806001019250508260000151610c30856020015183038660000151038386600001518760200151610cd3565b019050610bf2565b5092915050565b610c47610f83565b610c52838383610dae565b5092915050565b60606000826000015167ffffffffffffffff81118015610c7857600080fd5b506040519080825280601f01601f191660200182016040528015610cab5781602001600182028036833780820191505090505b5090506000602082019050610cc98185602001518660000151610e4c565b8192505050919050565b6000808490506000868511610d9e5760208511610d5857600060018660200360080260020a031960001b905060008186511690506000878a8a0103905060008386511690505b828114610d4a57818610610d37578a8a019650505050505050610da6565b8580600101965050838651169050610d19565b859650505050505050610da6565b60008585209050600091505b8588038211610d9c576000868420905080821415610d885783945050505050610da6565b600184019350508180600101925050610d64565b505b868601925050505b949350505050565b610db6610f83565b6000610dd48560000151866020015186600001518760200151610cd3565b90508460200151836020018181525050846020015181038360000181815250508460000151856020015101811415610e16576000856000018181525050610e41565b8360000151836000015101856000018181510391508181525050836000015181018560200181815250505b829150509392505050565b5b60208110610e705781518352602083019250602082019150602081039050610e4d565b60006001826020036101000a0390508019835116818551168181178652505050505050565b828054600181600116156101000203166002900490600052602060002090601f016020900481019282610ecb5760008555610f12565b82601f10610ee457805160ff1916838001178555610f12565b82800160010185558215610f12579182015b82811115610f11578251825591602001919060010190610ef6565b5b509050610f1f9190610f9d565b5090565b828054828255906000526020600020908101928215610f72579160200282015b82811115610f71578251829080519060200190610f61929190610e95565b5091602001919060010190610f43565b5b509050610f7f9190610fba565b5090565b604051806040016040528060008152602001600081525090565b5b80821115610fb6576000816000905550600101610f9e565b5090565b5b80821115610fda5760008181610fd19190610fde565b50600101610fbb565b5090565b50805460018160011615610100020316600290046000825580601f106110045750611023565b601f0160209004906000526020600020908101906110229190610f9d565b5b5056fea26469706673582212203c1e57604fb2f850998f5b3ee09ae6b13e313dd992a8e45c21af8f7c33ccc87c64736f6c63430007060033",
  "immutableReferences": {},
  "source": "pragma solidity >=0.6.0;\nimport \"./strings.sol\";\n\n\ncontract Test {\n\n    using strings for *;\n    string private text;\n    string[] private parts;\n    \n    \n    \n    function setText(string memory _t) public {\n        text = _t;\n    }\n    \n    function split() public {\n        strings.slice memory s = text.toSlice();\n        strings.slice memory delim = \".\".toSlice();\n        parts = new string[](s.count(delim) + 1);\n        for(uint i = 0 ; i < parts.length; i++) {\n             parts[i] = s.split(delim).toString();\n        }\n    }\n    \n    function getPartLen() public view\n    returns(uint256)\n    {\n        return parts.length;\n    }\n    \n    function getPartByIndex(uint256 _index) public view\n    returns(string memory)\n    {\n        require(_index<parts.length,\"Length\");\n        return(parts[_index]);\n    }\n    \n    function computeNamehash(bytes32 _label) public view\n    returns (bytes32) \n    {\n        bytes32 namehash = 0x0000000000000000000000000000000000000000000000000000000000000000;\n        //for(uint i = parts.length ; i>0 ; i--) {\n            \n             namehash = keccak256(abi.encodePacked(namehash,_label ));\n        //}\n      \n        return namehash; \n    }\n    \n    \n    function _computeNamehash(string memory _name) public\n    returns (bytes32) \n    {\n        bytes32 namehash = 0x0000000000000000000000000000000000000000000000000000000000000000;\n        strings.slice memory s = _name.toSlice();\n        strings.slice memory delim = \".\".toSlice();\n        string[] memory p = new string[](s.count(delim) + 1);\n        for(uint i = 0 ; i < p.length; i++) {\n             p[i] = s.split(delim).toString();\n             \n        }\n        for(uint i=p.length;i>0;i--){\n            bytes32 label =     keccak256(abi.encodePacked(p[i-1]));\n            namehash = keccak256(abi.encodePacked(namehash, label));\n        }\n        \n    \n      return namehash;\n      \n    }\n    \n    function _computeParentNamehash(string memory _name) public\n    returns (bytes32) \n    {\n        bytes32 namehash = 0x0000000000000000000000000000000000000000000000000000000000000000;\n        strings.slice memory s = _name.toSlice();\n        strings.slice memory delim = \".\".toSlice();\n        string[] memory p = new string[](s.count(delim)+1);\n        for(uint i = 0 ; i < p.length; i++) {\n             p[i] = s.split(delim).toString();\n             \n        }\n        for(uint i=p.length;i>1;i--){\n            namehash = keccak256(abi.encodePacked(namehash, keccak256(abi.encodePacked(p[i-1]))));\n        }\n        \n        \n      return namehash;\n      \n    }\n    \n    function convertUint256_Address(uint256 _d) public\n    returns(address)\n    {\n        return(address(_d));\n    }\n}",
  "sourcePath": "/home/dickchan/CIC/contracts/Utils/testing.sol",
  "compiler": {
    "name": "solc",
    "version": "0.7.6+commit.7338295f.Emscripten.clang"
  },
  "schemaVersion": "3.2.3",
  "updatedAt": "2021-03-18T07:14:07.477Z",
  "devdoc": {
    "kind": "dev",
    "methods": {},
    "version": 1
  },
  "userdoc": {
    "kind": "user",
    "methods": {},
    "version": 1
  }
}