{
  "contractName": "WorkerProfileToken",
  "abi": [
    {
      "inputs": [
        {
          "internalType": "string",
          "name": "_name",
          "type": "string"
        },
        {
          "internalType": "string",
          "name": "_syb",
          "type": "string"
        },
        {
          "internalType": "string",
          "name": "_wFactory",
          "type": "string"
        },
        {
          "internalType": "address",
          "name": "_pubENSRoot",
          "type": "address"
        }
      ],
      "stateMutability": "nonpayable",
      "type": "constructor"
    },
    {
      "anonymous": false,
      "inputs": [
        {
          "indexed": true,
          "internalType": "address",
          "name": "owner",
          "type": "address"
        },
        {
          "indexed": true,
          "internalType": "address",
          "name": "approved",
          "type": "address"
        },
        {
          "indexed": true,
          "internalType": "uint256",
          "name": "tokenId",
          "type": "uint256"
        }
      ],
      "name": "Approval",
      "type": "event"
    },
    {
      "anonymous": false,
      "inputs": [
        {
          "indexed": true,
          "internalType": "address",
          "name": "owner",
          "type": "address"
        },
        {
          "indexed": true,
          "internalType": "address",
          "name": "operator",
          "type": "address"
        },
        {
          "indexed": false,
          "internalType": "bool",
          "name": "approved",
          "type": "bool"
        }
      ],
      "name": "ApprovalForAll",
      "type": "event"
    },
    {
      "anonymous": false,
      "inputs": [
        {
          "indexed": false,
          "internalType": "address",
          "name": "_a",
          "type": "address"
        },
        {
          "indexed": false,
          "internalType": "uint256",
          "name": "_tokenid",
          "type": "uint256"
        }
      ],
      "name": "NewWorkerToken",
      "type": "event"
    },
    {
      "anonymous": false,
      "inputs": [
        {
          "indexed": false,
          "internalType": "address",
          "name": "account",
          "type": "address"
        }
      ],
      "name": "Paused",
      "type": "event"
    },
    {
      "anonymous": false,
      "inputs": [
        {
          "indexed": true,
          "internalType": "address",
          "name": "from",
          "type": "address"
        },
        {
          "indexed": true,
          "internalType": "address",
          "name": "to",
          "type": "address"
        },
        {
          "indexed": true,
          "internalType": "uint256",
          "name": "tokenId",
          "type": "uint256"
        }
      ],
      "name": "Transfer",
      "type": "event"
    },
    {
      "anonymous": false,
      "inputs": [
        {
          "indexed": false,
          "internalType": "address",
          "name": "account",
          "type": "address"
        }
      ],
      "name": "Unpaused",
      "type": "event"
    },
    {
      "inputs": [
        {
          "internalType": "address",
          "name": "to",
          "type": "address"
        },
        {
          "internalType": "uint256",
          "name": "tokenId",
          "type": "uint256"
        }
      ],
      "name": "approve",
      "outputs": [],
      "stateMutability": "nonpayable",
      "type": "function"
    },
    {
      "inputs": [
        {
          "internalType": "address",
          "name": "owner",
          "type": "address"
        }
      ],
      "name": "balanceOf",
      "outputs": [
        {
          "internalType": "uint256",
          "name": "",
          "type": "uint256"
        }
      ],
      "stateMutability": "view",
      "type": "function"
    },
    {
      "inputs": [],
      "name": "baseURI",
      "outputs": [
        {
          "internalType": "string",
          "name": "",
          "type": "string"
        }
      ],
      "stateMutability": "view",
      "type": "function"
    },
    {
      "inputs": [
        {
          "internalType": "uint256",
          "name": "tokenId",
          "type": "uint256"
        }
      ],
      "name": "burn",
      "outputs": [],
      "stateMutability": "nonpayable",
      "type": "function"
    },
    {
      "inputs": [
        {
          "internalType": "uint256",
          "name": "tokenId",
          "type": "uint256"
        }
      ],
      "name": "getApproved",
      "outputs": [
        {
          "internalType": "address",
          "name": "",
          "type": "address"
        }
      ],
      "stateMutability": "view",
      "type": "function"
    },
    {
      "inputs": [
        {
          "internalType": "address",
          "name": "owner",
          "type": "address"
        },
        {
          "internalType": "address",
          "name": "operator",
          "type": "address"
        }
      ],
      "name": "isApprovedForAll",
      "outputs": [
        {
          "internalType": "bool",
          "name": "",
          "type": "bool"
        }
      ],
      "stateMutability": "view",
      "type": "function"
    },
    {
      "inputs": [],
      "name": "name",
      "outputs": [
        {
          "internalType": "string",
          "name": "",
          "type": "string"
        }
      ],
      "stateMutability": "view",
      "type": "function"
    },
    {
      "inputs": [
        {
          "internalType": "uint256",
          "name": "tokenId",
          "type": "uint256"
        }
      ],
      "name": "ownerOf",
      "outputs": [
        {
          "internalType": "address",
          "name": "",
          "type": "address"
        }
      ],
      "stateMutability": "view",
      "type": "function"
    },
    {
      "inputs": [],
      "name": "paused",
      "outputs": [
        {
          "internalType": "bool",
          "name": "",
          "type": "bool"
        }
      ],
      "stateMutability": "view",
      "type": "function"
    },
    {
      "inputs": [
        {
          "internalType": "address",
          "name": "from",
          "type": "address"
        },
        {
          "internalType": "address",
          "name": "to",
          "type": "address"
        },
        {
          "internalType": "uint256",
          "name": "tokenId",
          "type": "uint256"
        }
      ],
      "name": "safeTransferFrom",
      "outputs": [],
      "stateMutability": "nonpayable",
      "type": "function"
    },
    {
      "inputs": [
        {
          "internalType": "address",
          "name": "from",
          "type": "address"
        },
        {
          "internalType": "address",
          "name": "to",
          "type": "address"
        },
        {
          "internalType": "uint256",
          "name": "tokenId",
          "type": "uint256"
        },
        {
          "internalType": "bytes",
          "name": "_data",
          "type": "bytes"
        }
      ],
      "name": "safeTransferFrom",
      "outputs": [],
      "stateMutability": "nonpayable",
      "type": "function"
    },
    {
      "inputs": [
        {
          "internalType": "address",
          "name": "operator",
          "type": "address"
        },
        {
          "internalType": "bool",
          "name": "approved",
          "type": "bool"
        }
      ],
      "name": "setApprovalForAll",
      "outputs": [],
      "stateMutability": "nonpayable",
      "type": "function"
    },
    {
      "inputs": [],
      "name": "symbol",
      "outputs": [
        {
          "internalType": "string",
          "name": "",
          "type": "string"
        }
      ],
      "stateMutability": "view",
      "type": "function"
    },
    {
      "inputs": [
        {
          "internalType": "uint256",
          "name": "index",
          "type": "uint256"
        }
      ],
      "name": "tokenByIndex",
      "outputs": [
        {
          "internalType": "uint256",
          "name": "",
          "type": "uint256"
        }
      ],
      "stateMutability": "view",
      "type": "function"
    },
    {
      "inputs": [
        {
          "internalType": "address",
          "name": "owner",
          "type": "address"
        },
        {
          "internalType": "uint256",
          "name": "index",
          "type": "uint256"
        }
      ],
      "name": "tokenOfOwnerByIndex",
      "outputs": [
        {
          "internalType": "uint256",
          "name": "",
          "type": "uint256"
        }
      ],
      "stateMutability": "view",
      "type": "function"
    },
    {
      "inputs": [
        {
          "internalType": "uint256",
          "name": "tokenId",
          "type": "uint256"
        }
      ],
      "name": "tokenURI",
      "outputs": [
        {
          "internalType": "string",
          "name": "",
          "type": "string"
        }
      ],
      "stateMutability": "view",
      "type": "function"
    },
    {
      "inputs": [],
      "name": "totalSupply",
      "outputs": [
        {
          "internalType": "uint256",
          "name": "",
          "type": "uint256"
        }
      ],
      "stateMutability": "view",
      "type": "function"
    },
    {
      "inputs": [
        {
          "internalType": "address",
          "name": "from",
          "type": "address"
        },
        {
          "internalType": "address",
          "name": "to",
          "type": "address"
        },
        {
          "internalType": "uint256",
          "name": "tokenId",
          "type": "uint256"
        }
      ],
      "name": "transferFrom",
      "outputs": [],
      "stateMutability": "nonpayable",
      "type": "function"
    },
    {
      "inputs": [
        {
          "internalType": "address",
          "name": "_individual",
          "type": "address"
        }
      ],
      "name": "createWorkerProfile",
      "outputs": [],
      "stateMutability": "nonpayable",
      "type": "function"
    },
    {
      "inputs": [],
      "name": "workerProfileToken",
      "outputs": [],
      "stateMutability": "nonpayable",
      "type": "function"
    },
    {
      "inputs": [
        {
          "internalType": "bytes4",
          "name": "interfaceId",
          "type": "bytes4"
        }
      ],
      "name": "supportsInterface",
      "outputs": [
        {
          "internalType": "bool",
          "name": "",
          "type": "bool"
        }
      ],
      "stateMutability": "view",
      "type": "function"
    }
  ],
  "bytecode": "0x60806040523480156200001157600080fd5b5060405162005ec838038062005ec88339818101604052810190620000379190620015e4565b8383620000516301ffc9a760e01b6200058160201b60201c565b816006908051906020019062000069929190620013d7565b50806007908051906020019062000082929190620013d7565b506200009b6380ac58cd60e01b6200058160201b60201c565b620000b3635b5e139f60e01b6200058160201b60201c565b620000cb63780e9d6360e01b6200058160201b60201c565b50506000600a60006101000a81548160ff0219169083151502179055506200010681637d73b23160e01b6200068a60201b620014ca1760201c565b62000148576040517f08c379a00000000000000000000000000000000000000000000000000000000081526004016200013f90620018e3565b60405180910390fd5b80600d60006101000a81548173ffffffffffffffffffffffffffffffffffffffff021916908373ffffffffffffffffffffffffffffffffffffffff160217905550620001be337f5e08e74d3db9bd033737bf4f2fd87386eec32e8b6624f7ea49a55acda9aa159b60001b620008a060201b60201c565b80620001fb5750620001fa337fdf8b4c520ffe197c5343c6f5aec59570151ef9a492f2c624fd45ddde6135ec4260001b620008a060201b60201c565b5b6200023d576040517f08c379a0000000000000000000000000000000000000000000000000000000008152600401620002349062001949565b60405180910390fd5b6000620002558562000d5560201b620016da1760201c565b9050600d60009054906101000a900473ffffffffffffffffffffffffffffffffffffffff1673ffffffffffffffffffffffffffffffffffffffff1663f79fe538826040518263ffffffff1660e01b8152600401620002b491906200185a565b60206040518083038186803b158015620002cd57600080fd5b505afa158015620002e2573d6000803e3d6000fd5b505050506040513d601f19601f8201168201806040525081019062000308919062001573565b6200034a576040517f08c379a0000000000000000000000000000000000000000000000000000000008152600401620003419062001927565b60405180910390fd5b620003608362000d5560201b620016da1760201c565b90506000600d60009054906101000a900473ffffffffffffffffffffffffffffffffffffffff1673ffffffffffffffffffffffffffffffffffffffff16630178b8bf836040518263ffffffff1660e01b8152600401620003c191906200185a565b60206040518083038186803b158015620003da57600080fd5b505afa158015620003ef573d6000803e3d6000fd5b505050506040513d601f19601f8201168201806040525081019062000415919062001547565b905060008173ffffffffffffffffffffffffffffffffffffffff16633b3b57de846040518263ffffffff1660e01b81526004016200045491906200185a565b60206040518083038186803b1580156200046d57600080fd5b505afa15801562000482573d6000803e3d6000fd5b505050506040513d601f19601f82011682018060405250810190620004a8919062001547565b9050620004c88163bc44a3b560e01b6200068a60201b620014ca1760201c565b6200050a576040517f08c379a000000000000000000000000000000000000000000000000000000000815260040162000501906200196b565b60405180910390fd5b6200051a62000f8160201b60201c565b84600c908051906020019062000532929190620013d7565b5083600a60016101000a81548173ffffffffffffffffffffffffffffffffffffffff021916908373ffffffffffffffffffffffffffffffffffffffff1602179055505050505050505062001ae7565b63ffffffff60e01b817bffffffffffffffffffffffffffffffffffffffffffffffffffffffff191614156200061e576040517f08c379a000000000000000000000000000000000000000000000000000000000815260040180806020018281038252601c8152602001807f4552433136353a20696e76616c696420696e746572666163652069640000000081525060200191505060405180910390fd5b6001600080837bffffffffffffffffffffffffffffffffffffffffffffffffffffffff19167bffffffffffffffffffffffffffffffffffffffffffffffffffffffff1916815260200190815260200160002060006101000a81548160ff02191690831515021790555050565b6000808260405160240180827bffffffffffffffffffffffffffffffffffffffffffffffffffffffff191681526020019150506040516020818303038152906040527f01ffc9a7000000000000000000000000000000000000000000000000000000007bffffffffffffffffffffffffffffffffffffffffffffffffffffffff19166020820180517bffffffffffffffffffffffffffffffffffffffffffffffffffffffff838183161783525050505090506000808573ffffffffffffffffffffffffffffffffffffffff16836040518082805190602001908083835b602083106200078c578051825260208201915060208101905060208303925062000767565b6001836020036101000a0380198251168184511680821785525050505050509050019150506000604051808303816000865af19150503d8060008114620007f0576040519150601f19603f3d011682016040523d82523d6000602084013e620007f5565b606091505b5091509150816200086e576040517f08c379a00000000000000000000000000000000000000000000000000000000081526004018080602001828103825260028152602001807f515400000000000000000000000000000000000000000000000000000000000081525060200191505060405180910390fd5b8080602001905160208110156200088457600080fd5b8101908080519060200190929190505050935050505092915050565b6000806200096c600d60009054906101000a900473ffffffffffffffffffffffffffffffffffffffff1673ffffffffffffffffffffffffffffffffffffffff1663154c0d786040518163ffffffff1660e01b8152600401620009029062001905565b60006040518083038186803b1580156200091b57600080fd5b505afa15801562000930573d6000803e3d6000fd5b505050506040513d6000823e3d601f19601f820116820180604052508101906200095b91906200159f565b62000d5560201b620016da1760201c565b90506000600d60009054906101000a900473ffffffffffffffffffffffffffffffffffffffff1673ffffffffffffffffffffffffffffffffffffffff16630178b8bf836040518263ffffffff1660e01b8152600401620009cd91906200185a565b60206040518083038186803b158015620009e657600080fd5b505afa158015620009fb573d6000803e3d6000fd5b505050506040513d601f19601f8201168201806040525081019062000a21919062001547565b9050600073ffffffffffffffffffffffffffffffffffffffff168173ffffffffffffffffffffffffffffffffffffffff16633b3b57de846040518263ffffffff1660e01b815260040162000a7691906200185a565b60206040518083038186803b15801562000a8f57600080fd5b505afa15801562000aa4573d6000803e3d6000fd5b505050506040513d601f19601f8201168201806040525081019062000aca919062001547565b73ffffffffffffffffffffffffffffffffffffffff161415801562000b8157508073ffffffffffffffffffffffffffffffffffffffff166301ffc9a7633b3b57de60e01b6040518263ffffffff1660e01b815260040162000b2c9190620018a4565b60206040518083038186803b15801562000b4557600080fd5b505afa15801562000b5a573d6000803e3d6000fd5b505050506040513d601f19601f8201168201806040525081019062000b80919062001573565b5b62000bc3576040517f08c379a000000000000000000000000000000000000000000000000000000000815260040162000bba90620018c1565b60405180910390fd5b60008173ffffffffffffffffffffffffffffffffffffffff16633b3b57de846040518263ffffffff1660e01b815260040162000c0091906200185a565b60206040518083038186803b15801562000c1957600080fd5b505afa15801562000c2e573d6000803e3d6000fd5b505050506040513d601f19601f8201168201806040525081019062000c54919062001547565b905080600b60006101000a81548173ffffffffffffffffffffffffffffffffffffffff021916908373ffffffffffffffffffffffffffffffffffffffff160217905550600b60009054906101000a900473ffffffffffffffffffffffffffffffffffffffff1673ffffffffffffffffffffffffffffffffffffffff166391d1485486886040518363ffffffff1660e01b815260040162000cf692919062001877565b60206040518083038186803b15801562000d0f57600080fd5b505afa15801562000d24573d6000803e3d6000fd5b505050506040513d601f19601f8201168201806040525081019062000d4a919062001573565b935050505092915050565b6000806000801b9050600062000d76846200107e60201b620018c61760201c565b9050600062000dc56040518060400160405280600181526020017f2e000000000000000000000000000000000000000000000000000000000000008152506200107e60201b620018c61760201c565b90506000600162000de58385620010ae60201b620018f41790919060201c565b0167ffffffffffffffff8111801562000dfd57600080fd5b5060405190808252806020026020018201604052801562000e3357816020015b606081526020019060019003908162000e1d5790505b50905060005b815181101562000e985762000e7262000e6184866200113560201b620019691790919060201c565b6200115960201b620019831760201c565b82828151811062000e7f57fe5b6020026020010181905250808060010191505062000e39565b506000815190505b600081111562000f74578482600183038151811062000ebb57fe5b60200260200101516040516020018082805190602001908083835b6020831062000efb578051825260208201915060208101905060208303925062000ed6565b6001836020036101000a03801982511681845116808217855250505050505090500191505060405160208183030381529060405280519060200120604051602001808381526020018281526020019250505060405160208183030381529060405280519060200120945080806001900391505062000ea0565b5083945050505050919050565b62000f91620011dd60201b60201c565b1562001005576040517f08c379a00000000000000000000000000000000000000000000000000000000081526004018080602001828103825260108152602001807f5061757361626c653a207061757365640000000000000000000000000000000081525060200191505060405180910390fd5b6001600a60006101000a81548160ff0219169083151502179055507f62e78cea01bee320cd4e420270b5ea74000d11b0c9f74754ebdbfc544b05a25862001051620011f460201b60201c565b604051808273ffffffffffffffffffffffffffffffffffffffff16815260200191505060405180910390a1565b620010886200146e565b600060208301905060405180604001604052808451815260200182815250915050919050565b6000808260000151620010da8560000151866020015186600001518760200151620011fc60201b60201c565b0190505b836000015184602001510181116200112e578180600101925050826000015162001125856020015183038660000151038386600001518760200151620011fc60201b60201c565b019050620010de565b5092915050565b6200113f6200146e565b62001152838383620012e260201b60201c565b5092915050565b60606000826000015167ffffffffffffffff811180156200117957600080fd5b506040519080825280601f01601f191660200182016040528015620011ad5781602001600182028036833780820191505090505b5090506000602082019050620011d381856020015186600001516200138c60201b60201c565b8192505050919050565b6000600a60009054906101000a900460ff16905090565b600033905090565b6000808490506000868511620012d257602085116200128857600060018660200360080260020a031960001b905060008186511690506000878a8a0103905060008386511690505b828114620012795781861062001265578a8a019650505050505050620012da565b858060010196505083865116905062001244565b859650505050505050620012da565b60008585209050600091505b8588038211620012d0576000868420905080821415620012bb5783945050505050620012da565b60018401935050818060010192505062001294565b505b868601925050505b949350505050565b620012ec6200146e565b6000620013128560000151866020015186600001518760200151620011fc60201b60201c565b905084602001518360200181815250508460200151810383600001818152505084600001518560200151018114156200135657600085600001818152505062001381565b8360000151836000015101856000018181510391508181525050836000015181018560200181815250505b829150509392505050565b5b60208110620013b257815183526020830192506020820191506020810390506200138d565b60006001826020036101000a0390508019835116818551168181178652505050505050565b828054600181600116156101000203166002900490600052602060002090601f0160209004810192826200140f57600085556200145b565b82601f106200142a57805160ff19168380011785556200145b565b828001600101855582156200145b579182015b828111156200145a5782518255916020019190600101906200143d565b5b5090506200146a919062001488565b5090565b604051806040016040528060008152602001600081525090565b5b80821115620014a357600081600090555060010162001489565b5090565b6000620014be620014b884620019c1565b6200198d565b905082815260208101848484011115620014d757600080fd5b620014e484828562001a7b565b509392505050565b600081519050620014fd8162001ab3565b92915050565b600081519050620015148162001acd565b92915050565b600082601f8301126200152c57600080fd5b81516200153e848260208601620014a7565b91505092915050565b6000602082840312156200155a57600080fd5b60006200156a84828501620014ec565b91505092915050565b6000602082840312156200158657600080fd5b6000620015968482850162001503565b91505092915050565b600060208284031215620015b257600080fd5b600082015167ffffffffffffffff811115620015cd57600080fd5b620015db848285016200151a565b91505092915050565b60008060008060808587031215620015fb57600080fd5b600085015167ffffffffffffffff8111156200161657600080fd5b62001624878288016200151a565b945050602085015167ffffffffffffffff8111156200164257600080fd5b62001650878288016200151a565b935050604085015167ffffffffffffffff8111156200166e57600080fd5b6200167c878288016200151a565b92505060606200168f87828801620014ec565b91505092959194509250565b620016a68162001a05565b82525050565b620016b78162001a25565b82525050565b620016c88162001a2f565b82525050565b6000620016dd600483620019f4565b91507f57543037000000000000000000000000000000000000000000000000000000006000830152602082019050919050565b60006200171f600483620019f4565b91507f57543031000000000000000000000000000000000000000000000000000000006000830152602082019050919050565b600062001761600683620019f4565b91507f61636365737300000000000000000000000000000000000000000000000000006000830152602082019050919050565b6000620017a3600483620019f4565b91507f57543033000000000000000000000000000000000000000000000000000000006000830152602082019050919050565b6000620017e5600483620019f4565b91507f57543032000000000000000000000000000000000000000000000000000000006000830152602082019050919050565b600062001827600483620019f4565b91507f57543034000000000000000000000000000000000000000000000000000000006000830152602082019050919050565b6000602082019050620018716000830184620016ac565b92915050565b60006040820190506200188e6000830185620016ac565b6200189d60208301846200169b565b9392505050565b6000602082019050620018bb6000830184620016bd565b92915050565b60006020820190508181036000830152620018dc81620016ce565b9050919050565b60006020820190508181036000830152620018fe8162001710565b9050919050565b60006020820190508181036000830152620019208162001752565b9050919050565b60006020820190508181036000830152620019428162001794565b9050919050565b600060208201905081810360008301526200196481620017d6565b9050919050565b60006020820190508181036000830152620019868162001818565b9050919050565b6000604051905081810181811067ffffffffffffffff82111715620019b757620019b662001ab1565b5b8060405250919050565b600067ffffffffffffffff821115620019df57620019de62001ab1565b5b601f19601f8301169050602081019050919050565b600082825260208201905092915050565b600062001a128262001a5b565b9050919050565b60008115159050919050565b6000819050919050565b60007fffffffff0000000000000000000000000000000000000000000000000000000082169050919050565b600073ffffffffffffffffffffffffffffffffffffffff82169050919050565b60005b8381101562001a9b57808201518184015260208101905062001a7e565b8381111562001aab576000848401525b50505050565bfe5b62001abe8162001a05565b811462001aca57600080fd5b50565b62001ad88162001a19565b811462001ae457600080fd5b50565b6143d18062001af76000396000f3fe608060405234801561001057600080fd5b50600436106101375760003560e01c80635c975abb116100b8578063a22cb4651161007c578063a22cb46514610362578063a2d262ba1461037e578063b88d4fde14610388578063c87b56dd146103a4578063dadd15fe146103d4578063e985e9c5146103f057610137565b80635c975abb146102a85780636352211e146102c65780636c0360eb146102f657806370a082311461031457806395d89b411461034457610137565b806323b872dd116100ff57806323b872dd146101f45780632f745c591461021057806342842e0e1461024057806342966c681461025c5780634f6ccce71461027857610137565b806301ffc9a71461013c57806306fdde031461016c578063081812fc1461018a578063095ea7b3146101ba57806318160ddd146101d6575b600080fd5b61015660048036038101906101519190613a75565b610420565b6040516101639190613d81565b60405180910390f35b610174610471565b6040516101819190613dfb565b60405180910390f35b6101a4600480360381019061019f9190613adf565b610513565b6040516101b19190613d14565b60405180910390f35b6101d460048036038101906101cf9190613a10565b6105ae565b005b6101de6106f2565b6040516101eb9190613ebd565b60405180910390f35b61020e6004803603810190610209919061390a565b610703565b005b61022a60048036038101906102259190613a10565b610779565b6040516102379190613ebd565b60405180910390f35b61025a6004803603810190610255919061390a565b6107d4565b005b61027660048036038101906102719190613adf565b6107f4565b005b610292600480360381019061028d9190613adf565b610866565b60405161029f9190613ebd565b60405180910390f35b6102b0610889565b6040516102bd9190613d81565b60405180910390f35b6102e060048036038101906102db9190613adf565b6108a0565b6040516102ed9190613d14565b60405180910390f35b6102fe6108d7565b60405161030b9190613dfb565b60405180910390f35b61032e60048036038101906103299190613853565b610979565b60405161033b9190613ebd565b60405180910390f35b61034c610a4e565b6040516103599190613dfb565b60405180910390f35b61037c600480360381019061037791906139d4565b610af0565b005b610386610ca6565b005b6103a2600480360381019061039d9190613959565b610ca8565b005b6103be60048036038101906103b99190613adf565b610d20565b6040516103cb9190613dfb565b60405180910390f35b6103ee60048036038101906103e99190613853565b610ff1565b005b61040a600480360381019061040591906138ce565b611436565b6040516104179190613d81565b60405180910390f35b600063a2d262ba60e01b7bffffffffffffffffffffffffffffffffffffffffffffffffffffffff1916827bffffffffffffffffffffffffffffffffffffffffffffffffffffffff1916149050919050565b606060068054600181600116156101000203166002900480601f0160208091040260200160405190810160405280929190818152602001828054600181600116156101000203166002900480156105095780601f106104de57610100808354040283529160200191610509565b820191906000526020600020905b8154815290600101906020018083116104ec57829003601f168201915b5050505050905090565b600061051e826119fd565b610573576040517f08c379a000000000000000000000000000000000000000000000000000000000815260040180806020018281038252602c815260200180614296602c913960400191505060405180910390fd5b6004600083815260200190815260200160002060009054906101000a900473ffffffffffffffffffffffffffffffffffffffff169050919050565b60006105b9826108a0565b90508073ffffffffffffffffffffffffffffffffffffffff168373ffffffffffffffffffffffffffffffffffffffff161415610640576040517f08c379a000000000000000000000000000000000000000000000000000000000815260040180806020018281038252602181526020018061431a6021913960400191505060405180910390fd5b8073ffffffffffffffffffffffffffffffffffffffff1661065f611a1a565b73ffffffffffffffffffffffffffffffffffffffff16148061068e575061068d81610688611a1a565b611436565b5b6106e3576040517f08c379a00000000000000000000000000000000000000000000000000000000081526004018080602001828103825260388152602001806141e96038913960400191505060405180910390fd5b6106ed8383611a22565b505050565b60006106fe6002611adb565b905090565b61071461070e611a1a565b82611af0565b610769576040517f08c379a000000000000000000000000000000000000000000000000000000000815260040180806020018281038252603181526020018061433b6031913960400191505060405180910390fd5b610774838383611be4565b505050565b60006107cc82600160008673ffffffffffffffffffffffffffffffffffffffff1673ffffffffffffffffffffffffffffffffffffffff168152602001908152602001600020611e2790919063ffffffff16565b905092915050565b6107ef83838360405180602001604052806000815250610ca8565b505050565b6108056107ff611a1a565b82611af0565b61085a576040517f08c379a000000000000000000000000000000000000000000000000000000000815260040180806020018281038252603081526020018061436c6030913960400191505060405180910390fd5b61086381611e41565b50565b60008061087d836002611f7b90919063ffffffff16565b50905080915050919050565b6000600a60009054906101000a900460ff16905090565b60006108d08260405180606001604052806029815260200161424b602991396002611fa79092919063ffffffff16565b9050919050565b606060098054600181600116156101000203166002900480601f01602080910402602001604051908101604052809291908181526020018280546001816001161561010002031660029004801561096f5780601f106109445761010080835404028352916020019161096f565b820191906000526020600020905b81548152906001019060200180831161095257829003601f168201915b5050505050905090565b60008073ffffffffffffffffffffffffffffffffffffffff168273ffffffffffffffffffffffffffffffffffffffff161415610a00576040517f08c379a000000000000000000000000000000000000000000000000000000000815260040180806020018281038252602a815260200180614221602a913960400191505060405180910390fd5b610a47600160008473ffffffffffffffffffffffffffffffffffffffff1673ffffffffffffffffffffffffffffffffffffffff168152602001908152602001600020611fc6565b9050919050565b606060078054600181600116156101000203166002900480601f016020809104026020016040519081016040528092919081815260200182805460018160011615610100020316600290048015610ae65780601f10610abb57610100808354040283529160200191610ae6565b820191906000526020600020905b815481529060010190602001808311610ac957829003601f168201915b5050505050905090565b610af8611a1a565b73ffffffffffffffffffffffffffffffffffffffff168273ffffffffffffffffffffffffffffffffffffffff161415610b99576040517f08c379a00000000000000000000000000000000000000000000000000000000081526004018080602001828103825260198152602001807f4552433732313a20617070726f766520746f2063616c6c65720000000000000081525060200191505060405180910390fd5b8060056000610ba6611a1a565b73ffffffffffffffffffffffffffffffffffffffff1673ffffffffffffffffffffffffffffffffffffffff16815260200190815260200160002060008473ffffffffffffffffffffffffffffffffffffffff1673ffffffffffffffffffffffffffffffffffffffff16815260200190815260200160002060006101000a81548160ff0219169083151502179055508173ffffffffffffffffffffffffffffffffffffffff16610c53611a1a565b73ffffffffffffffffffffffffffffffffffffffff167f17307eab39ab6107e8899845ad3d59bd9653f200f220920489ca2b5937696c318360405180821515815260200191505060405180910390a35050565b565b610cb9610cb3611a1a565b83611af0565b610d0e576040517f08c379a000000000000000000000000000000000000000000000000000000000815260040180806020018281038252603181526020018061433b6031913960400191505060405180910390fd5b610d1a84848484611fdb565b50505050565b6060610d2b826119fd565b610d80576040517f08c379a000000000000000000000000000000000000000000000000000000000815260040180806020018281038252602f8152602001806142eb602f913960400191505060405180910390fd5b6000600860008481526020019081526020016000208054600181600116156101000203166002900480601f016020809104026020016040519081016040528092919081815260200182805460018160011615610100020316600290048015610e295780601f10610dfe57610100808354040283529160200191610e29565b820191906000526020600020905b815481529060010190602001808311610e0c57829003601f168201915b505050505090506000610e3a6108d7565b9050600081511415610e50578192505050610fec565b600082511115610f215780826040516020018083805190602001908083835b60208310610e925780518252602082019150602081019050602083039250610e6f565b6001836020036101000a03801982511681845116808217855250505050505090500182805190602001908083835b60208310610ee35780518252602082019150602081019050602083039250610ec0565b6001836020036101000a0380198251168184511680821785525050505050509050019250505060405160208183030381529060405292505050610fec565b80610f2b8561204d565b6040516020018083805190602001908083835b60208310610f615780518252602082019150602081019050602083039250610f3e565b6001836020036101000a03801982511681845116808217855250505050505090500182805190602001908083835b60208310610fb25780518252602082019150602081019050602083039250610f8f565b6001836020036101000a03801982511681845116808217855250505050505090500192505050604051602081830303815290604052925050505b919050565b61101e337f5e08e74d3db9bd033737bf4f2fd87386eec32e8b6624f7ea49a55acda9aa159b60001b612194565b61105d576040517f08c379a000000000000000000000000000000000000000000000000000000000815260040161105490613e1d565b60405180910390fd5b6000611102600c8054600181600116156101000203166002900480601f0160208091040260200160405190810160405280929190818152602001828054600181600116156101000203166002900480156110f85780601f106110cd576101008083540402835291602001916110f8565b820191906000526020600020905b8154815290600101906020018083116110db57829003601f168201915b50505050506116da565b90506000600d60009054906101000a900473ffffffffffffffffffffffffffffffffffffffff1673ffffffffffffffffffffffffffffffffffffffff16630178b8bf836040518263ffffffff1660e01b81526004016111619190613d9c565b60206040518083038186803b15801561117957600080fd5b505afa15801561118d573d6000803e3d6000fd5b505050506040513d601f19601f820116820180604052508101906111b1919061387c565b905060008173ffffffffffffffffffffffffffffffffffffffff16633b3b57de846040518263ffffffff1660e01b81526004016111ee9190613d9c565b60206040518083038186803b15801561120657600080fd5b505afa15801561121a573d6000803e3d6000fd5b505050506040513d601f19601f8201168201806040525081019061123e919061387c565b9050600084600a60019054906101000a900473ffffffffffffffffffffffffffffffffffffffff16604051602401611277929190613d2f565b6040516020818303038152906040527f640394e7000000000000000000000000000000000000000000000000000000007bffffffffffffffffffffffffffffffffffffffffffffffffffffffff19166020820180517bffffffffffffffffffffffffffffffffffffffffffffffffffffffff838183161783525050505090506000808373ffffffffffffffffffffffffffffffffffffffff168360405161131e9190613cfd565b6000604051808303816000865af19150503d806000811461135b576040519150601f19603f3d011682016040523d82523d6000602084013e611360565b606091505b5091509150816113a5576040517f08c379a000000000000000000000000000000000000000000000000000000000815260040161139c90613e5d565b60405180910390fd5b6000818060200190518101906113bb91906138a5565b90506113dd888273ffffffffffffffffffffffffffffffffffffffff16612614565b7fd1862591c2f41343f7211e72bb3ea37d18fe471e63cbfdb7b77ca9432c96bac9818273ffffffffffffffffffffffffffffffffffffffff16604051611424929190613d58565b60405180910390a15050505050505050565b6000600560008473ffffffffffffffffffffffffffffffffffffffff1673ffffffffffffffffffffffffffffffffffffffff16815260200190815260200160002060008373ffffffffffffffffffffffffffffffffffffffff1673ffffffffffffffffffffffffffffffffffffffff16815260200190815260200160002060009054906101000a900460ff16905092915050565b6000808260405160240180827bffffffffffffffffffffffffffffffffffffffffffffffffffffffff191681526020019150506040516020818303038152906040527f01ffc9a7000000000000000000000000000000000000000000000000000000007bffffffffffffffffffffffffffffffffffffffffffffffffffffffff19166020820180517bffffffffffffffffffffffffffffffffffffffffffffffffffffffff838183161783525050505090506000808573ffffffffffffffffffffffffffffffffffffffff16836040518082805190602001908083835b602083106115ca57805182526020820191506020810190506020830392506115a7565b6001836020036101000a0380198251168184511680821785525050505050509050019150506000604051808303816000865af19150503d806000811461162c576040519150601f19603f3d011682016040523d82523d6000602084013e611631565b606091505b5091509150816116a9576040517f08c379a00000000000000000000000000000000000000000000000000000000081526004018080602001828103825260028152602001807f515400000000000000000000000000000000000000000000000000000000000081525060200191505060405180910390fd5b8080602001905160208110156116be57600080fd5b8101908080519060200190929190505050935050505092915050565b6000806000801b905060006116ee846118c6565b905060006117306040518060400160405280600181526020017f2e000000000000000000000000000000000000000000000000000000000000008152506118c6565b90506000600161174983856118f490919063ffffffff16565b0167ffffffffffffffff8111801561176057600080fd5b5060405190808252806020026020018201604052801561179457816020015b606081526020019060019003908161177f5790505b50905060005b81518110156117e2576117be6117b9848661196990919063ffffffff16565b611983565b8282815181106117ca57fe5b6020026020010181905250808060010191505061179a565b506000815190505b60008111156118b9578482600183038151811061180357fe5b60200260200101516040516020018082805190602001908083835b60208310611841578051825260208201915060208101905060208303925061181e565b6001836020036101000a0380198251168184511680821785525050505050509050019150506040516020818303038152906040528051906020012060405160200180838152602001828152602001925050506040516020818303038152906040528051906020012094508080600190039150506117ea565b5083945050505050919050565b6118ce613671565b600060208301905060405180604001604052808451815260200182815250915050919050565b600080826000015161191885600001518660200151866000015187602001516126ea565b0190505b83600001518460200151018111611962578180600101925050826000015161195a8560200151830386600001510383866000015187602001516126ea565b01905061191c565b5092915050565b611971613671565b61197c8383836127c5565b5092915050565b60606000826000015167ffffffffffffffff811180156119a257600080fd5b506040519080825280601f01601f1916602001820160405280156119d55781602001600182028036833780820191505090505b50905060006020820190506119f38185602001518660000151612863565b8192505050919050565b6000611a138260026128ac90919063ffffffff16565b9050919050565b600033905090565b816004600083815260200190815260200160002060006101000a81548173ffffffffffffffffffffffffffffffffffffffff021916908373ffffffffffffffffffffffffffffffffffffffff160217905550808273ffffffffffffffffffffffffffffffffffffffff16611a95836108a0565b73ffffffffffffffffffffffffffffffffffffffff167f8c5be1e5ebec7d5bd14f71427d1e84f3dd0314c0f7b2291e5b200ac8c7c3b92560405160405180910390a45050565b6000611ae9826000016128c6565b9050919050565b6000611afb826119fd565b611b50576040517f08c379a000000000000000000000000000000000000000000000000000000000815260040180806020018281038252602c8152602001806141bd602c913960400191505060405180910390fd5b6000611b5b836108a0565b90508073ffffffffffffffffffffffffffffffffffffffff168473ffffffffffffffffffffffffffffffffffffffff161480611bca57508373ffffffffffffffffffffffffffffffffffffffff16611bb284610513565b73ffffffffffffffffffffffffffffffffffffffff16145b80611bdb5750611bda8185611436565b5b91505092915050565b8273ffffffffffffffffffffffffffffffffffffffff16611c04826108a0565b73ffffffffffffffffffffffffffffffffffffffff1614611c70576040517f08c379a00000000000000000000000000000000000000000000000000000000081526004018080602001828103825260298152602001806142c26029913960400191505060405180910390fd5b600073ffffffffffffffffffffffffffffffffffffffff168273ffffffffffffffffffffffffffffffffffffffff161415611cf6576040517f08c379a00000000000000000000000000000000000000000000000000000000081526004018080602001828103825260248152602001806141736024913960400191505060405180910390fd5b611d018383836128d7565b611d0c600082611a22565b611d5d81600160008673ffffffffffffffffffffffffffffffffffffffff1673ffffffffffffffffffffffffffffffffffffffff16815260200190815260200160002061291990919063ffffffff16565b50611daf81600160008573ffffffffffffffffffffffffffffffffffffffff1673ffffffffffffffffffffffffffffffffffffffff16815260200190815260200160002061293390919063ffffffff16565b50611dc68183600261294d9092919063ffffffff16565b50808273ffffffffffffffffffffffffffffffffffffffff168473ffffffffffffffffffffffffffffffffffffffff167fddf252ad1be2c89b69c2b068fc378daa952ba7f163c4a11628f55a4df523b3ef60405160405180910390a4505050565b6000611e368360000183612982565b60001c905092915050565b6000611e4c826108a0565b9050611e5a816000846128d7565b611e65600083611a22565b60006008600084815260200190815260200160002080546001816001161561010002031660029004905014611eb457600860008381526020019081526020016000206000611eb3919061368b565b5b611f0582600160008473ffffffffffffffffffffffffffffffffffffffff1673ffffffffffffffffffffffffffffffffffffffff16815260200190815260200160002061291990919063ffffffff16565b50611f1a826002612a0590919063ffffffff16565b5081600073ffffffffffffffffffffffffffffffffffffffff168273ffffffffffffffffffffffffffffffffffffffff167fddf252ad1be2c89b69c2b068fc378daa952ba7f163c4a11628f55a4df523b3ef60405160405180910390a45050565b600080600080611f8e8660000186612a1f565b915091508160001c8160001c9350935050509250929050565b6000611fba846000018460001b84612ab8565b60001c90509392505050565b6000611fd482600001612bae565b9050919050565b611fe6848484611be4565b611ff284848484612bbf565b612047576040517f08c379a00000000000000000000000000000000000000000000000000000000081526004018080602001828103825260328152602001806141416032913960400191505060405180910390fd5b50505050565b60606000821415612095576040518060400160405280600181526020017f3000000000000000000000000000000000000000000000000000000000000000815250905061218f565b600082905060005b600082146120bf578080600101915050600a82816120b757fe5b04915061209d565b60008167ffffffffffffffff811180156120d857600080fd5b506040519080825280601f01601f19166020018201604052801561210b5781602001600182028036833780820191505090505b50905060006001830390508593505b6000841461218757600a848161212c57fe5b0660300160f81b8282806001900393508151811061214657fe5b60200101907effffffffffffffffffffffffffffffffffffffffffffffffffffffffffffff1916908160001a905350600a848161217f57fe5b04935061211a565b819450505050505b919050565b60008061224d600d60009054906101000a900473ffffffffffffffffffffffffffffffffffffffff1673ffffffffffffffffffffffffffffffffffffffff1663154c0d786040518163ffffffff1660e01b81526004016121f390613e7d565b60006040518083038186803b15801561220b57600080fd5b505afa15801561221f573d6000803e3d6000fd5b505050506040513d6000823e3d601f19601f820116820180604052508101906122489190613a9e565b6116da565b90506000600d60009054906101000a900473ffffffffffffffffffffffffffffffffffffffff1673ffffffffffffffffffffffffffffffffffffffff16630178b8bf836040518263ffffffff1660e01b81526004016122ac9190613d9c565b60206040518083038186803b1580156122c457600080fd5b505afa1580156122d8573d6000803e3d6000fd5b505050506040513d601f19601f820116820180604052508101906122fc919061387c565b9050600073ffffffffffffffffffffffffffffffffffffffff168173ffffffffffffffffffffffffffffffffffffffff16633b3b57de846040518263ffffffff1660e01b815260040161234f9190613d9c565b60206040518083038186803b15801561236757600080fd5b505afa15801561237b573d6000803e3d6000fd5b505050506040513d601f19601f8201168201806040525081019061239f919061387c565b73ffffffffffffffffffffffffffffffffffffffff161415801561244f57508073ffffffffffffffffffffffffffffffffffffffff166301ffc9a7633b3b57de60e01b6040518263ffffffff1660e01b81526004016123fe9190613de0565b60206040518083038186803b15801561241657600080fd5b505afa15801561242a573d6000803e3d6000fd5b505050506040513d601f19601f8201168201806040525081019061244e9190613a4c565b5b61248e576040517f08c379a000000000000000000000000000000000000000000000000000000000815260040161248590613e3d565b60405180910390fd5b60008173ffffffffffffffffffffffffffffffffffffffff16633b3b57de846040518263ffffffff1660e01b81526004016124c99190613d9c565b60206040518083038186803b1580156124e157600080fd5b505afa1580156124f5573d6000803e3d6000fd5b505050506040513d601f19601f82011682018060405250810190612519919061387c565b905080600b60006101000a81548173ffffffffffffffffffffffffffffffffffffffff021916908373ffffffffffffffffffffffffffffffffffffffff160217905550600b60009054906101000a900473ffffffffffffffffffffffffffffffffffffffff1673ffffffffffffffffffffffffffffffffffffffff166391d1485486886040518363ffffffff1660e01b81526004016125b9929190613db7565b60206040518083038186803b1580156125d157600080fd5b505afa1580156125e5573d6000803e3d6000fd5b505050506040513d601f19601f820116820180604052508101906126099190613a4c565b935050505092915050565b612641337f5e08e74d3db9bd033737bf4f2fd87386eec32e8b6624f7ea49a55acda9aa159b60001b612194565b612680576040517f08c379a000000000000000000000000000000000000000000000000000000000815260040161267790613e9d565b60405180910390fd5b61268a8282612dd8565b808273ffffffffffffffffffffffffffffffffffffffff16600073ffffffffffffffffffffffffffffffffffffffff167fddf252ad1be2c89b69c2b068fc378daa952ba7f163c4a11628f55a4df523b3ef60405160405180910390a45050565b60008084905060008685116127b5576020851161276f57600060018660200360080260020a031960001b905060008186511690506000878a8a0103905060008386511690505b8281146127615781861061274e578a8a0196505050505050506127bd565b8580600101965050838651169050612730565b8596505050505050506127bd565b60008585209050600091505b85880382116127b357600086842090508082141561279f57839450505050506127bd565b60018401935050818060010192505061277b565b505b868601925050505b949350505050565b6127cd613671565b60006127eb85600001518660200151866000015187602001516126ea565b9050846020015183602001818152505084602001518103836000018181525050846000015185602001510181141561282d576000856000018181525050612858565b8360000151836000015101856000018181510391508181525050836000015181018560200181815250505b829150509392505050565b5b602081106128875781518352602083019250602082019150602081039050612864565b60006001826020036101000a0390508019835116818551168181178652505050505050565b60006128be836000018360001b612fcc565b905092915050565b600081600001805490509050919050565b612904337f5e08e74d3db9bd033737bf4f2fd87386eec32e8b6624f7ea49a55acda9aa159b60001b612194565b61291457612913838383612fef565b5b505050565b600061292b836000018360001b61305d565b905092915050565b6000612945836000018360001b613145565b905092915050565b6000612979846000018460001b8473ffffffffffffffffffffffffffffffffffffffff1660001b6131b5565b90509392505050565b6000818360000180549050116129e3576040517f08c379a00000000000000000000000000000000000000000000000000000000081526004018080602001828103825260228152602001806140f46022913960400191505060405180910390fd5b8260000182815481106129f257fe5b9060005260206000200154905092915050565b6000612a17836000018360001b613291565b905092915050565b60008082846000018054905011612a81576040517f08c379a00000000000000000000000000000000000000000000000000000000081526004018080602001828103825260228152602001806142746022913960400191505060405180910390fd5b6000846000018481548110612a9257fe5b906000526020600020906002020190508060000154816001015492509250509250929050565b60008084600101600085815260200190815260200160002054905060008114158390612b7f576040517f08c379a00000000000000000000000000000000000000000000000000000000081526004018080602001828103825283818151815260200191508051906020019080838360005b83811015612b44578082015181840152602081019050612b29565b50505050905090810190601f168015612b715780820380516001836020036101000a031916815260200191505b509250505060405180910390fd5b50846000016001820381548110612b9257fe5b9060005260206000209060020201600101549150509392505050565b600081600001805490509050919050565b6000612be08473ffffffffffffffffffffffffffffffffffffffff166133aa565b612bed5760019050612dd0565b6000612d5763150b7a0260e01b612c02611a1a565b888787604051602401808573ffffffffffffffffffffffffffffffffffffffff1681526020018473ffffffffffffffffffffffffffffffffffffffff16815260200183815260200180602001828103825283818151815260200191508051906020019080838360005b83811015612c86578082015181840152602081019050612c6b565b50505050905090810190601f168015612cb35780820380516001836020036101000a031916815260200191505b5095505050505050604051602081830303815290604052907bffffffffffffffffffffffffffffffffffffffffffffffffffffffff19166020820180517bffffffffffffffffffffffffffffffffffffffffffffffffffffffff8381831617835250505050604051806060016040528060328152602001614141603291398773ffffffffffffffffffffffffffffffffffffffff166133bd9092919063ffffffff16565b90506000818060200190516020811015612d7057600080fd5b8101908080519060200190929190505050905063150b7a0260e01b7bffffffffffffffffffffffffffffffffffffffffffffffffffffffff1916817bffffffffffffffffffffffffffffffffffffffffffffffffffffffff191614925050505b949350505050565b600073ffffffffffffffffffffffffffffffffffffffff168273ffffffffffffffffffffffffffffffffffffffff161415612e7b576040517f08c379a00000000000000000000000000000000000000000000000000000000081526004018080602001828103825260208152602001807f4552433732313a206d696e7420746f20746865207a65726f206164647265737381525060200191505060405180910390fd5b612e84816119fd565b15612ef7576040517f08c379a000000000000000000000000000000000000000000000000000000000815260040180806020018281038252601c8152602001807f4552433732313a20746f6b656e20616c7265616479206d696e7465640000000081525060200191505060405180910390fd5b612f03600083836128d7565b612f5481600160008573ffffffffffffffffffffffffffffffffffffffff1673ffffffffffffffffffffffffffffffffffffffff16815260200190815260200160002061293390919063ffffffff16565b50612f6b8183600261294d9092919063ffffffff16565b50808273ffffffffffffffffffffffffffffffffffffffff16600073ffffffffffffffffffffffffffffffffffffffff167fddf252ad1be2c89b69c2b068fc378daa952ba7f163c4a11628f55a4df523b3ef60405160405180910390a45050565b600080836001016000848152602001908152602001600020541415905092915050565b612ffa8383836133d5565b613002610889565b15613058576040517f08c379a000000000000000000000000000000000000000000000000000000000815260040180806020018281038252602b815260200180614116602b913960400191505060405180910390fd5b505050565b6000808360010160008481526020019081526020016000205490506000811461313957600060018203905060006001866000018054905003905060008660000182815481106130a857fe5b90600052602060002001549050808760000184815481106130c557fe5b90600052602060002001819055506001830187600101600083815260200190815260200160002081905550866000018054806130fd57fe5b6001900381819060005260206000200160009055905586600101600087815260200190815260200160002060009055600194505050505061313f565b60009150505b92915050565b600061315183836133da565b6131aa5782600001829080600181540180825580915050600190039060005260206000200160009091909190915055826000018054905083600101600084815260200190815260200160002081905550600190506131af565b600090505b92915050565b600080846001016000858152602001908152602001600020549050600081141561325c5784600001604051806040016040528086815260200185815250908060018154018082558091505060019003906000526020600020906002020160009091909190915060008201518160000155602082015181600101555050846000018054905085600101600086815260200190815260200160002081905550600191505061328a565b8285600001600183038154811061326f57fe5b90600052602060002090600202016001018190555060009150505b9392505050565b6000808360010160008481526020019081526020016000205490506000811461339e57600060018203905060006001866000018054905003905060008660000182815481106132dc57fe5b90600052602060002090600202019050808760000184815481106132fc57fe5b906000526020600020906002020160008201548160000155600182015481600101559050506001830187600101600083600001548152602001908152602001600020819055508660000180548061334f57fe5b60019003818190600052602060002090600202016000808201600090556001820160009055505090558660010160008781526020019081526020016000206000905560019450505050506133a4565b60009150505b92915050565b600080823b905060008111915050919050565b60606133cc84846000856133fd565b90509392505050565b505050565b600080836001016000848152602001908152602001600020541415905092915050565b606082471015613458576040517f08c379a00000000000000000000000000000000000000000000000000000000081526004018080602001828103825260268152602001806141976026913960400191505060405180910390fd5b613461856133aa565b6134d3576040517f08c379a000000000000000000000000000000000000000000000000000000000815260040180806020018281038252601d8152602001807f416464726573733a2063616c6c20746f206e6f6e2d636f6e747261637400000081525060200191505060405180910390fd5b6000808673ffffffffffffffffffffffffffffffffffffffff1685876040518082805190602001908083835b6020831061352257805182526020820191506020810190506020830392506134ff565b6001836020036101000a03801982511681845116808217855250505050505090500191505060006040518083038185875af1925050503d8060008114613584576040519150601f19603f3d011682016040523d82523d6000602084013e613589565b606091505b50915091506135998282866135a5565b92505050949350505050565b606083156135b55782905061366a565b6000835111156135c85782518084602001fd5b816040517f08c379a00000000000000000000000000000000000000000000000000000000081526004018080602001828103825283818151815260200191508051906020019080838360005b8381101561362f578082015181840152602081019050613614565b50505050905090810190601f16801561365c5780820380516001836020036101000a031916815260200191505b509250505060405180910390fd5b9392505050565b604051806040016040528060008152602001600081525090565b50805460018160011615610100020316600290046000825580601f106136b157506136d0565b601f0160209004906000526020600020908101906136cf91906136d3565b5b50565b5b808211156136ec5760008160009055506001016136d4565b5090565b60006137036136fe84613f09565b613ed8565b90508281526020810184848401111561371b57600080fd5b61372684828561402b565b509392505050565b600061374161373c84613f39565b613ed8565b90508281526020810184848401111561375957600080fd5b61376484828561403a565b509392505050565b60008135905061377b81614080565b92915050565b60008151905061379081614080565b92915050565b6000815190506137a581614097565b92915050565b6000813590506137ba816140ae565b92915050565b6000815190506137cf816140ae565b92915050565b6000813590506137e4816140c5565b92915050565b600082601f8301126137fb57600080fd5b813561380b8482602086016136f0565b91505092915050565b600082601f83011261382557600080fd5b815161383584826020860161372e565b91505092915050565b60008135905061384d816140dc565b92915050565b60006020828403121561386557600080fd5b60006138738482850161376c565b91505092915050565b60006020828403121561388e57600080fd5b600061389c84828501613781565b91505092915050565b6000602082840312156138b757600080fd5b60006138c584828501613796565b91505092915050565b600080604083850312156138e157600080fd5b60006138ef8582860161376c565b92505060206139008582860161376c565b9150509250929050565b60008060006060848603121561391f57600080fd5b600061392d8682870161376c565b935050602061393e8682870161376c565b925050604061394f8682870161383e565b9150509250925092565b6000806000806080858703121561396f57600080fd5b600061397d8782880161376c565b945050602061398e8782880161376c565b935050604061399f8782880161383e565b925050606085013567ffffffffffffffff8111156139bc57600080fd5b6139c8878288016137ea565b91505092959194509250565b600080604083850312156139e757600080fd5b60006139f58582860161376c565b9250506020613a06858286016137ab565b9150509250929050565b60008060408385031215613a2357600080fd5b6000613a318582860161376c565b9250506020613a428582860161383e565b9150509250929050565b600060208284031215613a5e57600080fd5b6000613a6c848285016137c0565b91505092915050565b600060208284031215613a8757600080fd5b6000613a95848285016137d5565b91505092915050565b600060208284031215613ab057600080fd5b600082015167ffffffffffffffff811115613aca57600080fd5b613ad684828501613814565b91505092915050565b600060208284031215613af157600080fd5b6000613aff8482850161383e565b91505092915050565b613b1181613f9b565b82525050565b613b2081613fbf565b82525050565b613b2f81613fcb565b82525050565b613b3e81613fd5565b82525050565b6000613b4f82613f69565b613b598185613f7f565b9350613b6981856020860161403a565b80840191505092915050565b6000613b8082613f74565b613b8a8185613f8a565b9350613b9a81856020860161403a565b613ba38161406f565b840191505092915050565b6000613bbb600483613f8a565b91507f57543035000000000000000000000000000000000000000000000000000000006000830152602082019050919050565b6000613bfb600483613f8a565b91507f57543037000000000000000000000000000000000000000000000000000000006000830152602082019050919050565b6000613c3b600483613f8a565b91507f57543130000000000000000000000000000000000000000000000000000000006000830152602082019050919050565b6000613c7b600683613f8a565b91507f61636365737300000000000000000000000000000000000000000000000000006000830152602082019050919050565b6000613cbb600483613f8a565b91507f57543039000000000000000000000000000000000000000000000000000000006000830152602082019050919050565b613cf781614021565b82525050565b6000613d098284613b44565b915081905092915050565b6000602082019050613d296000830184613b08565b92915050565b6000604082019050613d446000830185613b08565b613d516020830184613b08565b9392505050565b6000604082019050613d6d6000830185613b08565b613d7a6020830184613cee565b9392505050565b6000602082019050613d966000830184613b17565b92915050565b6000602082019050613db16000830184613b26565b92915050565b6000604082019050613dcc6000830185613b26565b613dd96020830184613b08565b9392505050565b6000602082019050613df56000830184613b35565b92915050565b60006020820190508181036000830152613e158184613b75565b905092915050565b60006020820190508181036000830152613e3681613bae565b9050919050565b60006020820190508181036000830152613e5681613bee565b9050919050565b60006020820190508181036000830152613e7681613c2e565b9050919050565b60006020820190508181036000830152613e9681613c6e565b9050919050565b60006020820190508181036000830152613eb681613cae565b9050919050565b6000602082019050613ed26000830184613cee565b92915050565b6000604051905081810181811067ffffffffffffffff82111715613eff57613efe61406d565b5b8060405250919050565b600067ffffffffffffffff821115613f2457613f2361406d565b5b601f19601f8301169050602081019050919050565b600067ffffffffffffffff821115613f5457613f5361406d565b5b601f19601f8301169050602081019050919050565b600081519050919050565b600081519050919050565b600081905092915050565b600082825260208201905092915050565b6000613fa682614001565b9050919050565b6000613fb882614001565b9050919050565b60008115159050919050565b6000819050919050565b60007fffffffff0000000000000000000000000000000000000000000000000000000082169050919050565b600073ffffffffffffffffffffffffffffffffffffffff82169050919050565b6000819050919050565b82818337600083830152505050565b60005b8381101561405857808201518184015260208101905061403d565b83811115614067576000848401525b50505050565bfe5b6000601f19601f8301169050919050565b61408981613f9b565b811461409457600080fd5b50565b6140a081613fad565b81146140ab57600080fd5b50565b6140b781613fbf565b81146140c257600080fd5b50565b6140ce81613fd5565b81146140d957600080fd5b50565b6140e581614021565b81146140f057600080fd5b5056fe456e756d657261626c655365743a20696e646578206f7574206f6620626f756e64734552433732315061757361626c653a20746f6b656e207472616e73666572207768696c65207061757365644552433732313a207472616e7366657220746f206e6f6e20455243373231526563656976657220696d706c656d656e7465724552433732313a207472616e7366657220746f20746865207a65726f2061646472657373416464726573733a20696e73756666696369656e742062616c616e636520666f722063616c6c4552433732313a206f70657261746f7220717565727920666f72206e6f6e6578697374656e7420746f6b656e4552433732313a20617070726f76652063616c6c6572206973206e6f74206f776e6572206e6f7220617070726f76656420666f7220616c6c4552433732313a2062616c616e636520717565727920666f7220746865207a65726f20616464726573734552433732313a206f776e657220717565727920666f72206e6f6e6578697374656e7420746f6b656e456e756d657261626c654d61703a20696e646578206f7574206f6620626f756e64734552433732313a20617070726f76656420717565727920666f72206e6f6e6578697374656e7420746f6b656e4552433732313a207472616e73666572206f6620746f6b656e2074686174206973206e6f74206f776e4552433732314d657461646174613a2055524920717565727920666f72206e6f6e6578697374656e7420746f6b656e4552433732313a20617070726f76616c20746f2063757272656e74206f776e65724552433732313a207472616e736665722063616c6c6572206973206e6f74206f776e6572206e6f7220617070726f7665644552433732314275726e61626c653a2063616c6c6572206973206e6f74206f776e6572206e6f7220617070726f766564a26469706673582212205afbff647e50df95d5ae75c5ad480e2a5b71ce375ec2bced5ee6b15ccf0a4fa464736f6c63430007060033",
  "immutableReferences": {},
  "source": "pragma solidity >=0.7.0;\n// SPDX-License-Identifier: GPL-3.0-or-later\npragma abicoder v2;\nimport \"../Utils/ENS.sol\";\nimport \"../Utils/Resolver.sol\";\nimport \"../Utils/Roles.sol\";\nimport \"../Utils/RBAC.sol\";\nimport \"../Utils/Library.sol\";\nimport \"@openzeppelin/contracts/token/ERC721/ERC721Pausable.sol\";\nimport \"@openzeppelin/contracts/token/ERC721/ERC721Burnable.sol\";\n\n\ncontract WorkerProfileToken is ERC721Pausable,ERC721Burnable,Roles {\n    event NewWorkerToken(address _a,uint256 _tokenid);\n    \n    address pubENSRegistry;\n    PermissionControl access;\n    string wFactory;\n    ENS ens;\n    \n    constructor(string memory _name,string memory _syb,string memory _wFactory ,address _pubENSRoot) ERC721(_name,_syb)\n    {\n        require(Utility._checkInterfaceID(_pubENSRoot,Utility.INTERFACE_ID_ENSREGISTRY),\"WT01\");\n        ens = ENS(_pubENSRoot);\n        require(_pubAccessCheck(msg.sender,ISSUE) || _pubAccessCheck(msg.sender,ADMIN),\"WT02\");\n        bytes32 hashname = Utility._computeNamehash(_name);\n        require(ens.recordExists(hashname),\"WT03\");\n        \n        hashname = Utility._computeNamehash(_wFactory);\n        Resolver res = Resolver(ens.resolver(hashname));\n        address a = res.addr(hashname);\n        require(Utility._checkInterfaceID(a,Utility.INTERFACE_ID_WORKERFACTORY),\"WT04\");\n        _pause();\n        wFactory = _wFactory;\n        pubENSRegistry=_pubENSRoot;\n    }\n    \n    function createWorkerProfile(address _individual) public {\n        require(_pubAccessCheck(msg.sender,ISSUE),\"WT05\");\n        bytes32 hashname = Utility._computeNamehash(wFactory);\n        Resolver res = Resolver(ens.resolver(hashname));\n        address _a = res.addr(hashname);\n        \n        bytes memory payload = abi.encodeWithSignature(\"createNewWorkerProfileContract(address,address)\",_individual,pubENSRegistry);\n        (bool success, bytes memory result) = _a.call(payload);\n        require(success,\"WT10\");\n        address waddress = abi.decode(result, (address)); \n        _mint(_individual,uint256(waddress));\n        emit NewWorkerToken(waddress,uint256(waddress));\n             \n    }\n    \n     function _mint(address to, uint256 tokenId) internal virtual override(ERC721) {\n        require(_pubAccessCheck(msg.sender,ISSUE),\"WT09\");\n        super._mint(to,tokenId);\n        emit Transfer(address(0), to, tokenId);\n    }\n\n    \n    function _pubAccessCheck(address _caller,bytes32 _role) internal \n    returns(bool)\n    {\n        bytes32 pubAccessENS = Utility._computeNamehash(ens.getPredefineENSPrefix(\"access\"));\n        Resolver res = Resolver(ens.resolver(pubAccessENS));\n        require(res.addr(pubAccessENS)!=address(0) && res.supportsInterface(Utility.ADDR_INTERFACE_ID),\"WT07\");\n        address pubAccessAdr = res.addr(pubAccessENS);\n        access = PermissionControl(pubAccessAdr);\n        return access.hasRole(_role,_caller);\n        \n    }\n    \n    function workerProfileToken() public{}\n    \n    function supportsInterface(bytes4 interfaceId) public virtual override(ERC165) view returns (bool) {\n        return interfaceId == Utility.INTERFACE_ID_WORKERTOKEN;\n    }\n    \n    function _beforeTokenTransfer(address from, address to, uint256 tokenId) internal virtual override (ERC721,ERC721Pausable) {\n         if(!_pubAccessCheck(msg.sender,ISSUE)){\n            super._beforeTokenTransfer(from,to,tokenId);\n        }\n    }\n    \n}",
  "sourcePath": "/home/dickchan/CIC/contracts/TokenContract/WorkerProfileToken.sol",
  "compiler": {
    "name": "solc",
    "version": "0.7.6+commit.7338295f.Emscripten.clang"
  },
  "schemaVersion": "3.2.3",
  "updatedAt": "2021-03-18T07:14:07.414Z",
  "devdoc": {
    "kind": "dev",
    "methods": {
      "approve(address,uint256)": {
        "details": "See {IERC721-approve}."
      },
      "balanceOf(address)": {
        "details": "See {IERC721-balanceOf}."
      },
      "baseURI()": {
        "details": "Returns the base URI set via {_setBaseURI}. This will be automatically added as a prefix in {tokenURI} to each token's URI, or to the token ID if no specific URI is set for that token ID."
      },
      "burn(uint256)": {
        "details": "Burns `tokenId`. See {ERC721-_burn}. Requirements: - The caller must own `tokenId` or be an approved operator."
      },
      "getApproved(uint256)": {
        "details": "See {IERC721-getApproved}."
      },
      "isApprovedForAll(address,address)": {
        "details": "See {IERC721-isApprovedForAll}."
      },
      "name()": {
        "details": "See {IERC721Metadata-name}."
      },
      "ownerOf(uint256)": {
        "details": "See {IERC721-ownerOf}."
      },
      "paused()": {
        "details": "Returns true if the contract is paused, and false otherwise."
      },
      "safeTransferFrom(address,address,uint256)": {
        "details": "See {IERC721-safeTransferFrom}."
      },
      "safeTransferFrom(address,address,uint256,bytes)": {
        "details": "See {IERC721-safeTransferFrom}."
      },
      "setApprovalForAll(address,bool)": {
        "details": "See {IERC721-setApprovalForAll}."
      },
      "supportsInterface(bytes4)": {
        "details": "See {IERC165-supportsInterface}. Time complexity O(1), guaranteed to always use less than 30 000 gas."
      },
      "symbol()": {
        "details": "See {IERC721Metadata-symbol}."
      },
      "tokenByIndex(uint256)": {
        "details": "See {IERC721Enumerable-tokenByIndex}."
      },
      "tokenOfOwnerByIndex(address,uint256)": {
        "details": "See {IERC721Enumerable-tokenOfOwnerByIndex}."
      },
      "tokenURI(uint256)": {
        "details": "See {IERC721Metadata-tokenURI}."
      },
      "totalSupply()": {
        "details": "See {IERC721Enumerable-totalSupply}."
      },
      "transferFrom(address,address,uint256)": {
        "details": "See {IERC721-transferFrom}."
      }
    },
    "version": 1
  },
  "userdoc": {
    "kind": "user",
    "methods": {},
    "version": 1
  }
}