{
  "contractName": "WorkerProfileLogic",
  "abi": [
    {
      "inputs": [
        {
          "internalType": "address",
          "name": "_ensAddress",
          "type": "address"
        }
      ],
      "stateMutability": "nonpayable",
      "type": "constructor"
    },
    {
      "anonymous": false,
      "inputs": [
        {
          "indexed": true,
          "internalType": "address",
          "name": "previousOwner",
          "type": "address"
        },
        {
          "indexed": true,
          "internalType": "address",
          "name": "newOwner",
          "type": "address"
        }
      ],
      "name": "OwnershipTransferred",
      "type": "event"
    },
    {
      "inputs": [],
      "name": "owner",
      "outputs": [
        {
          "internalType": "address",
          "name": "",
          "type": "address"
        }
      ],
      "stateMutability": "view",
      "type": "function"
    },
    {
      "inputs": [],
      "name": "renounceOwnership",
      "outputs": [],
      "stateMutability": "nonpayable",
      "type": "function"
    },
    {
      "inputs": [
        {
          "internalType": "address",
          "name": "newOwner",
          "type": "address"
        }
      ],
      "name": "transferOwnership",
      "outputs": [],
      "stateMutability": "nonpayable",
      "type": "function"
    },
    {
      "inputs": [
        {
          "internalType": "string",
          "name": "_name",
          "type": "string"
        },
        {
          "internalType": "bytes",
          "name": "_value",
          "type": "bytes"
        },
        {
          "internalType": "uint256",
          "name": "_datetime",
          "type": "uint256"
        },
        {
          "internalType": "string",
          "name": "_datatype",
          "type": "string"
        }
      ],
      "name": "addAttribute",
      "outputs": [
        {
          "internalType": "bytes32",
          "name": "",
          "type": "bytes32"
        }
      ],
      "stateMutability": "nonpayable",
      "type": "function"
    },
    {
      "inputs": [
        {
          "internalType": "bytes32",
          "name": "_key",
          "type": "bytes32"
        },
        {
          "internalType": "bytes",
          "name": "_value",
          "type": "bytes"
        },
        {
          "internalType": "uint256",
          "name": "_datetime",
          "type": "uint256"
        },
        {
          "internalType": "string",
          "name": "_datatype",
          "type": "string"
        }
      ],
      "name": "upateAttribute",
      "outputs": [
        {
          "internalType": "bytes32",
          "name": "",
          "type": "bytes32"
        }
      ],
      "stateMutability": "nonpayable",
      "type": "function"
    },
    {
      "inputs": [
        {
          "internalType": "bytes32",
          "name": "_key",
          "type": "bytes32"
        },
        {
          "internalType": "uint256",
          "name": "_datetime",
          "type": "uint256"
        }
      ],
      "name": "removeAttribute",
      "outputs": [],
      "stateMutability": "nonpayable",
      "type": "function"
    },
    {
      "inputs": [
        {
          "internalType": "bytes32",
          "name": "_key",
          "type": "bytes32"
        },
        {
          "internalType": "uint256",
          "name": "_datetime",
          "type": "uint256"
        },
        {
          "internalType": "uint256",
          "name": "_expiryDate",
          "type": "uint256"
        },
        {
          "internalType": "string",
          "name": "_org",
          "type": "string"
        },
        {
          "internalType": "bytes",
          "name": "_signature",
          "type": "bytes"
        }
      ],
      "name": "endorseAttribute",
      "outputs": [],
      "stateMutability": "nonpayable",
      "type": "function"
    },
    {
      "inputs": [
        {
          "internalType": "bytes32",
          "name": "_key",
          "type": "bytes32"
        },
        {
          "internalType": "uint256",
          "name": "_endorseNumber",
          "type": "uint256"
        },
        {
          "internalType": "string",
          "name": "_org",
          "type": "string"
        }
      ],
      "name": "removeEndorsement",
      "outputs": [],
      "stateMutability": "nonpayable",
      "type": "function"
    },
    {
      "inputs": [
        {
          "internalType": "string",
          "name": "_qERC721Name",
          "type": "string"
        },
        {
          "internalType": "string",
          "name": "_org",
          "type": "string"
        },
        {
          "internalType": "bytes",
          "name": "_encryptKey",
          "type": "bytes"
        },
        {
          "internalType": "uint256",
          "name": "_tokenid",
          "type": "uint256"
        }
      ],
      "name": "addQualification",
      "outputs": [],
      "stateMutability": "nonpayable",
      "type": "function"
    },
    {
      "inputs": [
        {
          "internalType": "string",
          "name": "_qERC721Name",
          "type": "string"
        },
        {
          "internalType": "string",
          "name": "_org",
          "type": "string"
        },
        {
          "internalType": "uint256",
          "name": "_tokenid",
          "type": "uint256"
        },
        {
          "internalType": "address",
          "name": "_receiver",
          "type": "address"
        }
      ],
      "name": "revokeQualification",
      "outputs": [],
      "stateMutability": "nonpayable",
      "type": "function"
    },
    {
      "inputs": [
        {
          "internalType": "string",
          "name": "_qERC721Name",
          "type": "string"
        },
        {
          "internalType": "string",
          "name": "_org",
          "type": "string"
        },
        {
          "internalType": "bytes",
          "name": "_encryptKey",
          "type": "bytes"
        },
        {
          "internalType": "uint256",
          "name": "_tokenid",
          "type": "uint256"
        }
      ],
      "name": "updateQualification",
      "outputs": [],
      "stateMutability": "nonpayable",
      "type": "function"
    },
    {
      "inputs": [
        {
          "internalType": "bytes32",
          "name": "_key",
          "type": "bytes32"
        },
        {
          "internalType": "string",
          "name": "_org",
          "type": "string"
        }
      ],
      "name": "getAttribute",
      "outputs": [
        {
          "internalType": "bytes",
          "name": "",
          "type": "bytes"
        },
        {
          "internalType": "string",
          "name": "",
          "type": "string"
        }
      ],
      "stateMutability": "nonpayable",
      "type": "function"
    },
    {
      "inputs": [
        {
          "internalType": "string",
          "name": "_org",
          "type": "string"
        }
      ],
      "name": "length",
      "outputs": [
        {
          "internalType": "uint256",
          "name": "",
          "type": "uint256"
        }
      ],
      "stateMutability": "nonpayable",
      "type": "function"
    },
    {
      "inputs": [
        {
          "internalType": "string",
          "name": "_org",
          "type": "string"
        },
        {
          "internalType": "uint256",
          "name": "_i",
          "type": "uint256"
        }
      ],
      "name": "getAttributeByIndex",
      "outputs": [
        {
          "internalType": "bytes32",
          "name": "",
          "type": "bytes32"
        },
        {
          "internalType": "bytes",
          "name": "",
          "type": "bytes"
        },
        {
          "internalType": "string",
          "name": "",
          "type": "string"
        }
      ],
      "stateMutability": "nonpayable",
      "type": "function"
    },
    {
      "inputs": [
        {
          "internalType": "bytes32",
          "name": "_key",
          "type": "bytes32"
        },
        {
          "internalType": "string",
          "name": "_org",
          "type": "string"
        }
      ],
      "name": "getEndorsement",
      "outputs": [
        {
          "components": [
            {
              "internalType": "bytes",
              "name": "signature",
              "type": "bytes"
            },
            {
              "internalType": "uint256",
              "name": "endorseDate",
              "type": "uint256"
            },
            {
              "internalType": "uint256",
              "name": "endorseExpiryDate",
              "type": "uint256"
            },
            {
              "internalType": "address",
              "name": "endorser",
              "type": "address"
            },
            {
              "internalType": "bool",
              "name": "active",
              "type": "bool"
            }
          ],
          "internalType": "struct WorkerProfileDS.Endorse[]",
          "name": "",
          "type": "tuple[]"
        }
      ],
      "stateMutability": "nonpayable",
      "type": "function"
    },
    {
      "inputs": [
        {
          "internalType": "string",
          "name": "_org",
          "type": "string"
        }
      ],
      "name": "getQualifications",
      "outputs": [
        {
          "components": [
            {
              "internalType": "string",
              "name": "prefix",
              "type": "string"
            },
            {
              "internalType": "string",
              "name": "postfix",
              "type": "string"
            }
          ],
          "internalType": "struct WorkerProfileDS.qualificationname[]",
          "name": "",
          "type": "tuple[]"
        }
      ],
      "stateMutability": "nonpayable",
      "type": "function"
    },
    {
      "inputs": [
        {
          "internalType": "bytes32",
          "name": "_key",
          "type": "bytes32"
        },
        {
          "internalType": "string",
          "name": "_org",
          "type": "string"
        }
      ],
      "name": "getQualificationKey",
      "outputs": [
        {
          "internalType": "bytes",
          "name": "",
          "type": "bytes"
        }
      ],
      "stateMutability": "nonpayable",
      "type": "function"
    },
    {
      "inputs": [
        {
          "internalType": "bytes4",
          "name": "interfaceId",
          "type": "bytes4"
        }
      ],
      "name": "supportsInterface",
      "outputs": [
        {
          "internalType": "bool",
          "name": "",
          "type": "bool"
        }
      ],
      "stateMutability": "view",
      "type": "function"
    }
  ],
  "bytecode": "0x60806040523480156200001157600080fd5b50604051620078ca380380620078ca833981810160405281019062000037919062000be9565b600062000049620005c160201b60201c565b9050806000806101000a81548173ffffffffffffffffffffffffffffffffffffffff021916908373ffffffffffffffffffffffffffffffffffffffff1602179055508073ffffffffffffffffffffffffffffffffffffffff16600073ffffffffffffffffffffffffffffffffffffffff167f8be0079c531659141344cd1fd0a4f28419497f9722a3daafe3b4186f6b6457e060405160405180910390a35060008190506000620001958273ffffffffffffffffffffffffffffffffffffffff1663154c0d786040518163ffffffff1660e01b81526004016200012b9062000e2a565b60006040518083038186803b1580156200014457600080fd5b505afa15801562000159573d6000803e3d6000fd5b505050506040513d6000823e3d601f19601f8201168201806040525081019062000184919062000c41565b620005c960201b620028e91760201c565b905060008273ffffffffffffffffffffffffffffffffffffffff16630178b8bf836040518263ffffffff1660e01b8152600401620001d4919062000d7f565b60206040518083038186803b158015620001ed57600080fd5b505afa15801562000202573d6000803e3d6000fd5b505050506040513d601f19601f8201168201806040525081019062000228919062000be9565b9050600073ffffffffffffffffffffffffffffffffffffffff168173ffffffffffffffffffffffffffffffffffffffff16633b3b57de846040518263ffffffff1660e01b81526004016200027d919062000d7f565b60206040518083038186803b1580156200029657600080fd5b505afa158015620002ab573d6000803e3d6000fd5b505050506040513d601f19601f82011682018060405250810190620002d1919062000be9565b73ffffffffffffffffffffffffffffffffffffffff16141580156200038857508073ffffffffffffffffffffffffffffffffffffffff166301ffc9a7633b3b57de60e01b6040518263ffffffff1660e01b815260040162000333919062000dc9565b60206040518083038186803b1580156200034c57600080fd5b505afa15801562000361573d6000803e3d6000fd5b505050506040513d601f19601f8201168201806040525081019062000387919062000c15565b5b620003ca576040517f08c379a0000000000000000000000000000000000000000000000000000000008152600401620003c19062000de6565b60405180910390fd5b60008173ffffffffffffffffffffffffffffffffffffffff16633b3b57de846040518263ffffffff1660e01b815260040162000407919062000d7f565b60206040518083038186803b1580156200042057600080fd5b505afa15801562000435573d6000803e3d6000fd5b505050506040513d601f19601f820116820180604052508101906200045b919062000be9565b905080600c60006101000a81548173ffffffffffffffffffffffffffffffffffffffff021916908373ffffffffffffffffffffffffffffffffffffffff160217905550600c60009054906101000a900473ffffffffffffffffffffffffffffffffffffffff1673ffffffffffffffffffffffffffffffffffffffff166391d148547fdf8b4c520ffe197c5343c6f5aec59570151ef9a492f2c624fd45ddde6135ec4260001b336040518363ffffffff1660e01b81526004016200052092919062000d9c565b60206040518083038186803b1580156200053957600080fd5b505afa1580156200054e573d6000803e3d6000fd5b505050506040513d601f19601f8201168201806040525081019062000574919062000c15565b620005b6576040517f08c379a0000000000000000000000000000000000000000000000000000000008152600401620005ad9062000e08565b60405180910390fd5b505050505062000fe2565b600033905090565b6000806000801b90506000620005ea84620007f560201b62002ad51760201c565b90506000620006396040518060400160405280600181526020017f2e00000000000000000000000000000000000000000000000000000000000000815250620007f560201b62002ad51760201c565b9050600060016200065983856200082560201b62002b031790919060201c565b0167ffffffffffffffff811180156200067157600080fd5b50604051908082528060200260200182016040528015620006a757816020015b6060815260200190600190039081620006915790505b50905060005b81518110156200070c57620006e6620006d58486620008ac60201b62002b781790919060201c565b620008d060201b62002b921760201c565b828281518110620006f357fe5b60200260200101819052508080600101915050620006ad565b506000815190505b6000811115620007e857848260018303815181106200072f57fe5b60200260200101516040516020018082805190602001908083835b602083106200076f57805182526020820191506020810190506020830392506200074a565b6001836020036101000a03801982511681845116808217855250505050505090500191505060405160208183030381529060405280519060200120604051602001808381526020018281526020019250505060405160208183030381529060405280519060200120945080806001900391505062000714565b5083945050505050919050565b620007ff62000b2f565b600060208301905060405180604001604052808451815260200182815250915050919050565b60008082600001516200085185600001518660200151866000015187602001516200095460201b60201c565b0190505b83600001518460200151018111620008a557818060010192505082600001516200089c8560200151830386600001510383866000015187602001516200095460201b60201c565b01905062000855565b5092915050565b620008b662000b2f565b620008c983838362000a3a60201b60201c565b5092915050565b60606000826000015167ffffffffffffffff81118015620008f057600080fd5b506040519080825280601f01601f191660200182016040528015620009245781602001600182028036833780820191505090505b50905060006020820190506200094a818560200151866000015162000ae460201b60201c565b8192505050919050565b600080849050600086851162000a2a5760208511620009e057600060018660200360080260020a031960001b905060008186511690506000878a8a0103905060008386511690505b828114620009d157818610620009bd578a8a01965050505050505062000a32565b85806001019650508386511690506200099c565b85965050505050505062000a32565b60008585209050600091505b858803821162000a2857600086842090508082141562000a13578394505050505062000a32565b600184019350508180600101925050620009ec565b505b868601925050505b949350505050565b62000a4462000b2f565b600062000a6a85600001518660200151866000015187602001516200095460201b60201c565b9050846020015183602001818152505084602001518103836000018181525050846000015185602001510181141562000aae57600085600001818152505062000ad9565b8360000151836000015101856000018181510391508181525050836000015181018560200181815250505b829150509392505050565b5b6020811062000b0a578151835260208301925060208201915060208103905062000ae5565b60006001826020036101000a0390508019835116818551168181178652505050505050565b604051806040016040528060008152602001600081525090565b600062000b6062000b5a8462000e80565b62000e4c565b90508281526020810184848401111562000b7957600080fd5b62000b8684828562000f76565b509392505050565b60008151905062000b9f8162000fae565b92915050565b60008151905062000bb68162000fc8565b92915050565b600082601f83011262000bce57600080fd5b815162000be084826020860162000b49565b91505092915050565b60006020828403121562000bfc57600080fd5b600062000c0c8482850162000b8e565b91505092915050565b60006020828403121562000c2857600080fd5b600062000c388482850162000ba5565b91505092915050565b60006020828403121562000c5457600080fd5b600082015167ffffffffffffffff81111562000c6f57600080fd5b62000c7d8482850162000bbc565b91505092915050565b62000c918162000f3a565b82525050565b62000ca28162000ee4565b82525050565b62000cb38162000eee565b82525050565b600062000cc860048362000eb3565b91507f574c3238000000000000000000000000000000000000000000000000000000006000830152602082019050919050565b600062000d0a60048362000eb3565b91507f574c3239000000000000000000000000000000000000000000000000000000006000830152602082019050919050565b600062000d4c60068362000eb3565b91507f61636365737300000000000000000000000000000000000000000000000000006000830152602082019050919050565b600060208201905062000d96600083018462000c97565b92915050565b600060408201905062000db3600083018562000c97565b62000dc2602083018462000c86565b9392505050565b600060208201905062000de0600083018462000ca8565b92915050565b6000602082019050818103600083015262000e018162000cb9565b9050919050565b6000602082019050818103600083015262000e238162000cfb565b9050919050565b6000602082019050818103600083015262000e458162000d3d565b9050919050565b6000604051905081810181811067ffffffffffffffff8211171562000e765762000e7562000fac565b5b8060405250919050565b600067ffffffffffffffff82111562000e9e5762000e9d62000fac565b5b601f19601f8301169050602081019050919050565b600082825260208201905092915050565b600062000ed18262000f1a565b9050919050565b60008115159050919050565b6000819050919050565b60007fffffffff0000000000000000000000000000000000000000000000000000000082169050919050565b600073ffffffffffffffffffffffffffffffffffffffff82169050919050565b600062000f478262000f4e565b9050919050565b600062000f5b8262000f62565b9050919050565b600062000f6f8262000f1a565b9050919050565b60005b8381101562000f9657808201518184015260208101905062000f79565b8381111562000fa6576000848401525b50505050565bfe5b62000fb98162000ec4565b811462000fc557600080fd5b50565b62000fd38162000ed8565b811462000fdf57600080fd5b50565b6168d88062000ff26000396000f3fe608060405234801561001057600080fd5b50600436106101165760003560e01c80638cf50663116100a2578063ce7a9b9e11610071578063ce7a9b9e14610304578063e844d6d414610320578063f2fde38b14610352578063f31f0a211461036e578063ff1a07311461039e57610116565b80638cf506631461026a5780638d0d81661461029a5780638da5cb5b146102ca578063b2559f81146102e857610116565b8063705e6fa6116100e9578063705e6fa6146101c7578063715018a6146101f757806380c8f6eb1461020157806381b789ef1461021d5780638bf8a3381461023957610116565b806301ffc9a71461011b578063109eac3c1461014b5780633fa002ca14610167578063436a66e714610197575b600080fd5b61013560048036038101906101309190615032565b6103ba565b604051610142919061607d565b60405180910390f35b61016560048036038101906101609190615190565b61040b565b005b610181600480360381019061017c9190614df6565b6105c4565b60405161018e9190616098565b60405180910390f35b6101b160048036038101906101ac919061505b565b610aa9565b6040516101be91906164de565b60405180910390f35b6101e160048036038101906101dc91906150dd565b610b66565b6040516101ee9190616098565b60405180910390f35b6101ff611028565b005b61021b60048036038101906102169190614ee5565b611195565b005b61023760048036038101906102329190614f88565b611306565b005b610253600480360381019061024e9190614e91565b611600565b604051610261929190616187565b60405180910390f35b610284600480360381019061027f9190614e91565b61186f565b6040516102919190616165565b60405180910390f35b6102b460048036038101906102af919061505b565b6119ec565b6040516102c1919061605b565b60405180910390f35b6102d2611c57565b6040516102df9190615fe7565b60405180910390f35b61030260048036038101906102fd919061523b565b611c80565b005b61031e60048036038101906103199190615190565b611e88565b005b61033a600480360381019061033591906152ce565b611fcf565b60405161034993929190616105565b60405180910390f35b61036c60048036038101906103679190614d7b565b612254565b005b61038860048036038101906103839190614e91565b612446565b6040516103959190616039565b60405180910390f35b6103b860048036038101906103b39190614f21565b6126a3565b005b600063ae9fcec860e01b7bffffffffffffffffffffffffffffffffffffffffffffffffffffffff1916827bffffffffffffffffffffffffffffffffffffffffffffffffffffffff1916149050919050565b6000610416856128e9565b905061044684337f5e08e74d3db9bd033737bf4f2fd87386eec32e8b6624f7ea49a55acda9aa159b60001b612c0c565b610485576040517f08c379a000000000000000000000000000000000000000000000000000000000815260040161047c906164be565b60405180910390fd5b6000151561049d82600761345390919063ffffffff16565b1515146104df576040517f08c379a00000000000000000000000000000000000000000000000000000000081526004016104d69061633e565b60405180910390fd5b6104eb8482843061346a565b61052a576040517f08c379a00000000000000000000000000000000000000000000000000000000081526004016105219061623e565b60405180910390fd5b61053e816007613abd90919063ffffffff16565b5084600960008381526020019081526020016000206000019080519060200190610569929190614832565b5083600960008381526020019081526020016000206001019080519060200190610594929190614832565b5082600a600083815260200190815260200160002090805190602001906105bc9291906148c0565b505050505050565b60006105ce613ad4565b73ffffffffffffffffffffffffffffffffffffffff166105ec611c57565b73ffffffffffffffffffffffffffffffffffffffff1614610675576040517f08c379a00000000000000000000000000000000000000000000000000000000081526004018080602001828103825260208152602001807f4f776e61626c653a2063616c6c6572206973206e6f7420746865206f776e657281525060200191505060405180910390fd5b6000600360009054906101000a900473ffffffffffffffffffffffffffffffffffffffff169050600061074160018054600181600116156101000203166002900480601f0160208091040260200160405190810160405280929190818152602001828054600181600116156101000203166002900480156107375780601f1061070c57610100808354040283529160200191610737565b820191906000526020600020905b81548152906001019060200180831161071a57829003601f168201915b50505050506128e9565b905060008273ffffffffffffffffffffffffffffffffffffffff16630178b8bf836040518263ffffffff1660e01b815260040161077e9190616098565b60206040518083038186803b15801561079657600080fd5b505afa1580156107aa573d6000803e3d6000fd5b505050506040513d601f19601f820116820180604052508101906107ce9190614da4565b905060008173ffffffffffffffffffffffffffffffffffffffff16633b3b57de846040518263ffffffff1660e01b815260040161080b9190616098565b60206040518083038186803b15801561082357600080fd5b505afa158015610837573d6000803e3d6000fd5b505050506040513d601f19601f8201168201806040525081019061085b9190614da4565b90508073ffffffffffffffffffffffffffffffffffffffff166338a699a48c6040518263ffffffff1660e01b81526004016108969190616098565b60206040518083038186803b1580156108ae57600080fd5b505afa1580156108c2573d6000803e3d6000fd5b505050506040513d601f19601f820116820180604052508101906108e69190614dcd565b610925576040517f08c379a000000000000000000000000000000000000000000000000000000000815260040161091c9061635e565b60405180910390fd5b6109398b600461345390919063ffffffff16565b610978576040517f08c379a000000000000000000000000000000000000000000000000000000000815260040161096f906161de565b60405180910390fd5b6000600660008d815260200190815260200160002060050154905060005b818110156109ee576000600660008f8152602001908152602001600020600401600083815260200190815260200160002060030160146101000a81548160ff0219169083151502179055508080600101915050610996565b508a8a600660008f81526020019081526020016000206001019190610a1492919061494e565b5088600660008e8152602001908152602001600020600201819055508787600660008f81526020019081526020016000206003019190610a559291906149dc565b50610a95338d8d8d8c8c8f8830604051602001610a7a99989796959493929190615eda565b60405160208183030381529060405280519060200120613adc565b935083955050505050509695505050505050565b6000610ad982337f201105a52b842adfbcdcfcac0349cd25c8a3cb322954633dd585b0958aa204f360001b612c0c565b80610b165750610ae7611c57565b73ffffffffffffffffffffffffffffffffffffffff163373ffffffffffffffffffffffffffffffffffffffff16145b610b55576040517f08c379a0000000000000000000000000000000000000000000000000000000008152600401610b4c906162de565b60405180910390fd5b610b5f6004613b34565b9050919050565b6000610b70613ad4565b73ffffffffffffffffffffffffffffffffffffffff16610b8e611c57565b73ffffffffffffffffffffffffffffffffffffffff1614610c17576040517f08c379a00000000000000000000000000000000000000000000000000000000081526004018080602001828103825260208152602001807f4f776e61626c653a2063616c6c6572206973206e6f7420746865206f776e657281525060200191505060405180910390fd5b6000600360009054906101000a900473ffffffffffffffffffffffffffffffffffffffff1690506000888051906020012090506000610cef60018054600181600116156101000203166002900480601f016020809104026020016040519081016040528092919081815260200182805460018160011615610100020316600290048015610ce55780601f10610cba57610100808354040283529160200191610ce5565b820191906000526020600020905b815481529060010190602001808311610cc857829003601f168201915b50505050506128e9565b905060008373ffffffffffffffffffffffffffffffffffffffff16630178b8bf836040518263ffffffff1660e01b8152600401610d2c9190616098565b60206040518083038186803b158015610d4457600080fd5b505afa158015610d58573d6000803e3d6000fd5b505050506040513d601f19601f82011682018060405250810190610d7c9190614da4565b905060008173ffffffffffffffffffffffffffffffffffffffff16633b3b57de846040518263ffffffff1660e01b8152600401610db99190616098565b60206040518083038186803b158015610dd157600080fd5b505afa158015610de5573d6000803e3d6000fd5b505050506040513d601f19601f82011682018060405250810190610e099190614da4565b90508073ffffffffffffffffffffffffffffffffffffffff166338a699a4856040518263ffffffff1660e01b8152600401610e449190616098565b60206040518083038186803b158015610e5c57600080fd5b505afa158015610e70573d6000803e3d6000fd5b505050506040513d601f19601f82011682018060405250810190610e949190614dcd565b610ed3576040517f08c379a0000000000000000000000000000000000000000000000000000000008152600401610eca906161fe565b60405180910390fd5b60001515610eeb85600461345390919063ffffffff16565b151514610f2d576040517f08c379a0000000000000000000000000000000000000000000000000000000008152600401610f24906163de565b60405180910390fd5b610f41846004613abd90919063ffffffff16565b508b600660008681526020019081526020016000206000019080519060200190610f6c929190614832565b508a8a600660008781526020019081526020016000206001019190610f9292919061494e565b508860066000868152602001908152602001600020600201819055508787600660008781526020019081526020016000206003019190610fd39291906149dc565b5061101433858d8d8c8c8f600030604051602001610ff999989796959493929190615eda565b60405160208183030381529060405280519060200120613adc565b925082955050505050509695505050505050565b611030613ad4565b73ffffffffffffffffffffffffffffffffffffffff1661104e611c57565b73ffffffffffffffffffffffffffffffffffffffff16146110d7576040517f08c379a00000000000000000000000000000000000000000000000000000000081526004018080602001828103825260208152602001807f4f776e61626c653a2063616c6c6572206973206e6f7420746865206f776e657281525060200191505060405180910390fd5b600073ffffffffffffffffffffffffffffffffffffffff1660008054906101000a900473ffffffffffffffffffffffffffffffffffffffff1673ffffffffffffffffffffffffffffffffffffffff167f8be0079c531659141344cd1fd0a4f28419497f9722a3daafe3b4186f6b6457e060405160405180910390a360008060006101000a81548173ffffffffffffffffffffffffffffffffffffffff021916908373ffffffffffffffffffffffffffffffffffffffff160217905550565b61119d613ad4565b73ffffffffffffffffffffffffffffffffffffffff166111bb611c57565b73ffffffffffffffffffffffffffffffffffffffff1614611244576040517f08c379a00000000000000000000000000000000000000000000000000000000081526004018080602001828103825260208152602001807f4f776e61626c653a2063616c6c6572206973206e6f7420746865206f776e657281525060200191505060405180910390fd5b61125882600461345390919063ffffffff16565b611297576040517f08c379a000000000000000000000000000000000000000000000000000000000815260040161128e906163fe565b60405180910390fd5b60066000838152602001908152602001600020600080820160006112bb9190614a6a565b6001820160006112cb9190614ab2565b60028201600090556003820160006112e39190614a6a565b60058201600090555050611301826004613b4990919063ffffffff16565b505050565b61133483337f9a7e9d723982bdbedb9fcad890bb0aac5fb256ffc07256673da57bdd92e3888b60001b612c0c565b611373576040517f08c379a000000000000000000000000000000000000000000000000000000000815260040161136a906163be565b60405180910390fd5b6113c2338784848080601f016020809104026020016040519081016040528093929190818152602001838380828437600081840152601f19601f82011690508083019250505050505050613b60565b611401576040517f08c379a00000000000000000000000000000000000000000000000000000000081526004016113f89061625e565b60405180910390fd5b61141586600461345390919063ffffffff16565b611454576040517f08c379a000000000000000000000000000000000000000000000000000000000815260040161144b906162de565b60405180910390fd5b6000600660008881526020019081526020016000206005015490506114996001600660008a815260200190815260200160002060050154613c1a90919063ffffffff16565b60066000898152602001908152602001600020600501819055508282600660008a8152602001908152602001600020600401600084815260200190815260200160002060000191906114ec92919061494e565b50856006600089815260200190815260200160002060040160008381526020019081526020016000206001018190555084600660008981526020019081526020016000206004016000838152602001908152602001600020600201819055503360066000898152602001908152602001600020600401600083815260200190815260200160002060030160006101000a81548173ffffffffffffffffffffffffffffffffffffffff021916908373ffffffffffffffffffffffffffffffffffffffff160217905550600160066000898152602001908152602001600020600401600083815260200190815260200160002060030160146101000a81548160ff02191690831515021790555050505050505050565b60608061163183337f201105a52b842adfbcdcfcac0349cd25c8a3cb322954633dd585b0958aa204f360001b612c0c565b8061166e575061163f611c57565b73ffffffffffffffffffffffffffffffffffffffff163373ffffffffffffffffffffffffffffffffffffffff16145b6116ad576040517f08c379a00000000000000000000000000000000000000000000000000000000081526004016116a4906162de565b60405180910390fd5b6116c184600461345390919063ffffffff16565b611700576040517f08c379a00000000000000000000000000000000000000000000000000000000081526004016116f79061639e565b60405180910390fd5b6006600085815260200190815260200160002060010160066000868152602001908152602001600020600301818054600181600116156101000203166002900480601f0160208091040260200160405190810160405280929190818152602001828054600181600116156101000203166002900480156117c15780601f10611796576101008083540402835291602001916117c1565b820191906000526020600020905b8154815290600101906020018083116117a457829003601f168201915b50505050509150808054600181600116156101000203166002900480601f01602080910402602001604051908101604052809291908181526020018280546001816001161561010002031660029004801561185d5780601f106118325761010080835404028352916020019161185d565b820191906000526020600020905b81548152906001019060200180831161184057829003601f168201915b50505050509050915091509250929050565b606061189f82337f201105a52b842adfbcdcfcac0349cd25c8a3cb322954633dd585b0958aa204f360001b612c0c565b806118dc57506118ad611c57565b73ffffffffffffffffffffffffffffffffffffffff163373ffffffffffffffffffffffffffffffffffffffff16145b61191b576040517f08c379a0000000000000000000000000000000000000000000000000000000008152600401611912906162de565b60405180910390fd5b61192f83600761345390919063ffffffff16565b61193857600080fd5b600a60008481526020019081526020016000208054600181600116156101000203166002900480601f0160208091040260200160405190810160405280929190818152602001828054600181600116156101000203166002900480156119df5780601f106119b4576101008083540402835291602001916119df565b820191906000526020600020905b8154815290600101906020018083116119c257829003601f168201915b5050505050905092915050565b6060611a1c82337f201105a52b842adfbcdcfcac0349cd25c8a3cb322954633dd585b0958aa204f360001b612c0c565b80611a595750611a2a611c57565b73ffffffffffffffffffffffffffffffffffffffff163373ffffffffffffffffffffffffffffffffffffffff16145b611a98576040517f08c379a0000000000000000000000000000000000000000000000000000000008152600401611a8f906162de565b60405180910390fd5b60606000611aa66007613b34565b905060005b81811015611c4c5760096000611acb836007613ca290919063ffffffff16565b8152602001908152602001600020604051806040016040529081600082018054600181600116156101000203166002900480601f016020809104026020016040519081016040528092919081815260200182805460018160011615610100020316600290048015611b7d5780601f10611b5257610100808354040283529160200191611b7d565b820191906000526020600020905b815481529060010190602001808311611b6057829003601f168201915b50505050508152602001600182018054600181600116156101000203166002900480601f016020809104026020016040519081016040528092919081815260200182805460018160011615610100020316600290048015611c1f5780601f10611bf457610100808354040283529160200191611c1f565b820191906000526020600020905b815481529060010190602001808311611c0257829003601f168201915b505050505081525050838281518110611c3457fe5b60200260200101819052508080600101915050611aab565b508192505050919050565b60008060009054906101000a900473ffffffffffffffffffffffffffffffffffffffff16905090565b6000611c8b856128e9565b9050611cbb84337f5e08e74d3db9bd033737bf4f2fd87386eec32e8b6624f7ea49a55acda9aa159b60001b612c0c565b611cfa576040517f08c379a0000000000000000000000000000000000000000000000000000000008152600401611cf19061645e565b60405180910390fd5b611d0e81600761345390919063ffffffff16565b611d4d576040517f08c379a0000000000000000000000000000000000000000000000000000000008152600401611d449061649e565b60405180910390fd5b611d598482853061346a565b611d98576040517f08c379a0000000000000000000000000000000000000000000000000000000008152600401611d8f906161be565b60405180910390fd5b838051906020012060096000838152602001908152602001600020600101604051611dc39190615fd0565b604051809103902014611e0b576040517f08c379a0000000000000000000000000000000000000000000000000000000008152600401611e029061627e565b60405180910390fd5b611e1784828585613cb9565b611e2b816007613b4990919063ffffffff16565b506009600082815260200190815260200160002060008082016000611e509190614a6a565b600182016000611e609190614a6a565b5050600a60008281526020019081526020016000206000611e819190614ab2565b5050505050565b6000611e93856128e9565b9050611ec384337f5e08e74d3db9bd033737bf4f2fd87386eec32e8b6624f7ea49a55acda9aa159b60001b612c0c565b611f02576040517f08c379a0000000000000000000000000000000000000000000000000000000008152600401611ef9906161be565b60405180910390fd5b611f1681600761345390919063ffffffff16565b611f55576040517f08c379a0000000000000000000000000000000000000000000000000000000008152600401611f4c9061631e565b60405180910390fd5b611f618482843061346a565b611fa0576040517f08c379a0000000000000000000000000000000000000000000000000000000008152600401611f97906162be565b60405180910390fd5b82600a60008381526020019081526020016000209080519060200190611fc79291906148c0565b505050505050565b600060608061200285337f201105a52b842adfbcdcfcac0349cd25c8a3cb322954633dd585b0958aa204f360001b612c0c565b8061203f5750612010611c57565b73ffffffffffffffffffffffffffffffffffffffff163373ffffffffffffffffffffffffffffffffffffffff16145b61207e576040517f08c379a0000000000000000000000000000000000000000000000000000000008152600401612075906162de565b60405180910390fd5b6120886004613b34565b84106120c9576040517f08c379a00000000000000000000000000000000000000000000000000000000081526004016120c0906162fe565b60405180910390fd5b60006120df856004613ca290919063ffffffff16565b9050806006600083815260200190815260200160002060010160066000848152602001908152602001600020600301818054600181600116156101000203166002900480601f0160208091040260200160405190810160405280929190818152602001828054600181600116156101000203166002900480156121a35780601f10612178576101008083540402835291602001916121a3565b820191906000526020600020905b81548152906001019060200180831161218657829003601f168201915b50505050509150808054600181600116156101000203166002900480601f01602080910402602001604051908101604052809291908181526020018280546001816001161561010002031660029004801561223f5780601f106122145761010080835404028352916020019161223f565b820191906000526020600020905b81548152906001019060200180831161222257829003601f168201915b50505050509050935093509350509250925092565b61225c613ad4565b73ffffffffffffffffffffffffffffffffffffffff1661227a611c57565b73ffffffffffffffffffffffffffffffffffffffff1614612303576040517f08c379a00000000000000000000000000000000000000000000000000000000081526004018080602001828103825260208152602001807f4f776e61626c653a2063616c6c6572206973206e6f7420746865206f776e657281525060200191505060405180910390fd5b600073ffffffffffffffffffffffffffffffffffffffff168173ffffffffffffffffffffffffffffffffffffffff161415612389576040517f08c379a000000000000000000000000000000000000000000000000000000000815260040180806020018281038252602681526020018061687d6026913960400191505060405180910390fd5b8073ffffffffffffffffffffffffffffffffffffffff1660008054906101000a900473ffffffffffffffffffffffffffffffffffffffff1673ffffffffffffffffffffffffffffffffffffffff167f8be0079c531659141344cd1fd0a4f28419497f9722a3daafe3b4186f6b6457e060405160405180910390a3806000806101000a81548173ffffffffffffffffffffffffffffffffffffffff021916908373ffffffffffffffffffffffffffffffffffffffff16021790555050565b606061247682337f201105a52b842adfbcdcfcac0349cd25c8a3cb322954633dd585b0958aa204f360001b612c0c565b806124b35750612484611c57565b73ffffffffffffffffffffffffffffffffffffffff163373ffffffffffffffffffffffffffffffffffffffff16145b6124f2576040517f08c379a00000000000000000000000000000000000000000000000000000000081526004016124e9906162de565b60405180910390fd5b606060006006600086815260200190815260200160002060050154905060005b81811015612697576006600087815260200190815260200160002060040160008281526020019081526020016000206040518060a0016040529081600082018054600181600116156101000203166002900480601f0160208091040260200160405190810160405280929190818152602001828054600181600116156101000203166002900480156125e55780601f106125ba576101008083540402835291602001916125e5565b820191906000526020600020905b8154815290600101906020018083116125c857829003601f168201915b5050505050815260200160018201548152602001600282015481526020016003820160009054906101000a900473ffffffffffffffffffffffffffffffffffffffff1673ffffffffffffffffffffffffffffffffffffffff1673ffffffffffffffffffffffffffffffffffffffff1681526020016003820160149054906101000a900460ff16151515158152505083828151811061267f57fe5b60200260200101819052508080600101915050612512565b50819250505092915050565b6126d181337f9a7e9d723982bdbedb9fcad890bb0aac5fb256ffc07256673da57bdd92e3888b60001b612c0c565b612710576040517f08c379a00000000000000000000000000000000000000000000000000000000081526004016127079061641e565b60405180910390fd5b61272483600461345390919063ffffffff16565b612763576040517f08c379a000000000000000000000000000000000000000000000000000000000815260040161275a9061621e565b60405180910390fd5b3373ffffffffffffffffffffffffffffffffffffffff1660066000858152602001908152602001600020600401600084815260200190815260200160002060030160009054906101000a900473ffffffffffffffffffffffffffffffffffffffff1673ffffffffffffffffffffffffffffffffffffffff161461281b576040517f08c379a00000000000000000000000000000000000000000000000000000000081526004016128129061643e565b60405180910390fd5b600660008481526020019081526020016000206004016000838152602001908152602001600020600080820160006128539190614ab2565b600182016000905560028201600090556003820160006101000a81549073ffffffffffffffffffffffffffffffffffffffff02191690556003820160146101000a81549060ff021916905550506128ca600160066000868152602001908152602001600020600501546142bf90919063ffffffff16565b6006600085815260200190815260200160002060050181905550505050565b6000806000801b905060006128fd84612ad5565b9050600061293f6040518060400160405280600181526020017f2e00000000000000000000000000000000000000000000000000000000000000815250612ad5565b9050600060016129588385612b0390919063ffffffff16565b0167ffffffffffffffff8111801561296f57600080fd5b506040519080825280602002602001820160405280156129a357816020015b606081526020019060019003908161298e5790505b50905060005b81518110156129f1576129cd6129c88486612b7890919063ffffffff16565b612b92565b8282815181106129d957fe5b602002602001018190525080806001019150506129a9565b506000815190505b6000811115612ac85784826001830381518110612a1257fe5b60200260200101516040516020018082805190602001908083835b60208310612a505780518252602082019150602081019050602083039250612a2d565b6001836020036101000a0380198251168184511680821785525050505050509050019150506040516020818303038152906040528051906020012060405160200180838152602001828152602001925050506040516020818303038152906040528051906020012094508080600190039150506129f9565b5083945050505050919050565b612add614afa565b600060208301905060405180604001604052808451815260200182815250915050919050565b6000808260000151612b278560000151866020015186600001518760200151614342565b0190505b83600001518460200151018111612b715781806001019250508260000151612b69856020015183038660000151038386600001518760200151614342565b019050612b2b565b5092915050565b612b80614afa565b612b8b83838361441d565b5092915050565b60606000826000015167ffffffffffffffff81118015612bb157600080fd5b506040519080825280601f01601f191660200182016040528015612be45781602001600182028036833780820191505090505b5090506000602082019050612c0281856020015186600001516144bb565b8192505050919050565b600080600360009054906101000a900473ffffffffffffffffffffffffffffffffffffffff1690506000612c3f866128e9565b905060008273ffffffffffffffffffffffffffffffffffffffff16630178b8bf836040518263ffffffff1660e01b8152600401612c7c9190616098565b60206040518083038186803b158015612c9457600080fd5b505afa158015612ca8573d6000803e3d6000fd5b505050506040513d601f19601f82011682018060405250810190612ccc9190614da4565b9050600073ffffffffffffffffffffffffffffffffffffffff168173ffffffffffffffffffffffffffffffffffffffff16633b3b57de846040518263ffffffff1660e01b8152600401612d1f9190616098565b60206040518083038186803b158015612d3757600080fd5b505afa158015612d4b573d6000803e3d6000fd5b505050506040513d601f19601f82011682018060405250810190612d6f9190614da4565b73ffffffffffffffffffffffffffffffffffffffff1614158015612e1f57508073ffffffffffffffffffffffffffffffffffffffff166301ffc9a763136ff12d60e01b6040518263ffffffff1660e01b8152600401612dce919061614a565b60206040518083038186803b158015612de657600080fd5b505afa158015612dfa573d6000803e3d6000fd5b505050506040513d601f19601f82011682018060405250810190612e1e9190614dcd565b5b612e5e576040517f08c379a0000000000000000000000000000000000000000000000000000000008152600401612e559061647e565b60405180910390fd5b60008173ffffffffffffffffffffffffffffffffffffffff16633b3b57de846040518263ffffffff1660e01b8152600401612e999190616098565b60206040518083038186803b158015612eb157600080fd5b505afa158015612ec5573d6000803e3d6000fd5b505050506040513d601f19601f82011682018060405250810190612ee99190614da4565b90507f5e08e74d3db9bd033737bf4f2fd87386eec32e8b6624f7ea49a55acda9aa159b60001b861480612f3e57507f9a7e9d723982bdbedb9fcad890bb0aac5fb256ffc07256673da57bdd92e3888b60001b86145b15613010578173ffffffffffffffffffffffffffffffffffffffff16630ca075d984886040518363ffffffff1660e01b8152600401612f7e9291906160dc565b602060405180830381600087803b158015612f9857600080fd5b505af1158015612fac573d6000803e3d6000fd5b505050506040513d601f19601f82011682018060405250810190612fd09190614dcd565b61300f576040517f08c379a00000000000000000000000000000000000000000000000000000000081526004016130069061629e565b60405180910390fd5b5b600081905060006130ab8273ffffffffffffffffffffffffffffffffffffffff1663154c0d786040518163ffffffff1660e01b81526004016130519061637e565b60006040518083038186803b15801561306957600080fd5b505afa15801561307d573d6000803e3d6000fd5b505050506040513d6000823e3d601f19601f820116820180604052508101906130a6919061509c565b6128e9565b90508173ffffffffffffffffffffffffffffffffffffffff16630178b8bf826040518263ffffffff1660e01b81526004016130e69190616098565b60206040518083038186803b1580156130fe57600080fd5b505afa158015613112573d6000803e3d6000fd5b505050506040513d601f19601f820116820180604052508101906131369190614da4565b9350600073ffffffffffffffffffffffffffffffffffffffff168473ffffffffffffffffffffffffffffffffffffffff16633b3b57de836040518263ffffffff1660e01b81526004016131899190616098565b60206040518083038186803b1580156131a157600080fd5b505afa1580156131b5573d6000803e3d6000fd5b505050506040513d601f19601f820116820180604052508101906131d99190614da4565b73ffffffffffffffffffffffffffffffffffffffff161415801561328957508373ffffffffffffffffffffffffffffffffffffffff166301ffc9a7633b3b57de60e01b6040518263ffffffff1660e01b8152600401613238919061614a565b60206040518083038186803b15801561325057600080fd5b505afa158015613264573d6000803e3d6000fd5b505050506040513d601f19601f820116820180604052508101906132889190614dcd565b5b6132c8576040517f08c379a00000000000000000000000000000000000000000000000000000000081526004016132bf906163be565b60405180910390fd5b60008473ffffffffffffffffffffffffffffffffffffffff16633b3b57de836040518263ffffffff1660e01b81526004016133039190616098565b60206040518083038186803b15801561331b57600080fd5b505afa15801561332f573d6000803e3d6000fd5b505050506040513d601f19601f820116820180604052508101906133539190614da4565b905080600c60006101000a81548173ffffffffffffffffffffffffffffffffffffffff021916908373ffffffffffffffffffffffffffffffffffffffff160217905550600c60009054906101000a900473ffffffffffffffffffffffffffffffffffffffff1673ffffffffffffffffffffffffffffffffffffffff166391d148548a8c6040518363ffffffff1660e01b81526004016133f39291906160b3565b60206040518083038186803b15801561340b57600080fd5b505afa15801561341f573d6000803e3d6000fd5b505050506040513d601f19601f820116820180604052508101906134439190614dcd565b9750505050505050509392505050565b60006134628360000183614504565b905092915050565b600080613476866128e9565b90506000600360009054906101000a900473ffffffffffffffffffffffffffffffffffffffff16905060008173ffffffffffffffffffffffffffffffffffffffff16630178b8bf846040518263ffffffff1660e01b81526004016134da9190616098565b60206040518083038186803b1580156134f257600080fd5b505afa158015613506573d6000803e3d6000fd5b505050506040513d601f19601f8201168201806040525081019061352a9190614da4565b9050600073ffffffffffffffffffffffffffffffffffffffff168173ffffffffffffffffffffffffffffffffffffffff16633b3b57de856040518263ffffffff1660e01b815260040161357d9190616098565b60206040518083038186803b15801561359557600080fd5b505afa1580156135a9573d6000803e3d6000fd5b505050506040513d601f19601f820116820180604052508101906135cd9190614da4565b73ffffffffffffffffffffffffffffffffffffffff161415801561367d57508073ffffffffffffffffffffffffffffffffffffffff166301ffc9a763136ff12d60e01b6040518263ffffffff1660e01b815260040161362c919061614a565b60206040518083038186803b15801561364457600080fd5b505afa158015613658573d6000803e3d6000fd5b505050506040513d601f19601f8201168201806040525081019061367c9190614dcd565b5b6136bc576040517f08c379a00000000000000000000000000000000000000000000000000000000081526004016136b39061647e565b60405180910390fd5b60008173ffffffffffffffffffffffffffffffffffffffff16633b3b57de856040518263ffffffff1660e01b81526004016136f79190616098565b60206040518083038186803b15801561370f57600080fd5b505afa158015613723573d6000803e3d6000fd5b505050506040513d601f19601f820116820180604052508101906137479190614da4565b905060008190508073ffffffffffffffffffffffffffffffffffffffff16630178b8bf8a6040518263ffffffff1660e01b81526004016137879190616098565b60206040518083038186803b15801561379f57600080fd5b505afa1580156137b3573d6000803e3d6000fd5b505050506040513d601f19601f820116820180604052508101906137d79190614da4565b9250600073ffffffffffffffffffffffffffffffffffffffff168373ffffffffffffffffffffffffffffffffffffffff16633b3b57de8b6040518263ffffffff1660e01b815260040161382a9190616098565b60206040518083038186803b15801561384257600080fd5b505afa158015613856573d6000803e3d6000fd5b505050506040513d601f19601f8201168201806040525081019061387a9190614da4565b73ffffffffffffffffffffffffffffffffffffffff161415801561392a57508273ffffffffffffffffffffffffffffffffffffffff166301ffc9a7633b3b57de60e01b6040518263ffffffff1660e01b81526004016138d9919061614a565b60206040518083038186803b1580156138f157600080fd5b505afa158015613905573d6000803e3d6000fd5b505050506040513d601f19601f820116820180604052508101906139299190614dcd565b5b613969576040517f08c379a0000000000000000000000000000000000000000000000000000000008152600401613960906163be565b60405180910390fd5b60008373ffffffffffffffffffffffffffffffffffffffff16633b3b57de8b6040518263ffffffff1660e01b81526004016139a49190616098565b60206040518083038186803b1580156139bc57600080fd5b505afa1580156139d0573d6000803e3d6000fd5b505050506040513d601f19601f820116820180604052508101906139f49190614da4565b90508773ffffffffffffffffffffffffffffffffffffffff168173ffffffffffffffffffffffffffffffffffffffff16636352211e8b6040518263ffffffff1660e01b8152600401613a4691906164de565b60206040518083038186803b158015613a5e57600080fd5b505afa158015613a72573d6000803e3d6000fd5b505050506040513d601f19601f82011682018060405250810190613a969190614da4565b73ffffffffffffffffffffffffffffffffffffffff16149650505050505050949350505050565b6000613acc8360000183614527565b905092915050565b600033905090565b60008160405160200180807f19457468657265756d205369676e6564204d6573736167653a0a333200000000815250601c01828152602001915050604051602081830303815290604052805190602001209050919050565b6000613b4282600001614597565b9050919050565b6000613b5883600001836145a8565b905092915050565b6000806006600085815260200190815260200160002090506000613bca613b85611c57565b8684600101856003018660020154876005015430604051602001613baf9796959493929190615f57565b60405160208183030381529060405280519060200120613adc565b9050613bd581613adc565b90508573ffffffffffffffffffffffffffffffffffffffff16613bf88286614690565b73ffffffffffffffffffffffffffffffffffffffff1614925050509392505050565b600080828401905083811015613c98576040517f08c379a000000000000000000000000000000000000000000000000000000000815260040180806020018281038252601b8152602001807f536166654d6174683a206164646974696f6e206f766572666c6f77000000000081525060200191505060405180910390fd5b8091505092915050565b6000613cb18360000183614714565b905092915050565b6000613cc4856128e9565b90506000600360009054906101000a900473ffffffffffffffffffffffffffffffffffffffff16905060008173ffffffffffffffffffffffffffffffffffffffff16630178b8bf846040518263ffffffff1660e01b8152600401613d289190616098565b60206040518083038186803b158015613d4057600080fd5b505afa158015613d54573d6000803e3d6000fd5b505050506040513d601f19601f82011682018060405250810190613d789190614da4565b9050600073ffffffffffffffffffffffffffffffffffffffff168173ffffffffffffffffffffffffffffffffffffffff16633b3b57de856040518263ffffffff1660e01b8152600401613dcb9190616098565b60206040518083038186803b158015613de357600080fd5b505afa158015613df7573d6000803e3d6000fd5b505050506040513d601f19601f82011682018060405250810190613e1b9190614da4565b73ffffffffffffffffffffffffffffffffffffffff1614158015613ecb57508073ffffffffffffffffffffffffffffffffffffffff166301ffc9a763136ff12d60e01b6040518263ffffffff1660e01b8152600401613e7a919061614a565b60206040518083038186803b158015613e9257600080fd5b505afa158015613ea6573d6000803e3d6000fd5b505050506040513d601f19601f82011682018060405250810190613eca9190614dcd565b5b613f0a576040517f08c379a0000000000000000000000000000000000000000000000000000000008152600401613f019061647e565b60405180910390fd5b60008173ffffffffffffffffffffffffffffffffffffffff16633b3b57de856040518263ffffffff1660e01b8152600401613f459190616098565b60206040518083038186803b158015613f5d57600080fd5b505afa158015613f71573d6000803e3d6000fd5b505050506040513d601f19601f82011682018060405250810190613f959190614da4565b905060008190508073ffffffffffffffffffffffffffffffffffffffff16630178b8bf896040518263ffffffff1660e01b8152600401613fd59190616098565b60206040518083038186803b158015613fed57600080fd5b505afa158015614001573d6000803e3d6000fd5b505050506040513d601f19601f820116820180604052508101906140259190614da4565b9250600073ffffffffffffffffffffffffffffffffffffffff168373ffffffffffffffffffffffffffffffffffffffff16633b3b57de8a6040518263ffffffff1660e01b81526004016140789190616098565b60206040518083038186803b15801561409057600080fd5b505afa1580156140a4573d6000803e3d6000fd5b505050506040513d601f19601f820116820180604052508101906140c89190614da4565b73ffffffffffffffffffffffffffffffffffffffff161415801561417857508273ffffffffffffffffffffffffffffffffffffffff166301ffc9a7633b3b57de60e01b6040518263ffffffff1660e01b8152600401614127919061614a565b60206040518083038186803b15801561413f57600080fd5b505afa158015614153573d6000803e3d6000fd5b505050506040513d601f19601f820116820180604052508101906141779190614dcd565b5b6141b7576040517f08c379a00000000000000000000000000000000000000000000000000000000081526004016141ae906163be565b60405180910390fd5b60008373ffffffffffffffffffffffffffffffffffffffff16633b3b57de8a6040518263ffffffff1660e01b81526004016141f29190616098565b60206040518083038186803b15801561420a57600080fd5b505afa15801561421e573d6000803e3d6000fd5b505050506040513d601f19601f820116820180604052508101906142429190614da4565b90508073ffffffffffffffffffffffffffffffffffffffff166342842e0e30898b6040518463ffffffff1660e01b815260040161428193929190616002565b600060405180830381600087803b15801561429b57600080fd5b505af11580156142af573d6000803e3d6000fd5b5050505050505050505050505050565b600082821115614337576040517f08c379a000000000000000000000000000000000000000000000000000000000815260040180806020018281038252601e8152602001807f536166654d6174683a207375627472616374696f6e206f766572666c6f77000081525060200191505060405180910390fd5b818303905092915050565b600080849050600086851161440d57602085116143c757600060018660200360080260020a031960001b905060008186511690506000878a8a0103905060008386511690505b8281146143b9578186106143a6578a8a019650505050505050614415565b8580600101965050838651169050614388565b859650505050505050614415565b60008585209050600091505b858803821161440b5760008684209050808214156143f75783945050505050614415565b6001840193505081806001019250506143d3565b505b868601925050505b949350505050565b614425614afa565b60006144438560000151866020015186600001518760200151614342565b905084602001518360200181815250508460200151810383600001818152505084600001518560200151018114156144855760008560000181815250506144b0565b8360000151836000015101856000018181510391508181525050836000015181018560200181815250505b829150509392505050565b5b602081106144df57815183526020830192506020820191506020810390506144bc565b60006001826020036101000a0390508019835116818551168181178652505050505050565b600080836001016000848152602001908152602001600020541415905092915050565b60006145338383614504565b61458c578260000182908060018154018082558091505060019003906000526020600020016000909190919091505582600001805490508360010160008481526020019081526020016000208190555060019050614591565b600090505b92915050565b600081600001805490509050919050565b6000808360010160008481526020019081526020016000205490506000811461468457600060018203905060006001866000018054905003905060008660000182815481106145f357fe5b906000526020600020015490508087600001848154811061461057fe5b906000526020600020018190555060018301876001016000838152602001908152602001600020819055508660000180548061464857fe5b6001900381819060005260206000200160009055905586600101600087815260200190815260200160002060009055600194505050505061468a565b60009150505b92915050565b60008060008061469f85614797565b92509250925060018682858560405160008152602001604052604051808581526020018460ff1681526020018381526020018281526020019450505050506020604051602081039080840390855afa1580156146ff573d6000803e3d6000fd5b50505060206040510351935050505092915050565b600081836000018054905011614775576040517f08c379a000000000000000000000000000000000000000000000000000000000815260040180806020018281038252602281526020018061685b6022913960400191505060405180910390fd5b82600001828154811061478457fe5b9060005260206000200154905092915050565b60008060006041845114614813576040517f08c379a00000000000000000000000000000000000000000000000000000000081526004018080602001828103825260188152602001807f696e76616c6964207369676e6174757265206c656e677468000000000000000081525060200191505060405180910390fd5b6020840151925060408401519150606084015160001a90509193909250565b828054600181600116156101000203166002900490600052602060002090601f01602090048101928261486857600085556148af565b82601f1061488157805160ff19168380011785556148af565b828001600101855582156148af579182015b828111156148ae578251825591602001919060010190614893565b5b5090506148bc9190614b14565b5090565b828054600181600116156101000203166002900490600052602060002090601f0160209004810192826148f6576000855561493d565b82601f1061490f57805160ff191683800117855561493d565b8280016001018555821561493d579182015b8281111561493c578251825591602001919060010190614921565b5b50905061494a9190614b14565b5090565b828054600181600116156101000203166002900490600052602060002090601f01602090048101928261498457600085556149cb565b82601f1061499d57803560ff19168380011785556149cb565b828001600101855582156149cb579182015b828111156149ca5782358255916020019190600101906149af565b5b5090506149d89190614b14565b5090565b828054600181600116156101000203166002900490600052602060002090601f016020900481019282614a125760008555614a59565b82601f10614a2b57803560ff1916838001178555614a59565b82800160010185558215614a59579182015b82811115614a58578235825591602001919060010190614a3d565b5b509050614a669190614b14565b5090565b50805460018160011615610100020316600290046000825580601f10614a905750614aaf565b601f016020900490600052602060002090810190614aae9190614b14565b5b50565b50805460018160011615610100020316600290046000825580601f10614ad85750614af7565b601f016020900490600052602060002090810190614af69190614b14565b5b50565b604051806040016040528060008152602001600081525090565b5b80821115614b2d576000816000905550600101614b15565b5090565b6000614b44614b3f8461652a565b6164f9565b905082815260208101848484011115614b5c57600080fd5b614b6784828561673b565b509392505050565b6000614b82614b7d8461655a565b6164f9565b905082815260208101848484011115614b9a57600080fd5b614ba584828561673b565b509392505050565b6000614bc0614bbb8461655a565b6164f9565b905082815260208101848484011115614bd857600080fd5b614be384828561674a565b509392505050565b600081359050614bfa816167e7565b92915050565b600081519050614c0f816167e7565b92915050565b600081519050614c24816167fe565b92915050565b600081359050614c3981616815565b92915050565b600081359050614c4e8161682c565b92915050565b60008083601f840112614c6657600080fd5b8235905067ffffffffffffffff811115614c7f57600080fd5b602083019150836001820283011115614c9757600080fd5b9250929050565b600082601f830112614caf57600080fd5b8135614cbf848260208601614b31565b91505092915050565b60008083601f840112614cda57600080fd5b8235905067ffffffffffffffff811115614cf357600080fd5b602083019150836001820283011115614d0b57600080fd5b9250929050565b600082601f830112614d2357600080fd5b8135614d33848260208601614b6f565b91505092915050565b600082601f830112614d4d57600080fd5b8151614d5d848260208601614bad565b91505092915050565b600081359050614d7581616843565b92915050565b600060208284031215614d8d57600080fd5b6000614d9b84828501614beb565b91505092915050565b600060208284031215614db657600080fd5b6000614dc484828501614c00565b91505092915050565b600060208284031215614ddf57600080fd5b6000614ded84828501614c15565b91505092915050565b60008060008060008060808789031215614e0f57600080fd5b6000614e1d89828a01614c2a565b965050602087013567ffffffffffffffff811115614e3a57600080fd5b614e4689828a01614c54565b95509550506040614e5989828a01614d66565b935050606087013567ffffffffffffffff811115614e7657600080fd5b614e8289828a01614cc8565b92509250509295509295509295565b60008060408385031215614ea457600080fd5b6000614eb285828601614c2a565b925050602083013567ffffffffffffffff811115614ecf57600080fd5b614edb85828601614d12565b9150509250929050565b60008060408385031215614ef857600080fd5b6000614f0685828601614c2a565b9250506020614f1785828601614d66565b9150509250929050565b600080600060608486031215614f3657600080fd5b6000614f4486828701614c2a565b9350506020614f5586828701614d66565b925050604084013567ffffffffffffffff811115614f7257600080fd5b614f7e86828701614d12565b9150509250925092565b60008060008060008060a08789031215614fa157600080fd5b6000614faf89828a01614c2a565b9650506020614fc089828a01614d66565b9550506040614fd189828a01614d66565b945050606087013567ffffffffffffffff811115614fee57600080fd5b614ffa89828a01614d12565b935050608087013567ffffffffffffffff81111561501757600080fd5b61502389828a01614c54565b92509250509295509295509295565b60006020828403121561504457600080fd5b600061505284828501614c3f565b91505092915050565b60006020828403121561506d57600080fd5b600082013567ffffffffffffffff81111561508757600080fd5b61509384828501614d12565b91505092915050565b6000602082840312156150ae57600080fd5b600082015167ffffffffffffffff8111156150c857600080fd5b6150d484828501614d3c565b91505092915050565b600080600080600080608087890312156150f657600080fd5b600087013567ffffffffffffffff81111561511057600080fd5b61511c89828a01614d12565b965050602087013567ffffffffffffffff81111561513957600080fd5b61514589828a01614c54565b9550955050604061515889828a01614d66565b935050606087013567ffffffffffffffff81111561517557600080fd5b61518189828a01614cc8565b92509250509295509295509295565b600080600080608085870312156151a657600080fd5b600085013567ffffffffffffffff8111156151c057600080fd5b6151cc87828801614d12565b945050602085013567ffffffffffffffff8111156151e957600080fd5b6151f587828801614d12565b935050604085013567ffffffffffffffff81111561521257600080fd5b61521e87828801614c9e565b925050606061522f87828801614d66565b91505092959194509250565b6000806000806080858703121561525157600080fd5b600085013567ffffffffffffffff81111561526b57600080fd5b61527787828801614d12565b945050602085013567ffffffffffffffff81111561529457600080fd5b6152a087828801614d12565b93505060406152b187828801614d66565b92505060606152c287828801614beb565b91505092959194509250565b600080604083850312156152e157600080fd5b600083013567ffffffffffffffff8111156152fb57600080fd5b61530785828601614d12565b925050602061531885828601614d66565b9150509250929050565b600061532e8383615deb565b905092915050565b60006153428383615e61565b905092915050565b61535b615356826166bd565b61678f565b82525050565b61536a816166ab565b82525050565b615379816166ab565b82525050565b61539061538b826166ab565b61677d565b82525050565b60006153a1826165e9565b6153ab818561662f565b9350836020820285016153bd8561658a565b8060005b858110156153f957848403895281516153da8582615322565b94506153e583616615565b925060208a019950506001810190506153c1565b50829750879550505050505092915050565b6000615416826165f4565b6154208185616640565b9350836020820285016154328561659a565b8060005b8581101561546e578484038952815161544f8582615336565b945061545a83616622565b925060208a01995050600181019050615436565b50829750879550505050505092915050565b615489816166cf565b82525050565b615498816166cf565b82525050565b6154a7816166db565b82525050565b6154be6154b9826166db565b6167a1565b82525050565b6154cd816166e5565b82525050565b60006154df8385616673565b93506154ec83858461673b565b82840190509392505050565b6000615503826165ff565b61550d8185616651565b935061551d81856020860161674a565b615526816167c9565b840191505092915050565b600061553c826165ff565b6155468185616662565b935061555681856020860161674a565b61555f816167c9565b840191505092915050565b60008154600181166000811461558757600181146155ac576155f0565b607f60028304166155988187616673565b955060ff19831686528086019350506155f0565b600282046155ba8187616673565b95506155c5856165bf565b60005b828110156155e7578154818901526001820191506020810190506155c8565b82880195505050505b505092915050565b600081546001811660008114615615576001811461563a5761567e565b607f60028304166156268187616673565b955060ff198316865280860193505061567e565b600282046156488187616673565b9550615653856165aa565b60005b8281101561567557815481890152600182019150602081019050615656565b82880195505050505b505092915050565b600061569283856166a0565b935061569f83858461673b565b82840190509392505050565b60006156b68261660a565b6156c0818561667e565b93506156d081856020860161674a565b6156d9816167c9565b840191505092915050565b60006156ef8261660a565b6156f9818561668f565b935061570981856020860161674a565b615712816167c9565b840191505092915050565b60008154600181166000811461573a576001811461575f576157a3565b607f600283041661574b81876166a0565b955060ff19831686528086019350506157a3565b6002820461576d81876166a0565b9550615778856165d4565b60005b8281101561579a5781548189015260018201915060208101905061577b565b82880195505050505b505092915050565b60006157b860048361668f565b91507f574c3139000000000000000000000000000000000000000000000000000000006000830152602082019050919050565b60006157f860048361668f565b91507f574c3234000000000000000000000000000000000000000000000000000000006000830152602082019050919050565b600061583860048361668f565b91507f574c3033000000000000000000000000000000000000000000000000000000006000830152602082019050919050565b600061587860048361668f565b91507f574c3132000000000000000000000000000000000000000000000000000000006000830152602082019050919050565b60006158b860048361668f565b91507f574c3136000000000000000000000000000000000000000000000000000000006000830152602082019050919050565b60006158f860048361668f565b91507f574c3130000000000000000000000000000000000000000000000000000000006000830152602082019050919050565b600061593860048361668f565b91507f574c3330000000000000000000000000000000000000000000000000000000006000830152602082019050919050565b600061597860048361668f565b91507f574c3038000000000000000000000000000000000000000000000000000000006000830152602082019050919050565b60006159b860048361668f565b91507f574c3231000000000000000000000000000000000000000000000000000000006000830152602082019050919050565b60006159f860048361668f565b91507f574c3235000000000000000000000000000000000000000000000000000000006000830152602082019050919050565b6000615a3860048361668f565b91507f574c3237000000000000000000000000000000000000000000000000000000006000830152602082019050919050565b6000615a7860048361668f565b91507f574c3230000000000000000000000000000000000000000000000000000000006000830152602082019050919050565b6000615ab860048361668f565b91507f574c3135000000000000000000000000000000000000000000000000000000006000830152602082019050919050565b6000615af860048361668f565b91507f574c3233000000000000000000000000000000000000000000000000000000006000830152602082019050919050565b6000615b3860068361668f565b91507f61636365737300000000000000000000000000000000000000000000000000006000830152602082019050919050565b6000615b7860048361668f565b91507f574c3236000000000000000000000000000000000000000000000000000000006000830152602082019050919050565b6000615bb860048361668f565b91507f574c3039000000000000000000000000000000000000000000000000000000006000830152602082019050919050565b6000615bf860048361668f565b91507f574c3034000000000000000000000000000000000000000000000000000000006000830152602082019050919050565b6000615c3860048361668f565b91507f574c3036000000000000000000000000000000000000000000000000000000006000830152602082019050919050565b6000615c7860048361668f565b91507f574c3131000000000000000000000000000000000000000000000000000000006000830152602082019050919050565b6000615cb860048361668f565b91507f574c3133000000000000000000000000000000000000000000000000000000006000830152602082019050919050565b6000615cf860048361668f565b91507f574c3137000000000000000000000000000000000000000000000000000000006000830152602082019050919050565b6000615d3860048361668f565b91507f574c3037000000000000000000000000000000000000000000000000000000006000830152602082019050919050565b6000615d7860048361668f565b91507f574c3138000000000000000000000000000000000000000000000000000000006000830152602082019050919050565b6000615db860048361668f565b91507f574c3134000000000000000000000000000000000000000000000000000000006000830152602082019050919050565b600060a0830160008301518482036000860152615e0882826154f8565b9150506020830151615e1d6020860182615ea5565b506040830151615e306040860182615ea5565b506060830151615e436060860182615361565b506080830151615e566080860182615480565b508091505092915050565b60006040830160008301518482036000860152615e7e82826156ab565b91505060208301518482036020860152615e9882826156ab565b9150508091505092915050565b615eae81616731565b82525050565b615ebd81616731565b82525050565b615ed4615ecf82616731565b6167bd565b82525050565b6000615ee6828c61534a565b601482019150615ef6828b6154ad565b602082019150615f0782898b6154d3565b9150615f14828789615686565b9150615f208286615ec3565b602082019150615f308285615ec3565b602082019150615f40828461537f565b6014820191508190509a9950505050505050505050565b6000615f63828a61537f565b601482019150615f7382896154ad565b602082019150615f8382886155f8565b9150615f8f828761571d565b9150615f9b8286615ec3565b602082019150615fab8285615ec3565b602082019150615fbb828461537f565b60148201915081905098975050505050505050565b6000615fdc828461556a565b915081905092915050565b6000602082019050615ffc6000830184615370565b92915050565b60006060820190506160176000830186615370565b6160246020830185615370565b6160316040830184615eb4565b949350505050565b600060208201905081810360008301526160538184615396565b905092915050565b60006020820190508181036000830152616075818461540b565b905092915050565b6000602082019050616092600083018461548f565b92915050565b60006020820190506160ad600083018461549e565b92915050565b60006040820190506160c8600083018561549e565b6160d56020830184615370565b9392505050565b60006040820190506160f1600083018561549e565b6160fe602083018461549e565b9392505050565b600060608201905061611a600083018661549e565b818103602083015261612c8185615531565b9050818103604083015261614081846156e4565b9050949350505050565b600060208201905061615f60008301846154c4565b92915050565b6000602082019050818103600083015261617f8184615531565b905092915050565b600060408201905081810360008301526161a18185615531565b905081810360208301526161b581846156e4565b90509392505050565b600060208201905081810360008301526161d7816157ab565b9050919050565b600060208201905081810360008301526161f7816157eb565b9050919050565b600060208201905081810360008301526162178161582b565b9050919050565b600060208201905081810360008301526162378161586b565b9050919050565b60006020820190508181036000830152616257816158ab565b9050919050565b60006020820190508181036000830152616277816158eb565b9050919050565b600060208201905081810360008301526162978161592b565b9050919050565b600060208201905081810360008301526162b78161596b565b9050919050565b600060208201905081810360008301526162d7816159ab565b9050919050565b600060208201905081810360008301526162f7816159eb565b9050919050565b6000602082019050818103600083015261631781615a2b565b9050919050565b6000602082019050818103600083015261633781615a6b565b9050919050565b6000602082019050818103600083015261635781615aab565b9050919050565b6000602082019050818103600083015261637781615aeb565b9050919050565b6000602082019050818103600083015261639781615b2b565b9050919050565b600060208201905081810360008301526163b781615b6b565b9050919050565b600060208201905081810360008301526163d781615bab565b9050919050565b600060208201905081810360008301526163f781615beb565b9050919050565b6000602082019050818103600083015261641781615c2b565b9050919050565b6000602082019050818103600083015261643781615c6b565b9050919050565b6000602082019050818103600083015261645781615cab565b9050919050565b6000602082019050818103600083015261647781615ceb565b9050919050565b6000602082019050818103600083015261649781615d2b565b9050919050565b600060208201905081810360008301526164b781615d6b565b9050919050565b600060208201905081810360008301526164d781615dab565b9050919050565b60006020820190506164f36000830184615eb4565b92915050565b6000604051905081810181811067ffffffffffffffff821117156165205761651f6167c7565b5b8060405250919050565b600067ffffffffffffffff821115616545576165446167c7565b5b601f19601f8301169050602081019050919050565b600067ffffffffffffffff821115616575576165746167c7565b5b601f19601f8301169050602081019050919050565b6000819050602082019050919050565b6000819050602082019050919050565b60008190508160005260206000209050919050565b60008190508160005260206000209050919050565b60008190508160005260206000209050919050565b600081519050919050565b600081519050919050565b600081519050919050565b600081519050919050565b6000602082019050919050565b6000602082019050919050565b600082825260208201905092915050565b600082825260208201905092915050565b600082825260208201905092915050565b600082825260208201905092915050565b600081905092915050565b600082825260208201905092915050565b600082825260208201905092915050565b600081905092915050565b60006166b682616711565b9050919050565b60006166c882616711565b9050919050565b60008115159050919050565b6000819050919050565b60007fffffffff0000000000000000000000000000000000000000000000000000000082169050919050565b600073ffffffffffffffffffffffffffffffffffffffff82169050919050565b6000819050919050565b82818337600083830152505050565b60005b8381101561676857808201518184015260208101905061674d565b83811115616777576000848401525b50505050565b6000616788826167ab565b9050919050565b600061679a826167ab565b9050919050565b6000819050919050565b60006167b6826167da565b9050919050565b6000819050919050565bfe5b6000601f19601f8301169050919050565b60008160601b9050919050565b6167f0816166ab565b81146167fb57600080fd5b50565b616807816166cf565b811461681257600080fd5b50565b61681e816166db565b811461682957600080fd5b50565b616835816166e5565b811461684057600080fd5b50565b61684c81616731565b811461685757600080fd5b5056fe456e756d657261626c655365743a20696e646578206f7574206f6620626f756e64734f776e61626c653a206e6577206f776e657220697320746865207a65726f2061646472657373a2646970667358221220ecebb816d50a202763d65d45de6106bfaefc11710bee0b9473fbf14f4dbbb8c064736f6c63430007060033",
  "immutableReferences": {},
  "source": "pragma solidity >=0.7.0;\n// SPDX-License-Identifier: GPL-3.0-or-later\npragma abicoder v2;\n\nimport \"./WorkerProfileDS.sol\";\nimport \"../../Utils/ENS.sol\";\nimport \"../../Utils/Resolver.sol\";\nimport \"../../Utils/Roles.sol\";\nimport \"../../Utils/Library.sol\";\nimport \"@openzeppelin/contracts/token/ERC721/ERC721.sol\";\n\ncontract WorkerProfileLogic is WorkerProfileDS,Roles {\n    \n    \n    using Address for address;\n    using SafeMath for uint256;\n    using EnumerableSet for EnumerableSet.Bytes32Set;\n\n    \n    \n    constructor(address _ensAddress) {\n        ENS ens = ENS(_ensAddress);\n        bytes32 orgAccessENS = Utility._computeNamehash(ens.getPredefineENSPrefix(\"access\"));\n        Resolver res = Resolver(ens.resolver(orgAccessENS));\n        require(res.addr(orgAccessENS)!=address(0) && res.supportsInterface(Utility.ADDR_INTERFACE_ID),\"WL28\");\n        address orgAccessAdr = res.addr(orgAccessENS);\n        access = PermissionControl(orgAccessAdr);\n        require(access.hasRole(ADMIN,msg.sender),\"WL29\");\n    }\n    \n    \n    \n    function addAttribute(string memory _name, bytes calldata _value, uint256 _datetime, string calldata _datatype) public onlyOwner \n    returns (bytes32)\n    {\n        ENS ens = ENS(publicENSRegistar);\n        bytes32 _key = keccak256(bytes(_name));\n        bytes32 hash = Utility._computeNamehash(attributeListENS);\n        Resolver res = Resolver(ens.resolver(hash));\n        AttributeList ab = AttributeList(res.addr(hash));\n        require(ab.exists(_key),\"WL03\");\n        require(attributeList.contains(_key)==false,\"WL04\");\n        attributeList.add(_key);\n        Attributes[_key].name=_name;\n        Attributes[_key].value=_value;\n        Attributes[_key].createDate = _datetime;\n        Attributes[_key].datatype = _datatype;\n        hash = Utility._prefixed(keccak256(abi.encodePacked(msg.sender,_key,_value,_datatype,_datetime,uint256(0),address(this))));\n        return hash;\n    }\n    \n    function upateAttribute(bytes32 _key, bytes calldata _value, uint256 _datetime, string calldata _datatype) public onlyOwner \n    returns (bytes32)\n    {\n        ENS ens = ENS(publicENSRegistar);\n        bytes32 hash = Utility._computeNamehash(attributeListENS);\n        Resolver res = Resolver(ens.resolver(hash));\n        AttributeList ab = AttributeList(res.addr(hash));\n        require(ab.exists(_key),\"WL23\");\n        require(attributeList.contains(_key),\"WL24\");\n        uint256 ecount = Attributes[_key].endorsementcount;\n        for(uint256 i=0;i<ecount;i++){\n            Attributes[_key].endorsements[i].active = false;\n        }\n        Attributes[_key].value=_value;\n        Attributes[_key].createDate = _datetime;\n        Attributes[_key].datatype = _datatype;\n        hash = Utility._prefixed(keccak256(abi.encodePacked(msg.sender,_key,_value,_datatype,_datetime,ecount,address(this))));\n        return hash;\n    }\n    \n    function removeAttribute(bytes32 _key,uint256 _datetime) public onlyOwner {\n        require(attributeList.contains(_key),\"WL06\");\n        delete Attributes[_key];\n        attributeList.remove(_key);\n    }\n    \n    function endorseAttribute(bytes32 _key,uint256 _datetime,uint256 _expiryDate,string memory _org,bytes calldata _signature) public {\n        require(_orgRoleCheck(_org,msg.sender,ENDORSE),\"WL09\");\n        require(_verifyAttributeSignature(msg.sender,_key,_signature),\"WL10\");\n        require(attributeList.contains(_key),\"WL25\");\n        uint256 ecount = Attributes[_key].endorsementcount;\n        Attributes[_key].endorsementcount=Attributes[_key].endorsementcount.add(1);\n        Attributes[_key].endorsements[ecount].signature = _signature;\n        Attributes[_key].endorsements[ecount].endorseDate = _datetime;\n        Attributes[_key].endorsements[ecount].endorseExpiryDate = _expiryDate;\n        Attributes[_key].endorsements[ecount].endorser = msg.sender;\n        Attributes[_key].endorsements[ecount].active = true;\n    }\n    \n\n    function removeEndorsement(bytes32 _key,uint256 _endorseNumber,string memory _org) public {\n        require(_orgRoleCheck(_org,msg.sender,ENDORSE),\"WL11\");\n        require(attributeList.contains(_key),\"WL12\");\n        require(Attributes[_key].endorsements[_endorseNumber].endorser==msg.sender,\"WL13\");\n        delete Attributes[_key].endorsements[_endorseNumber];\n        Attributes[_key].endorsementcount=Attributes[_key].endorsementcount.sub(1);\n    }\n\n    \n    function addQualification(string memory _qERC721Name,string memory _org,bytes memory _encryptKey,uint256 _tokenid) public{\n        bytes32 hashqname = Utility._computeNamehash(_qERC721Name);\n        require(_orgRoleCheck(_org,msg.sender,ISSUE),\"WL14\");\n        require(qualificationList.contains(hashqname)==false,\"WL15\");\n        require(_hasqERC721Token(_org,hashqname,_tokenid,address(this)),\"WL16\");\n        qualificationList.add(hashqname);\n        qualificationNames[hashqname].prefix=_qERC721Name;\n        qualificationNames[hashqname].postfix=_org;\n        keystore[hashqname]=_encryptKey;\n    }\n    \n    function revokeQualification(string memory _qERC721Name,string memory _org,uint256 _tokenid,address _receiver) public{\n        bytes32 hashqname = Utility._computeNamehash(_qERC721Name);\n        require(_orgRoleCheck(_org,msg.sender,ISSUE),\"WL17\");\n        require(qualificationList.contains(hashqname),\"WL18\");\n        require(_hasqERC721Token(_org,hashqname,_tokenid,address(this)),\"WL19\");\n        require(keccak256(bytes(qualificationNames[hashqname].postfix))==keccak256(bytes(_org)),\"WL30\");\n        _withdrawERC721Token(_org,hashqname,_tokenid,_receiver);\n        qualificationList.remove(hashqname);\n        delete qualificationNames[hashqname];\n        delete keystore[hashqname];\n    }\n    \n    function updateQualification(string memory _qERC721Name,string memory _org,bytes memory _encryptKey,uint256 _tokenid) public{\n        bytes32 hashqname = Utility._computeNamehash(_qERC721Name);\n        require(_orgRoleCheck(_org,msg.sender,ISSUE),\"WL19\");\n        require(qualificationList.contains(hashqname),\"WL20\");\n        require(_hasqERC721Token(_org,hashqname,_tokenid,address(this)),\"WL21\");\n        keystore[hashqname]=_encryptKey;\n    }\n    \n    function getAttribute(bytes32 _key,string memory _org) public\n    returns(bytes memory,string memory)\n    {\n        \n        require(_orgRoleCheck(_org,msg.sender,VIEW)||msg.sender==owner(),\"WL25\");\n        require(attributeList.contains(_key),\"WL26\");\n        return (Attributes[_key].value,Attributes[_key].datatype);\n    }\n    \n    function length(string memory _org) public\n    returns(uint256)\n    {\n        require(_orgRoleCheck(_org,msg.sender,VIEW)||msg.sender==owner(),\"WL25\");\n        return attributeList.length();\n    }\n    \n    function getAttributeByIndex(string memory _org,uint256 _i) public\n    returns(bytes32,bytes memory,string memory)\n    {\n        require(_orgRoleCheck(_org,msg.sender,VIEW)||msg.sender==owner(),\"WL25\");\n        require(_i<attributeList.length(),\"WL27\");\n        bytes32 _key = attributeList.at(_i);\n        return (_key,Attributes[_key].value,Attributes[_key].datatype);\n    }\n    \n    function getEndorsement(bytes32 _key,string memory _org) public\n    returns(Endorse[] memory)\n    {\n        require(_orgRoleCheck(_org,msg.sender,VIEW)||msg.sender==owner(),\"WL25\");\n        Endorse[] memory list;\n        uint256 count = Attributes[_key].endorsementcount;\n        for(uint256 i=0;i<count;i++){\n            list[i]=Attributes[_key].endorsements[i];\n        }\n        return list;\n    }\n    \n    function getQualifications(string memory _org) public \n    returns(qualificationname[] memory)\n    {\n        require(_orgRoleCheck(_org,msg.sender,VIEW)||msg.sender==owner(),\"WL25\");\n        qualificationname [] memory list;\n        uint256 count = qualificationList.length();\n        for(uint256 i=0;i<count;i++){\n            list[i]=qualificationNames[qualificationList.at(i)];\n        }\n        return list;\n    }\n    \n    function getQualificationKey(bytes32 _key,string memory _org) public\n    returns(bytes memory)\n    {\n        require(_orgRoleCheck(_org,msg.sender,VIEW)||msg.sender==owner(),\"WL25\");\n        require(qualificationList.contains(_key));\n        return keystore[_key];\n    }\n    \n    function supportsInterface(bytes4 interfaceId) public view returns (bool) {\n        return interfaceId == Utility.INTERFACE_ID_WORKERLOGIC;\n    }\n    \n    \n    function _orgRoleCheck(string memory _org,address _caller,bytes32 _role) internal \n    returns(bool)\n    {\n        ENS ens = ENS(publicENSRegistar);\n        bytes32 namehash = Utility._computeNamehash(_org);\n        Resolver res = Resolver(ens.resolver(namehash));\n        require(res.addr(namehash)!=address(0) && res.supportsInterface(Utility.ORG_INTERFACE_ID),\"WL07\");\n        address orgENSAddress =  res.addr(namehash);\n        if(_role==ISSUE || _role==ENDORSE)\n            require(res.hasRole(namehash,_role),\"WL08\");\n        ENS orgENS = ENS(orgENSAddress);\n        bytes32 orgAccessENS = Utility._computeNamehash(orgENS.getPredefineENSPrefix(\"access\"));\n        res = Resolver(orgENS.resolver(orgAccessENS));\n        require(res.addr(orgAccessENS)!=address(0) && res.supportsInterface(Utility.ADDR_INTERFACE_ID),\"WL09\");\n        address orgAccessAdr = res.addr(orgAccessENS);\n        access = PermissionControl(orgAccessAdr);\n        return access.hasRole(_role,_caller);\n        \n    }\n    \n    function _pubAccessCheck(address _caller,bytes32 _role) internal \n    returns(bool)\n    {\n        ENS ens = ENS(publicENSRegistar);\n        bytes32 orgAccessENS = Utility._computeNamehash(ens.getPredefineENSPrefix(\"access\"));\n        Resolver res = Resolver(ens.resolver(orgAccessENS));\n        require(res.addr(orgAccessENS)!=address(0) && res.supportsInterface(Utility.ADDR_INTERFACE_ID),\"QL07\");\n        address orgAccessAdr = res.addr(orgAccessENS);\n        access = PermissionControl(orgAccessAdr);\n        return access.hasRole(_role,_caller);\n        \n    }\n    \n    \n    \n    function _hasqERC721Token(string memory _org,bytes32 _qERC721Name, uint256 _tokenid,address _owner) internal view\n    returns(bool)\n    {\n        bytes32 namehash = Utility._computeNamehash(_org);\n        ENS ens = ENS(publicENSRegistar);\n        Resolver res = Resolver(ens.resolver(namehash));\n        require(res.addr(namehash)!=address(0) && res.supportsInterface(Utility.ORG_INTERFACE_ID),\"WL07\");\n        address orgENSAddress =  res.addr(namehash);\n        ENS orgENS = ENS(orgENSAddress);\n        res = Resolver(orgENS.resolver(_qERC721Name));\n        require(res.addr(_qERC721Name)!=address(0) && res.supportsInterface(Utility.ADDR_INTERFACE_ID),\"WL09\");\n        ERC721 token = ERC721(res.addr(_qERC721Name));\n        return (token.ownerOf(_tokenid) == _owner);\n        \n    }\n    \n    \n    function _withdrawERC721Token(string memory _org,bytes32 _qERC721Name, uint256 _tokenid,address _receiver) internal\n    {\n        bytes32 namehash = Utility._computeNamehash(_org);\n        ENS ens = ENS(publicENSRegistar);\n        Resolver res = Resolver(ens.resolver(namehash));\n        require(res.addr(namehash)!=address(0) && res.supportsInterface(Utility.ORG_INTERFACE_ID),\"WL07\");\n        address orgENSAddress =  res.addr(namehash);\n        ENS orgENS = ENS(orgENSAddress);\n        res = Resolver(orgENS.resolver(_qERC721Name));\n        require(res.addr(_qERC721Name)!=address(0) && res.supportsInterface(Utility.ADDR_INTERFACE_ID),\"WL09\");\n        ERC721 token = ERC721(res.addr(_qERC721Name));\n        token.safeTransferFrom(address(this),_receiver,_tokenid);\n    }\n    \n    \n    function _verifyAttributeSignature(address _signer,bytes32 _key, bytes memory signature) internal view \n    returns (bool)\n    {\n        Attribute storage attr = Attributes[_key];\n        bytes32 datatosign = Utility._prefixed(keccak256(abi.encodePacked(owner(),_key,attr.value,attr.datatype,attr.createDate,attr.endorsementcount,address(this))));\n        datatosign = Utility._prefixed(datatosign);\n        return Utility._recoverSigner(datatosign, signature) == _signer;\n    }\n\n    \n}",
  "sourcePath": "/home/dickchan/CIC/contracts/AssetContract/IndividualProfile/WorkerProfileLogic.sol",
  "compiler": {
    "name": "solc",
    "version": "0.7.6+commit.7338295f.Emscripten.clang"
  },
  "schemaVersion": "3.2.3",
  "updatedAt": "2021-03-18T07:14:07.315Z",
  "devdoc": {
    "kind": "dev",
    "methods": {
      "owner()": {
        "details": "Returns the address of the current owner."
      },
      "renounceOwnership()": {
        "details": "Leaves the contract without owner. It will not be possible to call `onlyOwner` functions anymore. Can only be called by the current owner. NOTE: Renouncing ownership will leave the contract without an owner, thereby removing any functionality that is only available to the owner."
      },
      "transferOwnership(address)": {
        "details": "Transfers ownership of the contract to a new account (`newOwner`). Can only be called by the current owner."
      }
    },
    "version": 1
  },
  "userdoc": {
    "kind": "user",
    "methods": {},
    "version": 1
  }
}