{
  "contractName": "WorkerProfileProxy",
  "abi": [
    {
      "inputs": [
        {
          "internalType": "string",
          "name": "_imp",
          "type": "string"
        },
        {
          "internalType": "string",
          "name": "_attributelist",
          "type": "string"
        },
        {
          "internalType": "address",
          "name": "_ensaddress",
          "type": "address"
        }
      ],
      "stateMutability": "nonpayable",
      "type": "constructor"
    },
    {
      "anonymous": false,
      "inputs": [
        {
          "indexed": true,
          "internalType": "address",
          "name": "previousOwner",
          "type": "address"
        },
        {
          "indexed": true,
          "internalType": "address",
          "name": "newOwner",
          "type": "address"
        }
      ],
      "name": "OwnershipTransferred",
      "type": "event"
    },
    {
      "stateMutability": "payable",
      "type": "fallback"
    },
    {
      "inputs": [],
      "name": "owner",
      "outputs": [
        {
          "internalType": "address",
          "name": "",
          "type": "address"
        }
      ],
      "stateMutability": "view",
      "type": "function"
    },
    {
      "inputs": [],
      "name": "renounceOwnership",
      "outputs": [],
      "stateMutability": "nonpayable",
      "type": "function"
    },
    {
      "inputs": [
        {
          "internalType": "address",
          "name": "newOwner",
          "type": "address"
        }
      ],
      "name": "transferOwnership",
      "outputs": [],
      "stateMutability": "nonpayable",
      "type": "function"
    },
    {
      "inputs": [
        {
          "internalType": "string",
          "name": "_imp",
          "type": "string"
        }
      ],
      "name": "updateImplemetENSname",
      "outputs": [],
      "stateMutability": "nonpayable",
      "type": "function"
    },
    {
      "inputs": [
        {
          "internalType": "address",
          "name": "_ens",
          "type": "address"
        }
      ],
      "name": "updateENSAddress",
      "outputs": [],
      "stateMutability": "nonpayable",
      "type": "function"
    },
    {
      "inputs": [
        {
          "internalType": "string",
          "name": "_attributelist",
          "type": "string"
        }
      ],
      "name": "updateAttributeListENSname",
      "outputs": [],
      "stateMutability": "nonpayable",
      "type": "function"
    },
    {
      "inputs": [],
      "name": "getSystemPara",
      "outputs": [
        {
          "internalType": "string",
          "name": "",
          "type": "string"
        },
        {
          "internalType": "string",
          "name": "",
          "type": "string"
        },
        {
          "internalType": "address",
          "name": "",
          "type": "address"
        }
      ],
      "stateMutability": "nonpayable",
      "type": "function"
    },
    {
      "inputs": [
        {
          "internalType": "bytes4",
          "name": "interfaceId",
          "type": "bytes4"
        }
      ],
      "name": "supportsInterface",
      "outputs": [
        {
          "internalType": "bool",
          "name": "",
          "type": "bool"
        }
      ],
      "stateMutability": "view",
      "type": "function"
    },
    {
      "inputs": [],
      "name": "workerProfileProxy",
      "outputs": [],
      "stateMutability": "view",
      "type": "function"
    }
  ],
  "bytecode": "0x60806040523480156200001157600080fd5b50604051620036d1380380620036d1833981810160405260608110156200003757600080fd5b81019080805160405193929190846401000000008211156200005857600080fd5b838201915060208201858111156200006f57600080fd5b82518660018202830111640100000000821117156200008d57600080fd5b8083526020830192505050908051906020019080838360005b83811015620000c3578082015181840152602081019050620000a6565b50505050905090810190601f168015620000f15780820380516001836020036101000a031916815260200191505b50604052602001805160405193929190846401000000008211156200011557600080fd5b838201915060208201858111156200012c57600080fd5b82518660018202830111640100000000821117156200014a57600080fd5b8083526020830192505050908051906020019080838360005b838110156200018057808201518184015260208101905062000163565b50505050905090810190601f168015620001ae5780820380516001836020036101000a031916815260200191505b50604052602001805190602001909291905050506000620001d462000a9260201b60201c565b9050806000806101000a81548173ffffffffffffffffffffffffffffffffffffffff021916908373ffffffffffffffffffffffffffffffffffffffff1602179055508073ffffffffffffffffffffffffffffffffffffffff16600073ffffffffffffffffffffffffffffffffffffffff167f8be0079c531659141344cd1fd0a4f28419497f9722a3daafe3b4186f6b6457e060405160405180910390a3507fc5d2460186f7233c927e7db2dcc703c0e500b653ca82273b7bfad8045d85a470838051906020012014158015620002d75750600073ffffffffffffffffffffffffffffffffffffffff168173ffffffffffffffffffffffffffffffffffffffff1614155b80156200030b57507fc5d2460186f7233c927e7db2dcc703c0e500b653ca82273b7bfad8045d85a470828051906020012014155b6200037e576040517f08c379a00000000000000000000000000000000000000000000000000000000081526004018080602001828103825260048152602001807f575030310000000000000000000000000000000000000000000000000000000081525060200191505060405180910390fd5b6200039c81637d73b23160e01b62000a9a60201b620017bd1760201c565b6200040f576040517f08c379a00000000000000000000000000000000000000000000000000000000081526004018080602001828103825260048152602001807f575031310000000000000000000000000000000000000000000000000000000081525060200191505060405180910390fd5b80600360006101000a81548173ffffffffffffffffffffffffffffffffffffffff021916908373ffffffffffffffffffffffffffffffffffffffff160217905550600360009054906101000a900473ffffffffffffffffffffffffffffffffffffffff16600d60006101000a81548173ffffffffffffffffffffffffffffffffffffffff021916908373ffffffffffffffffffffffffffffffffffffffff1602179055506000620004cb8462000cb060201b620007671760201c565b90506000600d60009054906101000a900473ffffffffffffffffffffffffffffffffffffffff1673ffffffffffffffffffffffffffffffffffffffff16630178b8bf836040518263ffffffff1660e01b81526004018082815260200191505060206040518083038186803b1580156200054357600080fd5b505afa15801562000558573d6000803e3d6000fd5b505050506040513d60208110156200056f57600080fd5b810190808051906020019092919050505090506200062e8173ffffffffffffffffffffffffffffffffffffffff16633b3b57de846040518263ffffffff1660e01b81526004018082815260200191505060206040518083038186803b158015620005d857600080fd5b505afa158015620005ed573d6000803e3d6000fd5b505050506040513d60208110156200060457600080fd5b810190808051906020019092919050505063ae9fcec860e01b62000a9a60201b620017bd1760201c565b8015620006ec57508073ffffffffffffffffffffffffffffffffffffffff166301ffc9a7633b3b57de60e01b6040518263ffffffff1660e01b815260040180827bffffffffffffffffffffffffffffffffffffffffffffffffffffffff1916815260200191505060206040518083038186803b158015620006ae57600080fd5b505afa158015620006c3573d6000803e3d6000fd5b505050506040513d6020811015620006da57600080fd5b81019080805190602001909291905050505b6200075f576040517f08c379a00000000000000000000000000000000000000000000000000000000081526004018080602001828103825260048152602001807f575030320000000000000000000000000000000000000000000000000000000081525060200191505060405180910390fd5b84600290805190602001906200077792919062001216565b506200078e8462000cb060201b620007671760201c565b9150600d60009054906101000a900473ffffffffffffffffffffffffffffffffffffffff1673ffffffffffffffffffffffffffffffffffffffff16630178b8bf836040518263ffffffff1660e01b81526004018082815260200191505060206040518083038186803b1580156200080457600080fd5b505afa15801562000819573d6000803e3d6000fd5b505050506040513d60208110156200083057600080fd5b81019080805190602001909291905050509050620008ef8173ffffffffffffffffffffffffffffffffffffffff16633b3b57de846040518263ffffffff1660e01b81526004018082815260200191505060206040518083038186803b1580156200089957600080fd5b505afa158015620008ae573d6000803e3d6000fd5b505050506040513d6020811015620008c557600080fd5b8101908080519060200190929190505050633fe29da260e01b62000a9a60201b620017bd1760201c565b8015620009ad57508073ffffffffffffffffffffffffffffffffffffffff166301ffc9a7633b3b57de60e01b6040518263ffffffff1660e01b815260040180827bffffffffffffffffffffffffffffffffffffffffffffffffffffffff1916815260200191505060206040518083038186803b1580156200096f57600080fd5b505afa15801562000984573d6000803e3d6000fd5b505050506040513d60208110156200099b57600080fd5b81019080805190602001909291905050505b62000a20576040517f08c379a00000000000000000000000000000000000000000000000000000000081526004018080602001828103825260048152602001807f575030330000000000000000000000000000000000000000000000000000000081525060200191505060405180910390fd5b836001908051906020019062000a3892919062001216565b506040518060400160405280600381526020017f4e45570000000000000000000000000000000000000000000000000000000000815250600b908051906020019062000a8692919062001216565b505050505050620012e6565b600033905090565b6000808260405160240180827bffffffffffffffffffffffffffffffffffffffffffffffffffffffff191681526020019150506040516020818303038152906040527f01ffc9a7000000000000000000000000000000000000000000000000000000007bffffffffffffffffffffffffffffffffffffffffffffffffffffffff19166020820180517bffffffffffffffffffffffffffffffffffffffffffffffffffffffff838183161783525050505090506000808573ffffffffffffffffffffffffffffffffffffffff16836040518082805190602001908083835b6020831062000b9c578051825260208201915060208101905060208303925062000b77565b6001836020036101000a0380198251168184511680821785525050505050509050019150506000604051808303816000865af19150503d806000811462000c00576040519150601f19603f3d011682016040523d82523d6000602084013e62000c05565b606091505b50915091508162000c7e576040517f08c379a00000000000000000000000000000000000000000000000000000000081526004018080602001828103825260028152602001807f515400000000000000000000000000000000000000000000000000000000000081525060200191505060405180910390fd5b80806020019051602081101562000c9457600080fd5b8101908080519060200190929190505050935050505092915050565b6000806000801b9050600062000cd18462000edc60201b620019cd1760201c565b9050600062000d206040518060400160405280600181526020017f2e0000000000000000000000000000000000000000000000000000000000000081525062000edc60201b620019cd1760201c565b90506000600162000d40838562000f0c60201b620019fb1790919060201c565b0167ffffffffffffffff8111801562000d5857600080fd5b5060405190808252806020026020018201604052801562000d8e57816020015b606081526020019060019003908162000d785790505b50905060005b815181101562000df35762000dcd62000dbc848662000f9360201b62001a701790919060201c565b62000fb760201b62001a8a1760201c565b82828151811062000dda57fe5b6020026020010181905250808060010191505062000d94565b506000815190505b600081111562000ecf578482600183038151811062000e1657fe5b60200260200101516040516020018082805190602001908083835b6020831062000e56578051825260208201915060208101905060208303925062000e31565b6001836020036101000a03801982511681845116808217855250505050505090500191505060405160208183030381529060405280519060200120604051602001808381526020018281526020019250505060405160208183030381529060405280519060200120945080806001900391505062000dfb565b5083945050505050919050565b62000ee6620012ad565b600060208301905060405180604001604052808451815260200182815250915050919050565b600080826000015162000f3885600001518660200151866000015187602001516200103b60201b60201c565b0190505b8360000151846020015101811162000f8c578180600101925050826000015162000f838560200151830386600001510383866000015187602001516200103b60201b60201c565b01905062000f3c565b5092915050565b62000f9d620012ad565b62000fb08383836200112160201b60201c565b5092915050565b60606000826000015167ffffffffffffffff8111801562000fd757600080fd5b506040519080825280601f01601f1916602001820160405280156200100b5781602001600182028036833780820191505090505b5090506000602082019050620010318185602001518660000151620011cb60201b60201c565b8192505050919050565b6000808490506000868511620011115760208511620010c757600060018660200360080260020a031960001b905060008186511690506000878a8a0103905060008386511690505b828114620010b857818610620010a4578a8a01965050505050505062001119565b858060010196505083865116905062001083565b85965050505050505062001119565b60008585209050600091505b85880382116200110f576000868420905080821415620010fa578394505050505062001119565b600184019350508180600101925050620010d3565b505b868601925050505b949350505050565b6200112b620012ad565b60006200115185600001518660200151866000015187602001516200103b60201b60201c565b9050846020015183602001818152505084602001518103836000018181525050846000015185602001510181141562001195576000856000018181525050620011c0565b8360000151836000015101856000018181510391508181525050836000015181018560200181815250505b829150509392505050565b5b60208110620011f15781518352602083019250602082019150602081039050620011cc565b60006001826020036101000a0390508019835116818551168181178652505050505050565b828054600181600116156101000203166002900490600052602060002090601f0160209004810192826200124e57600085556200129a565b82601f106200126957805160ff19168380011785556200129a565b828001600101855582156200129a579182015b82811115620012995782518255916020019190600101906200127c565b5b509050620012a99190620012c7565b5090565b604051806040016040528060008152602001600081525090565b5b80821115620012e2576000816000905550600101620012c8565b5090565b6123db80620012f66000396000f3fe60806040526004361061008a5760003560e01c8063927cf64411610059578063927cf644146104cd578063c37412cf1461051e578063dfd270ac14610637578063f19b3c2b1461064e578063f2fde38b146107165761008b565b806301ffc9a71461033d578063715018a6146103ad5780637d311ec7146103c45780638da5cb5b1461048c5761008b565b5b600061013060028054600181600116156101000203166002900480601f0160208091040260200160405190810160405280929190818152602001828054600181600116156101000203166002900480156101265780601f106100fb57610100808354040283529160200191610126565b820191906000526020600020905b81548152906001019060200180831161010957829003601f168201915b5050505050610767565b90506000600d60009054906101000a900473ffffffffffffffffffffffffffffffffffffffff1673ffffffffffffffffffffffffffffffffffffffff16630178b8bf836040518263ffffffff1660e01b81526004018082815260200191505060206040518083038186803b1580156101a757600080fd5b505afa1580156101bb573d6000803e3d6000fd5b505050506040513d60208110156101d157600080fd5b8101908080519060200190929190505050905060008173ffffffffffffffffffffffffffffffffffffffff16633b3b57de846040518263ffffffff1660e01b81526004018082815260200191505060206040518083038186803b15801561023757600080fd5b505afa15801561024b573d6000803e3d6000fd5b505050506040513d602081101561026157600080fd5b81019080805190602001909291905050509050600073ffffffffffffffffffffffffffffffffffffffff168173ffffffffffffffffffffffffffffffffffffffff161415610317576040517f08c379a00000000000000000000000000000000000000000000000000000000081526004018080602001828103825260048152602001807f575030380000000000000000000000000000000000000000000000000000000081525060200191505060405180910390fd5b3660008037600080366000845af43d6000803e8060008114610338573d6000f35b3d6000fd5b34801561034957600080fd5b506103956004803603602081101561036057600080fd5b8101908080357bffffffffffffffffffffffffffffffffffffffffffffffffffffffff19169060200190929190505050610953565b60405180821515815260200191505060405180910390f35b3480156103b957600080fd5b506103c26109a4565b005b3480156103d057600080fd5b5061048a600480360360208110156103e757600080fd5b810190808035906020019064010000000081111561040457600080fd5b82018360208201111561041657600080fd5b8035906020019184600183028401116401000000008311171561043857600080fd5b91908080601f016020809104026020016040519081016040528093929190818152602001838380828437600081840152601f19601f820116905080830192505050505050509192919290505050610b11565b005b34801561049857600080fd5b506104a1610e53565b604051808273ffffffffffffffffffffffffffffffffffffffff16815260200191505060405180910390f35b3480156104d957600080fd5b5061051c600480360360208110156104f057600080fd5b81019080803573ffffffffffffffffffffffffffffffffffffffff169060200190929190505050610e7c565b005b34801561052a57600080fd5b50610533611045565b6040518080602001806020018473ffffffffffffffffffffffffffffffffffffffff168152602001838103835286818151815260200191508051906020019080838360005b83811015610593578082015181840152602081019050610578565b50505050905090810190601f1680156105c05780820380516001836020036101000a031916815260200191505b50838103825285818151815260200191508051906020019080838360005b838110156105f95780820151818401526020810190506105de565b50505050905090810190601f1680156106265780820380516001836020036101000a031916815260200191505b509550505050505060405180910390f35b34801561064357600080fd5b5061064c611287565b005b34801561065a57600080fd5b506107146004803603602081101561067157600080fd5b810190808035906020019064010000000081111561068e57600080fd5b8201836020820111156106a057600080fd5b803590602001918460018302840111640100000000831117156106c257600080fd5b91908080601f016020809104026020016040519081016040528093929190818152602001838380828437600081840152601f19601f820116905080830192505050505050509192919290505050611289565b005b34801561072257600080fd5b506107656004803603602081101561073957600080fd5b81019080803573ffffffffffffffffffffffffffffffffffffffff1690602001909291905050506115cb565b005b6000806000801b9050600061077b846119cd565b905060006107bd6040518060400160405280600181526020017f2e000000000000000000000000000000000000000000000000000000000000008152506119cd565b9050600060016107d683856119fb90919063ffffffff16565b0167ffffffffffffffff811180156107ed57600080fd5b5060405190808252806020026020018201604052801561082157816020015b606081526020019060019003908161080c5790505b50905060005b815181101561086f5761084b6108468486611a7090919063ffffffff16565b611a8a565b82828151811061085757fe5b60200260200101819052508080600101915050610827565b506000815190505b6000811115610946578482600183038151811061089057fe5b60200260200101516040516020018082805190602001908083835b602083106108ce57805182526020820191506020810190506020830392506108ab565b6001836020036101000a038019825116818451168082178552505050505050905001915050604051602081830303815290604052805190602001206040516020018083815260200182815260200192505050604051602081830303815290604052805190602001209450808060019003915050610877565b5083945050505050919050565b600063dfd270ac60e01b7bffffffffffffffffffffffffffffffffffffffffffffffffffffffff1916827bffffffffffffffffffffffffffffffffffffffffffffffffffffffff1916149050919050565b6109ac611b04565b73ffffffffffffffffffffffffffffffffffffffff166109ca610e53565b73ffffffffffffffffffffffffffffffffffffffff1614610a53576040517f08c379a00000000000000000000000000000000000000000000000000000000081526004018080602001828103825260208152602001807f4f776e61626c653a2063616c6c6572206973206e6f7420746865206f776e657281525060200191505060405180910390fd5b600073ffffffffffffffffffffffffffffffffffffffff1660008054906101000a900473ffffffffffffffffffffffffffffffffffffffff1673ffffffffffffffffffffffffffffffffffffffff167f8be0079c531659141344cd1fd0a4f28419497f9722a3daafe3b4186f6b6457e060405160405180910390a360008060006101000a81548173ffffffffffffffffffffffffffffffffffffffff021916908373ffffffffffffffffffffffffffffffffffffffff160217905550565b610b3e337fdf8b4c520ffe197c5343c6f5aec59570151ef9a492f2c624fd45ddde6135ec4260001b611b0c565b610bb0576040517f08c379a00000000000000000000000000000000000000000000000000000000081526004018080602001828103825260048152602001807f575031330000000000000000000000000000000000000000000000000000000081525060200191505060405180910390fd5b6000610bbb82610767565b90506000600d60009054906101000a900473ffffffffffffffffffffffffffffffffffffffff1673ffffffffffffffffffffffffffffffffffffffff16630178b8bf836040518263ffffffff1660e01b81526004018082815260200191505060206040518083038186803b158015610c3257600080fd5b505afa158015610c46573d6000803e3d6000fd5b505050506040513d6020811015610c5c57600080fd5b81019080805190602001909291905050509050610d0b8173ffffffffffffffffffffffffffffffffffffffff16633b3b57de846040518263ffffffff1660e01b81526004018082815260200191505060206040518083038186803b158015610cc357600080fd5b505afa158015610cd7573d6000803e3d6000fd5b505050506040513d6020811015610ced57600080fd5b8101908080519060200190929190505050633fe29da260e01b6117bd565b8015610dc557508073ffffffffffffffffffffffffffffffffffffffff166301ffc9a7633b3b57de60e01b6040518263ffffffff1660e01b815260040180827bffffffffffffffffffffffffffffffffffffffffffffffffffffffff1916815260200191505060206040518083038186803b158015610d8957600080fd5b505afa158015610d9d573d6000803e3d6000fd5b505050506040513d6020811015610db357600080fd5b81019080805190602001909291905050505b610e37576040517f08c379a00000000000000000000000000000000000000000000000000000000081526004018080602001828103825260048152602001807f575031340000000000000000000000000000000000000000000000000000000081525060200191505060405180910390fd5b8260019080519060200190610e4d9291906122ba565b50505050565b60008060009054906101000a900473ffffffffffffffffffffffffffffffffffffffff16905090565b610ea9337fdf8b4c520ffe197c5343c6f5aec59570151ef9a492f2c624fd45ddde6135ec4260001b611b0c565b610f1b576040517f08c379a00000000000000000000000000000000000000000000000000000000081526004018080602001828103825260048152602001807f575030370000000000000000000000000000000000000000000000000000000081525060200191505060405180910390fd5b610f2c81637d73b23160e01b6117bd565b610f9e576040517f08c379a00000000000000000000000000000000000000000000000000000000081526004018080602001828103825260048152602001807f575031310000000000000000000000000000000000000000000000000000000081525060200191505060405180910390fd5b80600360006101000a81548173ffffffffffffffffffffffffffffffffffffffff021916908373ffffffffffffffffffffffffffffffffffffffff160217905550600360009054906101000a900473ffffffffffffffffffffffffffffffffffffffff16600d60006101000a81548173ffffffffffffffffffffffffffffffffffffffff021916908373ffffffffffffffffffffffffffffffffffffffff16021790555050565b6060806000611077337f201105a52b842adfbcdcfcac0349cd25c8a3cb322954633dd585b0958aa204f360001b611b0c565b806110ab57506110aa337fdf8b4c520ffe197c5343c6f5aec59570151ef9a492f2c624fd45ddde6135ec4260001b611b0c565b5b61111d576040517f08c379a00000000000000000000000000000000000000000000000000000000081526004018080602001828103825260048152602001807f575030390000000000000000000000000000000000000000000000000000000081525060200191505060405180910390fd5b60026001600360009054906101000a900473ffffffffffffffffffffffffffffffffffffffff16828054600181600116156101000203166002900480601f0160208091040260200160405190810160405280929190818152602001828054600181600116156101000203166002900480156111d95780601f106111ae576101008083540402835291602001916111d9565b820191906000526020600020905b8154815290600101906020018083116111bc57829003601f168201915b50505050509250818054600181600116156101000203166002900480601f0160208091040260200160405190810160405280929190818152602001828054600181600116156101000203166002900480156112755780601f1061124a57610100808354040283529160200191611275565b820191906000526020600020905b81548152906001019060200180831161125857829003601f168201915b50505050509150925092509250909192565b565b6112b6337fdf8b4c520ffe197c5343c6f5aec59570151ef9a492f2c624fd45ddde6135ec4260001b611b0c565b611328576040517f08c379a00000000000000000000000000000000000000000000000000000000081526004018080602001828103825260048152602001807f575030360000000000000000000000000000000000000000000000000000000081525060200191505060405180910390fd5b600061133382610767565b90506000600d60009054906101000a900473ffffffffffffffffffffffffffffffffffffffff1673ffffffffffffffffffffffffffffffffffffffff16630178b8bf836040518263ffffffff1660e01b81526004018082815260200191505060206040518083038186803b1580156113aa57600080fd5b505afa1580156113be573d6000803e3d6000fd5b505050506040513d60208110156113d457600080fd5b810190808051906020019092919050505090506114838173ffffffffffffffffffffffffffffffffffffffff16633b3b57de846040518263ffffffff1660e01b81526004018082815260200191505060206040518083038186803b15801561143b57600080fd5b505afa15801561144f573d6000803e3d6000fd5b505050506040513d602081101561146557600080fd5b810190808051906020019092919050505063ae9fcec860e01b6117bd565b801561153d57508073ffffffffffffffffffffffffffffffffffffffff166301ffc9a7633b3b57de60e01b6040518263ffffffff1660e01b815260040180827bffffffffffffffffffffffffffffffffffffffffffffffffffffffff1916815260200191505060206040518083038186803b15801561150157600080fd5b505afa158015611515573d6000803e3d6000fd5b505050506040513d602081101561152b57600080fd5b81019080805190602001909291905050505b6115af576040517f08c379a00000000000000000000000000000000000000000000000000000000081526004018080602001828103825260048152602001807f575031320000000000000000000000000000000000000000000000000000000081525060200191505060405180910390fd5b82600290805190602001906115c59291906122ba565b50505050565b6115d3611b04565b73ffffffffffffffffffffffffffffffffffffffff166115f1610e53565b73ffffffffffffffffffffffffffffffffffffffff161461167a576040517f08c379a00000000000000000000000000000000000000000000000000000000081526004018080602001828103825260208152602001807f4f776e61626c653a2063616c6c6572206973206e6f7420746865206f776e657281525060200191505060405180910390fd5b600073ffffffffffffffffffffffffffffffffffffffff168173ffffffffffffffffffffffffffffffffffffffff161415611700576040517f08c379a00000000000000000000000000000000000000000000000000000000081526004018080602001828103825260268152602001806123806026913960400191505060405180910390fd5b8073ffffffffffffffffffffffffffffffffffffffff1660008054906101000a900473ffffffffffffffffffffffffffffffffffffffff1673ffffffffffffffffffffffffffffffffffffffff167f8be0079c531659141344cd1fd0a4f28419497f9722a3daafe3b4186f6b6457e060405160405180910390a3806000806101000a81548173ffffffffffffffffffffffffffffffffffffffff021916908373ffffffffffffffffffffffffffffffffffffffff16021790555050565b6000808260405160240180827bffffffffffffffffffffffffffffffffffffffffffffffffffffffff191681526020019150506040516020818303038152906040527f01ffc9a7000000000000000000000000000000000000000000000000000000007bffffffffffffffffffffffffffffffffffffffffffffffffffffffff19166020820180517bffffffffffffffffffffffffffffffffffffffffffffffffffffffff838183161783525050505090506000808573ffffffffffffffffffffffffffffffffffffffff16836040518082805190602001908083835b602083106118bd578051825260208201915060208101905060208303925061189a565b6001836020036101000a0380198251168184511680821785525050505050509050019150506000604051808303816000865af19150503d806000811461191f576040519150601f19603f3d011682016040523d82523d6000602084013e611924565b606091505b50915091508161199c576040517f08c379a00000000000000000000000000000000000000000000000000000000081526004018080602001828103825260028152602001807f515400000000000000000000000000000000000000000000000000000000000081525060200191505060405180910390fd5b8080602001905160208110156119b157600080fd5b8101908080519060200190929190505050935050505092915050565b6119d5612348565b600060208301905060405180604001604052808451815260200182815250915050919050565b6000808260000151611a1f85600001518660200151866000015187602001516120f8565b0190505b83600001518460200151018111611a695781806001019250508260000151611a618560200151830386600001510383866000015187602001516120f8565b019050611a23565b5092915050565b611a78612348565b611a838383836121d3565b5092915050565b60606000826000015167ffffffffffffffff81118015611aa957600080fd5b506040519080825280601f01601f191660200182016040528015611adc5781602001600182028036833780820191505090505b5090506000602082019050611afa8185602001518660000151612271565b8192505050919050565b600033905090565b600080611cb4600d60009054906101000a900473ffffffffffffffffffffffffffffffffffffffff1673ffffffffffffffffffffffffffffffffffffffff1663154c0d786040518163ffffffff1660e01b81526004018080602001828103825260068152602001807f616363657373000000000000000000000000000000000000000000000000000081525060200191505060006040518083038186803b158015611bb657600080fd5b505afa158015611bca573d6000803e3d6000fd5b505050506040513d6000823e3d601f19601f820116820180604052506020811015611bf457600080fd5b8101908080516040519392919084640100000000821115611c1457600080fd5b83820191506020820185811115611c2a57600080fd5b8251866001820283011164010000000082111715611c4757600080fd5b8083526020830192505050908051906020019080838360005b83811015611c7b578082015181840152602081019050611c60565b50505050905090810190601f168015611ca85780820380516001836020036101000a031916815260200191505b50604052505050610767565b90506000600d60009054906101000a900473ffffffffffffffffffffffffffffffffffffffff1673ffffffffffffffffffffffffffffffffffffffff16630178b8bf836040518263ffffffff1660e01b81526004018082815260200191505060206040518083038186803b158015611d2b57600080fd5b505afa158015611d3f573d6000803e3d6000fd5b505050506040513d6020811015611d5557600080fd5b81019080805190602001909291905050509050600073ffffffffffffffffffffffffffffffffffffffff168173ffffffffffffffffffffffffffffffffffffffff16633b3b57de846040518263ffffffff1660e01b81526004018082815260200191505060206040518083038186803b158015611dd157600080fd5b505afa158015611de5573d6000803e3d6000fd5b505050506040513d6020811015611dfb57600080fd5b810190808051906020019092919050505073ffffffffffffffffffffffffffffffffffffffff1614158015611ede57508073ffffffffffffffffffffffffffffffffffffffff166301ffc9a7633b3b57de60e01b6040518263ffffffff1660e01b815260040180827bffffffffffffffffffffffffffffffffffffffffffffffffffffffff1916815260200191505060206040518083038186803b158015611ea257600080fd5b505afa158015611eb6573d6000803e3d6000fd5b505050506040513d6020811015611ecc57600080fd5b81019080805190602001909291905050505b611f50576040517f08c379a00000000000000000000000000000000000000000000000000000000081526004018080602001828103825260048152602001807f514c30370000000000000000000000000000000000000000000000000000000081525060200191505060405180910390fd5b60008173ffffffffffffffffffffffffffffffffffffffff16633b3b57de846040518263ffffffff1660e01b81526004018082815260200191505060206040518083038186803b158015611fa357600080fd5b505afa158015611fb7573d6000803e3d6000fd5b505050506040513d6020811015611fcd57600080fd5b8101908080519060200190929190505050905080600c60006101000a81548173ffffffffffffffffffffffffffffffffffffffff021916908373ffffffffffffffffffffffffffffffffffffffff160217905550600c60009054906101000a900473ffffffffffffffffffffffffffffffffffffffff1673ffffffffffffffffffffffffffffffffffffffff166391d1485486886040518363ffffffff1660e01b8152600401808381526020018273ffffffffffffffffffffffffffffffffffffffff1681526020019250505060206040518083038186803b1580156120b257600080fd5b505afa1580156120c6573d6000803e3d6000fd5b505050506040513d60208110156120dc57600080fd5b8101908080519060200190929190505050935050505092915050565b60008084905060008685116121c3576020851161217d57600060018660200360080260020a031960001b905060008186511690506000878a8a0103905060008386511690505b82811461216f5781861061215c578a8a0196505050505050506121cb565b858060010196505083865116905061213e565b8596505050505050506121cb565b60008585209050600091505b85880382116121c15760008684209050808214156121ad57839450505050506121cb565b600184019350508180600101925050612189565b505b868601925050505b949350505050565b6121db612348565b60006121f985600001518660200151866000015187602001516120f8565b9050846020015183602001818152505084602001518103836000018181525050846000015185602001510181141561223b576000856000018181525050612266565b8360000151836000015101856000018181510391508181525050836000015181018560200181815250505b829150509392505050565b5b602081106122955781518352602083019250602082019150602081039050612272565b60006001826020036101000a0390508019835116818551168181178652505050505050565b828054600181600116156101000203166002900490600052602060002090601f0160209004810192826122f05760008555612337565b82601f1061230957805160ff1916838001178555612337565b82800160010185558215612337579182015b8281111561233657825182559160200191906001019061231b565b5b5090506123449190612362565b5090565b604051806040016040528060008152602001600081525090565b5b8082111561237b576000816000905550600101612363565b509056fe4f776e61626c653a206e6577206f776e657220697320746865207a65726f2061646472657373a2646970667358221220a3072a6dcd53dfa006023758419c527f059acee98afb971ed1f8f1f5f3a1bb7564736f6c63430007060033",
  "immutableReferences": {},
  "source": "pragma solidity >=0.7.0;\n// SPDX-License-Identifier: GPL-3.0-or-later\nimport \"./WorkerProfileDS.sol\";\nimport \"../../Utils/ENS.sol\";\nimport \"../../Utils/Resolver.sol\";\nimport \"../../Utils/Library.sol\";\nimport \"../../Utils/Roles.sol\";\n\n\ncontract WorkerProfileProxy is WorkerProfileDS,Roles {\n    using Address for address;\n    using SafeMath for uint256;\n    \n    bytes4 constant private ADDR_INTERFACE_ID = 0x3b3b57de;\n    ENS ens;\n    \n    constructor(string memory  _imp,string memory _attributelist, address _ensaddress)  {\n        \n        require(keccak256(bytes(_imp))!=keccak256(\"\") && _ensaddress !=address(0) &&  keccak256(bytes(_attributelist)) !=keccak256(\"\"),\"WP01\");\n        require(Utility._checkInterfaceID(_ensaddress,Utility.INTERFACE_ID_ENSREGISTRY),\"WP11\");\n        publicENSRegistar = _ensaddress;\n        ens = ENS(publicENSRegistar);\n        \n        bytes32 hashname = Utility._computeNamehash(_imp);\n        Resolver res = Resolver(ens.resolver(hashname));\n        require(Utility._checkInterfaceID(res.addr(hashname),Utility.INTERFACE_ID_WORKERLOGIC) && res.supportsInterface(ADDR_INTERFACE_ID),\"WP02\");\n        profileLogicENSName = _imp;\n        \n        hashname = Utility._computeNamehash(_attributelist);\n        res = Resolver(ens.resolver(hashname));\n        require(Utility._checkInterfaceID(res.addr(hashname),Utility.INTERFACE_ID_ATTRIBUTELIST) && res.supportsInterface(ADDR_INTERFACE_ID),\"WP03\");\n        attributeListENS = _attributelist;\n        \n        status=\"NEW\";\n    }\n    \n    function updateImplemetENSname(string memory _imp) public {\n        require(_pubAccessCheck(msg.sender,ADMIN),\"WP06\");\n        bytes32 hashname = Utility._computeNamehash(_imp);\n        Resolver res = Resolver(ens.resolver(hashname));\n        require(Utility._checkInterfaceID(res.addr(hashname),Utility.INTERFACE_ID_WORKERLOGIC) && res.supportsInterface(ADDR_INTERFACE_ID),\"WP12\");\n        profileLogicENSName = _imp;\n    }\n    \n    function updateENSAddress(address _ens) public {\n        require(_pubAccessCheck(msg.sender,ADMIN),\"WP07\");\n        require(Utility._checkInterfaceID(_ens,Utility.INTERFACE_ID_ENSREGISTRY),\"WP11\");\n        publicENSRegistar = _ens;\n        ens = ENS(publicENSRegistar);\n    }\n    \n    function updateAttributeListENSname(string memory _attributelist) public {\n        require(_pubAccessCheck(msg.sender,ADMIN),\"WP13\");\n        bytes32 hashname = Utility._computeNamehash(_attributelist);\n        Resolver res = Resolver(ens.resolver(hashname));\n        require(Utility._checkInterfaceID(res.addr(hashname),Utility.INTERFACE_ID_ATTRIBUTELIST) && res.supportsInterface(ADDR_INTERFACE_ID),\"WP14\");\n        attributeListENS = _attributelist;\n    }\n    \n    function getSystemPara() public\n    returns(string memory,string memory,address)\n    {\n        require(_pubAccessCheck(msg.sender,VIEW)||_pubAccessCheck(msg.sender,ADMIN),\"WP09\");\n        return (profileLogicENSName,attributeListENS,publicENSRegistar);\n    }\n    \n    function supportsInterface(bytes4 interfaceId) public view returns (bool) {\n        return interfaceId == Utility.INTERFACE_ID_WORKERPROFILE;\n    }\n    \n \n    \n    fallback() external payable  {\n       bytes32 namehash = Utility._computeNamehash(profileLogicENSName);\n       Resolver res = Resolver(ens.resolver(namehash));\n       address _impl =res.addr(namehash);\n       require(_impl != address(0),\"WP08\");\n       assembly {\n                calldatacopy(0, 0, calldatasize())\n                let result := delegatecall(gas(), _impl, 0, calldatasize(), 0, 0)\n                returndatacopy(0, 0, returndatasize())\n                switch result\n                case 0 { revert(0, returndatasize()) }\n                default { return(0, returndatasize()) }\n                \n            }\n    }\n    \n\n    \n    function _pubAccessCheck(address _caller,bytes32 _role) internal \n    returns(bool)\n    {\n        bytes32 orgAccessENS = Utility._computeNamehash(ens.getPredefineENSPrefix(\"access\"));\n        Resolver res = Resolver(ens.resolver(orgAccessENS));\n        require(res.addr(orgAccessENS)!=address(0) && res.supportsInterface(Utility.ADDR_INTERFACE_ID),\"QL07\");\n        address orgAccessAdr = res.addr(orgAccessENS);\n        access = PermissionControl(orgAccessAdr);\n        return access.hasRole(_role,_caller);\n        \n    }\n\n    \n    function workerProfileProxy() public view {}\n}",
  "sourcePath": "/home/dickchan/CIC/contracts/AssetContract/IndividualProfile/WorkerProfileProxy.sol",
  "compiler": {
    "name": "solc",
    "version": "0.7.6+commit.7338295f.Emscripten.clang"
  },
  "schemaVersion": "3.2.3",
  "updatedAt": "2021-03-18T07:14:07.340Z",
  "devdoc": {
    "kind": "dev",
    "methods": {
      "owner()": {
        "details": "Returns the address of the current owner."
      },
      "renounceOwnership()": {
        "details": "Leaves the contract without owner. It will not be possible to call `onlyOwner` functions anymore. Can only be called by the current owner. NOTE: Renouncing ownership will leave the contract without an owner, thereby removing any functionality that is only available to the owner."
      },
      "transferOwnership(address)": {
        "details": "Transfers ownership of the contract to a new account (`newOwner`). Can only be called by the current owner."
      }
    },
    "version": 1
  },
  "userdoc": {
    "kind": "user",
    "methods": {},
    "version": 1
  }
}